{
  "_format": "hh-sol-artifact-1",
  "contractName": "BandoERC20FulfillableV1",
  "sourceName": "contracts/BandoERC20FulfillableV1.sol",
  "abi": [
    {
      "inputs": [
        {
          "internalType": "address payable",
          "name": "beneficiary_",
          "type": "address"
        },
        {
          "internalType": "uint256",
          "name": "serviceIdentifier_",
          "type": "uint256"
        },
        {
          "internalType": "address",
          "name": "router_",
          "type": "address"
        },
        {
          "internalType": "address",
          "name": "fulfiller_",
          "type": "address"
        }
      ],
      "stateMutability": "nonpayable",
      "type": "constructor"
    },
    {
      "inputs": [
        {
          "internalType": "address",
          "name": "target",
          "type": "address"
        }
      ],
      "name": "AddressEmptyCode",
      "type": "error"
    },
    {
      "inputs": [
        {
          "internalType": "address",
          "name": "account",
          "type": "address"
        }
      ],
      "name": "AddressInsufficientBalance",
      "type": "error"
    },
    {
      "inputs": [],
      "name": "FailedInnerCall",
      "type": "error"
    },
    {
      "inputs": [
        {
          "internalType": "address",
          "name": "token",
          "type": "address"
        }
      ],
      "name": "SafeERC20FailedOperation",
      "type": "error"
    },
    {
      "anonymous": false,
      "inputs": [
        {
          "components": [
            {
              "internalType": "uint256",
              "name": "id",
              "type": "uint256"
            },
            {
              "internalType": "string",
              "name": "serviceRef",
              "type": "string"
            },
            {
              "internalType": "address",
              "name": "fulfiller",
              "type": "address"
            },
            {
              "internalType": "address",
              "name": "token",
              "type": "address"
            },
            {
              "internalType": "string",
              "name": "externalID",
              "type": "string"
            },
            {
              "internalType": "address",
              "name": "payer",
              "type": "address"
            },
            {
              "internalType": "uint256",
              "name": "tokenAmount",
              "type": "uint256"
            },
            {
              "internalType": "uint256",
              "name": "feeAmount",
              "type": "uint256"
            },
            {
              "internalType": "uint256",
              "name": "fiatAmount",
              "type": "uint256"
            },
            {
              "internalType": "uint256",
              "name": "entryTime",
              "type": "uint256"
            },
            {
              "internalType": "string",
              "name": "receiptURI",
              "type": "string"
            },
            {
              "internalType": "enum FulFillmentResultState",
              "name": "status",
              "type": "uint8"
            }
          ],
          "indexed": false,
          "internalType": "struct ERC20FulFillmentRecord",
          "name": "record",
          "type": "tuple"
        }
      ],
      "name": "DepositReceived",
      "type": "event"
    },
    {
      "anonymous": false,
      "inputs": [
        {
          "indexed": false,
          "internalType": "uint256",
          "name": "serviceID",
          "type": "uint256"
        },
        {
          "indexed": false,
          "internalType": "uint256",
          "name": "amount",
          "type": "uint256"
        }
      ],
      "name": "FeeUpdated",
      "type": "event"
    },
    {
      "anonymous": false,
      "inputs": [
        {
          "indexed": true,
          "internalType": "address",
          "name": "payee",
          "type": "address"
        },
        {
          "indexed": false,
          "internalType": "uint256",
          "name": "weiAmount",
          "type": "uint256"
        }
      ],
      "name": "RefundAuthorized",
      "type": "event"
    },
    {
      "anonymous": false,
      "inputs": [
        {
          "indexed": false,
          "internalType": "address",
          "name": "token",
          "type": "address"
        },
        {
          "indexed": true,
          "internalType": "address",
          "name": "payee",
          "type": "address"
        },
        {
          "indexed": false,
          "internalType": "uint256",
          "name": "weiAmount",
          "type": "uint256"
        }
      ],
      "name": "RefundWithdrawn",
      "type": "event"
    },
    {
      "inputs": [],
      "name": "beneficiary",
      "outputs": [
        {
          "internalType": "address payable",
          "name": "",
          "type": "address"
        }
      ],
      "stateMutability": "view",
      "type": "function"
    },
    {
      "inputs": [
        {
          "internalType": "address",
          "name": "token",
          "type": "address"
        }
      ],
      "name": "beneficiaryWithdraw",
      "outputs": [],
      "stateMutability": "nonpayable",
      "type": "function"
    },
    {
      "inputs": [
        {
          "components": [
            {
              "internalType": "address",
              "name": "payer",
              "type": "address"
            },
            {
              "internalType": "address",
              "name": "token",
              "type": "address"
            },
            {
              "internalType": "uint256",
              "name": "tokenAmount",
              "type": "uint256"
            },
            {
              "internalType": "uint256",
              "name": "fiatAmount",
              "type": "uint256"
            },
            {
              "internalType": "string",
              "name": "serviceRef",
              "type": "string"
            }
          ],
          "internalType": "struct ERC20FulFillmentRequest",
          "name": "fulfillmentRequest",
          "type": "tuple"
        }
      ],
      "name": "depositERC20",
      "outputs": [],
      "stateMutability": "nonpayable",
      "type": "function"
    },
    {
      "inputs": [
        {
          "internalType": "address",
          "name": "token",
          "type": "address"
        },
        {
          "internalType": "address",
          "name": "payer",
          "type": "address"
        }
      ],
      "name": "depositsOf",
      "outputs": [
        {
          "internalType": "uint256",
          "name": "",
          "type": "uint256"
        }
      ],
      "stateMutability": "view",
      "type": "function"
    },
    {
      "inputs": [],
      "name": "fulfiller",
      "outputs": [
        {
          "internalType": "address",
          "name": "",
          "type": "address"
        }
      ],
      "stateMutability": "view",
      "type": "function"
    },
    {
      "inputs": [
        {
          "internalType": "uint256",
          "name": "id",
          "type": "uint256"
        }
      ],
      "name": "record",
      "outputs": [
        {
          "components": [
            {
              "internalType": "uint256",
              "name": "id",
              "type": "uint256"
            },
            {
              "internalType": "string",
              "name": "serviceRef",
              "type": "string"
            },
            {
              "internalType": "address",
              "name": "fulfiller",
              "type": "address"
            },
            {
              "internalType": "address",
              "name": "token",
              "type": "address"
            },
            {
              "internalType": "string",
              "name": "externalID",
              "type": "string"
            },
            {
              "internalType": "address",
              "name": "payer",
              "type": "address"
            },
            {
              "internalType": "uint256",
              "name": "tokenAmount",
              "type": "uint256"
            },
            {
              "internalType": "uint256",
              "name": "feeAmount",
              "type": "uint256"
            },
            {
              "internalType": "uint256",
              "name": "fiatAmount",
              "type": "uint256"
            },
            {
              "internalType": "uint256",
              "name": "entryTime",
              "type": "uint256"
            },
            {
              "internalType": "string",
              "name": "receiptURI",
              "type": "string"
            },
            {
              "internalType": "enum FulFillmentResultState",
              "name": "status",
              "type": "uint8"
            }
          ],
          "internalType": "struct ERC20FulFillmentRecord",
          "name": "",
          "type": "tuple"
        }
      ],
      "stateMutability": "view",
      "type": "function"
    },
    {
      "inputs": [
        {
          "internalType": "address",
          "name": "payer",
          "type": "address"
        }
      ],
      "name": "recordsOf",
      "outputs": [
        {
          "internalType": "uint256[]",
          "name": "",
          "type": "uint256[]"
        }
      ],
      "stateMutability": "view",
      "type": "function"
    },
    {
      "inputs": [
        {
          "components": [
            {
              "internalType": "uint256",
              "name": "id",
              "type": "uint256"
            },
            {
              "internalType": "string",
              "name": "externalID",
              "type": "string"
            },
            {
              "internalType": "string",
              "name": "receiptURI",
              "type": "string"
            },
            {
              "internalType": "enum FulFillmentResultState",
              "name": "status",
              "type": "uint8"
            }
          ],
          "internalType": "struct FulFillmentResult",
          "name": "fulfillment",
          "type": "tuple"
        }
      ],
      "name": "registerFulfillment",
      "outputs": [
        {
          "internalType": "bool",
          "name": "",
          "type": "bool"
        }
      ],
      "stateMutability": "nonpayable",
      "type": "function"
    },
    {
      "inputs": [],
      "name": "serviceID",
      "outputs": [
        {
          "internalType": "uint256",
          "name": "",
          "type": "uint256"
        }
      ],
      "stateMutability": "view",
      "type": "function"
    },
    {
      "inputs": [
        {
          "internalType": "address",
          "name": "token",
          "type": "address"
        },
        {
          "internalType": "uint256",
          "name": "amount",
          "type": "uint256"
        }
      ],
      "name": "setERC20Fee",
      "outputs": [],
      "stateMutability": "nonpayable",
      "type": "function"
    },
    {
      "inputs": [
        {
          "internalType": "address",
          "name": "token",
          "type": "address"
        },
        {
          "internalType": "address",
          "name": "refundee",
          "type": "address"
        }
      ],
      "name": "withdrawERC20Refund",
      "outputs": [
        {
          "internalType": "bool",
          "name": "",
          "type": "bool"
        }
      ],
      "stateMutability": "nonpayable",
      "type": "function"
    }
  ],
  "bytecode": "0x60806040523480156200001157600080fd5b5060405162003ded38038062003ded8339818101604052810190620000379190620002f6565b600073ffffffffffffffffffffffffffffffffffffffff168473ffffffffffffffffffffffffffffffffffffffff1603620000a9576040517f08c379a0000000000000000000000000000000000000000000000000000000008152600401620000a090620003c9565b60405180910390fd5b60008311620000ef576040517f08c379a0000000000000000000000000000000000000000000000000000000008152600401620000e6906200043b565b60405180910390fd5b83600460006101000a81548173ffffffffffffffffffffffffffffffffffffffff021916908373ffffffffffffffffffffffffffffffffffffffff16021790555082600a8190555080600560006101000a81548173ffffffffffffffffffffffffffffffffffffffff021916908373ffffffffffffffffffffffffffffffffffffffff16021790555033600660006101000a81548173ffffffffffffffffffffffffffffffffffffffff021916908373ffffffffffffffffffffffffffffffffffffffff16021790555081600760006101000a81548173ffffffffffffffffffffffffffffffffffffffff021916908373ffffffffffffffffffffffffffffffffffffffff1602179055506001600081905550505050506200045d565b600080fd5b600073ffffffffffffffffffffffffffffffffffffffff82169050919050565b60006200023e8262000211565b9050919050565b620002508162000231565b81146200025c57600080fd5b50565b600081519050620002708162000245565b92915050565b6000819050919050565b6200028b8162000276565b81146200029757600080fd5b50565b600081519050620002ab8162000280565b92915050565b6000620002be8262000211565b9050919050565b620002d081620002b1565b8114620002dc57600080fd5b50565b600081519050620002f081620002c5565b92915050565b600080600080608085870312156200031357620003126200020c565b5b600062000323878288016200025f565b945050602062000336878288016200029a565b93505060406200034987828801620002df565b92505060606200035c87828801620002df565b91505092959194509250565b600082825260208201905092915050565b7f42656e656669636961727920697320746865207a65726f206164647265737300600082015250565b6000620003b1601f8362000368565b9150620003be8262000379565b602082019050919050565b60006020820190508181036000830152620003e481620003a2565b9050919050565b7f5365727669636520494420697320726571756972656400000000000000000000600082015250565b60006200042360168362000368565b91506200043082620003eb565b602082019050919050565b60006020820190508181036000830152620004568162000414565b9050919050565b613980806200046d6000396000f3fe608060405234801561001057600080fd5b50600436106100a95760003560e01c80638736904b116100715780638736904b14610152578063ae6ca58d14610182578063bf583522146101b2578063e5b7e2b4146101ce578063e763ca16146101fe578063f4b860231461022e576100a9565b80632a9565f9146100ae5780632c16cd8a146100ca57806334a4b877146100fa57806338af3eed146101185780635b7e340514610136575b600080fd5b6100c860048036038101906100c39190612464565b61024c565b005b6100e460048036038101906100df91906124a4565b61035f565b6040516100f19190612708565b60405180910390f35b6101026106b2565b60405161010f9190612739565b60405180910390f35b6101206106bc565b60405161012d9190612775565b60405180910390f35b610150600480360381019061014b9190612790565b6106e6565b005b61016c600480360381019061016791906127bd565b6108cc565b6040516101799190612818565b60405180910390f35b61019c60048036038101906101979190612a47565b610b36565b6040516101a99190612818565b60405180910390f35b6101cc60048036038101906101c79190612b38565b61131f565b005b6101e860048036038101906101e39190612790565b611910565b6040516101f59190612c30565b60405180910390f35b610218600480360381019061021391906127bd565b6119a7565b6040516102259190612739565b60405180910390f35b610236611a2e565b6040516102439190612c61565b60405180910390f35b3373ffffffffffffffffffffffffffffffffffffffff16600660009054906101000a900473ffffffffffffffffffffffffffffffffffffffff1673ffffffffffffffffffffffffffffffffffffffff16146102dc576040517f08c379a00000000000000000000000000000000000000000000000000000000081526004016102d390612cd9565b60405180910390fd5b80600b60008473ffffffffffffffffffffffffffffffffffffffff1673ffffffffffffffffffffffffffffffffffffffff168152602001908152602001600020819055507f528d9479e9f9889a87a3c30c7f7ba537e5e59c4c85a37733b16e57c62df61302600a5482604051610353929190612cf9565b60405180910390a15050565b610367612307565b6001600083815260200190815260200160002060405180610180016040529081600082015481526020016001820180546103a090612d51565b80601f01602080910402602001604051908101604052809291908181526020018280546103cc90612d51565b80156104195780601f106103ee57610100808354040283529160200191610419565b820191906000526020600020905b8154815290600101906020018083116103fc57829003601f168201915b505050505081526020016002820160009054906101000a900473ffffffffffffffffffffffffffffffffffffffff1673ffffffffffffffffffffffffffffffffffffffff1673ffffffffffffffffffffffffffffffffffffffff1681526020016003820160009054906101000a900473ffffffffffffffffffffffffffffffffffffffff1673ffffffffffffffffffffffffffffffffffffffff1673ffffffffffffffffffffffffffffffffffffffff1681526020016004820180546104de90612d51565b80601f016020809104026020016040519081016040528092919081815260200182805461050a90612d51565b80156105575780601f1061052c57610100808354040283529160200191610557565b820191906000526020600020905b81548152906001019060200180831161053a57829003601f168201915b505050505081526020016005820160009054906101000a900473ffffffffffffffffffffffffffffffffffffffff1673ffffffffffffffffffffffffffffffffffffffff1673ffffffffffffffffffffffffffffffffffffffff16815260200160068201548152602001600782015481526020016008820154815260200160098201548152602001600a820180546105ee90612d51565b80601f016020809104026020016040519081016040528092919081815260200182805461061a90612d51565b80156106675780601f1061063c57610100808354040283529160200191610667565b820191906000526020600020905b81548152906001019060200180831161064a57829003601f168201915b50505050508152602001600b820160009054906101000a900460ff1660028111156106955761069461257f565b5b60028111156106a7576106a661257f565b5b815250509050919050565b6000600a54905090565b6000600460009054906101000a900473ffffffffffffffffffffffffffffffffffffffff16905090565b3373ffffffffffffffffffffffffffffffffffffffff16600660009054906101000a900473ffffffffffffffffffffffffffffffffffffffff1673ffffffffffffffffffffffffffffffffffffffff1614610776576040517f08c379a000000000000000000000000000000000000000000000000000000000815260040161076d90612cd9565b60405180910390fd5b6000600c60008373ffffffffffffffffffffffffffffffffffffffff1673ffffffffffffffffffffffffffffffffffffffff16815260200190815260200160002054116107f8576040517f08c379a00000000000000000000000000000000000000000000000000000000081526004016107ef90612dce565b60405180910390fd5b6000600c60008373ffffffffffffffffffffffffffffffffffffffff1673ffffffffffffffffffffffffffffffffffffffff168152602001908152602001600020819055506108c9600460009054906101000a900473ffffffffffffffffffffffffffffffffffffffff16600c60008473ffffffffffffffffffffffffffffffffffffffff1673ffffffffffffffffffffffffffffffffffffffff168152602001908152602001600020548373ffffffffffffffffffffffffffffffffffffffff16611a589092919063ffffffff16565b50565b60003373ffffffffffffffffffffffffffffffffffffffff16600660009054906101000a900473ffffffffffffffffffffffffffffffffffffffff1673ffffffffffffffffffffffffffffffffffffffff161461095e576040517f08c379a000000000000000000000000000000000000000000000000000000000815260040161095590612cd9565b60405180910390fd5b6000600960008573ffffffffffffffffffffffffffffffffffffffff1673ffffffffffffffffffffffffffffffffffffffff16815260200190815260200160002060008473ffffffffffffffffffffffffffffffffffffffff1673ffffffffffffffffffffffffffffffffffffffff1681526020019081526020016000205411610a1d576040517f08c379a0000000000000000000000000000000000000000000000000000000008152600401610a1490612e60565b60405180910390fd5b6000600960008573ffffffffffffffffffffffffffffffffffffffff1673ffffffffffffffffffffffffffffffffffffffff16815260200190815260200160002060008473ffffffffffffffffffffffffffffffffffffffff1673ffffffffffffffffffffffffffffffffffffffff168152602001908152602001600020549050610aa9848483611ad7565b6000600960008673ffffffffffffffffffffffffffffffffffffffff1673ffffffffffffffffffffffffffffffffffffffff16815260200190815260200160002060008573ffffffffffffffffffffffffffffffffffffffff1673ffffffffffffffffffffffffffffffffffffffff16815260200190815260200160002081905550600191505092915050565b60003373ffffffffffffffffffffffffffffffffffffffff16600660009054906101000a900473ffffffffffffffffffffffffffffffffffffffff1673ffffffffffffffffffffffffffffffffffffffff1614610bc8576040517f08c379a0000000000000000000000000000000000000000000000000000000008152600401610bbf90612cd9565b60405180910390fd5b600060016000846000015181526020019081526020016000206000015411610c25576040517f08c379a0000000000000000000000000000000000000000000000000000000008152600401610c1c90612ef2565b60405180910390fd5b600280811115610c3857610c3761257f565b5b6001600084600001518152602001908152602001600020600b0160009054906101000a900460ff166002811115610c7257610c7161257f565b5b14610cb2576040517f08c379a0000000000000000000000000000000000000000000000000000000008152600401610ca990612f5e565b60405180910390fd5b6000600160008460000151815260200190815260200160002060030160009054906101000a900473ffffffffffffffffffffffffffffffffffffffff169050600080610d60600b60008573ffffffffffffffffffffffffffffffffffffffff1673ffffffffffffffffffffffffffffffffffffffff16815260200190815260200160002054600160008860000151815260200190815260200160002060060154611b5790919063ffffffff16565b9150915081610da4576040517f08c379a0000000000000000000000000000000000000000000000000000000008152600401610d9b90612ff0565b60405180910390fd5b80600860008573ffffffffffffffffffffffffffffffffffffffff1673ffffffffffffffffffffffffffffffffffffffff1681526020019081526020016000206000600160008960000151815260200190815260200160002060050160009054906101000a900473ffffffffffffffffffffffffffffffffffffffff1673ffffffffffffffffffffffffffffffffffffffff1673ffffffffffffffffffffffffffffffffffffffff168152602001908152602001600020541015610e9d576040517f08c379a0000000000000000000000000000000000000000000000000000000008152600401610e9490613082565b60405180910390fd5b60006002811115610eb157610eb061257f565b5b85606001516002811115610ec857610ec761257f565b5b03610f5d57610f1283600160008860000151815260200190815260200160002060050160009054906101000a900473ffffffffffffffffffffffffffffffffffffffff1683611b86565b84606001516001600087600001518152602001908152602001600020600b0160006101000a81548160ff02191690836002811115610f5357610f5261257f565b5b0217905550611313565b60016002811115610f7157610f7061257f565b5b85606001516002811115610f8857610f8761257f565b5b14610fc8576040517f08c379a0000000000000000000000000000000000000000000000000000000008152600401610fbf906130ee565b60405180910390fd5b60008061101d83600c60008873ffffffffffffffffffffffffffffffffffffffff1673ffffffffffffffffffffffffffffffffffffffff16815260200190815260200160002054611b5790919063ffffffff16565b9150915081611061576040517f08c379a000000000000000000000000000000000000000000000000000000000815260040161105890613180565b60405180910390fd5b60008061112d85600860008a73ffffffffffffffffffffffffffffffffffffffff1673ffffffffffffffffffffffffffffffffffffffff1681526020019081526020016000206000600160008e60000151815260200190815260200160002060050160009054906101000a900473ffffffffffffffffffffffffffffffffffffffff1673ffffffffffffffffffffffffffffffffffffffff1673ffffffffffffffffffffffffffffffffffffffff1681526020019081526020016000205461200f90919063ffffffff16565b9150915081611171576040517f08c379a000000000000000000000000000000000000000000000000000000000815260040161116890613212565b60405180910390fd5b82600c60008973ffffffffffffffffffffffffffffffffffffffff1673ffffffffffffffffffffffffffffffffffffffff1681526020019081526020016000208190555080600860008973ffffffffffffffffffffffffffffffffffffffff1673ffffffffffffffffffffffffffffffffffffffff1681526020019081526020016000206000600160008d60000151815260200190815260200160002060050160009054906101000a900473ffffffffffffffffffffffffffffffffffffffff1673ffffffffffffffffffffffffffffffffffffffff1673ffffffffffffffffffffffffffffffffffffffff168152602001908152602001600020819055508860400151600160008b600001518152602001908152602001600020600a01908161129b91906133de565b508860600151600160008b600001518152602001908152602001600020600b0160006101000a81548160ff021916908360028111156112dd576112dc61257f565b5b02179055508860200151600160008b600001518152602001908152602001600020600401908161130d91906133de565b50505050505b60019350505050919050565b3373ffffffffffffffffffffffffffffffffffffffff16600760009054906101000a900473ffffffffffffffffffffffffffffffffffffffff1673ffffffffffffffffffffffffffffffffffffffff16146113af576040517f08c379a00000000000000000000000000000000000000000000000000000000081526004016113a6906134fc565b60405180910390fd5b600081604001519050600082602001519050600080611457600860008573ffffffffffffffffffffffffffffffffffffffff1673ffffffffffffffffffffffffffffffffffffffff1681526020019081526020016000206000876000015173ffffffffffffffffffffffffffffffffffffffff1673ffffffffffffffffffffffffffffffffffffffff1681526020019081526020016000205485611b5790919063ffffffff16565b915091508161149b576040517f08c379a000000000000000000000000000000000000000000000000000000000815260040161149290613568565b60405180910390fd5b6114d085600001513086886020015173ffffffffffffffffffffffffffffffffffffffff16612037909392919063ffffffff16565b80600860008573ffffffffffffffffffffffffffffffffffffffff1673ffffffffffffffffffffffffffffffffffffffff1681526020019081526020016000206000876000015173ffffffffffffffffffffffffffffffffffffffff1673ffffffffffffffffffffffffffffffffffffffff168152602001908152602001600020819055506000604051806101800160405280600054815260200187608001518152602001600560009054906101000a900473ffffffffffffffffffffffffffffffffffffffff1673ffffffffffffffffffffffffffffffffffffffff168152602001876020015173ffffffffffffffffffffffffffffffffffffffff168152602001604051806020016040528060008152508152602001876000015173ffffffffffffffffffffffffffffffffffffffff16815260200187604001518152602001600b6000896020015173ffffffffffffffffffffffffffffffffffffffff1673ffffffffffffffffffffffffffffffffffffffff168152602001908152602001600020548152602001876060015181526020014281526020016040518060200160405280600081525081526020016002808111156116935761169261257f565b5b815250905060016000808282546116aa91906135b7565b925050819055506001600360008282546116c491906135b7565b9250508190555080600160008360000151815260200190815260200160002060008201518160000155602082015181600101908161170291906133de565b5060408201518160020160006101000a81548173ffffffffffffffffffffffffffffffffffffffff021916908373ffffffffffffffffffffffffffffffffffffffff16021790555060608201518160030160006101000a81548173ffffffffffffffffffffffffffffffffffffffff021916908373ffffffffffffffffffffffffffffffffffffffff16021790555060808201518160040190816117a691906133de565b5060a08201518160050160006101000a81548173ffffffffffffffffffffffffffffffffffffffff021916908373ffffffffffffffffffffffffffffffffffffffff16021790555060c0820151816006015560e082015181600701556101008201518160080155610120820151816009015561014082015181600a01908161182e91906133de565b5061016082015181600b0160006101000a81548160ff0219169083600281111561185b5761185a61257f565b5b0217905550905050600260008260a0015173ffffffffffffffffffffffffffffffffffffffff1673ffffffffffffffffffffffffffffffffffffffff168152602001908152602001600020816000015190806001815401808255809150506001900390600052602060002001600090919091909150557f526ac68e84b69268d132ae9f0096055616ffe456fce8bcad75a83892625a7493816040516119009190612708565b60405180910390a1505050505050565b6060600260008373ffffffffffffffffffffffffffffffffffffffff1673ffffffffffffffffffffffffffffffffffffffff16815260200190815260200160002080548060200260200160405190810160405280929190818152602001828054801561199b57602002820191906000526020600020905b815481526020019060010190808311611987575b50505050509050919050565b6000600860008473ffffffffffffffffffffffffffffffffffffffff1673ffffffffffffffffffffffffffffffffffffffff16815260200190815260200160002060008373ffffffffffffffffffffffffffffffffffffffff1673ffffffffffffffffffffffffffffffffffffffff16815260200190815260200160002054905092915050565b6000600560009054906101000a900473ffffffffffffffffffffffffffffffffffffffff16905090565b611ad2838473ffffffffffffffffffffffffffffffffffffffff1663a9059cbb8585604051602401611a8b9291906135eb565b604051602081830303815290604052915060e01b6020820180517bffffffffffffffffffffffffffffffffffffffffffffffffffffffff83818316178352505050506120b9565b505050565b611b0282828573ffffffffffffffffffffffffffffffffffffffff16611a589092919063ffffffff16565b8173ffffffffffffffffffffffffffffffffffffffff167fd55b5fe81317b854ac11454adf7e5a9a0adf69184d643ef9ae6bfda6a015c5bc8483604051611b4a9291906135eb565b60405180910390a2505050565b6000806000838501905084811015611b76576000809250925050611b7f565b60018192509250505b9250929050565b600080611c1883600960008873ffffffffffffffffffffffffffffffffffffffff1673ffffffffffffffffffffffffffffffffffffffff16815260200190815260200160002060008773ffffffffffffffffffffffffffffffffffffffff1673ffffffffffffffffffffffffffffffffffffffff16815260200190815260200160002054611b5790919063ffffffff16565b9150915081611c5c576040517f08c379a0000000000000000000000000000000000000000000000000000000008152600401611c5390613686565b60405180910390fd5b600081905083600860008873ffffffffffffffffffffffffffffffffffffffff1673ffffffffffffffffffffffffffffffffffffffff16815260200190815260200160002060008773ffffffffffffffffffffffffffffffffffffffff1673ffffffffffffffffffffffffffffffffffffffff168152602001908152602001600020541015611d20576040517f08c379a0000000000000000000000000000000000000000000000000000000008152600401611d1790613718565b60405180910390fd5b80600860008873ffffffffffffffffffffffffffffffffffffffff1673ffffffffffffffffffffffffffffffffffffffff16815260200190815260200160002060008773ffffffffffffffffffffffffffffffffffffffff1673ffffffffffffffffffffffffffffffffffffffff168152602001908152602001600020541015611ddf576040517f08c379a0000000000000000000000000000000000000000000000000000000008152600401611dd6906137aa565b60405180910390fd5b600080611e7186600860008b73ffffffffffffffffffffffffffffffffffffffff1673ffffffffffffffffffffffffffffffffffffffff16815260200190815260200160002060008a73ffffffffffffffffffffffffffffffffffffffff1673ffffffffffffffffffffffffffffffffffffffff1681526020019081526020016000205461200f90919063ffffffff16565b9150915081611eb5576040517f08c379a0000000000000000000000000000000000000000000000000000000008152600401611eac9061383c565b60405180910390fd5b80600860008a73ffffffffffffffffffffffffffffffffffffffff1673ffffffffffffffffffffffffffffffffffffffff16815260200190815260200160002060008973ffffffffffffffffffffffffffffffffffffffff1673ffffffffffffffffffffffffffffffffffffffff1681526020019081526020016000208190555082600960008a73ffffffffffffffffffffffffffffffffffffffff1673ffffffffffffffffffffffffffffffffffffffff16815260200190815260200160002060008973ffffffffffffffffffffffffffffffffffffffff1673ffffffffffffffffffffffffffffffffffffffff168152602001908152602001600020819055508673ffffffffffffffffffffffffffffffffffffffff167f7fd36617a06b55977ffa06f8dc94b5ec0650c2b7b353fa22c7d0f211284dc74987604051611ffd9190612739565b60405180910390a25050505050505050565b600080838311156120265760008091509150612030565b6001838503915091505b9250929050565b6120b3848573ffffffffffffffffffffffffffffffffffffffff166323b872dd86868660405160240161206c9392919061385c565b604051602081830303815290604052915060e01b6020820180517bffffffffffffffffffffffffffffffffffffffffffffffffffffffff83818316178352505050506120b9565b50505050565b60006120e4828473ffffffffffffffffffffffffffffffffffffffff1661215090919063ffffffff16565b9050600081511415801561210957508080602001905181019061210791906138bf565b155b1561214b57826040517f5274afe70000000000000000000000000000000000000000000000000000000081526004016121429190612c61565b60405180910390fd5b505050565b606061215e83836000612166565b905092915050565b6060814710156121ad57306040517fcd7860590000000000000000000000000000000000000000000000000000000081526004016121a49190612c61565b60405180910390fd5b6000808573ffffffffffffffffffffffffffffffffffffffff1684866040516121d69190613933565b60006040518083038185875af1925050503d8060008114612213576040519150601f19603f3d011682016040523d82523d6000602084013e612218565b606091505b5091509150612228868383612233565b925050509392505050565b60608261224857612243826122c2565b6122ba565b60008251148015612270575060008473ffffffffffffffffffffffffffffffffffffffff163b145b156122b257836040517f9996b3150000000000000000000000000000000000000000000000000000000081526004016122a99190612c61565b60405180910390fd5b8190506122bb565b5b9392505050565b6000815111156122d55780518082602001fd5b6040517f1425ea4200000000000000000000000000000000000000000000000000000000815260040160405180910390fd5b6040518061018001604052806000815260200160608152602001600073ffffffffffffffffffffffffffffffffffffffff168152602001600073ffffffffffffffffffffffffffffffffffffffff16815260200160608152602001600073ffffffffffffffffffffffffffffffffffffffff1681526020016000815260200160008152602001600081526020016000815260200160608152602001600060028111156123b6576123b561257f565b5b81525090565b6000604051905090565b600080fd5b600080fd5b600073ffffffffffffffffffffffffffffffffffffffff82169050919050565b60006123fb826123d0565b9050919050565b61240b816123f0565b811461241657600080fd5b50565b60008135905061242881612402565b92915050565b6000819050919050565b6124418161242e565b811461244c57600080fd5b50565b60008135905061245e81612438565b92915050565b6000806040838503121561247b5761247a6123c6565b5b600061248985828601612419565b925050602061249a8582860161244f565b9150509250929050565b6000602082840312156124ba576124b96123c6565b5b60006124c88482850161244f565b91505092915050565b6124da8161242e565b82525050565b600081519050919050565b600082825260208201905092915050565b60005b8381101561251a5780820151818401526020810190506124ff565b60008484015250505050565b6000601f19601f8301169050919050565b6000612542826124e0565b61254c81856124eb565b935061255c8185602086016124fc565b61256581612526565b840191505092915050565b612579816123f0565b82525050565b7f4e487b7100000000000000000000000000000000000000000000000000000000600052602160045260246000fd5b600381106125bf576125be61257f565b5b50565b60008190506125d0826125ae565b919050565b60006125e0826125c2565b9050919050565b6125f0816125d5565b82525050565b60006101808301600083015161260f60008601826124d1565b50602083015184820360208601526126278282612537565b915050604083015161263c6040860182612570565b50606083015161264f6060860182612570565b50608083015184820360808601526126678282612537565b91505060a083015161267c60a0860182612570565b5060c083015161268f60c08601826124d1565b5060e08301516126a260e08601826124d1565b506101008301516126b76101008601826124d1565b506101208301516126cc6101208601826124d1565b506101408301518482036101408601526126e68282612537565b9150506101608301516126fd6101608601826125e7565b508091505092915050565b6000602082019050818103600083015261272281846125f6565b905092915050565b6127338161242e565b82525050565b600060208201905061274e600083018461272a565b92915050565b600061275f826123d0565b9050919050565b61276f81612754565b82525050565b600060208201905061278a6000830184612766565b92915050565b6000602082840312156127a6576127a56123c6565b5b60006127b484828501612419565b91505092915050565b600080604083850312156127d4576127d36123c6565b5b60006127e285828601612419565b92505060206127f385828601612419565b9150509250929050565b60008115159050919050565b612812816127fd565b82525050565b600060208201905061282d6000830184612809565b92915050565b600080fd5b7f4e487b7100000000000000000000000000000000000000000000000000000000600052604160045260246000fd5b61287082612526565b810181811067ffffffffffffffff8211171561288f5761288e612838565b5b80604052505050565b60006128a26123bc565b90506128ae8282612867565b919050565b600080fd5b600080fd5b600080fd5b600067ffffffffffffffff8211156128dd576128dc612838565b5b6128e682612526565b9050602081019050919050565b82818337600083830152505050565b6000612915612910846128c2565b612898565b905082815260208101848484011115612931576129306128bd565b5b61293c8482856128f3565b509392505050565b600082601f830112612959576129586128b8565b5b8135612969848260208601612902565b91505092915050565b6003811061297f57600080fd5b50565b60008135905061299181612972565b92915050565b6000608082840312156129ad576129ac612833565b5b6129b76080612898565b905060006129c78482850161244f565b600083015250602082013567ffffffffffffffff8111156129eb576129ea6128b3565b5b6129f784828501612944565b602083015250604082013567ffffffffffffffff811115612a1b57612a1a6128b3565b5b612a2784828501612944565b6040830152506060612a3b84828501612982565b60608301525092915050565b600060208284031215612a5d57612a5c6123c6565b5b600082013567ffffffffffffffff811115612a7b57612a7a6123cb565b5b612a8784828501612997565b91505092915050565b600060a08284031215612aa657612aa5612833565b5b612ab060a0612898565b90506000612ac084828501612419565b6000830152506020612ad484828501612419565b6020830152506040612ae88482850161244f565b6040830152506060612afc8482850161244f565b606083015250608082013567ffffffffffffffff811115612b2057612b1f6128b3565b5b612b2c84828501612944565b60808301525092915050565b600060208284031215612b4e57612b4d6123c6565b5b600082013567ffffffffffffffff811115612b6c57612b6b6123cb565b5b612b7884828501612a90565b91505092915050565b600081519050919050565b600082825260208201905092915050565b6000819050602082019050919050565b6000612bb983836124d1565b60208301905092915050565b6000602082019050919050565b6000612bdd82612b81565b612be78185612b8c565b9350612bf283612b9d565b8060005b83811015612c23578151612c0a8882612bad565b9750612c1583612bc5565b925050600181019050612bf6565b5085935050505092915050565b60006020820190508181036000830152612c4a8184612bd2565b905092915050565b612c5b816123f0565b82525050565b6000602082019050612c766000830184612c52565b92915050565b600082825260208201905092915050565b7f43616c6c6572206973206e6f7420746865206d616e6167657200000000000000600082015250565b6000612cc3601983612c7c565b9150612cce82612c8d565b602082019050919050565b60006020820190508181036000830152612cf281612cb6565b9050919050565b6000604082019050612d0e600083018561272a565b612d1b602083018461272a565b9392505050565b7f4e487b7100000000000000000000000000000000000000000000000000000000600052602260045260246000fd5b60006002820490506001821680612d6957607f821691505b602082108103612d7c57612d7b612d22565b5b50919050565b7f5468657265206973206e6f2062616c616e636520746f2072656c656173652e00600082015250565b6000612db8601f83612c7c565b9150612dc382612d82565b602082019050919050565b60006020820190508181036000830152612de781612dab565b9050919050565b7f41646472657373206973206e6f7420616c6c6f77656420616e7920726566756e60008201527f6473000000000000000000000000000000000000000000000000000000000000602082015250565b6000612e4a602283612c7c565b9150612e5582612dee565b604082019050919050565b60006020820190508181036000830152612e7981612e3d565b9050919050565b7f46756c66696c6c6d656e74207265636f726420646f6573206e6f74206578697360008201527f7400000000000000000000000000000000000000000000000000000000000000602082015250565b6000612edc602183612c7c565b9150612ee782612e80565b604082019050919050565b60006020820190508181036000830152612f0b81612ecf565b9050919050565b7f46756c66696c6c6d656e7420616c726561647920726567697374657265640000600082015250565b6000612f48601e83612c7c565b9150612f5382612f12565b602082019050919050565b60006020820190508181036000830152612f7781612f3b565b9050919050565b7f4f766572666c6f77207768696c6520616464696e672066756c66696c6c6d656e60008201527f7420616d6f756e7420616e642066656500000000000000000000000000000000602082015250565b6000612fda603083612c7c565b9150612fe582612f7e565b604082019050919050565b6000602082019050818103600083015261300981612fcd565b9050919050565b7f5468657265206973206e6f7420656e6f7567682062616c616e636520746f206260008201527f652072656c656173656400000000000000000000000000000000000000000000602082015250565b600061306c602a83612c7c565b915061307782613010565b604082019050919050565b6000602082019050818103600083015261309b8161305f565b9050919050565b7f556e657870656374656420737461747573000000000000000000000000000000600082015250565b60006130d8601183612c7c565b91506130e3826130a2565b602082019050919050565b60006020820190508181036000830152613107816130cb565b9050919050565b7f4f766572666c6f77207768696c6520616464696e6720746f2072656c6561736560008201527f61626c6520706f6f6c0000000000000000000000000000000000000000000000602082015250565b600061316a602983612c7c565b91506131758261310e565b604082019050919050565b600060208201905081810360008301526131998161315d565b9050919050565b7f4f766572666c6f77207768696c6520737562737472616374696e672066726f6d60008201527f206465706f736974730000000000000000000000000000000000000000000000602082015250565b60006131fc602983612c7c565b9150613207826131a0565b604082019050919050565b6000602082019050818103600083015261322b816131ef565b9050919050565b60008190508160005260206000209050919050565b60006020601f8301049050919050565b600082821b905092915050565b6000600883026132947fffffffffffffffffffffffffffffffffffffffffffffffffffffffffffffffff82613257565b61329e8683613257565b95508019841693508086168417925050509392505050565b6000819050919050565b60006132db6132d66132d18461242e565b6132b6565b61242e565b9050919050565b6000819050919050565b6132f5836132c0565b613309613301826132e2565b848454613264565b825550505050565b600090565b61331e613311565b6133298184846132ec565b505050565b5b8181101561334d57613342600082613316565b60018101905061332f565b5050565b601f8211156133925761336381613232565b61336c84613247565b8101602085101561337b578190505b61338f61338785613247565b83018261332e565b50505b505050565b600082821c905092915050565b60006133b560001984600802613397565b1980831691505092915050565b60006133ce83836133a4565b9150826002028217905092915050565b6133e7826124e0565b67ffffffffffffffff811115613400576133ff612838565b5b61340a8254612d51565b613415828285613351565b600060209050601f8311600181146134485760008415613436578287015190505b61344085826133c2565b8655506134a8565b601f19841661345686613232565b60005b8281101561347e57848901518255600182019150602085019450602081019050613459565b8683101561349b5784890151613497601f8916826133a4565b8355505b6001600288020188555050505b505050505050565b7f43616c6c6572206973206e6f742074686520726f757465720000000000000000600082015250565b60006134e6601883612c7c565b91506134f1826134b0565b602082019050919050565b60006020820190508181036000830152613515816134d9565b9050919050565b7f4f766572666c6f77207768696c6520616464696e67206465706f736974730000600082015250565b6000613552601e83612c7c565b915061355d8261351c565b602082019050919050565b6000602082019050818103600083015261358181613545565b9050919050565b7f4e487b7100000000000000000000000000000000000000000000000000000000600052601160045260246000fd5b60006135c28261242e565b91506135cd8361242e565b92508282019050808211156135e5576135e4613588565b5b92915050565b60006040820190506136006000830185612c52565b61360d602083018461272a565b9392505050565b7f4f766572666c6f77207768696c6520616464696e6720617574686f72697a656460008201527f20726566756e6473000000000000000000000000000000000000000000000000602082015250565b6000613670602883612c7c565b915061367b82613614565b604082019050919050565b6000602082019050818103600083015261369f81613663565b9050919050565b7f546f6b656e20416d6f756e7420697320626967676572207468616e207468652060008201527f746f74616c20696e20657363726f770000000000000000000000000000000000602082015250565b6000613702602f83612c7c565b915061370d826136a6565b604082019050919050565b60006020820190508181036000830152613731816136f5565b9050919050565b7f546f74616c20746f6b656e20726566756e647320776f756c642062652062696760008201527f676572207468616e2074686520746f74616c20696e20657363726f7700000000602082015250565b6000613794603c83612c7c565b915061379f82613738565b604082019050919050565b600060208201905081810360008301526137c381613787565b9050919050565b7f4f766572666c6f77207768696c6520737562737472616374696e67206465706f60008201527f7369747300000000000000000000000000000000000000000000000000000000602082015250565b6000613826602483612c7c565b9150613831826137ca565b604082019050919050565b6000602082019050818103600083015261385581613819565b9050919050565b60006060820190506138716000830186612c52565b61387e6020830185612c52565b61388b604083018461272a565b949350505050565b61389c816127fd565b81146138a757600080fd5b50565b6000815190506138b981613893565b92915050565b6000602082840312156138d5576138d46123c6565b5b60006138e3848285016138aa565b91505092915050565b600081519050919050565b600081905092915050565b600061390d826138ec565b61391781856138f7565b93506139278185602086016124fc565b80840191505092915050565b600061393f8284613902565b91508190509291505056fea26469706673582212202799a648c021114cb866069532fecec8fe64b49724386b7157cb577cca0bf85d64736f6c63430008140033",
  "linkReferences": {},
  "deployedLinkReferences": {}
}