{
  "_format": "hh-sol-artifact-1",
  "contractName": "ERC20TokenRegistry",
  "sourceName": "contracts/periphery/registry/ERC20TokenRegistry.sol",
  "abi": [
    {
      "inputs": [
        {
          "internalType": "address",
          "name": "target",
          "type": "address"
        }
      ],
      "name": "AddressEmptyCode",
      "type": "error"
    },
    {
      "inputs": [
        {
          "internalType": "address",
          "name": "implementation",
          "type": "address"
        }
      ],
      "name": "ERC1967InvalidImplementation",
      "type": "error"
    },
    {
      "inputs": [],
      "name": "ERC1967NonPayable",
      "type": "error"
    },
    {
      "inputs": [],
      "name": "FailedInnerCall",
      "type": "error"
    },
    {
      "inputs": [],
      "name": "InvalidInitialization",
      "type": "error"
    },
    {
      "inputs": [],
      "name": "NotInitializing",
      "type": "error"
    },
    {
      "inputs": [
        {
          "internalType": "address",
          "name": "owner",
          "type": "address"
        }
      ],
      "name": "OwnableInvalidOwner",
      "type": "error"
    },
    {
      "inputs": [
        {
          "internalType": "address",
          "name": "account",
          "type": "address"
        }
      ],
      "name": "OwnableUnauthorizedAccount",
      "type": "error"
    },
    {
      "inputs": [],
      "name": "UUPSUnauthorizedCallContext",
      "type": "error"
    },
    {
      "inputs": [
        {
          "internalType": "bytes32",
          "name": "slot",
          "type": "bytes32"
        }
      ],
      "name": "UUPSUnsupportedProxiableUUID",
      "type": "error"
    },
    {
      "anonymous": false,
      "inputs": [
        {
          "indexed": false,
          "internalType": "uint64",
          "name": "version",
          "type": "uint64"
        }
      ],
      "name": "Initialized",
      "type": "event"
    },
    {
      "anonymous": false,
      "inputs": [
        {
          "indexed": true,
          "internalType": "address",
          "name": "previousOwner",
          "type": "address"
        },
        {
          "indexed": true,
          "internalType": "address",
          "name": "newOwner",
          "type": "address"
        }
      ],
      "name": "OwnershipTransferred",
      "type": "event"
    },
    {
      "anonymous": false,
      "inputs": [
        {
          "indexed": true,
          "internalType": "address",
          "name": "token",
          "type": "address"
        }
      ],
      "name": "TokenAdded",
      "type": "event"
    },
    {
      "anonymous": false,
      "inputs": [
        {
          "indexed": true,
          "internalType": "address",
          "name": "token",
          "type": "address"
        }
      ],
      "name": "TokenRemoved",
      "type": "event"
    },
    {
      "anonymous": false,
      "inputs": [
        {
          "indexed": true,
          "internalType": "address",
          "name": "implementation",
          "type": "address"
        }
      ],
      "name": "Upgraded",
      "type": "event"
    },
    {
      "inputs": [],
      "name": "UPGRADE_INTERFACE_VERSION",
      "outputs": [
        {
          "internalType": "string",
          "name": "",
          "type": "string"
        }
      ],
      "stateMutability": "view",
      "type": "function"
    },
    {
      "inputs": [
        {
          "internalType": "address",
          "name": "token",
          "type": "address"
        }
      ],
      "name": "addToken",
      "outputs": [],
      "stateMutability": "nonpayable",
      "type": "function"
    },
    {
      "inputs": [],
      "name": "initialize",
      "outputs": [],
      "stateMutability": "nonpayable",
      "type": "function"
    },
    {
      "inputs": [
        {
          "internalType": "address",
          "name": "token",
          "type": "address"
        }
      ],
      "name": "isTokenWhitelisted",
      "outputs": [
        {
          "internalType": "bool",
          "name": "",
          "type": "bool"
        }
      ],
      "stateMutability": "view",
      "type": "function"
    },
    {
      "inputs": [],
      "name": "owner",
      "outputs": [
        {
          "internalType": "address",
          "name": "",
          "type": "address"
        }
      ],
      "stateMutability": "view",
      "type": "function"
    },
    {
      "inputs": [],
      "name": "proxiableUUID",
      "outputs": [
        {
          "internalType": "bytes32",
          "name": "",
          "type": "bytes32"
        }
      ],
      "stateMutability": "view",
      "type": "function"
    },
    {
      "inputs": [
        {
          "internalType": "address",
          "name": "token",
          "type": "address"
        }
      ],
      "name": "removeToken",
      "outputs": [],
      "stateMutability": "nonpayable",
      "type": "function"
    },
    {
      "inputs": [],
      "name": "renounceOwnership",
      "outputs": [],
      "stateMutability": "nonpayable",
      "type": "function"
    },
    {
      "inputs": [
        {
          "internalType": "address",
          "name": "newOwner",
          "type": "address"
        }
      ],
      "name": "transferOwnership",
      "outputs": [],
      "stateMutability": "nonpayable",
      "type": "function"
    },
    {
      "inputs": [
        {
          "internalType": "address",
          "name": "newImplementation",
          "type": "address"
        },
        {
          "internalType": "bytes",
          "name": "data",
          "type": "bytes"
        }
      ],
      "name": "upgradeToAndCall",
      "outputs": [],
      "stateMutability": "payable",
      "type": "function"
    }
  ],
  "bytecode": "0x60a06040523073ffffffffffffffffffffffffffffffffffffffff1660809073ffffffffffffffffffffffffffffffffffffffff1681525034801561004357600080fd5b5060805161174561006d60003960008181610833015281816108880152610a4301526117456000f3fe6080604052600436106100915760003560e01c80638da5cb5b116100595780638da5cb5b14610134578063ad3cb1cc1461015f578063b5af090f1461018a578063d48bfca7146101c7578063f2fde38b146101f057610091565b80634f1ef2861461009657806352d1902d146100b25780635fa7b584146100dd578063715018a6146101065780638129fc1c1461011d575b600080fd5b6100b060048036038101906100ab9190611270565b610219565b005b3480156100be57600080fd5b506100c7610238565b6040516100d491906112e5565b60405180910390f35b3480156100e957600080fd5b5061010460048036038101906100ff9190611300565b61026b565b005b34801561011257600080fd5b5061011b61039b565b005b34801561012957600080fd5b506101326103af565b005b34801561014057600080fd5b50610149610545565b604051610156919061133c565b60405180910390f35b34801561016b57600080fd5b5061017461057d565b60405161018191906113d6565b60405180910390f35b34801561019657600080fd5b506101b160048036038101906101ac9190611300565b6105b6565b6040516101be9190611413565b60405180910390f35b3480156101d357600080fd5b506101ee60048036038101906101e99190611300565b61060b565b005b3480156101fc57600080fd5b5061021760048036038101906102129190611300565b6107ab565b005b610221610831565b61022a82610917565b6102348282610922565b5050565b6000610242610a41565b7f360894a13ba1a3210667c828492db98dca3e2076cc3735a920a3ca505d382bbc60001b905090565b610273610ac8565b6000808273ffffffffffffffffffffffffffffffffffffffff1673ffffffffffffffffffffffffffffffffffffffff16815260200190815260200160002060009054906101000a900460ff166102fe576040517f08c379a00000000000000000000000000000000000000000000000000000000081526004016102f5906114a0565b60405180910390fd5b60008060008373ffffffffffffffffffffffffffffffffffffffff1673ffffffffffffffffffffffffffffffffffffffff16815260200190815260200160002060006101000a81548160ff0219169083151502179055508073ffffffffffffffffffffffffffffffffffffffff167f4c910b69fe65a61f7531b9c5042b2329ca7179c77290aa7e2eb3afa3c8511fd360405160405180910390a250565b6103a3610ac8565b6103ad6000610b4f565b565b60006103b9610c26565b905060008160000160089054906101000a900460ff1615905060008260000160009054906101000a900467ffffffffffffffff1690506000808267ffffffffffffffff161480156104075750825b9050600060018367ffffffffffffffff1614801561043c575060003073ffffffffffffffffffffffffffffffffffffffff163b145b90508115801561044a575080155b15610481576040517ff92ee8a900000000000000000000000000000000000000000000000000000000815260040160405180910390fd5b60018560000160006101000a81548167ffffffffffffffff021916908367ffffffffffffffff16021790555083156104d15760018560000160086101000a81548160ff0219169083151502179055505b6104da33610c4e565b6104e2610c62565b831561053e5760008560000160086101000a81548160ff0219169083151502179055507fc7f505b2f371ae2175ee4913f4499e1f2633a7b5936321eed1cdaeb6115181d260016040516105359190611519565b60405180910390a15b5050505050565b600080610550610c6c565b90508060000160009054906101000a900473ffffffffffffffffffffffffffffffffffffffff1691505090565b6040518060400160405280600581526020017f352e302e3000000000000000000000000000000000000000000000000000000081525081565b60008060008373ffffffffffffffffffffffffffffffffffffffff1673ffffffffffffffffffffffffffffffffffffffff16815260200190815260200160002060009054906101000a900460ff169050919050565b610613610ac8565b600073ffffffffffffffffffffffffffffffffffffffff168173ffffffffffffffffffffffffffffffffffffffff1603610682576040517f08c379a0000000000000000000000000000000000000000000000000000000008152600401610679906115a6565b60405180910390fd5b6000808273ffffffffffffffffffffffffffffffffffffffff1673ffffffffffffffffffffffffffffffffffffffff16815260200190815260200160002060009054906101000a900460ff161561070e576040517f08c379a000000000000000000000000000000000000000000000000000000000815260040161070590611638565b60405180910390fd5b60016000808373ffffffffffffffffffffffffffffffffffffffff1673ffffffffffffffffffffffffffffffffffffffff16815260200190815260200160002060006101000a81548160ff0219169083151502179055508073ffffffffffffffffffffffffffffffffffffffff167f784c8f4dbf0ffedd6e72c76501c545a70f8b203b30a26ce542bf92ba87c248a460405160405180910390a250565b6107b3610ac8565b600073ffffffffffffffffffffffffffffffffffffffff168173ffffffffffffffffffffffffffffffffffffffff16036108255760006040517f1e4fbdf700000000000000000000000000000000000000000000000000000000815260040161081c919061133c565b60405180910390fd5b61082e81610b4f565b50565b7f000000000000000000000000000000000000000000000000000000000000000073ffffffffffffffffffffffffffffffffffffffff163073ffffffffffffffffffffffffffffffffffffffff1614806108de57507f000000000000000000000000000000000000000000000000000000000000000073ffffffffffffffffffffffffffffffffffffffff166108c5610c94565b73ffffffffffffffffffffffffffffffffffffffff1614155b15610915576040517fe07c8dba00000000000000000000000000000000000000000000000000000000815260040160405180910390fd5b565b61091f610ac8565b50565b8173ffffffffffffffffffffffffffffffffffffffff166352d1902d6040518163ffffffff1660e01b8152600401602060405180830381865afa92505050801561098a57506040513d601f19601f820116820180604052508101906109879190611684565b60015b6109cb57816040517f4c9c8ce30000000000000000000000000000000000000000000000000000000081526004016109c2919061133c565b60405180910390fd5b7f360894a13ba1a3210667c828492db98dca3e2076cc3735a920a3ca505d382bbc60001b8114610a3257806040517faa1d49a4000000000000000000000000000000000000000000000000000000008152600401610a2991906112e5565b60405180910390fd5b610a3c8383610ceb565b505050565b7f000000000000000000000000000000000000000000000000000000000000000073ffffffffffffffffffffffffffffffffffffffff163073ffffffffffffffffffffffffffffffffffffffff1614610ac6576040517fe07c8dba00000000000000000000000000000000000000000000000000000000815260040160405180910390fd5b565b610ad0610d5e565b73ffffffffffffffffffffffffffffffffffffffff16610aee610545565b73ffffffffffffffffffffffffffffffffffffffff1614610b4d57610b11610d5e565b6040517f118cdaa7000000000000000000000000000000000000000000000000000000008152600401610b44919061133c565b60405180910390fd5b565b6000610b59610c6c565b905060008160000160009054906101000a900473ffffffffffffffffffffffffffffffffffffffff169050828260000160006101000a81548173ffffffffffffffffffffffffffffffffffffffff021916908373ffffffffffffffffffffffffffffffffffffffff1602179055508273ffffffffffffffffffffffffffffffffffffffff168173ffffffffffffffffffffffffffffffffffffffff167f8be0079c531659141344cd1fd0a4f28419497f9722a3daafe3b4186f6b6457e060405160405180910390a3505050565b60007ff0c57e16840df040f15088dc2f81fe391c3923bec73e23a9662efc9c229c6a00905090565b610c56610d66565b610c5f81610da6565b50565b610c6a610d66565b565b60007f9016d09d72d40fdae2fd8ceac6b6234c7706214fd39c1cd1e609a0528c199300905090565b6000610cc27f360894a13ba1a3210667c828492db98dca3e2076cc3735a920a3ca505d382bbc60001b610e2c565b60000160009054906101000a900473ffffffffffffffffffffffffffffffffffffffff16905090565b610cf482610e36565b8173ffffffffffffffffffffffffffffffffffffffff167fbc7cd75a20ee27fd9adebab32041f755214dbc6bffa90cc0225b39da2e5c2d3b60405160405180910390a2600081511115610d5157610d4b8282610f03565b50610d5a565b610d59610f87565b5b5050565b600033905090565b610d6e610fc4565b610da4576040517fd7e6bcf800000000000000000000000000000000000000000000000000000000815260040160405180910390fd5b565b610dae610d66565b600073ffffffffffffffffffffffffffffffffffffffff168173ffffffffffffffffffffffffffffffffffffffff1603610e205760006040517f1e4fbdf7000000000000000000000000000000000000000000000000000000008152600401610e17919061133c565b60405180910390fd5b610e2981610b4f565b50565b6000819050919050565b60008173ffffffffffffffffffffffffffffffffffffffff163b03610e9257806040517f4c9c8ce3000000000000000000000000000000000000000000000000000000008152600401610e89919061133c565b60405180910390fd5b80610ebf7f360894a13ba1a3210667c828492db98dca3e2076cc3735a920a3ca505d382bbc60001b610e2c565b60000160006101000a81548173ffffffffffffffffffffffffffffffffffffffff021916908373ffffffffffffffffffffffffffffffffffffffff16021790555050565b60606000808473ffffffffffffffffffffffffffffffffffffffff1684604051610f2d91906116f8565b600060405180830381855af49150503d8060008114610f68576040519150601f19603f3d011682016040523d82523d6000602084013e610f6d565b606091505b5091509150610f7d858383610fe4565b9250505092915050565b6000341115610fc2576040517fb398979f00000000000000000000000000000000000000000000000000000000815260040160405180910390fd5b565b6000610fce610c26565b60000160089054906101000a900460ff16905090565b606082610ff957610ff482611073565b61106b565b60008251148015611021575060008473ffffffffffffffffffffffffffffffffffffffff163b145b1561106357836040517f9996b31500000000000000000000000000000000000000000000000000000000815260040161105a919061133c565b60405180910390fd5b81905061106c565b5b9392505050565b6000815111156110865780518082602001fd5b6040517f1425ea4200000000000000000000000000000000000000000000000000000000815260040160405180910390fd5b6000604051905090565b600080fd5b600080fd5b600073ffffffffffffffffffffffffffffffffffffffff82169050919050565b60006110f7826110cc565b9050919050565b611107816110ec565b811461111257600080fd5b50565b600081359050611124816110fe565b92915050565b600080fd5b600080fd5b6000601f19601f8301169050919050565b7f4e487b7100000000000000000000000000000000000000000000000000000000600052604160045260246000fd5b61117d82611134565b810181811067ffffffffffffffff8211171561119c5761119b611145565b5b80604052505050565b60006111af6110b8565b90506111bb8282611174565b919050565b600067ffffffffffffffff8211156111db576111da611145565b5b6111e482611134565b9050602081019050919050565b82818337600083830152505050565b600061121361120e846111c0565b6111a5565b90508281526020810184848401111561122f5761122e61112f565b5b61123a8482856111f1565b509392505050565b600082601f8301126112575761125661112a565b5b8135611267848260208601611200565b91505092915050565b60008060408385031215611287576112866110c2565b5b600061129585828601611115565b925050602083013567ffffffffffffffff8111156112b6576112b56110c7565b5b6112c285828601611242565b9150509250929050565b6000819050919050565b6112df816112cc565b82525050565b60006020820190506112fa60008301846112d6565b92915050565b600060208284031215611316576113156110c2565b5b600061132484828501611115565b91505092915050565b611336816110ec565b82525050565b6000602082019050611351600083018461132d565b92915050565b600081519050919050565b600082825260208201905092915050565b60005b83811015611391578082015181840152602081019050611376565b60008484015250505050565b60006113a882611357565b6113b28185611362565b93506113c2818560208601611373565b6113cb81611134565b840191505092915050565b600060208201905081810360008301526113f0818461139d565b905092915050565b60008115159050919050565b61140d816113f8565b82525050565b60006020820190506114286000830184611404565b92915050565b7f4552433230546f6b656e52656769737472793a20546f6b656e206e6f7420776860008201527f6974656c69737465640000000000000000000000000000000000000000000000602082015250565b600061148a602983611362565b91506114958261142e565b604082019050919050565b600060208201905081810360008301526114b98161147d565b9050919050565b6000819050919050565b600067ffffffffffffffff82169050919050565b6000819050919050565b60006115036114fe6114f9846114c0565b6114de565b6114ca565b9050919050565b611513816114e8565b82525050565b600060208201905061152e600083018461150a565b92915050565b7f4552433230546f6b656e52656769737472793a20546f6b656e2061646472657360008201527f732063616e6e6f74206265207a65726f00000000000000000000000000000000602082015250565b6000611590603083611362565b915061159b82611534565b604082019050919050565b600060208201905081810360008301526115bf81611583565b9050919050565b7f4552433230546f6b656e52656769737472793a20546f6b656e20616c7265616460008201527f792077686974656c697374656400000000000000000000000000000000000000602082015250565b6000611622602d83611362565b915061162d826115c6565b604082019050919050565b6000602082019050818103600083015261165181611615565b9050919050565b611661816112cc565b811461166c57600080fd5b50565b60008151905061167e81611658565b92915050565b60006020828403121561169a576116996110c2565b5b60006116a88482850161166f565b91505092915050565b600081519050919050565b600081905092915050565b60006116d2826116b1565b6116dc81856116bc565b93506116ec818560208601611373565b80840191505092915050565b600061170482846116c7565b91508190509291505056fea2646970667358221220614c9e505fe606c095f42695b0f8d34fcbecc949bd22b8560a96d85b12e470fa64736f6c63430008140033",
  "linkReferences": {},
  "deployedLinkReferences": {}
}