{
  "_format": "hh-sol-artifact-1",
  "contractName": "RouterUpgradeTester",
  "sourceName": "contracts/RouterUpgradeTester.sol",
  "abi": [
    {
      "inputs": [
        {
          "internalType": "address",
          "name": "target",
          "type": "address"
        }
      ],
      "name": "AddressEmptyCode",
      "type": "error"
    },
    {
      "inputs": [
        {
          "internalType": "address",
          "name": "implementation",
          "type": "address"
        }
      ],
      "name": "ERC1967InvalidImplementation",
      "type": "error"
    },
    {
      "inputs": [],
      "name": "ERC1967NonPayable",
      "type": "error"
    },
    {
      "inputs": [],
      "name": "EnforcedPause",
      "type": "error"
    },
    {
      "inputs": [],
      "name": "ExpectedPause",
      "type": "error"
    },
    {
      "inputs": [],
      "name": "FailedInnerCall",
      "type": "error"
    },
    {
      "inputs": [],
      "name": "InvalidInitialization",
      "type": "error"
    },
    {
      "inputs": [],
      "name": "NotInitializing",
      "type": "error"
    },
    {
      "inputs": [
        {
          "internalType": "address",
          "name": "owner",
          "type": "address"
        }
      ],
      "name": "OwnableInvalidOwner",
      "type": "error"
    },
    {
      "inputs": [
        {
          "internalType": "address",
          "name": "account",
          "type": "address"
        }
      ],
      "name": "OwnableUnauthorizedAccount",
      "type": "error"
    },
    {
      "inputs": [],
      "name": "UUPSUnauthorizedCallContext",
      "type": "error"
    },
    {
      "inputs": [
        {
          "internalType": "bytes32",
          "name": "slot",
          "type": "bytes32"
        }
      ],
      "name": "UUPSUnsupportedProxiableUUID",
      "type": "error"
    },
    {
      "anonymous": false,
      "inputs": [
        {
          "indexed": false,
          "internalType": "uint64",
          "name": "version",
          "type": "uint64"
        }
      ],
      "name": "Initialized",
      "type": "event"
    },
    {
      "anonymous": false,
      "inputs": [
        {
          "indexed": true,
          "internalType": "address",
          "name": "previousOwner",
          "type": "address"
        },
        {
          "indexed": true,
          "internalType": "address",
          "name": "newOwner",
          "type": "address"
        }
      ],
      "name": "OwnershipTransferred",
      "type": "event"
    },
    {
      "anonymous": false,
      "inputs": [
        {
          "indexed": false,
          "internalType": "address",
          "name": "account",
          "type": "address"
        }
      ],
      "name": "Paused",
      "type": "event"
    },
    {
      "anonymous": false,
      "inputs": [
        {
          "indexed": false,
          "internalType": "uint256",
          "name": "serviceID",
          "type": "uint256"
        },
        {
          "indexed": false,
          "internalType": "string",
          "name": "serviceRef",
          "type": "string"
        }
      ],
      "name": "RefValidationFailed",
      "type": "event"
    },
    {
      "anonymous": false,
      "inputs": [
        {
          "indexed": false,
          "internalType": "uint256",
          "name": "serviceID",
          "type": "uint256"
        },
        {
          "components": [
            {
              "internalType": "address",
              "name": "payer",
              "type": "address"
            },
            {
              "internalType": "uint256",
              "name": "weiAmount",
              "type": "uint256"
            },
            {
              "internalType": "uint256",
              "name": "fiatAmount",
              "type": "uint256"
            },
            {
              "internalType": "string",
              "name": "serviceRef",
              "type": "string"
            }
          ],
          "indexed": false,
          "internalType": "struct FulFillmentRequest",
          "name": "request",
          "type": "tuple"
        }
      ],
      "name": "ServiceRequested",
      "type": "event"
    },
    {
      "anonymous": false,
      "inputs": [
        {
          "indexed": false,
          "internalType": "address",
          "name": "account",
          "type": "address"
        }
      ],
      "name": "Unpaused",
      "type": "event"
    },
    {
      "anonymous": false,
      "inputs": [
        {
          "indexed": true,
          "internalType": "address",
          "name": "implementation",
          "type": "address"
        }
      ],
      "name": "Upgraded",
      "type": "event"
    },
    {
      "inputs": [],
      "name": "UPGRADE_INTERFACE_VERSION",
      "outputs": [
        {
          "internalType": "string",
          "name": "",
          "type": "string"
        }
      ],
      "stateMutability": "view",
      "type": "function"
    },
    {
      "inputs": [
        {
          "internalType": "address",
          "name": "serviceRegistry",
          "type": "address"
        }
      ],
      "name": "initialize",
      "outputs": [],
      "stateMutability": "nonpayable",
      "type": "function"
    },
    {
      "inputs": [],
      "name": "isUpgrade",
      "outputs": [
        {
          "internalType": "bool",
          "name": "",
          "type": "bool"
        }
      ],
      "stateMutability": "view",
      "type": "function"
    },
    {
      "inputs": [],
      "name": "owner",
      "outputs": [
        {
          "internalType": "address",
          "name": "",
          "type": "address"
        }
      ],
      "stateMutability": "view",
      "type": "function"
    },
    {
      "inputs": [],
      "name": "pause",
      "outputs": [],
      "stateMutability": "nonpayable",
      "type": "function"
    },
    {
      "inputs": [],
      "name": "paused",
      "outputs": [
        {
          "internalType": "bool",
          "name": "",
          "type": "bool"
        }
      ],
      "stateMutability": "view",
      "type": "function"
    },
    {
      "inputs": [],
      "name": "proxiableUUID",
      "outputs": [
        {
          "internalType": "bytes32",
          "name": "",
          "type": "bytes32"
        }
      ],
      "stateMutability": "view",
      "type": "function"
    },
    {
      "inputs": [],
      "name": "renounceOwnership",
      "outputs": [],
      "stateMutability": "nonpayable",
      "type": "function"
    },
    {
      "inputs": [
        {
          "internalType": "uint256",
          "name": "serviceID",
          "type": "uint256"
        },
        {
          "components": [
            {
              "internalType": "address",
              "name": "payer",
              "type": "address"
            },
            {
              "internalType": "uint256",
              "name": "weiAmount",
              "type": "uint256"
            },
            {
              "internalType": "uint256",
              "name": "fiatAmount",
              "type": "uint256"
            },
            {
              "internalType": "string",
              "name": "serviceRef",
              "type": "string"
            }
          ],
          "internalType": "struct FulFillmentRequest",
          "name": "request",
          "type": "tuple"
        }
      ],
      "name": "requestService",
      "outputs": [
        {
          "internalType": "bool",
          "name": "",
          "type": "bool"
        }
      ],
      "stateMutability": "payable",
      "type": "function"
    },
    {
      "inputs": [
        {
          "internalType": "address",
          "name": "newOwner",
          "type": "address"
        }
      ],
      "name": "transferOwnership",
      "outputs": [],
      "stateMutability": "nonpayable",
      "type": "function"
    },
    {
      "inputs": [],
      "name": "unpause",
      "outputs": [],
      "stateMutability": "nonpayable",
      "type": "function"
    },
    {
      "inputs": [
        {
          "internalType": "address",
          "name": "newImplementation",
          "type": "address"
        },
        {
          "internalType": "bytes",
          "name": "data",
          "type": "bytes"
        }
      ],
      "name": "upgradeToAndCall",
      "outputs": [],
      "stateMutability": "payable",
      "type": "function"
    }
  ],
  "bytecode": "0x60a06040523073ffffffffffffffffffffffffffffffffffffffff1660809073ffffffffffffffffffffffffffffffffffffffff1681525034801561004357600080fd5b50608051611fb461006d60003960008181610a6301528181610ab80152610c730152611fb46000f3fe6080604052600436106100a75760003560e01c80638d5e694f116100645780638d5e694f146101635780638da5cb5b14610193578063ad3cb1cc146101be578063c4d66de8146101e9578063e38a303b14610212578063f2fde38b1461023d576100a7565b80633f4ba83a146100ac5780634f1ef286146100c357806352d1902d146100df5780635c975abb1461010a578063715018a6146101355780638456cb591461014c575b600080fd5b3480156100b857600080fd5b506100c1610266565b005b6100dd60048036038101906100d891906115a9565b610278565b005b3480156100eb57600080fd5b506100f4610297565b604051610101919061161e565b60405180910390f35b34801561011657600080fd5b5061011f6102ca565b60405161012c9190611654565b60405180910390f35b34801561014157600080fd5b5061014a6102ef565b005b34801561015857600080fd5b50610161610303565b005b61017d600480360381019061017891906117e4565b610315565b60405161018a9190611654565b60405180910390f35b34801561019f57600080fd5b506101a8610681565b6040516101b5919061184f565b60405180910390f35b3480156101ca57600080fd5b506101d36106b9565b6040516101e091906118e9565b60405180910390f35b3480156101f557600080fd5b50610210600480360381019061020b919061190b565b6106f2565b005b34801561021e57600080fd5b506102276108d1565b6040516102349190611654565b60405180910390f35b34801561024957600080fd5b50610264600480360381019061025f919061190b565b6108e2565b005b61026e610968565b6102766109ef565b565b610280610a61565b61028982610b47565b6102938282610b52565b5050565b60006102a1610c71565b7f360894a13ba1a3210667c828492db98dca3e2076cc3735a920a3ca505d382bbc60001b905090565b6000806102d5610cf8565b90508060000160009054906101000a900460ff1691505090565b6102f7610968565b6103016000610d20565b565b61030b610968565b610313610df7565b565b600061031f610e69565b60003411610362576040517f08c379a000000000000000000000000000000000000000000000000000000000815260040161035990611984565b60405180910390fd5b60008260400151116103a9576040517f08c379a00000000000000000000000000000000000000000000000000000000081526004016103a0906119f0565b60405180910390fd5b60008060009054906101000a900473ffffffffffffffffffffffffffffffffffffffff1673ffffffffffffffffffffffffffffffffffffffff1663ef0e239b856040518263ffffffff1660e01b81526004016104059190611a1f565b60a060405180830381865afa158015610422573d6000803e3d6000fd5b505050506040513d601f19601f820116820180604052508101906104469190611af0565b905060008054906101000a900473ffffffffffffffffffffffffffffffffffffffff1673ffffffffffffffffffffffffffffffffffffffff1663d4a247038585606001516040518363ffffffff1660e01b81526004016104a7929190611b1d565b602060405180830381865afa1580156104c4573d6000803e3d6000fd5b505050506040513d601f19601f820116820180604052508101906104e89190611b79565b610527576040517f08c379a000000000000000000000000000000000000000000000000000000000815260040161051e90611bf2565b60405180910390fd5b60008061054583608001518660200151610eaa90919063ffffffff16565b9150915081610589576040517f08c379a000000000000000000000000000000000000000000000000000000000815260040161058090611c84565b60405180910390fd5b8034146105cb576040517f08c379a00000000000000000000000000000000000000000000000000000000081526004016105c290611d16565b60405180910390fd5b826020015173ffffffffffffffffffffffffffffffffffffffff1663d45f858e34876040518363ffffffff1660e01b81526004016106099190611e01565b6000604051808303818588803b15801561062257600080fd5b505af1158015610636573d6000803e3d6000fd5b50505050507f3b033105de4e75715ba988cac7097f29a5163f6aecd3d6c7edf7cba81227612e868660405161066c929190611e23565b60405180910390a16001935050505092915050565b60008061068c610ed9565b90508060000160009054906101000a900473ffffffffffffffffffffffffffffffffffffffff1691505090565b6040518060400160405280600581526020017f352e302e3000000000000000000000000000000000000000000000000000000081525081565b60006106fc610f01565b905060008160000160089054906101000a900460ff1615905060008260000160009054906101000a900467ffffffffffffffff1690506000808267ffffffffffffffff1614801561074a5750825b9050600060018367ffffffffffffffff1614801561077f575060003073ffffffffffffffffffffffffffffffffffffffff163b145b90508115801561078d575080155b156107c4576040517ff92ee8a900000000000000000000000000000000000000000000000000000000815260040160405180910390fd5b60018560000160006101000a81548167ffffffffffffffff021916908367ffffffffffffffff16021790555083156108145760018560000160086101000a81548160ff0219169083151502179055505b61081d33610f29565b610825610f3d565b61082d610f4f565b856000806101000a81548173ffffffffffffffffffffffffffffffffffffffff021916908373ffffffffffffffffffffffffffffffffffffffff16021790555083156108c95760008560000160086101000a81548160ff0219169083151502179055507fc7f505b2f371ae2175ee4913f4499e1f2633a7b5936321eed1cdaeb6115181d260016040516108c09190611eac565b60405180910390a15b505050505050565b60006108db610968565b6001905090565b6108ea610968565b600073ffffffffffffffffffffffffffffffffffffffff168173ffffffffffffffffffffffffffffffffffffffff160361095c5760006040517f1e4fbdf7000000000000000000000000000000000000000000000000000000008152600401610953919061184f565b60405180910390fd5b61096581610d20565b50565b610970610f59565b73ffffffffffffffffffffffffffffffffffffffff1661098e610681565b73ffffffffffffffffffffffffffffffffffffffff16146109ed576109b1610f59565b6040517f118cdaa70000000000000000000000000000000000000000000000000000000081526004016109e4919061184f565b60405180910390fd5b565b6109f7610f61565b6000610a01610cf8565b905060008160000160006101000a81548160ff0219169083151502179055507f5db9ee0a495bf2e6ff9c91a7834c1ba4fdd244a5e8aa4e537bd38aeae4b073aa610a49610f59565b604051610a56919061184f565b60405180910390a150565b7f000000000000000000000000000000000000000000000000000000000000000073ffffffffffffffffffffffffffffffffffffffff163073ffffffffffffffffffffffffffffffffffffffff161480610b0e57507f000000000000000000000000000000000000000000000000000000000000000073ffffffffffffffffffffffffffffffffffffffff16610af5610fa1565b73ffffffffffffffffffffffffffffffffffffffff1614155b15610b45576040517fe07c8dba00000000000000000000000000000000000000000000000000000000815260040160405180910390fd5b565b610b4f610968565b50565b8173ffffffffffffffffffffffffffffffffffffffff166352d1902d6040518163ffffffff1660e01b8152600401602060405180830381865afa925050508015610bba57506040513d601f19601f82011682018060405250810190610bb79190611ef3565b60015b610bfb57816040517f4c9c8ce3000000000000000000000000000000000000000000000000000000008152600401610bf2919061184f565b60405180910390fd5b7f360894a13ba1a3210667c828492db98dca3e2076cc3735a920a3ca505d382bbc60001b8114610c6257806040517faa1d49a4000000000000000000000000000000000000000000000000000000008152600401610c59919061161e565b60405180910390fd5b610c6c8383610ff8565b505050565b7f000000000000000000000000000000000000000000000000000000000000000073ffffffffffffffffffffffffffffffffffffffff163073ffffffffffffffffffffffffffffffffffffffff1614610cf6576040517fe07c8dba00000000000000000000000000000000000000000000000000000000815260040160405180910390fd5b565b60007fcd5ed15c6e187e77e9aee88184c21f4f2182ab5827cb3b7e07fbedcd63f03300905090565b6000610d2a610ed9565b905060008160000160009054906101000a900473ffffffffffffffffffffffffffffffffffffffff169050828260000160006101000a81548173ffffffffffffffffffffffffffffffffffffffff021916908373ffffffffffffffffffffffffffffffffffffffff1602179055508273ffffffffffffffffffffffffffffffffffffffff168173ffffffffffffffffffffffffffffffffffffffff167f8be0079c531659141344cd1fd0a4f28419497f9722a3daafe3b4186f6b6457e060405160405180910390a3505050565b610dff610e69565b6000610e09610cf8565b905060018160000160006101000a81548160ff0219169083151502179055507f62e78cea01bee320cd4e420270b5ea74000d11b0c9f74754ebdbfc544b05a258610e51610f59565b604051610e5e919061184f565b60405180910390a150565b610e716102ca565b15610ea8576040517fd93c066500000000000000000000000000000000000000000000000000000000815260040160405180910390fd5b565b6000806000838501905084811015610ec9576000809250925050610ed2565b60018192509250505b9250929050565b60007f9016d09d72d40fdae2fd8ceac6b6234c7706214fd39c1cd1e609a0528c199300905090565b60007ff0c57e16840df040f15088dc2f81fe391c3923bec73e23a9662efc9c229c6a00905090565b610f3161106b565b610f3a816110ab565b50565b610f4561106b565b610f4d611131565b565b610f5761106b565b565b600033905090565b610f696102ca565b610f9f576040517f8dfc202b00000000000000000000000000000000000000000000000000000000815260040160405180910390fd5b565b6000610fcf7f360894a13ba1a3210667c828492db98dca3e2076cc3735a920a3ca505d382bbc60001b611165565b60000160009054906101000a900473ffffffffffffffffffffffffffffffffffffffff16905090565b6110018261116f565b8173ffffffffffffffffffffffffffffffffffffffff167fbc7cd75a20ee27fd9adebab32041f755214dbc6bffa90cc0225b39da2e5c2d3b60405160405180910390a260008151111561105e57611058828261123c565b50611067565b6110666112c0565b5b5050565b6110736112fd565b6110a9576040517fd7e6bcf800000000000000000000000000000000000000000000000000000000815260040160405180910390fd5b565b6110b361106b565b600073ffffffffffffffffffffffffffffffffffffffff168173ffffffffffffffffffffffffffffffffffffffff16036111255760006040517f1e4fbdf700000000000000000000000000000000000000000000000000000000815260040161111c919061184f565b60405180910390fd5b61112e81610d20565b50565b61113961106b565b6000611143610cf8565b905060008160000160006101000a81548160ff02191690831515021790555050565b6000819050919050565b60008173ffffffffffffffffffffffffffffffffffffffff163b036111cb57806040517f4c9c8ce30000000000000000000000000000000000000000000000000000000081526004016111c2919061184f565b60405180910390fd5b806111f87f360894a13ba1a3210667c828492db98dca3e2076cc3735a920a3ca505d382bbc60001b611165565b60000160006101000a81548173ffffffffffffffffffffffffffffffffffffffff021916908373ffffffffffffffffffffffffffffffffffffffff16021790555050565b60606000808473ffffffffffffffffffffffffffffffffffffffff16846040516112669190611f67565b600060405180830381855af49150503d80600081146112a1576040519150601f19603f3d011682016040523d82523d6000602084013e6112a6565b606091505b50915091506112b685838361131d565b9250505092915050565b60003411156112fb576040517fb398979f00000000000000000000000000000000000000000000000000000000815260040160405180910390fd5b565b6000611307610f01565b60000160089054906101000a900460ff16905090565b6060826113325761132d826113ac565b6113a4565b6000825114801561135a575060008473ffffffffffffffffffffffffffffffffffffffff163b145b1561139c57836040517f9996b315000000000000000000000000000000000000000000000000000000008152600401611393919061184f565b60405180910390fd5b8190506113a5565b5b9392505050565b6000815111156113bf5780518082602001fd5b6040517f1425ea4200000000000000000000000000000000000000000000000000000000815260040160405180910390fd5b6000604051905090565b600080fd5b600080fd5b600073ffffffffffffffffffffffffffffffffffffffff82169050919050565b600061143082611405565b9050919050565b61144081611425565b811461144b57600080fd5b50565b60008135905061145d81611437565b92915050565b600080fd5b600080fd5b6000601f19601f8301169050919050565b7f4e487b7100000000000000000000000000000000000000000000000000000000600052604160045260246000fd5b6114b68261146d565b810181811067ffffffffffffffff821117156114d5576114d461147e565b5b80604052505050565b60006114e86113f1565b90506114f482826114ad565b919050565b600067ffffffffffffffff8211156115145761151361147e565b5b61151d8261146d565b9050602081019050919050565b82818337600083830152505050565b600061154c611547846114f9565b6114de565b90508281526020810184848401111561156857611567611468565b5b61157384828561152a565b509392505050565b600082601f8301126115905761158f611463565b5b81356115a0848260208601611539565b91505092915050565b600080604083850312156115c0576115bf6113fb565b5b60006115ce8582860161144e565b925050602083013567ffffffffffffffff8111156115ef576115ee611400565b5b6115fb8582860161157b565b9150509250929050565b6000819050919050565b61161881611605565b82525050565b6000602082019050611633600083018461160f565b92915050565b60008115159050919050565b61164e81611639565b82525050565b60006020820190506116696000830184611645565b92915050565b6000819050919050565b6116828161166f565b811461168d57600080fd5b50565b60008135905061169f81611679565b92915050565b600080fd5b600080fd5b600067ffffffffffffffff8211156116ca576116c961147e565b5b6116d38261146d565b9050602081019050919050565b60006116f36116ee846116af565b6114de565b90508281526020810184848401111561170f5761170e611468565b5b61171a84828561152a565b509392505050565b600082601f83011261173757611736611463565b5b81356117478482602086016116e0565b91505092915050565b600060808284031215611766576117656116a5565b5b61177060806114de565b905060006117808482850161144e565b600083015250602061179484828501611690565b60208301525060406117a884828501611690565b604083015250606082013567ffffffffffffffff8111156117cc576117cb6116aa565b5b6117d884828501611722565b60608301525092915050565b600080604083850312156117fb576117fa6113fb565b5b600061180985828601611690565b925050602083013567ffffffffffffffff81111561182a57611829611400565b5b61183685828601611750565b9150509250929050565b61184981611425565b82525050565b60006020820190506118646000830184611840565b92915050565b600081519050919050565b600082825260208201905092915050565b60005b838110156118a4578082015181840152602081019050611889565b60008484015250505050565b60006118bb8261186a565b6118c58185611875565b93506118d5818560208601611886565b6118de8161146d565b840191505092915050565b6000602082019050818103600083015261190381846118b0565b905092915050565b600060208284031215611921576119206113fb565b5b600061192f8482850161144e565b91505092915050565b7f416d6f756e74206d7573742062652067726561746572207468616e207a65726f600082015250565b600061196e602083611875565b915061197982611938565b602082019050919050565b6000602082019050818103600083015261199d81611961565b9050919050565b7f4669617420616d6f756e7420697320696e76616c696400000000000000000000600082015250565b60006119da601683611875565b91506119e5826119a4565b602082019050919050565b60006020820190508181036000830152611a09816119cd565b9050919050565b611a198161166f565b82525050565b6000602082019050611a346000830184611a10565b92915050565b600081519050611a4981611679565b92915050565b600081519050611a5e81611437565b92915050565b600060a08284031215611a7a57611a796116a5565b5b611a8460a06114de565b90506000611a9484828501611a3a565b6000830152506020611aa884828501611a4f565b6020830152506040611abc84828501611a4f565b6040830152506060611ad084828501611a4f565b6060830152506080611ae484828501611a3a565b60808301525092915050565b600060a08284031215611b0657611b056113fb565b5b6000611b1484828501611a64565b91505092915050565b6000604082019050611b326000830185611a10565b8181036020830152611b4481846118b0565b90509392505050565b611b5681611639565b8114611b6157600080fd5b50565b600081519050611b7381611b4d565b92915050565b600060208284031215611b8f57611b8e6113fb565b5b6000611b9d84828501611b64565b91505092915050565b7f726566206e6f7420696e20726567697374727900000000000000000000000000600082015250565b6000611bdc601383611875565b9150611be782611ba6565b602082019050919050565b60006020820190508181036000830152611c0b81611bcf565b9050919050565b7f4f766572666c6f77207768696c6520616464696e672066656520616e6420616d60008201527f6f756e7400000000000000000000000000000000000000000000000000000000602082015250565b6000611c6e602483611875565b9150611c7982611c12565b604082019050919050565b60006020820190508181036000830152611c9d81611c61565b9050919050565b7f5472616e73616374696f6e20746f74616c20646f6573206e6f74206d6174636860008201527f20666565202b20616d6f756e742e000000000000000000000000000000000000602082015250565b6000611d00602e83611875565b9150611d0b82611ca4565b604082019050919050565b60006020820190508181036000830152611d2f81611cf3565b9050919050565b611d3f81611425565b82525050565b611d4e8161166f565b82525050565b600082825260208201905092915050565b6000611d708261186a565b611d7a8185611d54565b9350611d8a818560208601611886565b611d938161146d565b840191505092915050565b6000608083016000830151611db66000860182611d36565b506020830151611dc96020860182611d45565b506040830151611ddc6040860182611d45565b5060608301518482036060860152611df48282611d65565b9150508091505092915050565b60006020820190508181036000830152611e1b8184611d9e565b905092915050565b6000604082019050611e386000830185611a10565b8181036020830152611e4a8184611d9e565b90509392505050565b6000819050919050565b600067ffffffffffffffff82169050919050565b6000819050919050565b6000611e96611e91611e8c84611e53565b611e71565b611e5d565b9050919050565b611ea681611e7b565b82525050565b6000602082019050611ec16000830184611e9d565b92915050565b611ed081611605565b8114611edb57600080fd5b50565b600081519050611eed81611ec7565b92915050565b600060208284031215611f0957611f086113fb565b5b6000611f1784828501611ede565b91505092915050565b600081519050919050565b600081905092915050565b6000611f4182611f20565b611f4b8185611f2b565b9350611f5b818560208601611886565b80840191505092915050565b6000611f738284611f36565b91508190509291505056fea2646970667358221220955e02bb7d7e7b13110ef0f6e04bd760ec7c26beb1b0309a3c3f76bd90c7a04f64736f6c63430008140033",
  "linkReferences": {},
  "deployedLinkReferences": {}
}