{
  "_format": "hh-sol-artifact-1",
  "contractName": "FulfillableRegistry",
  "sourceName": "contracts/periphery/registry/FulfillableRegistry.sol",
  "abi": [
    {
      "inputs": [
        {
          "internalType": "address",
          "name": "target",
          "type": "address"
        }
      ],
      "name": "AddressEmptyCode",
      "type": "error"
    },
    {
      "inputs": [
        {
          "internalType": "address",
          "name": "implementation",
          "type": "address"
        }
      ],
      "name": "ERC1967InvalidImplementation",
      "type": "error"
    },
    {
      "inputs": [],
      "name": "ERC1967NonPayable",
      "type": "error"
    },
    {
      "inputs": [],
      "name": "FailedInnerCall",
      "type": "error"
    },
    {
      "inputs": [],
      "name": "InvalidInitialization",
      "type": "error"
    },
    {
      "inputs": [],
      "name": "NotInitializing",
      "type": "error"
    },
    {
      "inputs": [
        {
          "internalType": "address",
          "name": "owner",
          "type": "address"
        }
      ],
      "name": "OwnableInvalidOwner",
      "type": "error"
    },
    {
      "inputs": [
        {
          "internalType": "address",
          "name": "account",
          "type": "address"
        }
      ],
      "name": "OwnableUnauthorizedAccount",
      "type": "error"
    },
    {
      "inputs": [],
      "name": "UUPSUnauthorizedCallContext",
      "type": "error"
    },
    {
      "inputs": [
        {
          "internalType": "bytes32",
          "name": "slot",
          "type": "bytes32"
        }
      ],
      "name": "UUPSUnsupportedProxiableUUID",
      "type": "error"
    },
    {
      "anonymous": false,
      "inputs": [
        {
          "indexed": false,
          "internalType": "uint64",
          "name": "version",
          "type": "uint64"
        }
      ],
      "name": "Initialized",
      "type": "event"
    },
    {
      "anonymous": false,
      "inputs": [
        {
          "indexed": true,
          "internalType": "address",
          "name": "previousOwner",
          "type": "address"
        },
        {
          "indexed": true,
          "internalType": "address",
          "name": "newOwner",
          "type": "address"
        }
      ],
      "name": "OwnershipTransferred",
      "type": "event"
    },
    {
      "anonymous": false,
      "inputs": [
        {
          "indexed": false,
          "internalType": "uint256",
          "name": "serviceID",
          "type": "uint256"
        }
      ],
      "name": "ServiceRemoved",
      "type": "event"
    },
    {
      "anonymous": false,
      "inputs": [
        {
          "indexed": true,
          "internalType": "address",
          "name": "implementation",
          "type": "address"
        }
      ],
      "name": "Upgraded",
      "type": "event"
    },
    {
      "inputs": [],
      "name": "UPGRADE_INTERFACE_VERSION",
      "outputs": [
        {
          "internalType": "string",
          "name": "",
          "type": "string"
        }
      ],
      "stateMutability": "view",
      "type": "function"
    },
    {
      "inputs": [
        {
          "internalType": "address",
          "name": "fulfiller",
          "type": "address"
        }
      ],
      "name": "addFulfiller",
      "outputs": [],
      "stateMutability": "nonpayable",
      "type": "function"
    },
    {
      "inputs": [
        {
          "internalType": "uint256",
          "name": "serviceId",
          "type": "uint256"
        },
        {
          "components": [
            {
              "internalType": "uint256",
              "name": "serviceId",
              "type": "uint256"
            },
            {
              "internalType": "address",
              "name": "contractAddress",
              "type": "address"
            },
            {
              "internalType": "address",
              "name": "erc20ContractAddress",
              "type": "address"
            },
            {
              "internalType": "address",
              "name": "fulfiller",
              "type": "address"
            },
            {
              "internalType": "uint256",
              "name": "feeAmount",
              "type": "uint256"
            }
          ],
          "internalType": "struct Service",
          "name": "service",
          "type": "tuple"
        }
      ],
      "name": "addService",
      "outputs": [
        {
          "internalType": "bool",
          "name": "",
          "type": "bool"
        }
      ],
      "stateMutability": "nonpayable",
      "type": "function"
    },
    {
      "inputs": [
        {
          "internalType": "uint256",
          "name": "serviceId",
          "type": "uint256"
        },
        {
          "internalType": "string",
          "name": "ref",
          "type": "string"
        }
      ],
      "name": "addServiceRef",
      "outputs": [
        {
          "internalType": "string[]",
          "name": "",
          "type": "string[]"
        }
      ],
      "stateMutability": "nonpayable",
      "type": "function"
    },
    {
      "inputs": [
        {
          "internalType": "uint256",
          "name": "serviceId",
          "type": "uint256"
        },
        {
          "internalType": "address",
          "name": "erc20ContractAddress",
          "type": "address"
        }
      ],
      "name": "enableERC20",
      "outputs": [],
      "stateMutability": "nonpayable",
      "type": "function"
    },
    {
      "inputs": [
        {
          "internalType": "uint256",
          "name": "serviceId",
          "type": "uint256"
        }
      ],
      "name": "getService",
      "outputs": [
        {
          "components": [
            {
              "internalType": "uint256",
              "name": "serviceId",
              "type": "uint256"
            },
            {
              "internalType": "address",
              "name": "contractAddress",
              "type": "address"
            },
            {
              "internalType": "address",
              "name": "erc20ContractAddress",
              "type": "address"
            },
            {
              "internalType": "address",
              "name": "fulfiller",
              "type": "address"
            },
            {
              "internalType": "uint256",
              "name": "feeAmount",
              "type": "uint256"
            }
          ],
          "internalType": "struct Service",
          "name": "",
          "type": "tuple"
        }
      ],
      "stateMutability": "view",
      "type": "function"
    },
    {
      "inputs": [],
      "name": "initialize",
      "outputs": [],
      "stateMutability": "nonpayable",
      "type": "function"
    },
    {
      "inputs": [
        {
          "internalType": "uint256",
          "name": "serviceId",
          "type": "uint256"
        },
        {
          "internalType": "string",
          "name": "ref",
          "type": "string"
        }
      ],
      "name": "isRefValid",
      "outputs": [
        {
          "internalType": "bool",
          "name": "",
          "type": "bool"
        }
      ],
      "stateMutability": "view",
      "type": "function"
    },
    {
      "inputs": [],
      "name": "owner",
      "outputs": [
        {
          "internalType": "address",
          "name": "",
          "type": "address"
        }
      ],
      "stateMutability": "view",
      "type": "function"
    },
    {
      "inputs": [],
      "name": "proxiableUUID",
      "outputs": [
        {
          "internalType": "bytes32",
          "name": "",
          "type": "bytes32"
        }
      ],
      "stateMutability": "view",
      "type": "function"
    },
    {
      "inputs": [
        {
          "internalType": "uint256",
          "name": "serviceId",
          "type": "uint256"
        }
      ],
      "name": "removeServiceAddress",
      "outputs": [],
      "stateMutability": "nonpayable",
      "type": "function"
    },
    {
      "inputs": [],
      "name": "renounceOwnership",
      "outputs": [],
      "stateMutability": "nonpayable",
      "type": "function"
    },
    {
      "inputs": [
        {
          "internalType": "address",
          "name": "newOwner",
          "type": "address"
        }
      ],
      "name": "transferOwnership",
      "outputs": [],
      "stateMutability": "nonpayable",
      "type": "function"
    },
    {
      "inputs": [
        {
          "internalType": "address",
          "name": "newImplementation",
          "type": "address"
        },
        {
          "internalType": "bytes",
          "name": "data",
          "type": "bytes"
        }
      ],
      "name": "upgradeToAndCall",
      "outputs": [],
      "stateMutability": "payable",
      "type": "function"
    }
  ],
  "bytecode": "0x60a06040523073ffffffffffffffffffffffffffffffffffffffff1660809073ffffffffffffffffffffffffffffffffffffffff1681525034801561004357600080fd5b5060805161270861006d60003960008181610fb70152818161100c01526111c701526127086000f3fe6080604052600436106100dd5760003560e01c80638da5cb5b1161007f578063ad3cb1cc11610059578063ad3cb1cc14610277578063d4a24703146102a2578063ef0e239b146102df578063f2fde38b1461031c576100dd565b80638da5cb5b146101fa5780639423f072146102255780639f6606971461024e576100dd565b806352d1902d116100bb57806352d1902d146101785780636bdc1e84146101a3578063715018a6146101cc5780638129fc1c146101e3576100dd565b80631bd3b166146100e25780633f8a7fe01461011f5780634f1ef2861461015c575b600080fd5b3480156100ee57600080fd5b5061010960048036038101906101049190611a72565b610345565b6040516101169190611acd565b60405180910390f35b34801561012b57600080fd5b5061014660048036038101906101419190611ba2565b610663565b6040516101539190611d3f565b60405180910390f35b61017660048036038101906101719190611e02565b610796565b005b34801561018457600080fd5b5061018d6107b5565b60405161019a9190611e77565b60405180910390f35b3480156101af57600080fd5b506101ca60048036038101906101c59190611e92565b6107e8565b005b3480156101d857600080fd5b506101e1610848565b005b3480156101ef57600080fd5b506101f861085c565b005b34801561020657600080fd5b5061020f6109f2565b60405161021c9190611ee1565b60405180910390f35b34801561023157600080fd5b5061024c60048036038101906102479190611efc565b610a2a565b005b34801561025a57600080fd5b5061027560048036038101906102709190611f29565b610a90565b005b34801561028357600080fd5b5061028c610b84565b6040516102999190611fa0565b60405180910390f35b3480156102ae57600080fd5b506102c960048036038101906102c49190611ba2565b610bbd565b6040516102d69190611acd565b60405180910390f35b3480156102eb57600080fd5b5061030660048036038101906103019190611f29565b610d49565b6040516103139190612048565b60405180910390f35b34801561032857600080fd5b50610343600480360381019061033e9190611efc565b610f2f565b005b60008073ffffffffffffffffffffffffffffffffffffffff1660008085815260200190815260200160002060010160009054906101000a900473ffffffffffffffffffffffffffffffffffffffff1673ffffffffffffffffffffffffffffffffffffffff16146103ea576040517f08c379a00000000000000000000000000000000000000000000000000000000081526004016103e1906120d5565b60405180910390fd5b816000808581526020019081526020016000206000820151816000015560208201518160010160006101000a81548173ffffffffffffffffffffffffffffffffffffffff021916908373ffffffffffffffffffffffffffffffffffffffff16021790555060408201518160020160006101000a81548173ffffffffffffffffffffffffffffffffffffffff021916908373ffffffffffffffffffffffffffffffffffffffff16021790555060608201518160030160006101000a81548173ffffffffffffffffffffffffffffffffffffffff021916908373ffffffffffffffffffffffffffffffffffffffff1602179055506080820151816004015590505060026000836060015173ffffffffffffffffffffffffffffffffffffffff1673ffffffffffffffffffffffffffffffffffffffff1681526020019081526020016000208290806001815401808255809150506001900390600052602060002090600502016000909190919091506000820151816000015560208201518160010160006101000a81548173ffffffffffffffffffffffffffffffffffffffff021916908373ffffffffffffffffffffffffffffffffffffffff16021790555060408201518160020160006101000a81548173ffffffffffffffffffffffffffffffffffffffff021916908373ffffffffffffffffffffffffffffffffffffffff16021790555060608201518160030160006101000a81548173ffffffffffffffffffffffffffffffffffffffff021916908373ffffffffffffffffffffffffffffffffffffffff1602179055506080820151816004015550506003600081548092919061065490612124565b91905055506001905092915050565b606060016000848152602001908152602001600020829080600181540180825580915050600190039060005260206000200160009091909190915090816106aa9190612378565b5060016000848152602001908152602001600020805480602002602001604051908101604052809291908181526020016000905b8282101561078a5783829060005260206000200180546106fd9061219b565b80601f01602080910402602001604051908101604052809291908181526020018280546107299061219b565b80156107765780601f1061074b57610100808354040283529160200191610776565b820191906000526020600020905b81548152906001019060200180831161075957829003601f168201915b5050505050815260200190600101906106de565b50505050905092915050565b61079e610fb5565b6107a78261109b565b6107b182826110a6565b5050565b60006107bf6111c5565b7f360894a13ba1a3210667c828492db98dca3e2076cc3735a920a3ca505d382bbc60001b905090565b6107f061124c565b8060008084815260200190815260200160002060020160006101000a81548173ffffffffffffffffffffffffffffffffffffffff021916908373ffffffffffffffffffffffffffffffffffffffff1602179055505050565b61085061124c565b61085a60006112d3565b565b60006108666113aa565b905060008160000160089054906101000a900460ff1615905060008260000160009054906101000a900467ffffffffffffffff1690506000808267ffffffffffffffff161480156108b45750825b9050600060018367ffffffffffffffff161480156108e9575060003073ffffffffffffffffffffffffffffffffffffffff163b145b9050811580156108f7575080155b1561092e576040517ff92ee8a900000000000000000000000000000000000000000000000000000000815260040160405180910390fd5b60018560000160006101000a81548167ffffffffffffffff021916908367ffffffffffffffff160217905550831561097e5760018560000160086101000a81548160ff0219169083151502179055505b610987336113d2565b61098f6113e6565b83156109eb5760008560000160086101000a81548160ff0219169083151502179055507fc7f505b2f371ae2175ee4913f4499e1f2633a7b5936321eed1cdaeb6115181d260016040516109e29190612499565b60405180910390a15b5050505050565b6000806109fd6113f0565b90508060000160009054906101000a900473ffffffffffffffffffffffffffffffffffffffff1691505090565b610a3261124c565b600260008273ffffffffffffffffffffffffffffffffffffffff1673ffffffffffffffffffffffffffffffffffffffff1681526020019081526020016000206001816001815401808255809150500390600052602060002090505050565b610a9861124c565b6000808281526020019081526020016000206000808201600090556001820160006101000a81549073ffffffffffffffffffffffffffffffffffffffff02191690556002820160006101000a81549073ffffffffffffffffffffffffffffffffffffffff02191690556003820160006101000a81549073ffffffffffffffffffffffffffffffffffffffff02191690556004820160009055505060036000815480929190610b45906124b4565b91905055507f419a91c001167ea76233ed548fd1a02c21b5b63f8b6eaa7dd5747aac8791489281604051610b7991906124ec565b60405180910390a150565b6040518060400160405280600581526020017f352e302e3000000000000000000000000000000000000000000000000000000081525081565b60008060016000858152602001908152602001600020805480602002602001604051908101604052809291908181526020016000905b82821015610c9f578382906000526020600020018054610c129061219b565b80601f0160208091040260200160405190810160405280929190818152602001828054610c3e9061219b565b8015610c8b5780601f10610c6057610100808354040283529160200191610c8b565b820191906000526020600020905b815481529060010190602001808311610c6e57829003601f168201915b505050505081526020019060010190610bf3565b50505050905060005b8151811015610d3c5783604051602001610cc29190612543565b60405160208183030381529060405280519060200120828281518110610ceb57610cea61255a565b5b6020026020010151604051602001610d039190612543565b6040516020818303038152906040528051906020012003610d2957600192505050610d43565b8080610d3490612124565b915050610ca8565b5060009150505b92915050565b610d5161183c565b600073ffffffffffffffffffffffffffffffffffffffff1660008084815260200190815260200160002060010160009054906101000a900473ffffffffffffffffffffffffffffffffffffffff1673ffffffffffffffffffffffffffffffffffffffff1603610df5576040517f08c379a0000000000000000000000000000000000000000000000000000000008152600401610dec906125fb565b60405180910390fd5b6000808381526020019081526020016000206040518060a0016040529081600082015481526020016001820160009054906101000a900473ffffffffffffffffffffffffffffffffffffffff1673ffffffffffffffffffffffffffffffffffffffff1673ffffffffffffffffffffffffffffffffffffffff1681526020016002820160009054906101000a900473ffffffffffffffffffffffffffffffffffffffff1673ffffffffffffffffffffffffffffffffffffffff1673ffffffffffffffffffffffffffffffffffffffff1681526020016003820160009054906101000a900473ffffffffffffffffffffffffffffffffffffffff1673ffffffffffffffffffffffffffffffffffffffff1673ffffffffffffffffffffffffffffffffffffffff1681526020016004820154815250509050919050565b610f3761124c565b600073ffffffffffffffffffffffffffffffffffffffff168173ffffffffffffffffffffffffffffffffffffffff1603610fa95760006040517f1e4fbdf7000000000000000000000000000000000000000000000000000000008152600401610fa09190611ee1565b60405180910390fd5b610fb2816112d3565b50565b7f000000000000000000000000000000000000000000000000000000000000000073ffffffffffffffffffffffffffffffffffffffff163073ffffffffffffffffffffffffffffffffffffffff16148061106257507f000000000000000000000000000000000000000000000000000000000000000073ffffffffffffffffffffffffffffffffffffffff16611049611418565b73ffffffffffffffffffffffffffffffffffffffff1614155b15611099576040517fe07c8dba00000000000000000000000000000000000000000000000000000000815260040160405180910390fd5b565b6110a361124c565b50565b8173ffffffffffffffffffffffffffffffffffffffff166352d1902d6040518163ffffffff1660e01b8152600401602060405180830381865afa92505050801561110e57506040513d601f19601f8201168201806040525081019061110b9190612647565b60015b61114f57816040517f4c9c8ce30000000000000000000000000000000000000000000000000000000081526004016111469190611ee1565b60405180910390fd5b7f360894a13ba1a3210667c828492db98dca3e2076cc3735a920a3ca505d382bbc60001b81146111b657806040517faa1d49a40000000000000000000000000000000000000000000000000000000081526004016111ad9190611e77565b60405180910390fd5b6111c0838361146f565b505050565b7f000000000000000000000000000000000000000000000000000000000000000073ffffffffffffffffffffffffffffffffffffffff163073ffffffffffffffffffffffffffffffffffffffff161461124a576040517fe07c8dba00000000000000000000000000000000000000000000000000000000815260040160405180910390fd5b565b6112546114e2565b73ffffffffffffffffffffffffffffffffffffffff166112726109f2565b73ffffffffffffffffffffffffffffffffffffffff16146112d1576112956114e2565b6040517f118cdaa70000000000000000000000000000000000000000000000000000000081526004016112c89190611ee1565b60405180910390fd5b565b60006112dd6113f0565b905060008160000160009054906101000a900473ffffffffffffffffffffffffffffffffffffffff169050828260000160006101000a81548173ffffffffffffffffffffffffffffffffffffffff021916908373ffffffffffffffffffffffffffffffffffffffff1602179055508273ffffffffffffffffffffffffffffffffffffffff168173ffffffffffffffffffffffffffffffffffffffff167f8be0079c531659141344cd1fd0a4f28419497f9722a3daafe3b4186f6b6457e060405160405180910390a3505050565b60007ff0c57e16840df040f15088dc2f81fe391c3923bec73e23a9662efc9c229c6a00905090565b6113da6114ea565b6113e38161152a565b50565b6113ee6114ea565b565b60007f9016d09d72d40fdae2fd8ceac6b6234c7706214fd39c1cd1e609a0528c199300905090565b60006114467f360894a13ba1a3210667c828492db98dca3e2076cc3735a920a3ca505d382bbc60001b6115b0565b60000160009054906101000a900473ffffffffffffffffffffffffffffffffffffffff16905090565b611478826115ba565b8173ffffffffffffffffffffffffffffffffffffffff167fbc7cd75a20ee27fd9adebab32041f755214dbc6bffa90cc0225b39da2e5c2d3b60405160405180910390a26000815111156114d5576114cf8282611687565b506114de565b6114dd61170b565b5b5050565b600033905090565b6114f2611748565b611528576040517fd7e6bcf800000000000000000000000000000000000000000000000000000000815260040160405180910390fd5b565b6115326114ea565b600073ffffffffffffffffffffffffffffffffffffffff168173ffffffffffffffffffffffffffffffffffffffff16036115a45760006040517f1e4fbdf700000000000000000000000000000000000000000000000000000000815260040161159b9190611ee1565b60405180910390fd5b6115ad816112d3565b50565b6000819050919050565b60008173ffffffffffffffffffffffffffffffffffffffff163b0361161657806040517f4c9c8ce300000000000000000000000000000000000000000000000000000000815260040161160d9190611ee1565b60405180910390fd5b806116437f360894a13ba1a3210667c828492db98dca3e2076cc3735a920a3ca505d382bbc60001b6115b0565b60000160006101000a81548173ffffffffffffffffffffffffffffffffffffffff021916908373ffffffffffffffffffffffffffffffffffffffff16021790555050565b60606000808473ffffffffffffffffffffffffffffffffffffffff16846040516116b191906126bb565b600060405180830381855af49150503d80600081146116ec576040519150601f19603f3d011682016040523d82523d6000602084013e6116f1565b606091505b5091509150611701858383611768565b9250505092915050565b6000341115611746576040517fb398979f00000000000000000000000000000000000000000000000000000000815260040160405180910390fd5b565b60006117526113aa565b60000160089054906101000a900460ff16905090565b60608261177d57611778826117f7565b6117ef565b600082511480156117a5575060008473ffffffffffffffffffffffffffffffffffffffff163b145b156117e757836040517f9996b3150000000000000000000000000000000000000000000000000000000081526004016117de9190611ee1565b60405180910390fd5b8190506117f0565b5b9392505050565b60008151111561180a5780518082602001fd5b6040517f1425ea4200000000000000000000000000000000000000000000000000000000815260040160405180910390fd5b6040518060a0016040528060008152602001600073ffffffffffffffffffffffffffffffffffffffff168152602001600073ffffffffffffffffffffffffffffffffffffffff168152602001600073ffffffffffffffffffffffffffffffffffffffff168152602001600081525090565b6000604051905090565b600080fd5b600080fd5b6000819050919050565b6118d4816118c1565b81146118df57600080fd5b50565b6000813590506118f1816118cb565b92915050565b600080fd5b6000601f19601f8301169050919050565b7f4e487b7100000000000000000000000000000000000000000000000000000000600052604160045260246000fd5b611945826118fc565b810181811067ffffffffffffffff821117156119645761196361190d565b5b80604052505050565b60006119776118ad565b9050611983828261193c565b919050565b600073ffffffffffffffffffffffffffffffffffffffff82169050919050565b60006119b382611988565b9050919050565b6119c3816119a8565b81146119ce57600080fd5b50565b6000813590506119e0816119ba565b92915050565b600060a082840312156119fc576119fb6118f7565b5b611a0660a061196d565b90506000611a16848285016118e2565b6000830152506020611a2a848285016119d1565b6020830152506040611a3e848285016119d1565b6040830152506060611a52848285016119d1565b6060830152506080611a66848285016118e2565b60808301525092915050565b60008060c08385031215611a8957611a886118b7565b5b6000611a97858286016118e2565b9250506020611aa8858286016119e6565b9150509250929050565b60008115159050919050565b611ac781611ab2565b82525050565b6000602082019050611ae26000830184611abe565b92915050565b600080fd5b600080fd5b600067ffffffffffffffff821115611b0d57611b0c61190d565b5b611b16826118fc565b9050602081019050919050565b82818337600083830152505050565b6000611b45611b4084611af2565b61196d565b905082815260208101848484011115611b6157611b60611aed565b5b611b6c848285611b23565b509392505050565b600082601f830112611b8957611b88611ae8565b5b8135611b99848260208601611b32565b91505092915050565b60008060408385031215611bb957611bb86118b7565b5b6000611bc7858286016118e2565b925050602083013567ffffffffffffffff811115611be857611be76118bc565b5b611bf485828601611b74565b9150509250929050565b600081519050919050565b600082825260208201905092915050565b6000819050602082019050919050565b600081519050919050565b600082825260208201905092915050565b60005b83811015611c64578082015181840152602081019050611c49565b60008484015250505050565b6000611c7b82611c2a565b611c858185611c35565b9350611c95818560208601611c46565b611c9e816118fc565b840191505092915050565b6000611cb58383611c70565b905092915050565b6000602082019050919050565b6000611cd582611bfe565b611cdf8185611c09565b935083602082028501611cf185611c1a565b8060005b85811015611d2d5784840389528151611d0e8582611ca9565b9450611d1983611cbd565b925060208a01995050600181019050611cf5565b50829750879550505050505092915050565b60006020820190508181036000830152611d598184611cca565b905092915050565b600067ffffffffffffffff821115611d7c57611d7b61190d565b5b611d85826118fc565b9050602081019050919050565b6000611da5611da084611d61565b61196d565b905082815260208101848484011115611dc157611dc0611aed565b5b611dcc848285611b23565b509392505050565b600082601f830112611de957611de8611ae8565b5b8135611df9848260208601611d92565b91505092915050565b60008060408385031215611e1957611e186118b7565b5b6000611e27858286016119d1565b925050602083013567ffffffffffffffff811115611e4857611e476118bc565b5b611e5485828601611dd4565b9150509250929050565b6000819050919050565b611e7181611e5e565b82525050565b6000602082019050611e8c6000830184611e68565b92915050565b60008060408385031215611ea957611ea86118b7565b5b6000611eb7858286016118e2565b9250506020611ec8858286016119d1565b9150509250929050565b611edb816119a8565b82525050565b6000602082019050611ef66000830184611ed2565b92915050565b600060208284031215611f1257611f116118b7565b5b6000611f20848285016119d1565b91505092915050565b600060208284031215611f3f57611f3e6118b7565b5b6000611f4d848285016118e2565b91505092915050565b600082825260208201905092915050565b6000611f7282611c2a565b611f7c8185611f56565b9350611f8c818560208601611c46565b611f95816118fc565b840191505092915050565b60006020820190508181036000830152611fba8184611f67565b905092915050565b611fcb816118c1565b82525050565b611fda816119a8565b82525050565b60a082016000820151611ff66000850182611fc2565b5060208201516120096020850182611fd1565b50604082015161201c6040850182611fd1565b50606082015161202f6060850182611fd1565b5060808201516120426080850182611fc2565b50505050565b600060a08201905061205d6000830184611fe0565b92915050565b7f46756c66696c6c61626c6552656769737472793a205365727669636520616c7260008201527f6561647920657869737473000000000000000000000000000000000000000000602082015250565b60006120bf602b83611f56565b91506120ca82612063565b604082019050919050565b600060208201905081810360008301526120ee816120b2565b9050919050565b7f4e487b7100000000000000000000000000000000000000000000000000000000600052601160045260246000fd5b600061212f826118c1565b91507fffffffffffffffffffffffffffffffffffffffffffffffffffffffffffffffff8203612161576121606120f5565b5b600182019050919050565b7f4e487b7100000000000000000000000000000000000000000000000000000000600052602260045260246000fd5b600060028204905060018216806121b357607f821691505b6020821081036121c6576121c561216c565b5b50919050565b60008190508160005260206000209050919050565b60006020601f8301049050919050565b600082821b905092915050565b60006008830261222e7fffffffffffffffffffffffffffffffffffffffffffffffffffffffffffffffff826121f1565b61223886836121f1565b95508019841693508086168417925050509392505050565b6000819050919050565b600061227561227061226b846118c1565b612250565b6118c1565b9050919050565b6000819050919050565b61228f8361225a565b6122a361229b8261227c565b8484546121fe565b825550505050565b600090565b6122b86122ab565b6122c3818484612286565b505050565b5b818110156122e7576122dc6000826122b0565b6001810190506122c9565b5050565b601f82111561232c576122fd816121cc565b612306846121e1565b81016020851015612315578190505b612329612321856121e1565b8301826122c8565b50505b505050565b600082821c905092915050565b600061234f60001984600802612331565b1980831691505092915050565b6000612368838361233e565b9150826002028217905092915050565b61238182611c2a565b67ffffffffffffffff81111561239a5761239961190d565b5b6123a4825461219b565b6123af8282856122eb565b600060209050601f8311600181146123e257600084156123d0578287015190505b6123da858261235c565b865550612442565b601f1984166123f0866121cc565b60005b82811015612418578489015182556001820191506020850194506020810190506123f3565b868310156124355784890151612431601f89168261233e565b8355505b6001600288020188555050505b505050505050565b6000819050919050565b600067ffffffffffffffff82169050919050565b600061248361247e6124798461244a565b612250565b612454565b9050919050565b61249381612468565b82525050565b60006020820190506124ae600083018461248a565b92915050565b60006124bf826118c1565b9150600082036124d2576124d16120f5565b5b600182039050919050565b6124e6816118c1565b82525050565b600060208201905061250160008301846124dd565b92915050565b600081905092915050565b600061251d82611c2a565b6125278185612507565b9350612537818560208601611c46565b80840191505092915050565b600061254f8284612512565b915081905092915050565b7f4e487b7100000000000000000000000000000000000000000000000000000000600052603260045260246000fd5b7f46756c66696c6c61626c6552656769737472793a205365727669636520646f6560008201527f73206e6f74206578697374000000000000000000000000000000000000000000602082015250565b60006125e5602b83611f56565b91506125f082612589565b604082019050919050565b60006020820190508181036000830152612614816125d8565b9050919050565b61262481611e5e565b811461262f57600080fd5b50565b6000815190506126418161261b565b92915050565b60006020828403121561265d5761265c6118b7565b5b600061266b84828501612632565b91505092915050565b600081519050919050565b600081905092915050565b600061269582612674565b61269f818561267f565b93506126af818560208601611c46565b80840191505092915050565b60006126c7828461268a565b91508190509291505056fea2646970667358221220ce789984e713bc439ffa48a7386810b79a6d5a9d22795009c8ee9d86d4b89c6064736f6c63430008140033",
  "linkReferences": {},
  "deployedLinkReferences": {}
}