{
  "_format": "hh-sol-artifact-1",
  "contractName": "BandoFulfillableV1",
  "sourceName": "contracts/BandoFulfillableV1.sol",
  "abi": [
    {
      "inputs": [
        {
          "internalType": "address payable",
          "name": "beneficiary_",
          "type": "address"
        },
        {
          "internalType": "uint256",
          "name": "serviceIdentifier_",
          "type": "uint256"
        },
        {
          "internalType": "uint256",
          "name": "feeAmount_",
          "type": "uint256"
        },
        {
          "internalType": "address",
          "name": "router_",
          "type": "address"
        },
        {
          "internalType": "address",
          "name": "fulfiller_",
          "type": "address"
        }
      ],
      "stateMutability": "nonpayable",
      "type": "constructor"
    },
    {
      "inputs": [
        {
          "internalType": "address",
          "name": "account",
          "type": "address"
        }
      ],
      "name": "AddressInsufficientBalance",
      "type": "error"
    },
    {
      "inputs": [],
      "name": "FailedInnerCall",
      "type": "error"
    },
    {
      "anonymous": false,
      "inputs": [
        {
          "components": [
            {
              "internalType": "uint256",
              "name": "id",
              "type": "uint256"
            },
            {
              "internalType": "string",
              "name": "serviceRef",
              "type": "string"
            },
            {
              "internalType": "address",
              "name": "fulfiller",
              "type": "address"
            },
            {
              "internalType": "string",
              "name": "externalID",
              "type": "string"
            },
            {
              "internalType": "address",
              "name": "payer",
              "type": "address"
            },
            {
              "internalType": "uint256",
              "name": "weiAmount",
              "type": "uint256"
            },
            {
              "internalType": "uint256",
              "name": "feeAmount",
              "type": "uint256"
            },
            {
              "internalType": "uint256",
              "name": "fiatAmount",
              "type": "uint256"
            },
            {
              "internalType": "uint256",
              "name": "entryTime",
              "type": "uint256"
            },
            {
              "internalType": "string",
              "name": "receiptURI",
              "type": "string"
            },
            {
              "internalType": "enum FulFillmentResultState",
              "name": "status",
              "type": "uint8"
            }
          ],
          "indexed": false,
          "internalType": "struct FulFillmentRecord",
          "name": "record",
          "type": "tuple"
        }
      ],
      "name": "DepositReceived",
      "type": "event"
    },
    {
      "anonymous": false,
      "inputs": [
        {
          "indexed": false,
          "internalType": "uint256",
          "name": "serviceID",
          "type": "uint256"
        },
        {
          "indexed": false,
          "internalType": "uint256",
          "name": "amount",
          "type": "uint256"
        }
      ],
      "name": "FeeUpdated",
      "type": "event"
    },
    {
      "anonymous": false,
      "inputs": [
        {
          "indexed": true,
          "internalType": "address",
          "name": "payee",
          "type": "address"
        },
        {
          "indexed": false,
          "internalType": "uint256",
          "name": "weiAmount",
          "type": "uint256"
        }
      ],
      "name": "RefundAuthorized",
      "type": "event"
    },
    {
      "anonymous": false,
      "inputs": [
        {
          "indexed": true,
          "internalType": "address",
          "name": "payee",
          "type": "address"
        },
        {
          "indexed": false,
          "internalType": "uint256",
          "name": "weiAmount",
          "type": "uint256"
        }
      ],
      "name": "RefundWithdrawn",
      "type": "event"
    },
    {
      "inputs": [],
      "name": "beneficiary",
      "outputs": [
        {
          "internalType": "address payable",
          "name": "",
          "type": "address"
        }
      ],
      "stateMutability": "view",
      "type": "function"
    },
    {
      "inputs": [],
      "name": "beneficiaryWithdraw",
      "outputs": [],
      "stateMutability": "nonpayable",
      "type": "function"
    },
    {
      "inputs": [
        {
          "components": [
            {
              "internalType": "address",
              "name": "payer",
              "type": "address"
            },
            {
              "internalType": "uint256",
              "name": "weiAmount",
              "type": "uint256"
            },
            {
              "internalType": "uint256",
              "name": "fiatAmount",
              "type": "uint256"
            },
            {
              "internalType": "string",
              "name": "serviceRef",
              "type": "string"
            }
          ],
          "internalType": "struct FulFillmentRequest",
          "name": "fulfillmentRequest",
          "type": "tuple"
        }
      ],
      "name": "deposit",
      "outputs": [],
      "stateMutability": "payable",
      "type": "function"
    },
    {
      "inputs": [
        {
          "internalType": "address",
          "name": "payer",
          "type": "address"
        }
      ],
      "name": "depositsOf",
      "outputs": [
        {
          "internalType": "uint256",
          "name": "",
          "type": "uint256"
        }
      ],
      "stateMutability": "view",
      "type": "function"
    },
    {
      "inputs": [],
      "name": "fulfiller",
      "outputs": [
        {
          "internalType": "address",
          "name": "",
          "type": "address"
        }
      ],
      "stateMutability": "view",
      "type": "function"
    },
    {
      "inputs": [
        {
          "internalType": "uint256",
          "name": "id",
          "type": "uint256"
        }
      ],
      "name": "record",
      "outputs": [
        {
          "components": [
            {
              "internalType": "uint256",
              "name": "id",
              "type": "uint256"
            },
            {
              "internalType": "string",
              "name": "serviceRef",
              "type": "string"
            },
            {
              "internalType": "address",
              "name": "fulfiller",
              "type": "address"
            },
            {
              "internalType": "string",
              "name": "externalID",
              "type": "string"
            },
            {
              "internalType": "address",
              "name": "payer",
              "type": "address"
            },
            {
              "internalType": "uint256",
              "name": "weiAmount",
              "type": "uint256"
            },
            {
              "internalType": "uint256",
              "name": "feeAmount",
              "type": "uint256"
            },
            {
              "internalType": "uint256",
              "name": "fiatAmount",
              "type": "uint256"
            },
            {
              "internalType": "uint256",
              "name": "entryTime",
              "type": "uint256"
            },
            {
              "internalType": "string",
              "name": "receiptURI",
              "type": "string"
            },
            {
              "internalType": "enum FulFillmentResultState",
              "name": "status",
              "type": "uint8"
            }
          ],
          "internalType": "struct FulFillmentRecord",
          "name": "",
          "type": "tuple"
        }
      ],
      "stateMutability": "view",
      "type": "function"
    },
    {
      "inputs": [
        {
          "internalType": "address",
          "name": "payer",
          "type": "address"
        }
      ],
      "name": "recordsOf",
      "outputs": [
        {
          "internalType": "uint256[]",
          "name": "",
          "type": "uint256[]"
        }
      ],
      "stateMutability": "view",
      "type": "function"
    },
    {
      "inputs": [
        {
          "components": [
            {
              "internalType": "uint256",
              "name": "id",
              "type": "uint256"
            },
            {
              "internalType": "string",
              "name": "externalID",
              "type": "string"
            },
            {
              "internalType": "string",
              "name": "receiptURI",
              "type": "string"
            },
            {
              "internalType": "enum FulFillmentResultState",
              "name": "status",
              "type": "uint8"
            }
          ],
          "internalType": "struct FulFillmentResult",
          "name": "fulfillment",
          "type": "tuple"
        }
      ],
      "name": "registerFulfillment",
      "outputs": [
        {
          "internalType": "bool",
          "name": "",
          "type": "bool"
        }
      ],
      "stateMutability": "nonpayable",
      "type": "function"
    },
    {
      "inputs": [],
      "name": "serviceID",
      "outputs": [
        {
          "internalType": "uint256",
          "name": "",
          "type": "uint256"
        }
      ],
      "stateMutability": "view",
      "type": "function"
    },
    {
      "inputs": [
        {
          "internalType": "uint256",
          "name": "amount",
          "type": "uint256"
        }
      ],
      "name": "setFee",
      "outputs": [],
      "stateMutability": "nonpayable",
      "type": "function"
    },
    {
      "inputs": [
        {
          "internalType": "address payable",
          "name": "refundee",
          "type": "address"
        }
      ],
      "name": "withdrawRefund",
      "outputs": [
        {
          "internalType": "bool",
          "name": "",
          "type": "bool"
        }
      ],
      "stateMutability": "nonpayable",
      "type": "function"
    }
  ],
  "bytecode": "0x60806040523480156200001157600080fd5b506040516200349e3803806200349e833981810160405281019062000037919062000345565b600073ffffffffffffffffffffffffffffffffffffffff168573ffffffffffffffffffffffffffffffffffffffff1603620000a9576040517f08c379a0000000000000000000000000000000000000000000000000000000008152600401620000a0906200042e565b60405180910390fd5b60008411620000ef576040517f08c379a0000000000000000000000000000000000000000000000000000000008152600401620000e690620004a0565b60405180910390fd5b600083101562000136576040517f08c379a00000000000000000000000000000000000000000000000000000000081526004016200012d9062000512565b60405180910390fd5b84600460006101000a81548173ffffffffffffffffffffffffffffffffffffffff021916908373ffffffffffffffffffffffffffffffffffffffff16021790555083600a8190555082600b8190555080600560006101000a81548173ffffffffffffffffffffffffffffffffffffffff021916908373ffffffffffffffffffffffffffffffffffffffff16021790555033600660006101000a81548173ffffffffffffffffffffffffffffffffffffffff021916908373ffffffffffffffffffffffffffffffffffffffff16021790555081600760006101000a81548173ffffffffffffffffffffffffffffffffffffffff021916908373ffffffffffffffffffffffffffffffffffffffff1602179055506001600081905550505050505062000534565b600080fd5b600073ffffffffffffffffffffffffffffffffffffffff82169050919050565b60006200028d8262000260565b9050919050565b6200029f8162000280565b8114620002ab57600080fd5b50565b600081519050620002bf8162000294565b92915050565b6000819050919050565b620002da81620002c5565b8114620002e657600080fd5b50565b600081519050620002fa81620002cf565b92915050565b60006200030d8262000260565b9050919050565b6200031f8162000300565b81146200032b57600080fd5b50565b6000815190506200033f8162000314565b92915050565b600080600080600060a086880312156200036457620003636200025b565b5b60006200037488828901620002ae565b95505060206200038788828901620002e9565b94505060406200039a88828901620002e9565b9350506060620003ad888289016200032e565b9250506080620003c0888289016200032e565b9150509295509295909350565b600082825260208201905092915050565b7f42656e656669636961727920697320746865207a65726f206164647265737300600082015250565b600062000416601f83620003cd565b91506200042382620003de565b602082019050919050565b60006020820190508181036000830152620004498162000407565b9050919050565b7f5365727669636520494420697320726571756972656400000000000000000000600082015250565b600062000488601683620003cd565b9150620004958262000450565b602082019050919050565b60006020820190508181036000830152620004bb8162000479565b9050919050565b7f46656520416d6f756e7420697320726571756972656400000000000000000000600082015250565b6000620004fa601683620003cd565b91506200050782620004c2565b602082019050919050565b600060208201905081810360008301526200052d81620004eb565b9050919050565b612f5a80620005446000396000f3fe60806040526004361061009c5760003560e01c8063a16c86f711610064578063a16c86f714610174578063ae6ca58d146101b1578063d45f858e146101ee578063e3a9db1a1461020a578063e5b7e2b414610247578063f4b86023146102845761009c565b80632c16cd8a146100a157806334a4b877146100de57806338af3eed1461010957806369fe0e2d146101345780639af6549a1461015d575b600080fd5b3480156100ad57600080fd5b506100c860048036038101906100c39190611b01565b6102af565b6040516100d59190611d82565b60405180910390f35b3480156100ea57600080fd5b506100f36105ac565b6040516101009190611db3565b60405180910390f35b34801561011557600080fd5b5061011e6105b6565b60405161012b9190611def565b60405180910390f35b34801561014057600080fd5b5061015b60048036038101906101569190611b01565b6105e0565b005b34801561016957600080fd5b506101726106b5565b005b34801561018057600080fd5b5061019b60048036038101906101969190611e36565b6107c6565b6040516101a89190611e7e565b60405180910390f35b3480156101bd57600080fd5b506101d860048036038101906101d391906120ad565b610977565b6040516101e59190611e7e565b60405180910390f35b610208600480360381019061020391906121b6565b610fb1565b005b34801561021657600080fd5b50610231600480360381019061022c91906121ff565b61143c565b60405161023e9190611db3565b60405180910390f35b34801561025357600080fd5b5061026e600480360381019061026991906121ff565b611485565b60405161027b91906122db565b60405180910390f35b34801561029057600080fd5b5061029961151c565b6040516102a6919061230c565b60405180910390f35b6102b7611a1f565b6001600083815260200190815260200160002060405180610160016040529081600082015481526020016001820180546102f090612356565b80601f016020809104026020016040519081016040528092919081815260200182805461031c90612356565b80156103695780601f1061033e57610100808354040283529160200191610369565b820191906000526020600020905b81548152906001019060200180831161034c57829003601f168201915b505050505081526020016002820160009054906101000a900473ffffffffffffffffffffffffffffffffffffffff1673ffffffffffffffffffffffffffffffffffffffff1673ffffffffffffffffffffffffffffffffffffffff1681526020016003820180546103d890612356565b80601f016020809104026020016040519081016040528092919081815260200182805461040490612356565b80156104515780601f1061042657610100808354040283529160200191610451565b820191906000526020600020905b81548152906001019060200180831161043457829003601f168201915b505050505081526020016004820160009054906101000a900473ffffffffffffffffffffffffffffffffffffffff1673ffffffffffffffffffffffffffffffffffffffff1673ffffffffffffffffffffffffffffffffffffffff168152602001600582015481526020016006820154815260200160078201548152602001600882015481526020016009820180546104e890612356565b80601f016020809104026020016040519081016040528092919081815260200182805461051490612356565b80156105615780601f1061053657610100808354040283529160200191610561565b820191906000526020600020905b81548152906001019060200180831161054457829003601f168201915b50505050508152602001600a820160009054906101000a900460ff16600281111561058f5761058e611c0e565b5b60028111156105a1576105a0611c0e565b5b815250509050919050565b6000600a54905090565b6000600460009054906101000a900473ffffffffffffffffffffffffffffffffffffffff16905090565b3373ffffffffffffffffffffffffffffffffffffffff16600660009054906101000a900473ffffffffffffffffffffffffffffffffffffffff1673ffffffffffffffffffffffffffffffffffffffff1614610670576040517f08c379a0000000000000000000000000000000000000000000000000000000008152600401610667906123e4565b60405180910390fd5b80600b819055507f528d9479e9f9889a87a3c30c7f7ba537e5e59c4c85a37733b16e57c62df61302600a54826040516106aa929190612404565b60405180910390a150565b3373ffffffffffffffffffffffffffffffffffffffff16600660009054906101000a900473ffffffffffffffffffffffffffffffffffffffff1673ffffffffffffffffffffffffffffffffffffffff1614610745576040517f08c379a000000000000000000000000000000000000000000000000000000000815260040161073c906123e4565b60405180910390fd5b6000600c541161078a576040517f08c379a000000000000000000000000000000000000000000000000000000000815260040161078190612479565b60405180910390fd5b6000600c819055506107c4600c546107a06105b6565b73ffffffffffffffffffffffffffffffffffffffff1661154690919063ffffffff16565b565b60003373ffffffffffffffffffffffffffffffffffffffff16600660009054906101000a900473ffffffffffffffffffffffffffffffffffffffff1673ffffffffffffffffffffffffffffffffffffffff1614610858576040517f08c379a000000000000000000000000000000000000000000000000000000000815260040161084f906123e4565b60405180910390fd5b6000600960008473ffffffffffffffffffffffffffffffffffffffff1673ffffffffffffffffffffffffffffffffffffffff16815260200190815260200160002054116108da576040517f08c379a00000000000000000000000000000000000000000000000000000000081526004016108d19061250b565b60405180910390fd5b6000600960008473ffffffffffffffffffffffffffffffffffffffff1673ffffffffffffffffffffffffffffffffffffffff1681526020019081526020016000205490506000600960008573ffffffffffffffffffffffffffffffffffffffff1673ffffffffffffffffffffffffffffffffffffffff1681526020019081526020016000208190555061096d8382611633565b6001915050919050565b60003373ffffffffffffffffffffffffffffffffffffffff16600660009054906101000a900473ffffffffffffffffffffffffffffffffffffffff1673ffffffffffffffffffffffffffffffffffffffff1614610a09576040517f08c379a0000000000000000000000000000000000000000000000000000000008152600401610a00906123e4565b60405180910390fd5b600060016000846000015181526020019081526020016000206000015411610a66576040517f08c379a0000000000000000000000000000000000000000000000000000000008152600401610a5d9061259d565b60405180910390fd5b600280811115610a7957610a78611c0e565b5b6001600084600001518152602001908152602001600020600a0160009054906101000a900460ff166002811115610ab357610ab2611c0e565b5b14610af3576040517f08c379a0000000000000000000000000000000000000000000000000000000008152600401610aea90612609565b60405180910390fd5b600080610b25600b546001600087600001518152602001908152602001600020600501546116ae90919063ffffffff16565b9150915081610b69576040517f08c379a0000000000000000000000000000000000000000000000000000000008152600401610b609061269b565b60405180910390fd5b8060086000600160008860000151815260200190815260200160002060040160009054906101000a900473ffffffffffffffffffffffffffffffffffffffff1673ffffffffffffffffffffffffffffffffffffffff1673ffffffffffffffffffffffffffffffffffffffff168152602001908152602001600020541015610c25576040517f08c379a0000000000000000000000000000000000000000000000000000000008152600401610c1c9061272d565b60405180910390fd5b60006002811115610c3957610c38611c0e565b5b84606001516002811115610c5057610c4f611c0e565b5b03610ce457610c99600160008660000151815260200190815260200160002060040160009054906101000a900473ffffffffffffffffffffffffffffffffffffffff16826116dd565b83606001516001600086600001518152602001908152602001600020600a0160006101000a81548160ff02191690836002811115610cda57610cd9611c0e565b5b0217905550610fa6565b60016002811115610cf857610cf7611c0e565b5b84606001516002811115610d0f57610d0e611c0e565b5b14610d4f576040517f08c379a0000000000000000000000000000000000000000000000000000000008152600401610d4690612799565b60405180910390fd5b600080610d6783600c546116ae90919063ffffffff16565b9150915081610dab576040517f08c379a0000000000000000000000000000000000000000000000000000000008152600401610da29061282b565b60405180910390fd5b600080610e3a8560086000600160008d60000151815260200190815260200160002060040160009054906101000a900473ffffffffffffffffffffffffffffffffffffffff1673ffffffffffffffffffffffffffffffffffffffff1673ffffffffffffffffffffffffffffffffffffffff168152602001908152602001600020546119f790919063ffffffff16565b9150915081610e7e576040517f08c379a0000000000000000000000000000000000000000000000000000000008152600401610e75906128bd565b60405180910390fd5b82600c819055508060086000600160008c60000151815260200190815260200160002060040160009054906101000a900473ffffffffffffffffffffffffffffffffffffffff1673ffffffffffffffffffffffffffffffffffffffff1673ffffffffffffffffffffffffffffffffffffffff168152602001908152602001600020819055508760400151600160008a6000015181526020019081526020016000206009019081610f2e9190612a89565b508760600151600160008a600001518152602001908152602001600020600a0160006101000a81548160ff02191690836002811115610f7057610f6f611c0e565b5b02179055508760200151600160008a6000015181526020019081526020016000206003019081610fa09190612a89565b50505050505b600192505050919050565b3373ffffffffffffffffffffffffffffffffffffffff16600760009054906101000a900473ffffffffffffffffffffffffffffffffffffffff1673ffffffffffffffffffffffffffffffffffffffff1614611041576040517f08c379a000000000000000000000000000000000000000000000000000000000815260040161103890612ba7565b60405180910390fd5b600034905060008061109f60086000866000015173ffffffffffffffffffffffffffffffffffffffff1673ffffffffffffffffffffffffffffffffffffffff16815260200190815260200160002054846116ae90919063ffffffff16565b91509150816110e3576040517f08c379a00000000000000000000000000000000000000000000000000000000081526004016110da90612c13565b60405180910390fd5b8060086000866000015173ffffffffffffffffffffffffffffffffffffffff1673ffffffffffffffffffffffffffffffffffffffff168152602001908152602001600020819055506000604051806101600160405280600054815260200186606001518152602001600560009054906101000a900473ffffffffffffffffffffffffffffffffffffffff1673ffffffffffffffffffffffffffffffffffffffff168152602001604051806020016040528060008152508152602001866000015173ffffffffffffffffffffffffffffffffffffffff16815260200186602001518152602001600b5481526020018660400151815260200142815260200160405180602001604052806000815250815260200160028081111561120857611207611c0e565b5b8152509050600160008082825461121f9190612c62565b925050819055506001600360008282546112399190612c62565b925050819055508060016000836000015181526020019081526020016000206000820151816000015560208201518160010190816112779190612a89565b5060408201518160020160006101000a81548173ffffffffffffffffffffffffffffffffffffffff021916908373ffffffffffffffffffffffffffffffffffffffff16021790555060608201518160030190816112d49190612a89565b5060808201518160040160006101000a81548173ffffffffffffffffffffffffffffffffffffffff021916908373ffffffffffffffffffffffffffffffffffffffff16021790555060a0820151816005015560c0820151816006015560e08201518160070155610100820151816008015561012082015181600901908161135b9190612a89565b5061014082015181600a0160006101000a81548160ff0219169083600281111561138857611387611c0e565b5b021790555090505060026000826080015173ffffffffffffffffffffffffffffffffffffffff1673ffffffffffffffffffffffffffffffffffffffff168152602001908152602001600020816000015190806001815401808255809150506001900390600052602060002001600090919091909150557f600d16f62674ed495bf7267a98a253325b6f464cbc486bf1b9a66e101551e4e58160405161142d9190611d82565b60405180910390a15050505050565b6000600860008373ffffffffffffffffffffffffffffffffffffffff1673ffffffffffffffffffffffffffffffffffffffff168152602001908152602001600020549050919050565b6060600260008373ffffffffffffffffffffffffffffffffffffffff1673ffffffffffffffffffffffffffffffffffffffff16815260200190815260200160002080548060200260200160405190810160405280929190818152602001828054801561151057602002820191906000526020600020905b8154815260200190600101908083116114fc575b50505050509050919050565b6000600560009054906101000a900473ffffffffffffffffffffffffffffffffffffffff16905090565b8047101561158b57306040517fcd786059000000000000000000000000000000000000000000000000000000008152600401611582919061230c565b60405180910390fd5b60008273ffffffffffffffffffffffffffffffffffffffff16826040516115b190612cc7565b60006040518083038185875af1925050503d80600081146115ee576040519150601f19603f3d011682016040523d82523d6000602084013e6115f3565b606091505b505090508061162e576040517f1425ea4200000000000000000000000000000000000000000000000000000000815260040160405180910390fd5b505050565b61165c818373ffffffffffffffffffffffffffffffffffffffff1661154690919063ffffffff16565b8173ffffffffffffffffffffffffffffffffffffffff167f3d97f39b86d061200a7834082f5926e58ec10fd85a9d6930f497729d5e6cc35c826040516116a29190611db3565b60405180910390a25050565b60008060008385019050848110156116cd5760008092509250506116d6565b60018192509250505b9250929050565b60008061173283600960008773ffffffffffffffffffffffffffffffffffffffff1673ffffffffffffffffffffffffffffffffffffffff168152602001908152602001600020546116ae90919063ffffffff16565b9150915081611776576040517f08c379a000000000000000000000000000000000000000000000000000000000815260040161176d90612d4e565b60405180910390fd5b600081905083600860008773ffffffffffffffffffffffffffffffffffffffff1673ffffffffffffffffffffffffffffffffffffffff1681526020019081526020016000205410156117fd576040517f08c379a00000000000000000000000000000000000000000000000000000000081526004016117f490612de0565b60405180910390fd5b80600860008773ffffffffffffffffffffffffffffffffffffffff1673ffffffffffffffffffffffffffffffffffffffff16815260200190815260200160002054101561187f576040517f08c379a000000000000000000000000000000000000000000000000000000000815260040161187690612e72565b60405180910390fd5b6000806118d486600860008a73ffffffffffffffffffffffffffffffffffffffff1673ffffffffffffffffffffffffffffffffffffffff168152602001908152602001600020546119f790919063ffffffff16565b9150915081611918576040517f08c379a000000000000000000000000000000000000000000000000000000000815260040161190f90612f04565b60405180910390fd5b80600860008973ffffffffffffffffffffffffffffffffffffffff1673ffffffffffffffffffffffffffffffffffffffff1681526020019081526020016000208190555082600960008973ffffffffffffffffffffffffffffffffffffffff1673ffffffffffffffffffffffffffffffffffffffff168152602001908152602001600020819055508673ffffffffffffffffffffffffffffffffffffffff167f7fd36617a06b55977ffa06f8dc94b5ec0650c2b7b353fa22c7d0f211284dc749876040516119e69190611db3565b60405180910390a250505050505050565b60008083831115611a0e5760008091509150611a18565b6001838503915091505b9250929050565b6040518061016001604052806000815260200160608152602001600073ffffffffffffffffffffffffffffffffffffffff16815260200160608152602001600073ffffffffffffffffffffffffffffffffffffffff168152602001600081526020016000815260200160008152602001600081526020016060815260200160006002811115611ab157611ab0611c0e565b5b81525090565b6000604051905090565b600080fd5b600080fd5b6000819050919050565b611ade81611acb565b8114611ae957600080fd5b50565b600081359050611afb81611ad5565b92915050565b600060208284031215611b1757611b16611ac1565b5b6000611b2584828501611aec565b91505092915050565b611b3781611acb565b82525050565b600081519050919050565b600082825260208201905092915050565b60005b83811015611b77578082015181840152602081019050611b5c565b60008484015250505050565b6000601f19601f8301169050919050565b6000611b9f82611b3d565b611ba98185611b48565b9350611bb9818560208601611b59565b611bc281611b83565b840191505092915050565b600073ffffffffffffffffffffffffffffffffffffffff82169050919050565b6000611bf882611bcd565b9050919050565b611c0881611bed565b82525050565b7f4e487b7100000000000000000000000000000000000000000000000000000000600052602160045260246000fd5b60038110611c4e57611c4d611c0e565b5b50565b6000819050611c5f82611c3d565b919050565b6000611c6f82611c51565b9050919050565b611c7f81611c64565b82525050565b600061016083016000830151611c9e6000860182611b2e565b5060208301518482036020860152611cb68282611b94565b9150506040830151611ccb6040860182611bff565b5060608301518482036060860152611ce38282611b94565b9150506080830151611cf86080860182611bff565b5060a0830151611d0b60a0860182611b2e565b5060c0830151611d1e60c0860182611b2e565b5060e0830151611d3160e0860182611b2e565b50610100830151611d46610100860182611b2e565b50610120830151848203610120860152611d608282611b94565b915050610140830151611d77610140860182611c76565b508091505092915050565b60006020820190508181036000830152611d9c8184611c85565b905092915050565b611dad81611acb565b82525050565b6000602082019050611dc86000830184611da4565b92915050565b6000611dd982611bcd565b9050919050565b611de981611dce565b82525050565b6000602082019050611e046000830184611de0565b92915050565b611e1381611dce565b8114611e1e57600080fd5b50565b600081359050611e3081611e0a565b92915050565b600060208284031215611e4c57611e4b611ac1565b5b6000611e5a84828501611e21565b91505092915050565b60008115159050919050565b611e7881611e63565b82525050565b6000602082019050611e936000830184611e6f565b92915050565b600080fd5b7f4e487b7100000000000000000000000000000000000000000000000000000000600052604160045260246000fd5b611ed682611b83565b810181811067ffffffffffffffff82111715611ef557611ef4611e9e565b5b80604052505050565b6000611f08611ab7565b9050611f148282611ecd565b919050565b600080fd5b600080fd5b600080fd5b600067ffffffffffffffff821115611f4357611f42611e9e565b5b611f4c82611b83565b9050602081019050919050565b82818337600083830152505050565b6000611f7b611f7684611f28565b611efe565b905082815260208101848484011115611f9757611f96611f23565b5b611fa2848285611f59565b509392505050565b600082601f830112611fbf57611fbe611f1e565b5b8135611fcf848260208601611f68565b91505092915050565b60038110611fe557600080fd5b50565b600081359050611ff781611fd8565b92915050565b60006080828403121561201357612012611e99565b5b61201d6080611efe565b9050600061202d84828501611aec565b600083015250602082013567ffffffffffffffff81111561205157612050611f19565b5b61205d84828501611faa565b602083015250604082013567ffffffffffffffff81111561208157612080611f19565b5b61208d84828501611faa565b60408301525060606120a184828501611fe8565b60608301525092915050565b6000602082840312156120c3576120c2611ac1565b5b600082013567ffffffffffffffff8111156120e1576120e0611ac6565b5b6120ed84828501611ffd565b91505092915050565b6120ff81611bed565b811461210a57600080fd5b50565b60008135905061211c816120f6565b92915050565b60006080828403121561213857612137611e99565b5b6121426080611efe565b905060006121528482850161210d565b600083015250602061216684828501611aec565b602083015250604061217a84828501611aec565b604083015250606082013567ffffffffffffffff81111561219e5761219d611f19565b5b6121aa84828501611faa565b60608301525092915050565b6000602082840312156121cc576121cb611ac1565b5b600082013567ffffffffffffffff8111156121ea576121e9611ac6565b5b6121f684828501612122565b91505092915050565b60006020828403121561221557612214611ac1565b5b60006122238482850161210d565b91505092915050565b600081519050919050565b600082825260208201905092915050565b6000819050602082019050919050565b60006122648383611b2e565b60208301905092915050565b6000602082019050919050565b60006122888261222c565b6122928185612237565b935061229d83612248565b8060005b838110156122ce5781516122b58882612258565b97506122c083612270565b9250506001810190506122a1565b5085935050505092915050565b600060208201905081810360008301526122f5818461227d565b905092915050565b61230681611bed565b82525050565b600060208201905061232160008301846122fd565b92915050565b7f4e487b7100000000000000000000000000000000000000000000000000000000600052602260045260246000fd5b6000600282049050600182168061236e57607f821691505b60208210810361238157612380612327565b5b50919050565b600082825260208201905092915050565b7f43616c6c6572206973206e6f7420746865206d616e6167657200000000000000600082015250565b60006123ce601983612387565b91506123d982612398565b602082019050919050565b600060208201905081810360008301526123fd816123c1565b9050919050565b60006040820190506124196000830185611da4565b6124266020830184611da4565b9392505050565b7f5468657265206973206e6f2062616c616e636520746f2072656c656173652e00600082015250565b6000612463601f83612387565b915061246e8261242d565b602082019050919050565b6000602082019050818103600083015261249281612456565b9050919050565b7f41646472657373206973206e6f7420616c6c6f77656420616e7920726566756e60008201527f6473000000000000000000000000000000000000000000000000000000000000602082015250565b60006124f5602283612387565b915061250082612499565b604082019050919050565b60006020820190508181036000830152612524816124e8565b9050919050565b7f46756c66696c6c6d656e74207265636f726420646f6573206e6f74206578697360008201527f7400000000000000000000000000000000000000000000000000000000000000602082015250565b6000612587602183612387565b91506125928261252b565b604082019050919050565b600060208201905081810360008301526125b68161257a565b9050919050565b7f46756c66696c6c6d656e7420616c726561647920726567697374657265640000600082015250565b60006125f3601e83612387565b91506125fe826125bd565b602082019050919050565b60006020820190508181036000830152612622816125e6565b9050919050565b7f4f766572666c6f77207768696c6520616464696e672066756c66696c6c6d656e60008201527f7420616d6f756e7420616e642066656500000000000000000000000000000000602082015250565b6000612685603083612387565b915061269082612629565b604082019050919050565b600060208201905081810360008301526126b481612678565b9050919050565b7f5468657265206973206e6f7420656e6f7567682062616c616e636520746f206260008201527f652072656c656173656400000000000000000000000000000000000000000000602082015250565b6000612717602a83612387565b9150612722826126bb565b604082019050919050565b600060208201905081810360008301526127468161270a565b9050919050565b7f556e657870656374656420737461747573000000000000000000000000000000600082015250565b6000612783601183612387565b915061278e8261274d565b602082019050919050565b600060208201905081810360008301526127b281612776565b9050919050565b7f4f766572666c6f77207768696c6520616464696e6720746f2072656c6561736560008201527f61626c6520706f6f6c0000000000000000000000000000000000000000000000602082015250565b6000612815602983612387565b9150612820826127b9565b604082019050919050565b6000602082019050818103600083015261284481612808565b9050919050565b7f4f766572666c6f77207768696c6520737562737472616374696e672066726f6d60008201527f206465706f736974730000000000000000000000000000000000000000000000602082015250565b60006128a7602983612387565b91506128b28261284b565b604082019050919050565b600060208201905081810360008301526128d68161289a565b9050919050565b60008190508160005260206000209050919050565b60006020601f8301049050919050565b600082821b905092915050565b60006008830261293f7fffffffffffffffffffffffffffffffffffffffffffffffffffffffffffffffff82612902565b6129498683612902565b95508019841693508086168417925050509392505050565b6000819050919050565b600061298661298161297c84611acb565b612961565b611acb565b9050919050565b6000819050919050565b6129a08361296b565b6129b46129ac8261298d565b84845461290f565b825550505050565b600090565b6129c96129bc565b6129d4818484612997565b505050565b5b818110156129f8576129ed6000826129c1565b6001810190506129da565b5050565b601f821115612a3d57612a0e816128dd565b612a17846128f2565b81016020851015612a26578190505b612a3a612a32856128f2565b8301826129d9565b50505b505050565b600082821c905092915050565b6000612a6060001984600802612a42565b1980831691505092915050565b6000612a798383612a4f565b9150826002028217905092915050565b612a9282611b3d565b67ffffffffffffffff811115612aab57612aaa611e9e565b5b612ab58254612356565b612ac08282856129fc565b600060209050601f831160018114612af35760008415612ae1578287015190505b612aeb8582612a6d565b865550612b53565b601f198416612b01866128dd565b60005b82811015612b2957848901518255600182019150602085019450602081019050612b04565b86831015612b465784890151612b42601f891682612a4f565b8355505b6001600288020188555050505b505050505050565b7f43616c6c6572206973206e6f742074686520726f757465720000000000000000600082015250565b6000612b91601883612387565b9150612b9c82612b5b565b602082019050919050565b60006020820190508181036000830152612bc081612b84565b9050919050565b7f4f766572666c6f77207768696c6520616464696e67206465706f736974730000600082015250565b6000612bfd601e83612387565b9150612c0882612bc7565b602082019050919050565b60006020820190508181036000830152612c2c81612bf0565b9050919050565b7f4e487b7100000000000000000000000000000000000000000000000000000000600052601160045260246000fd5b6000612c6d82611acb565b9150612c7883611acb565b9250828201905080821115612c9057612c8f612c33565b5b92915050565b600081905092915050565b50565b6000612cb1600083612c96565b9150612cbc82612ca1565b600082019050919050565b6000612cd282612ca4565b9150819050919050565b7f4f766572666c6f77207768696c6520616464696e6720617574686f72697a656460008201527f20726566756e6473000000000000000000000000000000000000000000000000602082015250565b6000612d38602883612387565b9150612d4382612cdc565b604082019050919050565b60006020820190508181036000830152612d6781612d2b565b9050919050565b7f416d6f756e7420697320626967676572207468616e2074686520746f74616c2060008201527f696e20657363726f770000000000000000000000000000000000000000000000602082015250565b6000612dca602983612387565b9150612dd582612d6e565b604082019050919050565b60006020820190508181036000830152612df981612dbd565b9050919050565b7f546f74616c20726566756e647320776f756c642062652062696767657220746860008201527f616e2074686520746f74616c20696e20657363726f7700000000000000000000602082015250565b6000612e5c603683612387565b9150612e6782612e00565b604082019050919050565b60006020820190508181036000830152612e8b81612e4f565b9050919050565b7f4f766572666c6f77207768696c6520737562737472616374696e67206465706f60008201527f7369747300000000000000000000000000000000000000000000000000000000602082015250565b6000612eee602483612387565b9150612ef982612e92565b604082019050919050565b60006020820190508181036000830152612f1d81612ee1565b905091905056fea26469706673582212205f33a3948b0968c46938eab9cb032920364a403f216f668e0cd77937b3d9e9e664736f6c63430008140033",
  "linkReferences": {},
  "deployedLinkReferences": {}
}