{
  "contractName": "RouterUpgradeTester",
  "abi": [
    {
      "anonymous": false,
      "inputs": [
        {
          "indexed": false,
          "internalType": "address",
          "name": "previousAdmin",
          "type": "address"
        },
        {
          "indexed": false,
          "internalType": "address",
          "name": "newAdmin",
          "type": "address"
        }
      ],
      "name": "AdminChanged",
      "type": "event"
    },
    {
      "anonymous": false,
      "inputs": [
        {
          "indexed": true,
          "internalType": "address",
          "name": "beacon",
          "type": "address"
        }
      ],
      "name": "BeaconUpgraded",
      "type": "event"
    },
    {
      "anonymous": false,
      "inputs": [
        {
          "indexed": false,
          "internalType": "uint8",
          "name": "version",
          "type": "uint8"
        }
      ],
      "name": "Initialized",
      "type": "event"
    },
    {
      "anonymous": false,
      "inputs": [
        {
          "indexed": true,
          "internalType": "address",
          "name": "previousOwner",
          "type": "address"
        },
        {
          "indexed": true,
          "internalType": "address",
          "name": "newOwner",
          "type": "address"
        }
      ],
      "name": "OwnershipTransferred",
      "type": "event"
    },
    {
      "anonymous": false,
      "inputs": [
        {
          "indexed": false,
          "internalType": "address",
          "name": "account",
          "type": "address"
        }
      ],
      "name": "Paused",
      "type": "event"
    },
    {
      "anonymous": false,
      "inputs": [
        {
          "indexed": false,
          "internalType": "uint256",
          "name": "serviceID",
          "type": "uint256"
        },
        {
          "indexed": false,
          "internalType": "string",
          "name": "serviceRef",
          "type": "string"
        }
      ],
      "name": "RefValidationFailed",
      "type": "event"
    },
    {
      "anonymous": false,
      "inputs": [
        {
          "indexed": false,
          "internalType": "uint256",
          "name": "serviceID",
          "type": "uint256"
        },
        {
          "indexed": false,
          "internalType": "address",
          "name": "escrow",
          "type": "address"
        },
        {
          "indexed": false,
          "internalType": "address",
          "name": "validator",
          "type": "address"
        }
      ],
      "name": "ServiceAdded",
      "type": "event"
    },
    {
      "anonymous": false,
      "inputs": [
        {
          "indexed": true,
          "internalType": "address",
          "name": "payer",
          "type": "address"
        },
        {
          "indexed": false,
          "internalType": "uint256",
          "name": "weiAmount",
          "type": "uint256"
        },
        {
          "indexed": false,
          "internalType": "bytes32",
          "name": "serviceRef",
          "type": "bytes32"
        },
        {
          "indexed": false,
          "internalType": "uint256",
          "name": "serviceID",
          "type": "uint256"
        },
        {
          "indexed": false,
          "internalType": "uint256",
          "name": "fiatAmout",
          "type": "uint256"
        }
      ],
      "name": "ServiceRequested",
      "type": "event"
    },
    {
      "anonymous": false,
      "inputs": [
        {
          "indexed": false,
          "internalType": "address",
          "name": "account",
          "type": "address"
        }
      ],
      "name": "Unpaused",
      "type": "event"
    },
    {
      "anonymous": false,
      "inputs": [
        {
          "indexed": true,
          "internalType": "address",
          "name": "implementation",
          "type": "address"
        }
      ],
      "name": "Upgraded",
      "type": "event"
    },
    {
      "inputs": [],
      "name": "initialize",
      "outputs": [],
      "stateMutability": "nonpayable",
      "type": "function"
    },
    {
      "inputs": [],
      "name": "owner",
      "outputs": [
        {
          "internalType": "address",
          "name": "",
          "type": "address"
        }
      ],
      "stateMutability": "view",
      "type": "function"
    },
    {
      "inputs": [],
      "name": "pause",
      "outputs": [],
      "stateMutability": "nonpayable",
      "type": "function"
    },
    {
      "inputs": [],
      "name": "paused",
      "outputs": [
        {
          "internalType": "bool",
          "name": "",
          "type": "bool"
        }
      ],
      "stateMutability": "view",
      "type": "function"
    },
    {
      "inputs": [],
      "name": "proxiableUUID",
      "outputs": [
        {
          "internalType": "bytes32",
          "name": "",
          "type": "bytes32"
        }
      ],
      "stateMutability": "view",
      "type": "function"
    },
    {
      "inputs": [],
      "name": "renounceOwnership",
      "outputs": [],
      "stateMutability": "nonpayable",
      "type": "function"
    },
    {
      "inputs": [
        {
          "internalType": "uint256",
          "name": "serviceID",
          "type": "uint256"
        },
        {
          "internalType": "string",
          "name": "serviceRef",
          "type": "string"
        },
        {
          "internalType": "uint256",
          "name": "fiatAmount",
          "type": "uint256"
        }
      ],
      "name": "requestService",
      "outputs": [
        {
          "internalType": "bool",
          "name": "",
          "type": "bool"
        }
      ],
      "stateMutability": "payable",
      "type": "function"
    },
    {
      "inputs": [
        {
          "internalType": "uint256",
          "name": "serviceID",
          "type": "uint256"
        }
      ],
      "name": "serviceOf",
      "outputs": [
        {
          "internalType": "address[2]",
          "name": "",
          "type": "address[2]"
        }
      ],
      "stateMutability": "view",
      "type": "function"
    },
    {
      "inputs": [
        {
          "internalType": "uint256",
          "name": "serviceID",
          "type": "uint256"
        },
        {
          "internalType": "address",
          "name": "serviceEscrow",
          "type": "address"
        },
        {
          "internalType": "address",
          "name": "validator",
          "type": "address"
        }
      ],
      "name": "setService",
      "outputs": [
        {
          "internalType": "address[2]",
          "name": "",
          "type": "address[2]"
        }
      ],
      "stateMutability": "nonpayable",
      "type": "function"
    },
    {
      "inputs": [
        {
          "internalType": "address",
          "name": "newOwner",
          "type": "address"
        }
      ],
      "name": "transferOwnership",
      "outputs": [],
      "stateMutability": "nonpayable",
      "type": "function"
    },
    {
      "inputs": [],
      "name": "unpause",
      "outputs": [],
      "stateMutability": "nonpayable",
      "type": "function"
    },
    {
      "inputs": [
        {
          "internalType": "address",
          "name": "newImplementation",
          "type": "address"
        }
      ],
      "name": "upgradeTo",
      "outputs": [],
      "stateMutability": "nonpayable",
      "type": "function"
    },
    {
      "inputs": [
        {
          "internalType": "address",
          "name": "newImplementation",
          "type": "address"
        },
        {
          "internalType": "bytes",
          "name": "data",
          "type": "bytes"
        }
      ],
      "name": "upgradeToAndCall",
      "outputs": [],
      "stateMutability": "payable",
      "type": "function"
    },
    {
      "inputs": [],
      "name": "isUpgrade",
      "outputs": [
        {
          "internalType": "bool",
          "name": "",
          "type": "bool"
        }
      ],
      "stateMutability": "view",
      "type": "function"
    }
  ],
  "bytecode": "0x60a06040523073ffffffffffffffffffffffffffffffffffffffff1660809073ffffffffffffffffffffffffffffffffffffffff1681525034801561004357600080fd5b50608051612e0c61007b60003960008181610304015281816103920152818161049e0152818161052c01526105dc0152612e0c6000f3fe6080604052600436106100dd5760003560e01c80638456cb591161007f578063d67db75311610059578063d67db75314610234578063e317050114610271578063e38a303b146102ae578063f2fde38b146102d9576100dd565b80638456cb59146101c25780638da5cb5b146101d9578063b8d99a1814610204576100dd565b806352d1902d116100bb57806352d1902d1461013e5780635c975abb14610169578063715018a6146101945780638129fc1c146101ab576100dd565b80633659cfe6146100e25780633f4ba83a1461010b5780634f1ef28614610122575b600080fd5b3480156100ee57600080fd5b5061010960048036038101906101049190611a8e565b610302565b005b34801561011757600080fd5b5061012061048a565b005b61013c60048036038101906101379190611c01565b61049c565b005b34801561014a57600080fd5b506101536105d8565b6040516101609190611c76565b60405180910390f35b34801561017557600080fd5b5061017e610691565b60405161018b9190611cac565b60405180910390f35b3480156101a057600080fd5b506101a96106a8565b005b3480156101b757600080fd5b506101c06106bc565b005b3480156101ce57600080fd5b506101d761080a565b005b3480156101e557600080fd5b506101ee61081c565b6040516101fb9190611cd6565b60405180910390f35b61021e60048036038101906102199190611dc8565b610846565b60405161022b9190611cac565b60405180910390f35b34801561024057600080fd5b5061025b60048036038101906102569190611e37565b610b4e565b6040516102689190611f35565b60405180910390f35b34801561027d57600080fd5b5061029860048036038101906102939190611f50565b610e3a565b6040516102a59190611f35565b60405180910390f35b3480156102ba57600080fd5b506102c3611060565b6040516102d09190611cac565b60405180910390f35b3480156102e557600080fd5b5061030060048036038101906102fb9190611a8e565b611071565b005b7f000000000000000000000000000000000000000000000000000000000000000073ffffffffffffffffffffffffffffffffffffffff163073ffffffffffffffffffffffffffffffffffffffff1603610390576040517f08c379a000000000000000000000000000000000000000000000000000000000815260040161038790612000565b60405180910390fd5b7f000000000000000000000000000000000000000000000000000000000000000073ffffffffffffffffffffffffffffffffffffffff166103cf6110f4565b73ffffffffffffffffffffffffffffffffffffffff1614610425576040517f08c379a000000000000000000000000000000000000000000000000000000000815260040161041c90612092565b60405180910390fd5b61042e8161114b565b61048781600067ffffffffffffffff81111561044d5761044c611ad6565b5b6040519080825280601f01601f19166020018201604052801561047f5781602001600182028036833780820191505090505b506000611156565b50565b6104926112c4565b61049a611342565b565b7f000000000000000000000000000000000000000000000000000000000000000073ffffffffffffffffffffffffffffffffffffffff163073ffffffffffffffffffffffffffffffffffffffff160361052a576040517f08c379a000000000000000000000000000000000000000000000000000000000815260040161052190612000565b60405180910390fd5b7f000000000000000000000000000000000000000000000000000000000000000073ffffffffffffffffffffffffffffffffffffffff166105696110f4565b73ffffffffffffffffffffffffffffffffffffffff16146105bf576040517f08c379a00000000000000000000000000000000000000000000000000000000081526004016105b690612092565b60405180910390fd5b6105c88261114b565b6105d482826001611156565b5050565b60007f000000000000000000000000000000000000000000000000000000000000000073ffffffffffffffffffffffffffffffffffffffff163073ffffffffffffffffffffffffffffffffffffffff1614610668576040517f08c379a000000000000000000000000000000000000000000000000000000000815260040161065f90612124565b60405180910390fd5b7f360894a13ba1a3210667c828492db98dca3e2076cc3735a920a3ca505d382bbc60001b905090565b6000606560009054906101000a900460ff16905090565b6106b06112c4565b6106ba60006113a5565b565b60008060019054906101000a900460ff161590508080156106ed5750600160008054906101000a900460ff1660ff16105b8061071a57506106fc3061146b565b1580156107195750600160008054906101000a900460ff1660ff16145b5b610759576040517f08c379a0000000000000000000000000000000000000000000000000000000008152600401610750906121b6565b60405180910390fd5b60016000806101000a81548160ff021916908360ff1602179055508015610796576001600060016101000a81548160ff0219169083151502179055505b61079e61148e565b6107a66114e7565b6107ae611540565b80156108075760008060016101000a81548160ff0219169083151502179055507f7f26b83ff96e1f2b6a682f133852f6798a09c465da95921460cefb384740249860016040516107fe9190612228565b60405180910390a15b50565b6108126112c4565b61081a611591565b565b6000603360009054906101000a900473ffffffffffffffffffffffffffffffffffffffff16905090565b60006108506115f4565b600073ffffffffffffffffffffffffffffffffffffffff1660fb600086815260200190815260200160002060009054906101000a900473ffffffffffffffffffffffffffffffffffffffff1673ffffffffffffffffffffffffffffffffffffffff16036108f2576040517f08c379a00000000000000000000000000000000000000000000000000000000081526004016108e99061228f565b60405180910390fd5b600073ffffffffffffffffffffffffffffffffffffffff1660fc600086815260200190815260200160002060009054906101000a900473ffffffffffffffffffffffffffffffffffffffff1673ffffffffffffffffffffffffffffffffffffffff1603610994576040517f08c379a000000000000000000000000000000000000000000000000000000000815260040161098b90612321565b60405180910390fd5b600034116109d7576040517f08c379a00000000000000000000000000000000000000000000000000000000081526004016109ce9061238d565b60405180910390fd5b60fc600085815260200190815260200160002060009054906101000a900473ffffffffffffffffffffffffffffffffffffffff1673ffffffffffffffffffffffffffffffffffffffff166332ac752b846040518263ffffffff1660e01b8152600401610a43919061241b565b602060405180830381865afa158015610a60573d6000803e3d6000fd5b505050506040513d601f19601f82011682018060405250810190610a849190612469565b610ac3576040517f08c379a0000000000000000000000000000000000000000000000000000000008152600401610aba90612508565b60405180910390fd5b600083604051602001610ad69190612564565b6040516020818303038152906040528051906020012090503373ffffffffffffffffffffffffffffffffffffffff167f5cdc58d47f5670166ed7a044c99e954686a2c7426ff80614666cdeac3e8fb01934838887604051610b3a949392919061258a565b60405180910390a260019150509392505050565b610b566119fa565b610b5e6112c4565b60008411610ba1576040517f08c379a0000000000000000000000000000000000000000000000000000000008152600401610b989061261b565b60405180910390fd5b600073ffffffffffffffffffffffffffffffffffffffff168373ffffffffffffffffffffffffffffffffffffffff1603610c10576040517f08c379a0000000000000000000000000000000000000000000000000000000008152600401610c0790612687565b60405180910390fd5b600073ffffffffffffffffffffffffffffffffffffffff168273ffffffffffffffffffffffffffffffffffffffff1603610c7f576040517f08c379a0000000000000000000000000000000000000000000000000000000008152600401610c76906126f3565b60405180910390fd5b8260fb600086815260200190815260200160002060006101000a81548173ffffffffffffffffffffffffffffffffffffffff021916908373ffffffffffffffffffffffffffffffffffffffff1602179055508160fc600086815260200190815260200160002060006101000a81548173ffffffffffffffffffffffffffffffffffffffff021916908373ffffffffffffffffffffffffffffffffffffffff1602179055507f50d798ee07203c2dc328aa13e8f1eff3d7aa253e01262565918ab0a7cb0e4156848484604051610d5693929190612713565b60405180910390a1604051806040016040528060fb600087815260200190815260200160002060009054906101000a900473ffffffffffffffffffffffffffffffffffffffff1673ffffffffffffffffffffffffffffffffffffffff1673ffffffffffffffffffffffffffffffffffffffff16815260200160fc600087815260200190815260200160002060009054906101000a900473ffffffffffffffffffffffffffffffffffffffff1673ffffffffffffffffffffffffffffffffffffffff1673ffffffffffffffffffffffffffffffffffffffff1681525090509392505050565b610e426119fa565b600073ffffffffffffffffffffffffffffffffffffffff1660fb600084815260200190815260200160002060009054906101000a900473ffffffffffffffffffffffffffffffffffffffff1673ffffffffffffffffffffffffffffffffffffffff1603610ee4576040517f08c379a0000000000000000000000000000000000000000000000000000000008152600401610edb90612796565b60405180910390fd5b600073ffffffffffffffffffffffffffffffffffffffff1660fc600084815260200190815260200160002060009054906101000a900473ffffffffffffffffffffffffffffffffffffffff1673ffffffffffffffffffffffffffffffffffffffff1603610f86576040517f08c379a0000000000000000000000000000000000000000000000000000000008152600401610f7d90612828565b60405180910390fd5b604051806040016040528060fb600085815260200190815260200160002060009054906101000a900473ffffffffffffffffffffffffffffffffffffffff1673ffffffffffffffffffffffffffffffffffffffff1673ffffffffffffffffffffffffffffffffffffffff16815260200160fc600085815260200190815260200160002060009054906101000a900473ffffffffffffffffffffffffffffffffffffffff1673ffffffffffffffffffffffffffffffffffffffff1673ffffffffffffffffffffffffffffffffffffffff168152509050919050565b600061106a6112c4565b6001905090565b6110796112c4565b600073ffffffffffffffffffffffffffffffffffffffff168173ffffffffffffffffffffffffffffffffffffffff16036110e8576040517f08c379a00000000000000000000000000000000000000000000000000000000081526004016110df906128ba565b60405180910390fd5b6110f1816113a5565b50565b60006111227f360894a13ba1a3210667c828492db98dca3e2076cc3735a920a3ca505d382bbc60001b61163e565b60000160009054906101000a900473ffffffffffffffffffffffffffffffffffffffff16905090565b6111536112c4565b50565b6111827f4910fdfa16fed3260ed0e7147f7cc6da11a60208b5b9406d12a635614ffd914360001b611648565b60000160009054906101000a900460ff16156111a6576111a183611652565b6112bf565b8273ffffffffffffffffffffffffffffffffffffffff166352d1902d6040518163ffffffff1660e01b8152600401602060405180830381865afa92505050801561120e57506040513d601f19601f8201168201806040525081019061120b9190612906565b60015b61124d576040517f08c379a0000000000000000000000000000000000000000000000000000000008152600401611244906129a5565b60405180910390fd5b7f360894a13ba1a3210667c828492db98dca3e2076cc3735a920a3ca505d382bbc60001b81146112b2576040517f08c379a00000000000000000000000000000000000000000000000000000000081526004016112a990612a37565b60405180910390fd5b506112be83838361170b565b5b505050565b6112cc611737565b73ffffffffffffffffffffffffffffffffffffffff166112ea61081c565b73ffffffffffffffffffffffffffffffffffffffff1614611340576040517f08c379a000000000000000000000000000000000000000000000000000000000815260040161133790612aa3565b60405180910390fd5b565b61134a61173f565b6000606560006101000a81548160ff0219169083151502179055507f5db9ee0a495bf2e6ff9c91a7834c1ba4fdd244a5e8aa4e537bd38aeae4b073aa61138e611737565b60405161139b9190611cd6565b60405180910390a1565b6000603360009054906101000a900473ffffffffffffffffffffffffffffffffffffffff16905081603360006101000a81548173ffffffffffffffffffffffffffffffffffffffff021916908373ffffffffffffffffffffffffffffffffffffffff1602179055508173ffffffffffffffffffffffffffffffffffffffff168173ffffffffffffffffffffffffffffffffffffffff167f8be0079c531659141344cd1fd0a4f28419497f9722a3daafe3b4186f6b6457e060405160405180910390a35050565b6000808273ffffffffffffffffffffffffffffffffffffffff163b119050919050565b600060019054906101000a900460ff166114dd576040517f08c379a00000000000000000000000000000000000000000000000000000000081526004016114d490612b35565b60405180910390fd5b6114e5611788565b565b600060019054906101000a900460ff16611536576040517f08c379a000000000000000000000000000000000000000000000000000000000815260040161152d90612b35565b60405180910390fd5b61153e6117e9565b565b600060019054906101000a900460ff1661158f576040517f08c379a000000000000000000000000000000000000000000000000000000000815260040161158690612b35565b60405180910390fd5b565b6115996115f4565b6001606560006101000a81548160ff0219169083151502179055507f62e78cea01bee320cd4e420270b5ea74000d11b0c9f74754ebdbfc544b05a2586115dd611737565b6040516115ea9190611cd6565b60405180910390a1565b6115fc610691565b1561163c576040517f08c379a000000000000000000000000000000000000000000000000000000000815260040161163390612ba1565b60405180910390fd5b565b6000819050919050565b6000819050919050565b61165b8161146b565b61169a576040517f08c379a000000000000000000000000000000000000000000000000000000000815260040161169190612c33565b60405180910390fd5b806116c77f360894a13ba1a3210667c828492db98dca3e2076cc3735a920a3ca505d382bbc60001b61163e565b60000160006101000a81548173ffffffffffffffffffffffffffffffffffffffff021916908373ffffffffffffffffffffffffffffffffffffffff16021790555050565b61171483611855565b6000825111806117215750805b156117325761173083836118a4565b505b505050565b600033905090565b611747610691565b611786576040517f08c379a000000000000000000000000000000000000000000000000000000000815260040161177d90612c9f565b60405180910390fd5b565b600060019054906101000a900460ff166117d7576040517f08c379a00000000000000000000000000000000000000000000000000000000081526004016117ce90612b35565b60405180910390fd5b6117e76117e2611737565b6113a5565b565b600060019054906101000a900460ff16611838576040517f08c379a000000000000000000000000000000000000000000000000000000000815260040161182f90612b35565b60405180910390fd5b6000606560006101000a81548160ff021916908315150217905550565b61185e81611652565b8073ffffffffffffffffffffffffffffffffffffffff167fbc7cd75a20ee27fd9adebab32041f755214dbc6bffa90cc0225b39da2e5c2d3b60405160405180910390a250565b60606118af8361146b565b6118ee576040517f08c379a00000000000000000000000000000000000000000000000000000000081526004016118e590612d31565b60405180910390fd5b6000808473ffffffffffffffffffffffffffffffffffffffff16846040516119169190612d98565b600060405180830381855af49150503d8060008114611951576040519150601f19603f3d011682016040523d82523d6000602084013e611956565b606091505b509150915061197e8282604051806060016040528060278152602001612db060279139611988565b9250505092915050565b60608315611998578290506119a3565b6119a283836119aa565b5b9392505050565b6000825111156119bd5781518083602001fd5b806040517f08c379a00000000000000000000000000000000000000000000000000000000081526004016119f1919061241b565b60405180910390fd5b6040518060400160405280600290602082028036833780820191505090505090565b6000604051905090565b600080fd5b600080fd5b600073ffffffffffffffffffffffffffffffffffffffff82169050919050565b6000611a5b82611a30565b9050919050565b611a6b81611a50565b8114611a7657600080fd5b50565b600081359050611a8881611a62565b92915050565b600060208284031215611aa457611aa3611a26565b5b6000611ab284828501611a79565b91505092915050565b600080fd5b600080fd5b6000601f19601f8301169050919050565b7f4e487b7100000000000000000000000000000000000000000000000000000000600052604160045260246000fd5b611b0e82611ac5565b810181811067ffffffffffffffff82111715611b2d57611b2c611ad6565b5b80604052505050565b6000611b40611a1c565b9050611b4c8282611b05565b919050565b600067ffffffffffffffff821115611b6c57611b6b611ad6565b5b611b7582611ac5565b9050602081019050919050565b82818337600083830152505050565b6000611ba4611b9f84611b51565b611b36565b905082815260208101848484011115611bc057611bbf611ac0565b5b611bcb848285611b82565b509392505050565b600082601f830112611be857611be7611abb565b5b8135611bf8848260208601611b91565b91505092915050565b60008060408385031215611c1857611c17611a26565b5b6000611c2685828601611a79565b925050602083013567ffffffffffffffff811115611c4757611c46611a2b565b5b611c5385828601611bd3565b9150509250929050565b6000819050919050565b611c7081611c5d565b82525050565b6000602082019050611c8b6000830184611c67565b92915050565b60008115159050919050565b611ca681611c91565b82525050565b6000602082019050611cc16000830184611c9d565b92915050565b611cd081611a50565b82525050565b6000602082019050611ceb6000830184611cc7565b92915050565b6000819050919050565b611d0481611cf1565b8114611d0f57600080fd5b50565b600081359050611d2181611cfb565b92915050565b600067ffffffffffffffff821115611d4257611d41611ad6565b5b611d4b82611ac5565b9050602081019050919050565b6000611d6b611d6684611d27565b611b36565b905082815260208101848484011115611d8757611d86611ac0565b5b611d92848285611b82565b509392505050565b600082601f830112611daf57611dae611abb565b5b8135611dbf848260208601611d58565b91505092915050565b600080600060608486031215611de157611de0611a26565b5b6000611def86828701611d12565b935050602084013567ffffffffffffffff811115611e1057611e0f611a2b565b5b611e1c86828701611d9a565b9250506040611e2d86828701611d12565b9150509250925092565b600080600060608486031215611e5057611e4f611a26565b5b6000611e5e86828701611d12565b9350506020611e6f86828701611a79565b9250506040611e8086828701611a79565b9150509250925092565b600060029050919050565b600081905092915050565b6000819050919050565b611eb381611a50565b82525050565b6000611ec58383611eaa565b60208301905092915050565b6000602082019050919050565b611ee781611e8a565b611ef18184611e95565b9250611efc82611ea0565b8060005b83811015611f2d578151611f148782611eb9565b9650611f1f83611ed1565b925050600181019050611f00565b505050505050565b6000604082019050611f4a6000830184611ede565b92915050565b600060208284031215611f6657611f65611a26565b5b6000611f7484828501611d12565b91505092915050565b600082825260208201905092915050565b7f46756e6374696f6e206d7573742062652063616c6c6564207468726f7567682060008201527f64656c656761746563616c6c0000000000000000000000000000000000000000602082015250565b6000611fea602c83611f7d565b9150611ff582611f8e565b604082019050919050565b6000602082019050818103600083015261201981611fdd565b9050919050565b7f46756e6374696f6e206d7573742062652063616c6c6564207468726f7567682060008201527f6163746976652070726f78790000000000000000000000000000000000000000602082015250565b600061207c602c83611f7d565b915061208782612020565b604082019050919050565b600060208201905081810360008301526120ab8161206f565b9050919050565b7f555550535570677261646561626c653a206d757374206e6f742062652063616c60008201527f6c6564207468726f7567682064656c656761746563616c6c0000000000000000602082015250565b600061210e603883611f7d565b9150612119826120b2565b604082019050919050565b6000602082019050818103600083015261213d81612101565b9050919050565b7f496e697469616c697a61626c653a20636f6e747261637420697320616c72656160008201527f647920696e697469616c697a6564000000000000000000000000000000000000602082015250565b60006121a0602e83611f7d565b91506121ab82612144565b604082019050919050565b600060208201905081810360008301526121cf81612193565b9050919050565b6000819050919050565b600060ff82169050919050565b6000819050919050565b600061221261220d612208846121d6565b6121ed565b6121e0565b9050919050565b612222816121f7565b82525050565b600060208201905061223d6000830184612219565b92915050565b7f53657276696365204944206973206e6f7420737570706f727465640000000000600082015250565b6000612279601b83611f7d565b915061228482612243565b602082019050919050565b600060208201905081810360008301526122a88161226c565b9050919050565b7f56616c696461746f72206e6f7420666f756e6420666f7220736572766963652060008201527f4944000000000000000000000000000000000000000000000000000000000000602082015250565b600061230b602283611f7d565b9150612316826122af565b604082019050919050565b6000602082019050818103600083015261233a816122fe565b9050919050565b7f416d6f756e74206d7573742062652067726561746572207468616e207a65726f600082015250565b6000612377602083611f7d565b915061238282612341565b602082019050919050565b600060208201905081810360008301526123a68161236a565b9050919050565b600081519050919050565b60005b838110156123d65780820151818401526020810190506123bb565b60008484015250505050565b60006123ed826123ad565b6123f78185611f7d565b93506124078185602086016123b8565b61241081611ac5565b840191505092915050565b6000602082019050818103600083015261243581846123e2565b905092915050565b61244681611c91565b811461245157600080fd5b50565b6000815190506124638161243d565b92915050565b60006020828403121561247f5761247e611a26565b5b600061248d84828501612454565b91505092915050565b7f5468652073657276696365206964656e746966696572206661696c656420746f60008201527f2076616c69646174650000000000000000000000000000000000000000000000602082015250565b60006124f2602983611f7d565b91506124fd82612496565b604082019050919050565b60006020820190508181036000830152612521816124e5565b9050919050565b600081905092915050565b600061253e826123ad565b6125488185612528565b93506125588185602086016123b8565b80840191505092915050565b60006125708284612533565b915081905092915050565b61258481611cf1565b82525050565b600060808201905061259f600083018761257b565b6125ac6020830186611c67565b6125b9604083018561257b565b6125c6606083018461257b565b95945050505050565b7f5365727669636520494420697320696e76616c69640000000000000000000000600082015250565b6000612605601583611f7d565b9150612610826125cf565b602082019050919050565b60006020820190508181036000830152612634816125f8565b9050919050565b7f5365727669636520657363726f77206973207265717569726564000000000000600082015250565b6000612671601a83611f7d565b915061267c8261263b565b602082019050919050565b600060208201905081810360008301526126a081612664565b9050919050565b7f56616c696461746f722061646472657373206973207265717569726564000000600082015250565b60006126dd601d83611f7d565b91506126e8826126a7565b602082019050919050565b6000602082019050818103600083015261270c816126d0565b9050919050565b6000606082019050612728600083018661257b565b6127356020830185611cc7565b6127426040830184611cc7565b949350505050565b7f53657276696365204944206973206e6f7420737570706f727465642e00000000600082015250565b6000612780601c83611f7d565b915061278b8261274a565b602082019050919050565b600060208201905081810360008301526127af81612773565b9050919050565b7f56616c696461746f72206e6f7420666f756e6420666f7220736572766963652060008201527f49442e0000000000000000000000000000000000000000000000000000000000602082015250565b6000612812602383611f7d565b915061281d826127b6565b604082019050919050565b6000602082019050818103600083015261284181612805565b9050919050565b7f4f776e61626c653a206e6577206f776e657220697320746865207a65726f206160008201527f6464726573730000000000000000000000000000000000000000000000000000602082015250565b60006128a4602683611f7d565b91506128af82612848565b604082019050919050565b600060208201905081810360008301526128d381612897565b9050919050565b6128e381611c5d565b81146128ee57600080fd5b50565b600081519050612900816128da565b92915050565b60006020828403121561291c5761291b611a26565b5b600061292a848285016128f1565b91505092915050565b7f45524331393637557067726164653a206e657720696d706c656d656e7461746960008201527f6f6e206973206e6f742055555053000000000000000000000000000000000000602082015250565b600061298f602e83611f7d565b915061299a82612933565b604082019050919050565b600060208201905081810360008301526129be81612982565b9050919050565b7f45524331393637557067726164653a20756e737570706f727465642070726f7860008201527f6961626c65555549440000000000000000000000000000000000000000000000602082015250565b6000612a21602983611f7d565b9150612a2c826129c5565b604082019050919050565b60006020820190508181036000830152612a5081612a14565b9050919050565b7f4f776e61626c653a2063616c6c6572206973206e6f7420746865206f776e6572600082015250565b6000612a8d602083611f7d565b9150612a9882612a57565b602082019050919050565b60006020820190508181036000830152612abc81612a80565b9050919050565b7f496e697469616c697a61626c653a20636f6e7472616374206973206e6f74206960008201527f6e697469616c697a696e67000000000000000000000000000000000000000000602082015250565b6000612b1f602b83611f7d565b9150612b2a82612ac3565b604082019050919050565b60006020820190508181036000830152612b4e81612b12565b9050919050565b7f5061757361626c653a2070617573656400000000000000000000000000000000600082015250565b6000612b8b601083611f7d565b9150612b9682612b55565b602082019050919050565b60006020820190508181036000830152612bba81612b7e565b9050919050565b7f455243313936373a206e657720696d706c656d656e746174696f6e206973206e60008201527f6f74206120636f6e747261637400000000000000000000000000000000000000602082015250565b6000612c1d602d83611f7d565b9150612c2882612bc1565b604082019050919050565b60006020820190508181036000830152612c4c81612c10565b9050919050565b7f5061757361626c653a206e6f7420706175736564000000000000000000000000600082015250565b6000612c89601483611f7d565b9150612c9482612c53565b602082019050919050565b60006020820190508181036000830152612cb881612c7c565b9050919050565b7f416464726573733a2064656c65676174652063616c6c20746f206e6f6e2d636f60008201527f6e74726163740000000000000000000000000000000000000000000000000000602082015250565b6000612d1b602683611f7d565b9150612d2682612cbf565b604082019050919050565b60006020820190508181036000830152612d4a81612d0e565b9050919050565b600081519050919050565b600081905092915050565b6000612d7282612d51565b612d7c8185612d5c565b9350612d8c8185602086016123b8565b80840191505092915050565b6000612da48284612d67565b91508190509291505056fe416464726573733a206c6f772d6c6576656c2064656c65676174652063616c6c206661696c6564a2646970667358221220c022ef7cf727d61b65dfc37f0fc464ba8e695375c36a407eb24ac9bd0e5b5c7164736f6c63430008110033",
  "immutableReferences": {
    "720": [
      {
        "length": 32,
        "start": 772
      },
      {
        "length": 32,
        "start": 914
      },
      {
        "length": 32,
        "start": 1182
      },
      {
        "length": 32,
        "start": 1324
      },
      {
        "length": 32,
        "start": 1500
      }
    ]
  },
  "source": "// SPDX-License-Identifier: MIT\npragma solidity 0.8.17;\n\nimport \"./TukiRouterV1.sol\";\n\n/**\n * Test upgrade on router\n */\ncontract RouterUpgradeTester is TukiRouterV1 {\n    using AddressUpgradeable for address payable;\n    using SafeMathUpgradeable for uint256;\n\n    function isUpgrade() public view onlyOwner returns (bool) {\n        return true;\n    }\n}\n",
  "sourcePath": "/Users/luisoscargabriel/tuki-org/contracts/src/contracts/RouterUpgradeTester.sol",
  "compiler": {
    "name": "solc",
    "version": "0.8.17+commit.8df45f5f.Emscripten.clang"
  },
  "schemaVersion": "3.4.10",
  "updatedAt": "2022-10-25T01:53:46.073Z",
  "devdoc": {
    "kind": "dev",
    "methods": {
      "initialize()": {
        "details": "Constructor."
      },
      "owner()": {
        "details": "Returns the address of the current owner."
      },
      "paused()": {
        "details": "Returns true if the contract is paused, and false otherwise."
      },
      "proxiableUUID()": {
        "details": "Implementation of the ERC1822 {proxiableUUID} function. This returns the storage slot used by the implementation. It is used to validate the implementation's compatibility when performing an upgrade. IMPORTANT: A proxy pointing at a proxiable contract should not be considered proxiable itself, because this risks bricking a proxy that upgrades to it, by delegating to itself until out of gas. Thus it is critical that this function revert if invoked through a proxy. This is guaranteed by the `notDelegated` modifier."
      },
      "renounceOwnership()": {
        "details": "Leaves the contract without owner. It will not be possible to call `onlyOwner` functions anymore. Can only be called by the current owner. NOTE: Renouncing ownership will leave the contract without an owner, thereby removing any functionality that is only available to the owner."
      },
      "requestService(uint256,string,uint256)": {
        "returns": {
          "_0": "true if amount was transferred to the escrow. Pre-conditions:  - verified identifier - valid fulfillable id - valid IIdentifierValidator contract - positive amount - positive fiat amount in precision 2 - enough balance on the sender account   Post-conditions:  - ServiceRequested Event emitted - payment due is trasferred to escrow contract until fulfillment"
        }
      },
      "serviceOf(uint256)": {
        "returns": {
          "_0": "the address for the service ID of a particular service."
        }
      },
      "setService(uint256,address,address)": {
        "details": "setService This method must only be called by an owner. It sets up a service escrow address and validator address.  The escrow is intended to be a valid tuki escrow contract  The validator address is intended to be a contract that validates the service's identifier. eg. phone number, bill number, etc.",
        "returns": {
          "_0": "address[2]"
        }
      },
      "transferOwnership(address)": {
        "details": "Transfers ownership of the contract to a new account (`newOwner`). Can only be called by the current owner."
      },
      "upgradeTo(address)": {
        "details": "Upgrade the implementation of the proxy to `newImplementation`. Calls {_authorizeUpgrade}. Emits an {Upgraded} event."
      },
      "upgradeToAndCall(address,bytes)": {
        "details": "Upgrade the implementation of the proxy to `newImplementation`, and subsequently execute the function call encoded in `data`. Calls {_authorizeUpgrade}. Emits an {Upgraded} event."
      }
    },
    "version": 1
  },
  "userdoc": {
    "kind": "user",
    "methods": {
      "requestService(uint256,string,uint256)": {
        "notice": "requestService"
      }
    },
    "notice": "Test upgrade on router",
    "version": 1
  }
}