{
  "contractName": "ThirtyDigitsValidator",
  "abi": [
    {
      "inputs": [],
      "name": "regex",
      "outputs": [
        {
          "internalType": "string",
          "name": "",
          "type": "string"
        }
      ],
      "stateMutability": "view",
      "type": "function"
    },
    {
      "inputs": [
        {
          "internalType": "string",
          "name": "input",
          "type": "string"
        }
      ],
      "name": "matches",
      "outputs": [
        {
          "internalType": "bool",
          "name": "",
          "type": "bool"
        }
      ],
      "stateMutability": "pure",
      "type": "function"
    }
  ],
  "bytecode": "0x6112bb610053600b82828239805160001a607314610046577f4e487b7100000000000000000000000000000000000000000000000000000000600052600060045260246000fd5b30600052607381538281f3fe73000000000000000000000000000000000000000030146080604052600436106100405760003560e01c806332ac752b1461004557806355e79d2914610075575b600080fd5b61005f600480360381019061005a9190611086565b610093565b60405161006c91906110ea565b60405180910390f35b61007d610115565b60405161008a9190611184565b60405180910390f35b600080604051806040016040528060001515815260200161014e815250905060005b83518110156101075760008482815181106100d3576100d26111a6565b5b602001015160f81c60f81b90506100f181846020015163ffffffff16565b92505080806100ff9061120e565b9150506100b5565b508060000151915050919050565b6040518060400160405280600981526020017f5b302d395d7b33307d000000000000000000000000000000000000000000000081525081565b610156610f05565b60008260f81c905060308160ff1610158015610176575060398160ff1611155b1561019d5760405180604001604052806000151581526020016101c08152509150506101bb565b60405180604001604052806000151581526020016102328152509150505b919050565b6101c8610f05565b60008260f81c905060308160ff16101580156101e8575060398160ff1611155b1561020f57604051806040016040528060001515815260200161025b81525091505061022d565b60405180604001604052806000151581526020016102328152509150505b919050565b61023a610f05565b60405180604001604052806000151581526020016102328152509050919050565b610263610f05565b60008260f81c905060308160ff1610158015610283575060398160ff1611155b156102aa5760405180604001604052806000151581526020016102cd8152509150506102c8565b60405180604001604052806000151581526020016102328152509150505b919050565b6102d5610f05565b60008260f81c905060308160ff16101580156102f5575060398160ff1611155b1561031c57604051806040016040528060001515815260200161033f81525091505061033a565b60405180604001604052806000151581526020016102328152509150505b919050565b610347610f05565b60008260f81c905060308160ff1610158015610367575060398160ff1611155b1561038e5760405180604001604052806000151581526020016103b18152509150506103ac565b60405180604001604052806000151581526020016102328152509150505b919050565b6103b9610f05565b60008260f81c905060308160ff16101580156103d9575060398160ff1611155b1561040057604051806040016040528060001515815260200161042381525091505061041e565b60405180604001604052806000151581526020016102328152509150505b919050565b61042b610f05565b60008260f81c905060308160ff161015801561044b575060398160ff1611155b15610472576040518060400160405280600015158152602001610495815250915050610490565b60405180604001604052806000151581526020016102328152509150505b919050565b61049d610f05565b60008260f81c905060308160ff16101580156104bd575060398160ff1611155b156104e4576040518060400160405280600015158152602001610507815250915050610502565b60405180604001604052806000151581526020016102328152509150505b919050565b61050f610f05565b60008260f81c905060308160ff161015801561052f575060398160ff1611155b15610556576040518060400160405280600015158152602001610579815250915050610574565b60405180604001604052806000151581526020016102328152509150505b919050565b610581610f05565b60008260f81c905060308160ff16101580156105a1575060398160ff1611155b156105c85760405180604001604052806000151581526020016105eb8152509150506105e6565b60405180604001604052806000151581526020016102328152509150505b919050565b6105f3610f05565b60008260f81c905060308160ff1610158015610613575060398160ff1611155b1561063a57604051806040016040528060001515815260200161065d815250915050610658565b60405180604001604052806000151581526020016102328152509150505b919050565b610665610f05565b60008260f81c905060308160ff1610158015610685575060398160ff1611155b156106ac5760405180604001604052806000151581526020016106cf8152509150506106ca565b60405180604001604052806000151581526020016102328152509150505b919050565b6106d7610f05565b60008260f81c905060308160ff16101580156106f7575060398160ff1611155b1561071e57604051806040016040528060001515815260200161074181525091505061073c565b60405180604001604052806000151581526020016102328152509150505b919050565b610749610f05565b60008260f81c905060308160ff1610158015610769575060398160ff1611155b156107905760405180604001604052806000151581526020016107b38152509150506107ae565b60405180604001604052806000151581526020016102328152509150505b919050565b6107bb610f05565b60008260f81c905060308160ff16101580156107db575060398160ff1611155b15610802576040518060400160405280600015158152602001610825815250915050610820565b60405180604001604052806000151581526020016102328152509150505b919050565b61082d610f05565b60008260f81c905060308160ff161015801561084d575060398160ff1611155b15610874576040518060400160405280600015158152602001610897815250915050610892565b60405180604001604052806000151581526020016102328152509150505b919050565b61089f610f05565b60008260f81c905060308160ff16101580156108bf575060398160ff1611155b156108e6576040518060400160405280600015158152602001610909815250915050610904565b60405180604001604052806000151581526020016102328152509150505b919050565b610911610f05565b60008260f81c905060308160ff1610158015610931575060398160ff1611155b1561095857604051806040016040528060001515815260200161097b815250915050610976565b60405180604001604052806000151581526020016102328152509150505b919050565b610983610f05565b60008260f81c905060308160ff16101580156109a3575060398160ff1611155b156109ca5760405180604001604052806000151581526020016109ed8152509150506109e8565b60405180604001604052806000151581526020016102328152509150505b919050565b6109f5610f05565b60008260f81c905060308160ff1610158015610a15575060398160ff1611155b15610a3c576040518060400160405280600015158152602001610a5f815250915050610a5a565b60405180604001604052806000151581526020016102328152509150505b919050565b610a67610f05565b60008260f81c905060308160ff1610158015610a87575060398160ff1611155b15610aae576040518060400160405280600015158152602001610ad1815250915050610acc565b60405180604001604052806000151581526020016102328152509150505b919050565b610ad9610f05565b60008260f81c905060308160ff1610158015610af9575060398160ff1611155b15610b20576040518060400160405280600015158152602001610b43815250915050610b3e565b60405180604001604052806000151581526020016102328152509150505b919050565b610b4b610f05565b60008260f81c905060308160ff1610158015610b6b575060398160ff1611155b15610b92576040518060400160405280600015158152602001610bb5815250915050610bb0565b60405180604001604052806000151581526020016102328152509150505b919050565b610bbd610f05565b60008260f81c905060308160ff1610158015610bdd575060398160ff1611155b15610c04576040518060400160405280600015158152602001610c27815250915050610c22565b60405180604001604052806000151581526020016102328152509150505b919050565b610c2f610f05565b60008260f81c905060308160ff1610158015610c4f575060398160ff1611155b15610c76576040518060400160405280600015158152602001610c99815250915050610c94565b60405180604001604052806000151581526020016102328152509150505b919050565b610ca1610f05565b60008260f81c905060308160ff1610158015610cc1575060398160ff1611155b15610ce8576040518060400160405280600015158152602001610d0b815250915050610d06565b60405180604001604052806000151581526020016102328152509150505b919050565b610d13610f05565b60008260f81c905060308160ff1610158015610d33575060398160ff1611155b15610d5a576040518060400160405280600015158152602001610d7d815250915050610d78565b60405180604001604052806000151581526020016102328152509150505b919050565b610d85610f05565b60008260f81c905060308160ff1610158015610da5575060398160ff1611155b15610dcc576040518060400160405280600015158152602001610def815250915050610dea565b60405180604001604052806000151581526020016102328152509150505b919050565b610df7610f05565b60008260f81c905060308160ff1610158015610e17575060398160ff1611155b15610e3e576040518060400160405280600015158152602001610e61815250915050610e5c565b60405180604001604052806000151581526020016102328152509150505b919050565b610e69610f05565b60008260f81c905060308160ff1610158015610e89575060398160ff1611155b15610eb0576040518060400160405280600115158152602001610ed3815250915050610ece565b60405180604001604052806000151581526020016102328152509150505b919050565b610edb610f05565b60008260f81c90506040518060400160405280600015158152602001610232815250915050919050565b6040518060400160405280600015158152602001610f2281525090565b610f2a611256565b565b6000604051905090565b600080fd5b600080fd5b600080fd5b600080fd5b6000601f19601f8301169050919050565b7f4e487b7100000000000000000000000000000000000000000000000000000000600052604160045260246000fd5b610f9382610f4a565b810181811067ffffffffffffffff82111715610fb257610fb1610f5b565b5b80604052505050565b6000610fc5610f2c565b9050610fd18282610f8a565b919050565b600067ffffffffffffffff821115610ff157610ff0610f5b565b5b610ffa82610f4a565b9050602081019050919050565b82818337600083830152505050565b600061102961102484610fd6565b610fbb565b90508281526020810184848401111561104557611044610f45565b5b611050848285611007565b509392505050565b600082601f83011261106d5761106c610f40565b5b813561107d848260208601611016565b91505092915050565b60006020828403121561109c5761109b610f36565b5b600082013567ffffffffffffffff8111156110ba576110b9610f3b565b5b6110c684828501611058565b91505092915050565b60008115159050919050565b6110e4816110cf565b82525050565b60006020820190506110ff60008301846110db565b92915050565b600081519050919050565b600082825260208201905092915050565b60005b8381101561113f578082015181840152602081019050611124565b60008484015250505050565b600061115682611105565b6111608185611110565b9350611170818560208601611121565b61117981610f4a565b840191505092915050565b6000602082019050818103600083015261119e818461114b565b905092915050565b7f4e487b7100000000000000000000000000000000000000000000000000000000600052603260045260246000fd5b7f4e487b7100000000000000000000000000000000000000000000000000000000600052601160045260246000fd5b6000819050919050565b600061121982611204565b91507fffffffffffffffffffffffffffffffffffffffffffffffffffffffffffffffff820361124b5761124a6111d5565b5b600182019050919050565b7f4e487b7100000000000000000000000000000000000000000000000000000000600052605160045260246000fdfea264697066735822122019f3fa8d4a3bb008040fdcb3a7974c4be7b60856df8f59e9e19e0adf63b3f8e664736f6c63430008110033",
  "immutableReferences": {},
  "source": "// SPDX-License-Identifier: MIT\npragma solidity ^0.8.17;\n\nlibrary ThirtyDigitsValidator {\n  struct State {\n    bool accepts;\n    function (bytes1) pure internal returns (State memory) func;\n  }\n\n  string public constant regex = \"[0-9]{30}\";\n\n  function s0(bytes1 c) pure internal returns (State memory) {\n    c = c;\n    return State(false, s0);\n  }\n\n  function s1(bytes1 c) pure internal returns (State memory) {\n\n     uint8 _cint = uint8(c);\n\n        if (_cint >= 48 && _cint <= 57) {\n          return State(false, s2);\n        }\n\n    return State(false, s0);\n  }\n\n  function s2(bytes1 c) pure internal returns (State memory) {\n\n     uint8 _cint = uint8(c);\n\n        if (_cint >= 48 && _cint <= 57) {\n          return State(false, s3);\n        }\n\n    return State(false, s0);\n  }\n\n  function s3(bytes1 c) pure internal returns (State memory) {\n\n     uint8 _cint = uint8(c);\n\n        if (_cint >= 48 && _cint <= 57) {\n          return State(false, s4);\n        }\n\n    return State(false, s0);\n  }\n\n  function s4(bytes1 c) pure internal returns (State memory) {\n\n     uint8 _cint = uint8(c);\n\n        if (_cint >= 48 && _cint <= 57) {\n          return State(false, s5);\n        }\n\n    return State(false, s0);\n  }\n\n  function s5(bytes1 c) pure internal returns (State memory) {\n\n     uint8 _cint = uint8(c);\n\n        if (_cint >= 48 && _cint <= 57) {\n          return State(false, s6);\n        }\n\n    return State(false, s0);\n  }\n\n  function s6(bytes1 c) pure internal returns (State memory) {\n\n     uint8 _cint = uint8(c);\n\n        if (_cint >= 48 && _cint <= 57) {\n          return State(false, s7);\n        }\n\n    return State(false, s0);\n  }\n\n  function s7(bytes1 c) pure internal returns (State memory) {\n\n     uint8 _cint = uint8(c);\n\n        if (_cint >= 48 && _cint <= 57) {\n          return State(false, s8);\n        }\n\n    return State(false, s0);\n  }\n\n  function s8(bytes1 c) pure internal returns (State memory) {\n\n     uint8 _cint = uint8(c);\n\n        if (_cint >= 48 && _cint <= 57) {\n          return State(false, s9);\n        }\n\n    return State(false, s0);\n  }\n\n  function s9(bytes1 c) pure internal returns (State memory) {\n\n     uint8 _cint = uint8(c);\n\n        if (_cint >= 48 && _cint <= 57) {\n          return State(false, s10);\n        }\n\n    return State(false, s0);\n  }\n\n  function s10(bytes1 c) pure internal returns (State memory) {\n\n     uint8 _cint = uint8(c);\n\n        if (_cint >= 48 && _cint <= 57) {\n          return State(false, s11);\n        }\n\n    return State(false, s0);\n  }\n\n  function s11(bytes1 c) pure internal returns (State memory) {\n\n     uint8 _cint = uint8(c);\n\n        if (_cint >= 48 && _cint <= 57) {\n          return State(false, s12);\n        }\n\n    return State(false, s0);\n  }\n\n  function s12(bytes1 c) pure internal returns (State memory) {\n\n     uint8 _cint = uint8(c);\n\n        if (_cint >= 48 && _cint <= 57) {\n          return State(false, s13);\n        }\n\n    return State(false, s0);\n  }\n\n  function s13(bytes1 c) pure internal returns (State memory) {\n\n     uint8 _cint = uint8(c);\n\n        if (_cint >= 48 && _cint <= 57) {\n          return State(false, s14);\n        }\n\n    return State(false, s0);\n  }\n\n  function s14(bytes1 c) pure internal returns (State memory) {\n\n     uint8 _cint = uint8(c);\n\n        if (_cint >= 48 && _cint <= 57) {\n          return State(false, s15);\n        }\n\n    return State(false, s0);\n  }\n\n  function s15(bytes1 c) pure internal returns (State memory) {\n\n     uint8 _cint = uint8(c);\n\n        if (_cint >= 48 && _cint <= 57) {\n          return State(false, s16);\n        }\n\n    return State(false, s0);\n  }\n\n  function s16(bytes1 c) pure internal returns (State memory) {\n\n     uint8 _cint = uint8(c);\n\n        if (_cint >= 48 && _cint <= 57) {\n          return State(false, s17);\n        }\n\n    return State(false, s0);\n  }\n\n  function s17(bytes1 c) pure internal returns (State memory) {\n\n     uint8 _cint = uint8(c);\n\n        if (_cint >= 48 && _cint <= 57) {\n          return State(false, s18);\n        }\n\n    return State(false, s0);\n  }\n\n  function s18(bytes1 c) pure internal returns (State memory) {\n\n     uint8 _cint = uint8(c);\n\n        if (_cint >= 48 && _cint <= 57) {\n          return State(false, s19);\n        }\n\n    return State(false, s0);\n  }\n\n  function s19(bytes1 c) pure internal returns (State memory) {\n\n     uint8 _cint = uint8(c);\n\n        if (_cint >= 48 && _cint <= 57) {\n          return State(false, s20);\n        }\n\n    return State(false, s0);\n  }\n\n  function s20(bytes1 c) pure internal returns (State memory) {\n\n     uint8 _cint = uint8(c);\n\n        if (_cint >= 48 && _cint <= 57) {\n          return State(false, s21);\n        }\n\n    return State(false, s0);\n  }\n\n  function s21(bytes1 c) pure internal returns (State memory) {\n\n     uint8 _cint = uint8(c);\n\n        if (_cint >= 48 && _cint <= 57) {\n          return State(false, s22);\n        }\n\n    return State(false, s0);\n  }\n\n  function s22(bytes1 c) pure internal returns (State memory) {\n\n     uint8 _cint = uint8(c);\n\n        if (_cint >= 48 && _cint <= 57) {\n          return State(false, s23);\n        }\n\n    return State(false, s0);\n  }\n\n  function s23(bytes1 c) pure internal returns (State memory) {\n\n     uint8 _cint = uint8(c);\n\n        if (_cint >= 48 && _cint <= 57) {\n          return State(false, s24);\n        }\n\n    return State(false, s0);\n  }\n\n  function s24(bytes1 c) pure internal returns (State memory) {\n\n     uint8 _cint = uint8(c);\n\n        if (_cint >= 48 && _cint <= 57) {\n          return State(false, s25);\n        }\n\n    return State(false, s0);\n  }\n\n  function s25(bytes1 c) pure internal returns (State memory) {\n\n     uint8 _cint = uint8(c);\n\n        if (_cint >= 48 && _cint <= 57) {\n          return State(false, s26);\n        }\n\n    return State(false, s0);\n  }\n\n  function s26(bytes1 c) pure internal returns (State memory) {\n\n     uint8 _cint = uint8(c);\n\n        if (_cint >= 48 && _cint <= 57) {\n          return State(false, s27);\n        }\n\n    return State(false, s0);\n  }\n\n  function s27(bytes1 c) pure internal returns (State memory) {\n\n     uint8 _cint = uint8(c);\n\n        if (_cint >= 48 && _cint <= 57) {\n          return State(false, s28);\n        }\n\n    return State(false, s0);\n  }\n\n  function s28(bytes1 c) pure internal returns (State memory) {\n\n     uint8 _cint = uint8(c);\n\n        if (_cint >= 48 && _cint <= 57) {\n          return State(false, s29);\n        }\n\n    return State(false, s0);\n  }\n\n  function s29(bytes1 c) pure internal returns (State memory) {\n\n     uint8 _cint = uint8(c);\n\n        if (_cint >= 48 && _cint <= 57) {\n          return State(false, s30);\n        }\n\n    return State(false, s0);\n  }\n\n  function s30(bytes1 c) pure internal returns (State memory) {\n\n     uint8 _cint = uint8(c);\n\n        if (_cint >= 48 && _cint <= 57) {\n          return State(true, s31);\n        }\n\n    return State(false, s0);\n  }\n\n  function s31(bytes1 c) pure internal returns (State memory) {\n\n     uint8 _cint = uint8(c);\n\n        // silence unused var warning\n        c = c;\n\n    return State(false, s0);\n  }\n\n  function matches(string memory input) public pure returns (bool) {\n    State memory cur = State(false, s1);\n\n    for (uint i = 0; i < bytes(input).length; i++) {\n      bytes1 c = bytes(input)[i];\n\n      cur = cur.func(c);\n    }\n\n    return cur.accepts;\n  }\n}\n",
  "sourcePath": "/Users/luisgabriel/tuki-org/contracts/src/contracts/ThirtyDigitsValidator.sol",
  "compiler": {
    "name": "solc",
    "version": "0.8.17+commit.8df45f5f.Emscripten.clang"
  },
  "schemaVersion": "3.4.10",
  "updatedAt": "2022-10-16T21:04:45.664Z",
  "devdoc": {
    "kind": "dev",
    "methods": {},
    "version": 1
  },
  "userdoc": {
    "kind": "user",
    "methods": {},
    "version": 1
  }
}