{
  "contractName": "ToppiEscrowV1",
  "abi": [
    {
      "anonymous": false,
      "inputs": [
        {
          "indexed": true,
          "internalType": "address",
          "name": "payee",
          "type": "address"
        },
        {
          "indexed": false,
          "internalType": "uint256",
          "name": "weiAmount",
          "type": "uint256"
        }
      ],
      "name": "Deposit",
      "type": "event"
    },
    {
      "anonymous": false,
      "inputs": [
        {
          "indexed": true,
          "internalType": "address",
          "name": "previousOwner",
          "type": "address"
        },
        {
          "indexed": true,
          "internalType": "address",
          "name": "newOwner",
          "type": "address"
        }
      ],
      "name": "OwnershipTransferred",
      "type": "event"
    },
    {
      "anonymous": false,
      "inputs": [
        {
          "indexed": false,
          "internalType": "address",
          "name": "refundee",
          "type": "address"
        },
        {
          "indexed": false,
          "internalType": "uint256",
          "name": "amount",
          "type": "uint256"
        }
      ],
      "name": "RefundRegistered",
      "type": "event"
    },
    {
      "anonymous": false,
      "inputs": [
        {
          "indexed": true,
          "internalType": "address",
          "name": "payee",
          "type": "address"
        },
        {
          "indexed": false,
          "internalType": "uint256",
          "name": "weiAmount",
          "type": "uint256"
        }
      ],
      "name": "Withdrawn",
      "type": "event"
    },
    {
      "inputs": [],
      "name": "owner",
      "outputs": [
        {
          "internalType": "address",
          "name": "",
          "type": "address"
        }
      ],
      "stateMutability": "view",
      "type": "function"
    },
    {
      "inputs": [],
      "name": "renounceOwnership",
      "outputs": [],
      "stateMutability": "nonpayable",
      "type": "function"
    },
    {
      "inputs": [
        {
          "internalType": "address",
          "name": "newOwner",
          "type": "address"
        }
      ],
      "name": "transferOwnership",
      "outputs": [],
      "stateMutability": "nonpayable",
      "type": "function"
    },
    {
      "inputs": [
        {
          "internalType": "address payable",
          "name": "beneficiary_",
          "type": "address"
        },
        {
          "internalType": "uint256",
          "name": "serviceIdentifier_",
          "type": "uint256"
        }
      ],
      "name": "initialize",
      "outputs": [],
      "stateMutability": "nonpayable",
      "type": "function"
    },
    {
      "inputs": [],
      "name": "beneficiary",
      "outputs": [
        {
          "internalType": "address payable",
          "name": "",
          "type": "address"
        }
      ],
      "stateMutability": "view",
      "type": "function"
    },
    {
      "inputs": [],
      "name": "serviceID",
      "outputs": [
        {
          "internalType": "uint256",
          "name": "",
          "type": "uint256"
        }
      ],
      "stateMutability": "view",
      "type": "function"
    },
    {
      "inputs": [
        {
          "internalType": "address",
          "name": "payer",
          "type": "address"
        }
      ],
      "name": "depositsOf",
      "outputs": [
        {
          "internalType": "uint256",
          "name": "",
          "type": "uint256"
        }
      ],
      "stateMutability": "view",
      "type": "function"
    },
    {
      "inputs": [
        {
          "internalType": "address",
          "name": "payee",
          "type": "address"
        }
      ],
      "name": "refundsOf",
      "outputs": [
        {
          "internalType": "uint256",
          "name": "",
          "type": "uint256"
        }
      ],
      "stateMutability": "view",
      "type": "function"
    },
    {
      "inputs": [
        {
          "internalType": "address",
          "name": "payer",
          "type": "address"
        }
      ],
      "name": "deposit",
      "outputs": [],
      "stateMutability": "payable",
      "type": "function"
    },
    {
      "inputs": [
        {
          "internalType": "address payable",
          "name": "refundee",
          "type": "address"
        }
      ],
      "name": "withdrawRefund",
      "outputs": [],
      "stateMutability": "nonpayable",
      "type": "function"
    },
    {
      "inputs": [
        {
          "internalType": "address payable",
          "name": "refundee",
          "type": "address"
        },
        {
          "internalType": "uint256",
          "name": "amount",
          "type": "uint256"
        }
      ],
      "name": "registerRefund",
      "outputs": [],
      "stateMutability": "nonpayable",
      "type": "function"
    },
    {
      "inputs": [],
      "name": "beneficiaryWithdraw",
      "outputs": [],
      "stateMutability": "nonpayable",
      "type": "function"
    }
  ],
  "bytecode": "0x608060405234801561001057600080fd5b5061002d61002261003260201b60201c565b61003a60201b60201c565b6100fe565b600033905090565b60008060009054906101000a900473ffffffffffffffffffffffffffffffffffffffff169050816000806101000a81548173ffffffffffffffffffffffffffffffffffffffff021916908373ffffffffffffffffffffffffffffffffffffffff1602179055508173ffffffffffffffffffffffffffffffffffffffff168173ffffffffffffffffffffffffffffffffffffffff167f8be0079c531659141344cd1fd0a4f28419497f9722a3daafe3b4186f6b6457e060405160405180910390a35050565b6114128061010d6000396000f3fe6080604052600436106100a75760003560e01c8063a16c86f711610064578063a16c86f714610198578063cd6dc687146101c1578063e3a9db1a146101ea578063ec201de414610227578063f2fde38b14610250578063f340fa0114610279576100a7565b806334a4b877146100ac57806338af3eed146100d7578063652585dd14610102578063715018a61461013f5780638da5cb5b146101565780639af6549a14610181575b600080fd5b3480156100b857600080fd5b506100c1610295565b6040516100ce9190611077565b60405180910390f35b3480156100e357600080fd5b506100ec61029f565b6040516100f99190610f53565b60405180910390f35b34801561010e57600080fd5b5061012960048036038101906101249190610d41565b6102c9565b6040516101369190611077565b60405180910390f35b34801561014b57600080fd5b50610154610312565b005b34801561016257600080fd5b5061016b61039a565b6040516101789190610f38565b60405180910390f35b34801561018d57600080fd5b506101966103c3565b005b3480156101a457600080fd5b506101bf60048036038101906101ba9190610d6a565b6103f5565b005b3480156101cd57600080fd5b506101e860048036038101906101e39190610d93565b610567565b005b3480156101f657600080fd5b50610211600480360381019061020c9190610d41565b610711565b60405161021e9190611077565b60405180910390f35b34801561023357600080fd5b5061024e60048036038101906102499190610d93565b61075a565b005b34801561025c57600080fd5b5061027760048036038101906102729190610d41565b6108a8565b005b610293600480360381019061028e9190610d41565b6109a0565b005b6000600454905090565b6000600160009054906101000a900473ffffffffffffffffffffffffffffffffffffffff16905090565b6000600360008373ffffffffffffffffffffffffffffffffffffffff1673ffffffffffffffffffffffffffffffffffffffff168152602001908152602001600020549050919050565b61031a610b08565b73ffffffffffffffffffffffffffffffffffffffff1661033861039a565b73ffffffffffffffffffffffffffffffffffffffff161461038e576040517f08c379a000000000000000000000000000000000000000000000000000000000815260040161038590611057565b60405180910390fd5b6103986000610b10565b565b60008060009054906101000a900473ffffffffffffffffffffffffffffffffffffffff16905090565b6103f3476103cf61029f565b73ffffffffffffffffffffffffffffffffffffffff16610bd490919063ffffffff16565b565b8073ffffffffffffffffffffffffffffffffffffffff163373ffffffffffffffffffffffffffffffffffffffff1614610463576040517f08c379a000000000000000000000000000000000000000000000000000000000815260040161045a90610fd7565b60405180910390fd5b6000600360008373ffffffffffffffffffffffffffffffffffffffff1673ffffffffffffffffffffffffffffffffffffffff1681526020019081526020016000205490506000600360008473ffffffffffffffffffffffffffffffffffffffff1673ffffffffffffffffffffffffffffffffffffffff16815260200190815260200160002081905550610515818373ffffffffffffffffffffffffffffffffffffffff16610bd490919063ffffffff16565b8173ffffffffffffffffffffffffffffffffffffffff167f7084f5476618d8e60b11ef0d7d3f06914655adb8793e28ff7f018d4c76d505d58260405161055b9190611077565b60405180910390a25050565b600060159054906101000a900460ff1661059157600060149054906101000a900460ff161561059a565b610599610cc8565b5b6105d9576040517f08c379a00000000000000000000000000000000000000000000000000000000081526004016105d090611037565b60405180910390fd5b60008060159054906101000a900460ff16159050801561062a576001600060156101000a81548160ff0219169083151502179055506001600060146101000a81548160ff0219169083151502179055505b600073ffffffffffffffffffffffffffffffffffffffff168373ffffffffffffffffffffffffffffffffffffffff16141561069a576040517f08c379a000000000000000000000000000000000000000000000000000000000815260040161069190610f97565b60405180910390fd5b82600160006101000a81548173ffffffffffffffffffffffffffffffffffffffff021916908373ffffffffffffffffffffffffffffffffffffffff160217905550816004819055506106eb33610b10565b801561070c5760008060156101000a81548160ff0219169083151502179055505b505050565b6000600260008373ffffffffffffffffffffffffffffffffffffffff1673ffffffffffffffffffffffffffffffffffffffff168152602001908152602001600020549050919050565b610762610b08565b73ffffffffffffffffffffffffffffffffffffffff1661078061039a565b73ffffffffffffffffffffffffffffffffffffffff16146107d6576040517f08c379a00000000000000000000000000000000000000000000000000000000081526004016107cd90611057565b60405180910390fd5b610828600360008473ffffffffffffffffffffffffffffffffffffffff1673ffffffffffffffffffffffffffffffffffffffff1681526020019081526020016000205482610cd990919063ffffffff16565b600360008473ffffffffffffffffffffffffffffffffffffffff1673ffffffffffffffffffffffffffffffffffffffff168152602001908152602001600020819055507f30f21a42b18f41e9ef62ff73b6657d35b4a62c0beaa4f7becbfb387736d8ab29828260405161089c929190610f6e565b60405180910390a15050565b6108b0610b08565b73ffffffffffffffffffffffffffffffffffffffff166108ce61039a565b73ffffffffffffffffffffffffffffffffffffffff1614610924576040517f08c379a000000000000000000000000000000000000000000000000000000000815260040161091b90611057565b60405180910390fd5b600073ffffffffffffffffffffffffffffffffffffffff168173ffffffffffffffffffffffffffffffffffffffff161415610994576040517f08c379a000000000000000000000000000000000000000000000000000000000815260040161098b90610fb7565b60405180910390fd5b61099d81610b10565b50565b6109a8610b08565b73ffffffffffffffffffffffffffffffffffffffff166109c661039a565b73ffffffffffffffffffffffffffffffffffffffff1614610a1c576040517f08c379a0000000000000000000000000000000000000000000000000000000008152600401610a1390611057565b60405180910390fd5b6000349050610a73600260008473ffffffffffffffffffffffffffffffffffffffff1673ffffffffffffffffffffffffffffffffffffffff1681526020019081526020016000205482610cd990919063ffffffff16565b600260008473ffffffffffffffffffffffffffffffffffffffff1673ffffffffffffffffffffffffffffffffffffffff168152602001908152602001600020819055508173ffffffffffffffffffffffffffffffffffffffff167fe1fffcc4923d04b559f4d29a8bfc6cda04eb5b0d3c460751c2402c5c5cc9109c82604051610afc9190611077565b60405180910390a25050565b600033905090565b60008060009054906101000a900473ffffffffffffffffffffffffffffffffffffffff169050816000806101000a81548173ffffffffffffffffffffffffffffffffffffffff021916908373ffffffffffffffffffffffffffffffffffffffff1602179055508173ffffffffffffffffffffffffffffffffffffffff168173ffffffffffffffffffffffffffffffffffffffff167f8be0079c531659141344cd1fd0a4f28419497f9722a3daafe3b4186f6b6457e060405160405180910390a35050565b80471015610c17576040517f08c379a0000000000000000000000000000000000000000000000000000000008152600401610c0e90611017565b60405180910390fd5b60008273ffffffffffffffffffffffffffffffffffffffff1682604051610c3d90610f23565b60006040518083038185875af1925050503d8060008114610c7a576040519150601f19603f3d011682016040523d82523d6000602084013e610c7f565b606091505b5050905080610cc3576040517f08c379a0000000000000000000000000000000000000000000000000000000008152600401610cba90610ff7565b60405180910390fd5b505050565b6000610cd330610cef565b15905090565b60008183610ce791906110ae565b905092915050565b600080823b905060008111915050919050565b600081359050610d1181611397565b92915050565b600081359050610d26816113ae565b92915050565b600081359050610d3b816113c5565b92915050565b600060208284031215610d5357600080fd5b6000610d6184828501610d02565b91505092915050565b600060208284031215610d7c57600080fd5b6000610d8a84828501610d17565b91505092915050565b60008060408385031215610da657600080fd5b6000610db485828601610d17565b9250506020610dc585828601610d2c565b9150509250929050565b610dd881611152565b82525050565b610de781611116565b82525050565b610df681611104565b82525050565b6000610e09602c8361109d565b9150610e14826111b7565b604082019050919050565b6000610e2c60268361109d565b9150610e3782611206565b604082019050919050565b6000610e4f602d8361109d565b9150610e5a82611255565b604082019050919050565b6000610e72603a8361109d565b9150610e7d826112a4565b604082019050919050565b6000610e95601d8361109d565b9150610ea0826112f3565b602082019050919050565b6000610eb8602e8361109d565b9150610ec38261131c565b604082019050919050565b6000610edb60208361109d565b9150610ee68261136b565b602082019050919050565b6000610efe600083611092565b9150610f0982611394565b600082019050919050565b610f1d81611148565b82525050565b6000610f2e82610ef1565b9150819050919050565b6000602082019050610f4d6000830184610ded565b92915050565b6000602082019050610f686000830184610dde565b92915050565b6000604082019050610f836000830185610dcf565b610f906020830184610f14565b9392505050565b60006020820190508181036000830152610fb081610dfc565b9050919050565b60006020820190508181036000830152610fd081610e1f565b9050919050565b60006020820190508181036000830152610ff081610e42565b9050919050565b6000602082019050818103600083015261101081610e65565b9050919050565b6000602082019050818103600083015261103081610e88565b9050919050565b6000602082019050818103600083015261105081610eab565b9050919050565b6000602082019050818103600083015261107081610ece565b9050919050565b600060208201905061108c6000830184610f14565b92915050565b600081905092915050565b600082825260208201905092915050565b60006110b982611148565b91506110c483611148565b9250827fffffffffffffffffffffffffffffffffffffffffffffffffffffffffffffffff038211156110f9576110f8611188565b5b828201905092915050565b600061110f82611128565b9050919050565b600061112182611128565b9050919050565b600073ffffffffffffffffffffffffffffffffffffffff82169050919050565b6000819050919050565b600061115d82611164565b9050919050565b600061116f82611176565b9050919050565b600061118182611128565b9050919050565b7f4e487b7100000000000000000000000000000000000000000000000000000000600052601160045260246000fd5b7f546f707069457363726f773a2062656e6566696369617279206973207468652060008201527f7a65726f20616464726573730000000000000000000000000000000000000000602082015250565b7f4f776e61626c653a206e6577206f776e657220697320746865207a65726f206160008201527f6464726573730000000000000000000000000000000000000000000000000000602082015250565b7f53656e646572206d757374206265207468652073616d6520617320746865207060008201527f6179656520616464726573732e00000000000000000000000000000000000000602082015250565b7f416464726573733a20756e61626c6520746f2073656e642076616c75652c207260008201527f6563697069656e74206d61792068617665207265766572746564000000000000602082015250565b7f416464726573733a20696e73756666696369656e742062616c616e6365000000600082015250565b7f496e697469616c697a61626c653a20636f6e747261637420697320616c72656160008201527f647920696e697469616c697a6564000000000000000000000000000000000000602082015250565b7f4f776e61626c653a2063616c6c6572206973206e6f7420746865206f776e6572600082015250565b50565b6113a081611104565b81146113ab57600080fd5b50565b6113b781611116565b81146113c257600080fd5b50565b6113ce81611148565b81146113d957600080fd5b5056fea26469706673582212206412ccbe28b1d50d612a61527b2486f1969ae60f6760a8d0e7a1318900450ec964736f6c63430008030033",
  "immutableReferences": {},
  "source": "// SPDX-License-Identifier: MIT\n// OpenZeppelin Contracts v4.4.1 (utils/escrow/Escrow.sol)\n\npragma solidity 0.8.3;\n\nimport \"@openzeppelin/contracts/utils/math/SafeMath.sol\";\nimport \"@openzeppelin/contracts/utils/Address.sol\";\nimport \"@openzeppelin/contracts/utils/structs/BitMaps.sol\";\nimport \"@openzeppelin/contracts/access/Ownable.sol\";\nimport \"@openzeppelin/contracts-upgradeable/proxy/utils/Initializable.sol\";\n\n/**\n * @title ToppiEscrow\n * @dev Base escrow contract, holds funds designated for a beneficiary until they\n * withdraw them or a refund is emitted.\n *\n * Intended usage: This contract (and derived escrow contracts) should be a\n * standalone contract, that only interacts with the contract that instantiated\n * it. That way, it is guaranteed that all Ether will be handled according to\n * the `Escrow` rules, and there is no need to check for payable functions or\n * transfers in the inheritance tree. The contract that uses the escrow as its\n * payment method should be its owner, and provide public methods redirecting\n * to the escrow's deposit and withdraw.\n */\ncontract ToppiEscrowV1 is Ownable, Initializable {\n    using Address for address payable;\n    using SafeMath for uint256;\n\n    event Deposit(address indexed payee, uint256 weiAmount);\n    event Withdrawn(address indexed payee, uint256 weiAmount);\n    event RefundRegistered(address refundee, uint256 amount);\n\n    address payable private _beneficiary;\n    mapping(address => uint256) private _deposits;\n    mapping(address => uint256) private _refunds;\n    uint256 private _serviceIdentifier;\n\n    /**\n     * @dev Constructor.\n     * @param beneficiary_ The beneficiary of the deposits.\n     */\n    function initialize(address payable beneficiary_, uint256 serviceIdentifier_) public virtual initializer {\n        require(beneficiary_ != address(0), \"ToppiEscrow: beneficiary is the zero address\");\n        _beneficiary = beneficiary_;\n        _serviceIdentifier = serviceIdentifier_;\n        _transferOwnership(msg.sender);\n    }\n\n    /**\n     * @return The beneficiary of the escrow.\n     */\n    function beneficiary() public view virtual returns (address payable) {\n        return _beneficiary;\n    }\n\n    /**\n     * @return The service ID of the escrow.\n     */\n    function serviceID() public view virtual returns (uint256) {\n        return _serviceIdentifier;\n    }\n\n    /**\n     * @return Total deposits from a payer\n     */\n    function depositsOf(address payer) public view returns (uint256) {\n        return _deposits[payer];\n    }\n\n    /**\n     * @return Total refunds for a payer\n     */\n    function refundsOf(address payee) public view returns (uint256) {\n        return _refunds[payee];\n    }\n\n    /**\n     * @dev Stores the sent amount as credit to be claimed.\n     * @param payer The destination address of the funds.\n     */\n    function deposit(address payer) public payable virtual onlyOwner {\n        uint256 amount = msg.value;\n        _deposits[payer] = amount.add(_deposits[payer]);\n        emit Deposit(payer, amount);\n    }\n\n    /**\n     * @dev Refund accumulated balance for a refundee, forwarding all gas to the\n     * recipient.\n     *\n     * WARNING: Forwarding all gas opens the door to reentrancy vulnerabilities.\n     * Make sure you trust the recipient, or are either following the\n     * checks-effects-interactions pattern or using {ReentrancyGuard}.\n     *\n     * @param refundee The address whose funds will be withdrawn and transferred to.\n     */\n    function withdrawRefund(address payable refundee) public virtual {\n        require(msg.sender == refundee, \"Sender must be the same as the payee address.\");\n        uint256 payment = _refunds[refundee];\n        _refunds[refundee] = 0;\n        refundee.sendValue(payment); \n        emit Withdrawn(refundee, payment);\n    }\n\n    /**\n     * @dev Allows for refunds to take place, rejecting further deposits.\n     */\n    function registerRefund(address payable refundee, uint256 amount) public virtual onlyOwner {\n        // TODO: add logic for address based refunds\n        _refunds[refundee] = amount.add(_refunds[refundee]);\n        emit RefundRegistered(refundee, amount);\n    }\n\n    /**\n     * @dev Withdraws the beneficiary's funds.\n     */\n    function beneficiaryWithdraw() public virtual {\n        beneficiary().sendValue(address(this).balance);\n    }\n}\n",
  "sourcePath": "/Users/luisoscargabriel/toppi-org/toppi-dapp/src/contracts/ToppiEscrowV1.sol",
  "compiler": {
    "name": "solc",
    "version": "0.8.3+commit.8d00100c.Emscripten.clang"
  },
  "schemaVersion": "3.4.4",
  "updatedAt": "2022-01-30T18:42:29.717Z",
  "devdoc": {
    "details": "Base escrow contract, holds funds designated for a beneficiary until they withdraw them or a refund is emitted. Intended usage: This contract (and derived escrow contracts) should be a standalone contract, that only interacts with the contract that instantiated it. That way, it is guaranteed that all Ether will be handled according to the `Escrow` rules, and there is no need to check for payable functions or transfers in the inheritance tree. The contract that uses the escrow as its payment method should be its owner, and provide public methods redirecting to the escrow's deposit and withdraw.",
    "kind": "dev",
    "methods": {
      "beneficiary()": {
        "returns": {
          "_0": "The beneficiary of the escrow."
        }
      },
      "beneficiaryWithdraw()": {
        "details": "Withdraws the beneficiary's funds."
      },
      "deposit(address)": {
        "details": "Stores the sent amount as credit to be claimed.",
        "params": {
          "payer": "The destination address of the funds."
        }
      },
      "depositsOf(address)": {
        "returns": {
          "_0": "Total deposits from a payer"
        }
      },
      "initialize(address,uint256)": {
        "details": "Constructor.",
        "params": {
          "beneficiary_": "The beneficiary of the deposits."
        }
      },
      "owner()": {
        "details": "Returns the address of the current owner."
      },
      "refundsOf(address)": {
        "returns": {
          "_0": "Total refunds for a payer"
        }
      },
      "registerRefund(address,uint256)": {
        "details": "Allows for refunds to take place, rejecting further deposits."
      },
      "renounceOwnership()": {
        "details": "Leaves the contract without owner. It will not be possible to call `onlyOwner` functions anymore. Can only be called by the current owner. NOTE: Renouncing ownership will leave the contract without an owner, thereby removing any functionality that is only available to the owner."
      },
      "serviceID()": {
        "returns": {
          "_0": "The service ID of the escrow."
        }
      },
      "transferOwnership(address)": {
        "details": "Transfers ownership of the contract to a new account (`newOwner`). Can only be called by the current owner."
      },
      "withdrawRefund(address)": {
        "details": "Refund accumulated balance for a refundee, forwarding all gas to the recipient. WARNING: Forwarding all gas opens the door to reentrancy vulnerabilities. Make sure you trust the recipient, or are either following the checks-effects-interactions pattern or using {ReentrancyGuard}.",
        "params": {
          "refundee": "The address whose funds will be withdrawn and transferred to."
        }
      }
    },
    "title": "ToppiEscrow",
    "version": 1
  },
  "userdoc": {
    "kind": "user",
    "methods": {},
    "version": 1
  }
}