{
  "contractName": "ToppiRouterV1",
  "abi": [
    {
      "anonymous": false,
      "inputs": [
        {
          "indexed": true,
          "internalType": "address",
          "name": "previousOwner",
          "type": "address"
        },
        {
          "indexed": true,
          "internalType": "address",
          "name": "newOwner",
          "type": "address"
        }
      ],
      "name": "OwnershipTransferred",
      "type": "event"
    },
    {
      "anonymous": false,
      "inputs": [
        {
          "indexed": true,
          "internalType": "address",
          "name": "payer",
          "type": "address"
        },
        {
          "indexed": false,
          "internalType": "uint256",
          "name": "weiAmount",
          "type": "uint256"
        },
        {
          "indexed": false,
          "internalType": "bytes32",
          "name": "serviceRef",
          "type": "bytes32"
        },
        {
          "indexed": false,
          "internalType": "address",
          "name": "escrowContract",
          "type": "address"
        }
      ],
      "name": "ServiceRequested",
      "type": "event"
    },
    {
      "inputs": [],
      "name": "owner",
      "outputs": [
        {
          "internalType": "address",
          "name": "",
          "type": "address"
        }
      ],
      "stateMutability": "view",
      "type": "function"
    },
    {
      "inputs": [],
      "name": "renounceOwnership",
      "outputs": [],
      "stateMutability": "nonpayable",
      "type": "function"
    },
    {
      "inputs": [
        {
          "internalType": "address",
          "name": "newOwner",
          "type": "address"
        }
      ],
      "name": "transferOwnership",
      "outputs": [],
      "stateMutability": "nonpayable",
      "type": "function"
    },
    {
      "inputs": [],
      "name": "initialize",
      "outputs": [],
      "stateMutability": "nonpayable",
      "type": "function"
    },
    {
      "inputs": [
        {
          "internalType": "address",
          "name": "escrowContract",
          "type": "address"
        },
        {
          "internalType": "string",
          "name": "serviceRef",
          "type": "string"
        }
      ],
      "name": "requestService",
      "outputs": [
        {
          "internalType": "bool",
          "name": "",
          "type": "bool"
        }
      ],
      "stateMutability": "payable",
      "type": "function"
    },
    {
      "inputs": [
        {
          "internalType": "uint256",
          "name": "serviceID",
          "type": "uint256"
        }
      ],
      "name": "serviceOf",
      "outputs": [
        {
          "internalType": "address",
          "name": "",
          "type": "address"
        }
      ],
      "stateMutability": "view",
      "type": "function"
    },
    {
      "inputs": [
        {
          "internalType": "uint256",
          "name": "serviceID",
          "type": "uint256"
        },
        {
          "internalType": "address",
          "name": "serviceEscrow",
          "type": "address"
        }
      ],
      "name": "setService",
      "outputs": [
        {
          "internalType": "bool",
          "name": "",
          "type": "bool"
        }
      ],
      "stateMutability": "nonpayable",
      "type": "function"
    }
  ],
  "bytecode": "0x608060405234801561001057600080fd5b5061002d61002261003260201b60201c565b61003a60201b60201c565b6100fe565b600033905090565b60008060009054906101000a900473ffffffffffffffffffffffffffffffffffffffff169050816000806101000a81548173ffffffffffffffffffffffffffffffffffffffff021916908373ffffffffffffffffffffffffffffffffffffffff1602179055508173ffffffffffffffffffffffffffffffffffffffff168173ffffffffffffffffffffffffffffffffffffffff167f8be0079c531659141344cd1fd0a4f28419497f9722a3daafe3b4186f6b6457e060405160405180910390a35050565b610b7f8061010d6000396000f3fe6080604052600436106100705760003560e01c80638da5cb5b1161004e5780638da5cb5b146100d3578063999cd9f7146100fe578063e31705011461013b578063f2fde38b1461017857610070565b806312583e0114610075578063715018a6146100a55780638129fc1c146100bc575b600080fd5b61008f600480360381019061008a919061076a565b6101a1565b60405161009c9190610925565b60405180910390f35b3480156100b157600080fd5b506100ba61022d565b005b3480156100c857600080fd5b506100d16102b5565b005b3480156100df57600080fd5b506100e86103a5565b6040516100f5919061090a565b60405180910390f35b34801561010a57600080fd5b50610125600480360381019061012091906107eb565b6103ce565b6040516101329190610925565b60405180910390f35b34801561014757600080fd5b50610162600480360381019061015d91906107c2565b6104a8565b60405161016f919061090a565b60405180910390f35b34801561018457600080fd5b5061019f600480360381019061019a9190610741565b6104e5565b005b60008083836040516020016101b79291906108f1565b6040516020818303038152906040528051906020012090503373ffffffffffffffffffffffffffffffffffffffff167f3592a14e26ec7a126a764633dd92f19a4c6025f963cad8c95abab498ab93da96348388604051610219939291906109a0565b60405180910390a260019150509392505050565b6102356105dd565b73ffffffffffffffffffffffffffffffffffffffff166102536103a5565b73ffffffffffffffffffffffffffffffffffffffff16146102a9576040517f08c379a00000000000000000000000000000000000000000000000000000000081526004016102a090610980565b60405180910390fd5b6102b360006105e5565b565b600060159054906101000a900460ff166102df57600060149054906101000a900460ff16156102e8565b6102e76106a9565b5b610327576040517f08c379a000000000000000000000000000000000000000000000000000000000815260040161031e90610960565b60405180910390fd5b60008060159054906101000a900460ff161590508015610378576001600060156101000a81548160ff0219169083151502179055506001600060146101000a81548160ff0219169083151502179055505b610381336105e5565b80156103a25760008060156101000a81548160ff0219169083151502179055505b50565b60008060009054906101000a900473ffffffffffffffffffffffffffffffffffffffff16905090565b60006103d86105dd565b73ffffffffffffffffffffffffffffffffffffffff166103f66103a5565b73ffffffffffffffffffffffffffffffffffffffff161461044c576040517f08c379a000000000000000000000000000000000000000000000000000000000815260040161044390610980565b60405180910390fd5b816001600085815260200190815260200160002060006101000a81548173ffffffffffffffffffffffffffffffffffffffff021916908373ffffffffffffffffffffffffffffffffffffffff1602179055506001905092915050565b60006001600083815260200190815260200160002060009054906101000a900473ffffffffffffffffffffffffffffffffffffffff169050919050565b6104ed6105dd565b73ffffffffffffffffffffffffffffffffffffffff1661050b6103a5565b73ffffffffffffffffffffffffffffffffffffffff1614610561576040517f08c379a000000000000000000000000000000000000000000000000000000000815260040161055890610980565b60405180910390fd5b600073ffffffffffffffffffffffffffffffffffffffff168173ffffffffffffffffffffffffffffffffffffffff1614156105d1576040517f08c379a00000000000000000000000000000000000000000000000000000000081526004016105c890610940565b60405180910390fd5b6105da816105e5565b50565b600033905090565b60008060009054906101000a900473ffffffffffffffffffffffffffffffffffffffff169050816000806101000a81548173ffffffffffffffffffffffffffffffffffffffff021916908373ffffffffffffffffffffffffffffffffffffffff1602179055508173ffffffffffffffffffffffffffffffffffffffff168173ffffffffffffffffffffffffffffffffffffffff167f8be0079c531659141344cd1fd0a4f28419497f9722a3daafe3b4186f6b6457e060405160405180910390a35050565b60006106b4306106ba565b15905090565b600080823b905060008111915050919050565b6000813590506106dc81610b1b565b92915050565b60008083601f8401126106f457600080fd5b8235905067ffffffffffffffff81111561070d57600080fd5b60208301915083600182028301111561072557600080fd5b9250929050565b60008135905061073b81610b32565b92915050565b60006020828403121561075357600080fd5b6000610761848285016106cd565b91505092915050565b60008060006040848603121561077f57600080fd5b600061078d868287016106cd565b935050602084013567ffffffffffffffff8111156107aa57600080fd5b6107b6868287016106e2565b92509250509250925092565b6000602082840312156107d457600080fd5b60006107e28482850161072c565b91505092915050565b600080604083850312156107fe57600080fd5b600061080c8582860161072c565b925050602061081d858286016106cd565b9150509250929050565b610830816109f3565b82525050565b61083f81610a05565b82525050565b61084e81610a11565b82525050565b600061086083856109e8565b935061086d838584610a45565b82840190509392505050565b60006108866026836109d7565b915061089182610a54565b604082019050919050565b60006108a9602e836109d7565b91506108b482610aa3565b604082019050919050565b60006108cc6020836109d7565b91506108d782610af2565b602082019050919050565b6108eb81610a3b565b82525050565b60006108fe828486610854565b91508190509392505050565b600060208201905061091f6000830184610827565b92915050565b600060208201905061093a6000830184610836565b92915050565b6000602082019050818103600083015261095981610879565b9050919050565b600060208201905081810360008301526109798161089c565b9050919050565b60006020820190508181036000830152610999816108bf565b9050919050565b60006060820190506109b560008301866108e2565b6109c26020830185610845565b6109cf6040830184610827565b949350505050565b600082825260208201905092915050565b600081905092915050565b60006109fe82610a1b565b9050919050565b60008115159050919050565b6000819050919050565b600073ffffffffffffffffffffffffffffffffffffffff82169050919050565b6000819050919050565b82818337600083830152505050565b7f4f776e61626c653a206e6577206f776e657220697320746865207a65726f206160008201527f6464726573730000000000000000000000000000000000000000000000000000602082015250565b7f496e697469616c697a61626c653a20636f6e747261637420697320616c72656160008201527f647920696e697469616c697a6564000000000000000000000000000000000000602082015250565b7f4f776e61626c653a2063616c6c6572206973206e6f7420746865206f776e6572600082015250565b610b24816109f3565b8114610b2f57600080fd5b50565b610b3b81610a3b565b8114610b4657600080fd5b5056fea26469706673582212205f9b2fac1e56a0bfec666b7a7313dedce2f3791629837583535fd9dd04b1247264736f6c63430008030033",
  "immutableReferences": {},
  "source": "// SPDX-License-Identifier: MIT\npragma solidity 0.8.3;\n\nimport \"@openzeppelin/contracts/utils/math/SafeMath.sol\";\nimport \"@openzeppelin/contracts/utils/Address.sol\";\nimport \"@openzeppelin/contracts/access/Ownable.sol\";\nimport \"@openzeppelin/contracts-upgradeable/proxy/utils/Initializable.sol\";\n\ncontract ToppiRouterV1 is Ownable, Initializable {\n    using Address for address payable;\n    using SafeMath for uint256;\n\n    mapping(uint256 => address) private _services;\n\n    event ServiceRequested(address indexed payer, uint256 weiAmount, bytes32 serviceRef, address escrowContract);\n  \n    /**\n     * @dev Constructor.\n     */\n    function initialize() public virtual initializer {\n        _transferOwnership(msg.sender);\n    }\n\n    /**\n     * @return The current state of the escrow.\n     */\n    function requestService(address escrowContract, string calldata serviceRef) public payable returns (bool) {\n        bytes32 ref = keccak256(abi.encodePacked(serviceRef));\n        //TODO route the payment to the corresponding escrow contract\n        emit ServiceRequested(msg.sender, msg.value, ref, escrowContract);\n        return true;\n    }\n\n    /**\n     * @return the address for the service ID of a particular service.\n     *\n     */\n    function serviceOf(uint256 serviceID) public view returns (address) {\n        return _services[serviceID];\n    }\n\n    function setService(uint256 serviceID, address serviceEscrow) public virtual onlyOwner returns (bool) {\n        _services[serviceID] = serviceEscrow;\n        return true;\n    }\n}\n",
  "sourcePath": "/Users/luisoscargabriel/toppi-org/toppi-dapp/src/contracts/ToppiRouterV1.sol",
  "compiler": {
    "name": "solc",
    "version": "0.8.3+commit.8d00100c.Emscripten.clang"
  },
  "schemaVersion": "3.4.4",
  "updatedAt": "2022-01-31T03:26:33.328Z",
  "devdoc": {
    "kind": "dev",
    "methods": {
      "initialize()": {
        "details": "Constructor."
      },
      "owner()": {
        "details": "Returns the address of the current owner."
      },
      "renounceOwnership()": {
        "details": "Leaves the contract without owner. It will not be possible to call `onlyOwner` functions anymore. Can only be called by the current owner. NOTE: Renouncing ownership will leave the contract without an owner, thereby removing any functionality that is only available to the owner."
      },
      "requestService(address,string)": {
        "returns": {
          "_0": "The current state of the escrow."
        }
      },
      "serviceOf(uint256)": {
        "returns": {
          "_0": "the address for the service ID of a particular service."
        }
      },
      "transferOwnership(address)": {
        "details": "Transfers ownership of the contract to a new account (`newOwner`). Can only be called by the current owner."
      }
    },
    "version": 1
  },
  "userdoc": {
    "kind": "user",
    "methods": {},
    "version": 1
  }
}