{
  "contractName": "TukiRouterV1",
  "abi": [
    {
      "anonymous": false,
      "inputs": [
        {
          "indexed": false,
          "internalType": "address",
          "name": "previousAdmin",
          "type": "address"
        },
        {
          "indexed": false,
          "internalType": "address",
          "name": "newAdmin",
          "type": "address"
        }
      ],
      "name": "AdminChanged",
      "type": "event"
    },
    {
      "anonymous": false,
      "inputs": [
        {
          "indexed": true,
          "internalType": "address",
          "name": "beacon",
          "type": "address"
        }
      ],
      "name": "BeaconUpgraded",
      "type": "event"
    },
    {
      "anonymous": false,
      "inputs": [
        {
          "indexed": false,
          "internalType": "uint8",
          "name": "version",
          "type": "uint8"
        }
      ],
      "name": "Initialized",
      "type": "event"
    },
    {
      "anonymous": false,
      "inputs": [
        {
          "indexed": true,
          "internalType": "address",
          "name": "previousOwner",
          "type": "address"
        },
        {
          "indexed": true,
          "internalType": "address",
          "name": "newOwner",
          "type": "address"
        }
      ],
      "name": "OwnershipTransferred",
      "type": "event"
    },
    {
      "anonymous": false,
      "inputs": [
        {
          "indexed": false,
          "internalType": "address",
          "name": "account",
          "type": "address"
        }
      ],
      "name": "Paused",
      "type": "event"
    },
    {
      "anonymous": false,
      "inputs": [
        {
          "indexed": false,
          "internalType": "uint256",
          "name": "serviceID",
          "type": "uint256"
        },
        {
          "indexed": false,
          "internalType": "string",
          "name": "serviceRef",
          "type": "string"
        }
      ],
      "name": "RefValidationFailed",
      "type": "event"
    },
    {
      "anonymous": false,
      "inputs": [
        {
          "indexed": false,
          "internalType": "uint256",
          "name": "serviceID",
          "type": "uint256"
        },
        {
          "indexed": false,
          "internalType": "address",
          "name": "escrow",
          "type": "address"
        },
        {
          "indexed": false,
          "internalType": "address",
          "name": "validator",
          "type": "address"
        }
      ],
      "name": "ServiceAdded",
      "type": "event"
    },
    {
      "anonymous": false,
      "inputs": [
        {
          "indexed": false,
          "internalType": "uint256",
          "name": "serviceID",
          "type": "uint256"
        },
        {
          "components": [
            {
              "internalType": "address",
              "name": "payer",
              "type": "address"
            },
            {
              "internalType": "uint256",
              "name": "weiAmount",
              "type": "uint256"
            },
            {
              "internalType": "uint256",
              "name": "fiatAmount",
              "type": "uint256"
            },
            {
              "internalType": "string",
              "name": "serviceRef",
              "type": "string"
            }
          ],
          "indexed": false,
          "internalType": "struct FulFillmentRequest",
          "name": "request",
          "type": "tuple"
        }
      ],
      "name": "ServiceRequested",
      "type": "event"
    },
    {
      "anonymous": false,
      "inputs": [
        {
          "indexed": false,
          "internalType": "address",
          "name": "account",
          "type": "address"
        }
      ],
      "name": "Unpaused",
      "type": "event"
    },
    {
      "anonymous": false,
      "inputs": [
        {
          "indexed": true,
          "internalType": "address",
          "name": "implementation",
          "type": "address"
        }
      ],
      "name": "Upgraded",
      "type": "event"
    },
    {
      "inputs": [],
      "name": "owner",
      "outputs": [
        {
          "internalType": "address",
          "name": "",
          "type": "address"
        }
      ],
      "stateMutability": "view",
      "type": "function"
    },
    {
      "inputs": [],
      "name": "paused",
      "outputs": [
        {
          "internalType": "bool",
          "name": "",
          "type": "bool"
        }
      ],
      "stateMutability": "view",
      "type": "function"
    },
    {
      "inputs": [],
      "name": "proxiableUUID",
      "outputs": [
        {
          "internalType": "bytes32",
          "name": "",
          "type": "bytes32"
        }
      ],
      "stateMutability": "view",
      "type": "function"
    },
    {
      "inputs": [],
      "name": "renounceOwnership",
      "outputs": [],
      "stateMutability": "nonpayable",
      "type": "function"
    },
    {
      "inputs": [
        {
          "internalType": "address",
          "name": "newOwner",
          "type": "address"
        }
      ],
      "name": "transferOwnership",
      "outputs": [],
      "stateMutability": "nonpayable",
      "type": "function"
    },
    {
      "inputs": [
        {
          "internalType": "address",
          "name": "newImplementation",
          "type": "address"
        }
      ],
      "name": "upgradeTo",
      "outputs": [],
      "stateMutability": "nonpayable",
      "type": "function"
    },
    {
      "inputs": [
        {
          "internalType": "address",
          "name": "newImplementation",
          "type": "address"
        },
        {
          "internalType": "bytes",
          "name": "data",
          "type": "bytes"
        }
      ],
      "name": "upgradeToAndCall",
      "outputs": [],
      "stateMutability": "payable",
      "type": "function"
    },
    {
      "inputs": [],
      "name": "initialize",
      "outputs": [],
      "stateMutability": "nonpayable",
      "type": "function"
    },
    {
      "inputs": [],
      "name": "pause",
      "outputs": [],
      "stateMutability": "nonpayable",
      "type": "function"
    },
    {
      "inputs": [],
      "name": "unpause",
      "outputs": [],
      "stateMutability": "nonpayable",
      "type": "function"
    },
    {
      "inputs": [
        {
          "internalType": "uint256",
          "name": "serviceID",
          "type": "uint256"
        },
        {
          "components": [
            {
              "internalType": "address",
              "name": "payer",
              "type": "address"
            },
            {
              "internalType": "uint256",
              "name": "weiAmount",
              "type": "uint256"
            },
            {
              "internalType": "uint256",
              "name": "fiatAmount",
              "type": "uint256"
            },
            {
              "internalType": "string",
              "name": "serviceRef",
              "type": "string"
            }
          ],
          "internalType": "struct FulFillmentRequest",
          "name": "request",
          "type": "tuple"
        }
      ],
      "name": "requestService",
      "outputs": [
        {
          "internalType": "bool",
          "name": "",
          "type": "bool"
        }
      ],
      "stateMutability": "payable",
      "type": "function"
    },
    {
      "inputs": [
        {
          "internalType": "uint256",
          "name": "serviceID",
          "type": "uint256"
        }
      ],
      "name": "serviceOf",
      "outputs": [
        {
          "internalType": "address[2]",
          "name": "",
          "type": "address[2]"
        }
      ],
      "stateMutability": "view",
      "type": "function"
    },
    {
      "inputs": [
        {
          "internalType": "uint256",
          "name": "serviceID",
          "type": "uint256"
        }
      ],
      "name": "feeOf",
      "outputs": [
        {
          "internalType": "uint256",
          "name": "",
          "type": "uint256"
        }
      ],
      "stateMutability": "view",
      "type": "function"
    },
    {
      "inputs": [
        {
          "internalType": "uint256",
          "name": "serviceID",
          "type": "uint256"
        },
        {
          "internalType": "address payable",
          "name": "beneficiaryAddress",
          "type": "address"
        },
        {
          "internalType": "address",
          "name": "validator",
          "type": "address"
        },
        {
          "internalType": "uint256",
          "name": "feeAmount",
          "type": "uint256"
        }
      ],
      "name": "setService",
      "outputs": [
        {
          "internalType": "address[2]",
          "name": "",
          "type": "address[2]"
        }
      ],
      "stateMutability": "nonpayable",
      "type": "function"
    },
    {
      "inputs": [
        {
          "internalType": "uint256",
          "name": "serviceID",
          "type": "uint256"
        },
        {
          "internalType": "uint256",
          "name": "feeAmount",
          "type": "uint256"
        }
      ],
      "name": "setFee",
      "outputs": [
        {
          "internalType": "uint256",
          "name": "",
          "type": "uint256"
        }
      ],
      "stateMutability": "nonpayable",
      "type": "function"
    }
  ],
  "bytecode": "0x60a06040523073ffffffffffffffffffffffffffffffffffffffff1660809073ffffffffffffffffffffffffffffffffffffffff1681525034801561004357600080fd5b50608051615ed761007b600039600081816103bf015281816104500152818161056d015281816105fe0152610a130152615ed76000f3fe608060405260043610620000fe5760003560e01c8063715018a611620000975780638da5cb5b11620000615780638da5cb5b14620002d7578063af9e3a361462000307578063e3170501146200034b578063f2fde38b146200038f57620000fe565b8063715018a614620002535780638129fc1c146200026d5780638456cb5914620002875780638d5e694f14620002a157620000fe565b80634fd4662311620000d95780634fd46623146200016b57806352d1902d14620001af57806352f7c98814620001df5780635c975abb146200022357620000fe565b80633659cfe614620001035780633f4ba83a14620001315780634f1ef286146200014b575b600080fd5b3480156200011057600080fd5b506200012f6004803603810190620001299190620020ac565b620003bd565b005b3480156200013e57600080fd5b506200014962000555565b005b62000169600480360381019062000163919062002240565b6200056b565b005b3480156200017857600080fd5b5062000197600480360381019062000191919062002326565b620006b3565b604051620001a6919062002453565b60405180910390f35b348015620001bc57600080fd5b50620001c762000a0f565b604051620001d691906200248b565b60405180910390f35b348015620001ec57600080fd5b506200020b6004803603810190620002059190620024a8565b62000acb565b6040516200021a919062002500565b60405180910390f35b3480156200023057600080fd5b506200023b62000c0f565b6040516200024a91906200253a565b60405180910390f35b3480156200026057600080fd5b506200026b62000c26565b005b3480156200027a57600080fd5b506200028562000c3e565b005b3480156200029457600080fd5b506200029f62000d9e565b005b620002bf6004803603810190620002b99190620026b9565b62000db4565b604051620002ce91906200253a565b60405180910390f35b348015620002e457600080fd5b50620002ef62001246565b604051620002fe919062002730565b60405180910390f35b3480156200031457600080fd5b506200033360048036038101906200032d91906200274d565b62001270565b60405162000342919062002500565b60405180910390f35b3480156200035857600080fd5b506200037760048036038101906200037191906200274d565b620013c2565b60405162000386919062002453565b60405180910390f35b3480156200039c57600080fd5b50620003bb6004803603810190620003b59190620020ac565b620015f0565b005b7f000000000000000000000000000000000000000000000000000000000000000073ffffffffffffffffffffffffffffffffffffffff163073ffffffffffffffffffffffffffffffffffffffff16036200044e576040517f08c379a0000000000000000000000000000000000000000000000000000000008152600401620004459062002806565b60405180910390fd5b7f000000000000000000000000000000000000000000000000000000000000000073ffffffffffffffffffffffffffffffffffffffff166200048f6200167a565b73ffffffffffffffffffffffffffffffffffffffff1614620004e8576040517f08c379a0000000000000000000000000000000000000000000000000000000008152600401620004df906200289e565b60405180910390fd5b620004f381620016d3565b6200055281600067ffffffffffffffff811115620005165762000515620020f9565b5b6040519080825280601f01601f191660200182016040528015620005495781602001600182028036833780820191505090505b506000620016e0565b50565b6200055f6200185f565b62000569620018e4565b565b7f000000000000000000000000000000000000000000000000000000000000000073ffffffffffffffffffffffffffffffffffffffff163073ffffffffffffffffffffffffffffffffffffffff1603620005fc576040517f08c379a0000000000000000000000000000000000000000000000000000000008152600401620005f39062002806565b60405180910390fd5b7f000000000000000000000000000000000000000000000000000000000000000073ffffffffffffffffffffffffffffffffffffffff166200063d6200167a565b73ffffffffffffffffffffffffffffffffffffffff161462000696576040517f08c379a00000000000000000000000000000000000000000000000000000000081526004016200068d906200289e565b60405180910390fd5b620006a182620016d3565b620006af82826001620016e0565b5050565b620006bd62002003565b620006c76200185f565b600085116200070d576040517f08c379a0000000000000000000000000000000000000000000000000000000008152600401620007049062002910565b60405180910390fd5b600073ffffffffffffffffffffffffffffffffffffffff168373ffffffffffffffffffffffffffffffffffffffff16036200077f576040517f08c379a0000000000000000000000000000000000000000000000000000000008152600401620007769062002982565b60405180910390fd5b838583604051620007909062002025565b6200079e93929190620029b5565b604051809103906000f080158015620007bb573d6000803e3d6000fd5b5060fb60006101000a81548173ffffffffffffffffffffffffffffffffffffffff021916908373ffffffffffffffffffffffffffffffffffffffff16021790555060fb60009054906101000a900473ffffffffffffffffffffffffffffffffffffffff1660fc600087815260200190815260200160002060006101000a81548173ffffffffffffffffffffffffffffffffffffffff021916908373ffffffffffffffffffffffffffffffffffffffff1602179055508260fd600087815260200190815260200160002060006101000a81548173ffffffffffffffffffffffffffffffffffffffff021916908373ffffffffffffffffffffffffffffffffffffffff1602179055507f50d798ee07203c2dc328aa13e8f1eff3d7aa253e01262565918ab0a7cb0e41568560fc600088815260200190815260200160002060009054906101000a900473ffffffffffffffffffffffffffffffffffffffff16856040516200092a93929190620029f2565b60405180910390a1604051806040016040528060fc600088815260200190815260200160002060009054906101000a900473ffffffffffffffffffffffffffffffffffffffff1673ffffffffffffffffffffffffffffffffffffffff1673ffffffffffffffffffffffffffffffffffffffff16815260200160fd600088815260200190815260200160002060009054906101000a900473ffffffffffffffffffffffffffffffffffffffff1673ffffffffffffffffffffffffffffffffffffffff1673ffffffffffffffffffffffffffffffffffffffff168152509050949350505050565b60007f000000000000000000000000000000000000000000000000000000000000000073ffffffffffffffffffffffffffffffffffffffff163073ffffffffffffffffffffffffffffffffffffffff161462000aa2576040517f08c379a000000000000000000000000000000000000000000000000000000000815260040162000a999062002aa5565b60405180910390fd5b7f360894a13ba1a3210667c828492db98dca3e2076cc3735a920a3ca505d382bbc60001b905090565b600062000ad76200185f565b6000831162000b1d576040517f08c379a000000000000000000000000000000000000000000000000000000000815260040162000b149062002910565b60405180910390fd5b600082101562000b64576040517f08c379a000000000000000000000000000000000000000000000000000000000815260040162000b5b9062002b17565b60405180910390fd5b60fc600084815260200190815260200160002060009054906101000a900473ffffffffffffffffffffffffffffffffffffffff1673ffffffffffffffffffffffffffffffffffffffff166369fe0e2d836040518263ffffffff1660e01b815260040162000bd2919062002500565b600060405180830381600087803b15801562000bed57600080fd5b505af115801562000c02573d6000803e3d6000fd5b5050505081905092915050565b6000606560009054906101000a900460ff16905090565b62000c306200185f565b62000c3c60006200194d565b565b60008060019054906101000a900460ff1615905080801562000c705750600160008054906101000a900460ff1660ff16105b8062000ca1575062000c823062001a13565b15801562000ca05750600160008054906101000a900460ff1660ff16145b5b62000ce3576040517f08c379a000000000000000000000000000000000000000000000000000000000815260040162000cda9062002baf565b60405180910390fd5b60016000806101000a81548160ff021916908360ff160217905550801562000d21576001600060016101000a81548160ff0219169083151502179055505b62000d2b62001a36565b62000d3562001a94565b62000d3f62001af2565b801562000d9b5760008060016101000a81548160ff0219169083151502179055507f7f26b83ff96e1f2b6a682f133852f6798a09c465da95921460cefb3847402498600160405162000d92919062002c2b565b60405180910390a15b50565b62000da86200185f565b62000db262001b46565b565b600062000dc062001baf565b6000341162000e06576040517f08c379a000000000000000000000000000000000000000000000000000000000815260040162000dfd9062002c98565b60405180910390fd5b600082604001511162000e50576040517f08c379a000000000000000000000000000000000000000000000000000000000815260040162000e479062002d0a565b60405180910390fd5b600073ffffffffffffffffffffffffffffffffffffffff1660fc600085815260200190815260200160002060009054906101000a900473ffffffffffffffffffffffffffffffffffffffff1673ffffffffffffffffffffffffffffffffffffffff160362000ef5576040517f08c379a000000000000000000000000000000000000000000000000000000000815260040162000eec9062002d7c565b60405180910390fd5b600073ffffffffffffffffffffffffffffffffffffffff1660fd600085815260200190815260200160002060009054906101000a900473ffffffffffffffffffffffffffffffffffffffff1673ffffffffffffffffffffffffffffffffffffffff160362000f9a576040517f08c379a000000000000000000000000000000000000000000000000000000000815260040162000f919062002e14565b60405180910390fd5b60006200105960fc600086815260200190815260200160002060009054906101000a900473ffffffffffffffffffffffffffffffffffffffff1673ffffffffffffffffffffffffffffffffffffffff166369e154046040518163ffffffff1660e01b8152600401602060405180830381865afa1580156200101f573d6000803e3d6000fd5b505050506040513d601f19601f8201168201806040525081019062001045919062002e4d565b846020015162001bfe90919063ffffffff16565b9050803414620010a0576040517f08c379a0000000000000000000000000000000000000000000000000000000008152600401620010979062002ef5565b60405180910390fd5b60fd600085815260200190815260200160002060009054906101000a900473ffffffffffffffffffffffffffffffffffffffff1673ffffffffffffffffffffffffffffffffffffffff166332ac752b84606001516040518263ffffffff1660e01b815260040162001112919062002f8f565b602060405180830381865afa15801562001130573d6000803e3d6000fd5b505050506040513d601f19601f8201168201806040525081019062001156919062002fe4565b62001198576040517f08c379a00000000000000000000000000000000000000000000000000000000081526004016200118f906200308c565b60405180910390fd5b60fc600085815260200190815260200160002060009054906101000a900473ffffffffffffffffffffffffffffffffffffffff1673ffffffffffffffffffffffffffffffffffffffff1663d45f858e34856040518363ffffffff1660e01b81526004016200120791906200317c565b6000604051808303818588803b1580156200122157600080fd5b505af115801562001236573d6000803e3d6000fd5b5050505050600191505092915050565b6000603360009054906101000a900473ffffffffffffffffffffffffffffffffffffffff16905090565b60008073ffffffffffffffffffffffffffffffffffffffff1660fc600084815260200190815260200160002060009054906101000a900473ffffffffffffffffffffffffffffffffffffffff1673ffffffffffffffffffffffffffffffffffffffff160362001316576040517f08c379a00000000000000000000000000000000000000000000000000000000081526004016200130d90620031f0565b60405180910390fd5b60fc600083815260200190815260200160002060009054906101000a900473ffffffffffffffffffffffffffffffffffffffff1673ffffffffffffffffffffffffffffffffffffffff166369e154046040518163ffffffff1660e01b8152600401602060405180830381865afa15801562001395573d6000803e3d6000fd5b505050506040513d601f19601f82011682018060405250810190620013bb919062002e4d565b9050919050565b620013cc62002003565b600073ffffffffffffffffffffffffffffffffffffffff1660fc600084815260200190815260200160002060009054906101000a900473ffffffffffffffffffffffffffffffffffffffff1673ffffffffffffffffffffffffffffffffffffffff160362001471576040517f08c379a00000000000000000000000000000000000000000000000000000000081526004016200146890620031f0565b60405180910390fd5b600073ffffffffffffffffffffffffffffffffffffffff1660fd600084815260200190815260200160002060009054906101000a900473ffffffffffffffffffffffffffffffffffffffff1673ffffffffffffffffffffffffffffffffffffffff160362001516576040517f08c379a00000000000000000000000000000000000000000000000000000000081526004016200150d9062003288565b60405180910390fd5b604051806040016040528060fc600085815260200190815260200160002060009054906101000a900473ffffffffffffffffffffffffffffffffffffffff1673ffffffffffffffffffffffffffffffffffffffff1673ffffffffffffffffffffffffffffffffffffffff16815260200160fd600085815260200190815260200160002060009054906101000a900473ffffffffffffffffffffffffffffffffffffffff1673ffffffffffffffffffffffffffffffffffffffff1673ffffffffffffffffffffffffffffffffffffffff168152509050919050565b620015fa6200185f565b600073ffffffffffffffffffffffffffffffffffffffff168173ffffffffffffffffffffffffffffffffffffffff16036200166c576040517f08c379a0000000000000000000000000000000000000000000000000000000008152600401620016639062003320565b60405180910390fd5b62001677816200194d565b50565b6000620016aa7f360894a13ba1a3210667c828492db98dca3e2076cc3735a920a3ca505d382bbc60001b62001c16565b60000160009054906101000a900473ffffffffffffffffffffffffffffffffffffffff16905090565b620016dd6200185f565b50565b6200170e7f4910fdfa16fed3260ed0e7147f7cc6da11a60208b5b9406d12a635614ffd914360001b62001c20565b60000160009054906101000a900460ff16156200173657620017308362001c2a565b6200185a565b8273ffffffffffffffffffffffffffffffffffffffff166352d1902d6040518163ffffffff1660e01b8152600401602060405180830381865afa925050508015620017a157506040513d601f19601f820116820180604052508101906200179e919062003373565b60015b620017e3576040517f08c379a0000000000000000000000000000000000000000000000000000000008152600401620017da906200341b565b60405180910390fd5b7f360894a13ba1a3210667c828492db98dca3e2076cc3735a920a3ca505d382bbc60001b81146200184b576040517f08c379a00000000000000000000000000000000000000000000000000000000081526004016200184290620034b3565b60405180910390fd5b506200185983838362001cea565b5b505050565b6200186962001d1c565b73ffffffffffffffffffffffffffffffffffffffff166200188962001246565b73ffffffffffffffffffffffffffffffffffffffff1614620018e2576040517f08c379a0000000000000000000000000000000000000000000000000000000008152600401620018d99062003525565b60405180910390fd5b565b620018ee62001d24565b6000606560006101000a81548160ff0219169083151502179055507f5db9ee0a495bf2e6ff9c91a7834c1ba4fdd244a5e8aa4e537bd38aeae4b073aa6200193462001d1c565b60405162001943919062002730565b60405180910390a1565b6000603360009054906101000a900473ffffffffffffffffffffffffffffffffffffffff16905081603360006101000a81548173ffffffffffffffffffffffffffffffffffffffff021916908373ffffffffffffffffffffffffffffffffffffffff1602179055508173ffffffffffffffffffffffffffffffffffffffff168173ffffffffffffffffffffffffffffffffffffffff167f8be0079c531659141344cd1fd0a4f28419497f9722a3daafe3b4186f6b6457e060405160405180910390a35050565b6000808273ffffffffffffffffffffffffffffffffffffffff163b119050919050565b600060019054906101000a900460ff1662001a88576040517f08c379a000000000000000000000000000000000000000000000000000000000815260040162001a7f90620035bd565b60405180910390fd5b62001a9262001d72565b565b600060019054906101000a900460ff1662001ae6576040517f08c379a000000000000000000000000000000000000000000000000000000000815260040162001add90620035bd565b60405180910390fd5b62001af062001dda565b565b600060019054906101000a900460ff1662001b44576040517f08c379a000000000000000000000000000000000000000000000000000000000815260040162001b3b90620035bd565b60405180910390fd5b565b62001b5062001baf565b6001606560006101000a81548160ff0219169083151502179055507f62e78cea01bee320cd4e420270b5ea74000d11b0c9f74754ebdbfc544b05a25862001b9662001d1c565b60405162001ba5919062002730565b60405180910390a1565b62001bb962000c0f565b1562001bfc576040517f08c379a000000000000000000000000000000000000000000000000000000000815260040162001bf3906200362f565b60405180910390fd5b565b6000818362001c0e919062003680565b905092915050565b6000819050919050565b6000819050919050565b62001c358162001a13565b62001c77576040517f08c379a000000000000000000000000000000000000000000000000000000000815260040162001c6e9062003731565b60405180910390fd5b8062001ca67f360894a13ba1a3210667c828492db98dca3e2076cc3735a920a3ca505d382bbc60001b62001c16565b60000160006101000a81548173ffffffffffffffffffffffffffffffffffffffff021916908373ffffffffffffffffffffffffffffffffffffffff16021790555050565b62001cf58362001e49565b60008251118062001d035750805b1562001d175762001d15838362001e9a565b505b505050565b600033905090565b62001d2e62000c0f565b62001d70576040517f08c379a000000000000000000000000000000000000000000000000000000000815260040162001d6790620037a3565b60405180910390fd5b565b600060019054906101000a900460ff1662001dc4576040517f08c379a000000000000000000000000000000000000000000000000000000000815260040162001dbb90620035bd565b60405180910390fd5b62001dd862001dd262001d1c565b6200194d565b565b600060019054906101000a900460ff1662001e2c576040517f08c379a000000000000000000000000000000000000000000000000000000000815260040162001e2390620035bd565b60405180910390fd5b6000606560006101000a81548160ff021916908315150217905550565b62001e548162001c2a565b8073ffffffffffffffffffffffffffffffffffffffff167fbc7cd75a20ee27fd9adebab32041f755214dbc6bffa90cc0225b39da2e5c2d3b60405160405180910390a250565b606062001ea78362001a13565b62001ee9576040517f08c379a000000000000000000000000000000000000000000000000000000000815260040162001ee0906200383b565b60405180910390fd5b6000808473ffffffffffffffffffffffffffffffffffffffff168460405162001f139190620038aa565b600060405180830381855af49150503d806000811462001f50576040519150601f19603f3d011682016040523d82523d6000602084013e62001f55565b606091505b509150915062001f80828260405180606001604052806027815260200162005e7b6027913962001f8a565b9250505092915050565b6060831562001f9c5782905062001fa9565b62001fa8838362001fb0565b5b9392505050565b60008251111562001fc45781518083602001fd5b806040517f08c379a000000000000000000000000000000000000000000000000000000000815260040162001ffa919062002f8f565b60405180910390fd5b6040518060400160405280600290602082028036833780820191505090505090565b6125b780620038c483390190565b6000604051905090565b600080fd5b600080fd5b600073ffffffffffffffffffffffffffffffffffffffff82169050919050565b6000620020748262002047565b9050919050565b620020868162002067565b81146200209257600080fd5b50565b600081359050620020a6816200207b565b92915050565b600060208284031215620020c557620020c46200203d565b5b6000620020d58482850162002095565b91505092915050565b600080fd5b600080fd5b6000601f19601f8301169050919050565b7f4e487b7100000000000000000000000000000000000000000000000000000000600052604160045260246000fd5b6200213382620020e8565b810181811067ffffffffffffffff82111715620021555762002154620020f9565b5b80604052505050565b60006200216a62002033565b905062002178828262002128565b919050565b600067ffffffffffffffff8211156200219b576200219a620020f9565b5b620021a682620020e8565b9050602081019050919050565b82818337600083830152505050565b6000620021d9620021d3846200217d565b6200215e565b905082815260208101848484011115620021f857620021f7620020e3565b5b62002205848285620021b3565b509392505050565b600082601f830112620022255762002224620020de565b5b813562002237848260208601620021c2565b91505092915050565b600080604083850312156200225a57620022596200203d565b5b60006200226a8582860162002095565b925050602083013567ffffffffffffffff8111156200228e576200228d62002042565b5b6200229c858286016200220d565b9150509250929050565b6000819050919050565b620022bb81620022a6565b8114620022c757600080fd5b50565b600081359050620022db81620022b0565b92915050565b6000620022ee8262002047565b9050919050565b6200230081620022e1565b81146200230c57600080fd5b50565b6000813590506200232081620022f5565b92915050565b600080600080608085870312156200234357620023426200203d565b5b60006200235387828801620022ca565b945050602062002366878288016200230f565b9350506040620023798782880162002095565b92505060606200238c87828801620022ca565b91505092959194509250565b600060029050919050565b600081905092915050565b6000819050919050565b620023c38162002067565b82525050565b6000620023d78383620023b8565b60208301905092915050565b6000602082019050919050565b620023fb8162002398565b620024078184620023a3565b92506200241482620023ae565b8060005b838110156200244b5781516200242f8782620023c9565b96506200243c83620023e3565b92505060018101905062002418565b505050505050565b60006040820190506200246a6000830184620023f0565b92915050565b6000819050919050565b620024858162002470565b82525050565b6000602082019050620024a260008301846200247a565b92915050565b60008060408385031215620024c257620024c16200203d565b5b6000620024d285828601620022ca565b9250506020620024e585828601620022ca565b9150509250929050565b620024fa81620022a6565b82525050565b6000602082019050620025176000830184620024ef565b92915050565b60008115159050919050565b62002534816200251d565b82525050565b600060208201905062002551600083018462002529565b92915050565b600080fd5b600080fd5b600067ffffffffffffffff8211156200257f576200257e620020f9565b5b6200258a82620020e8565b9050602081019050919050565b6000620025ae620025a88462002561565b6200215e565b905082815260208101848484011115620025cd57620025cc620020e3565b5b620025da848285620021b3565b509392505050565b600082601f830112620025fa57620025f9620020de565b5b81356200260c84826020860162002597565b91505092915050565b6000608082840312156200262e576200262d62002557565b5b6200263a60806200215e565b905060006200264c8482850162002095565b60008301525060206200266284828501620022ca565b60208301525060406200267884828501620022ca565b604083015250606082013567ffffffffffffffff8111156200269f576200269e6200255c565b5b620026ad84828501620025e2565b60608301525092915050565b60008060408385031215620026d357620026d26200203d565b5b6000620026e385828601620022ca565b925050602083013567ffffffffffffffff81111562002707576200270662002042565b5b620027158582860162002615565b9150509250929050565b6200272a8162002067565b82525050565b60006020820190506200274760008301846200271f565b92915050565b6000602082840312156200276657620027656200203d565b5b60006200277684828501620022ca565b91505092915050565b600082825260208201905092915050565b7f46756e6374696f6e206d7573742062652063616c6c6564207468726f7567682060008201527f64656c656761746563616c6c0000000000000000000000000000000000000000602082015250565b6000620027ee602c836200277f565b9150620027fb8262002790565b604082019050919050565b600060208201905081810360008301526200282181620027df565b9050919050565b7f46756e6374696f6e206d7573742062652063616c6c6564207468726f7567682060008201527f6163746976652070726f78790000000000000000000000000000000000000000602082015250565b600062002886602c836200277f565b9150620028938262002828565b604082019050919050565b60006020820190508181036000830152620028b98162002877565b9050919050565b7f5365727669636520494420697320696e76616c69640000000000000000000000600082015250565b6000620028f86015836200277f565b91506200290582620028c0565b602082019050919050565b600060208201905081810360008301526200292b81620028e9565b9050919050565b7f56616c696461746f722061646472657373206973207265717569726564000000600082015250565b60006200296a601d836200277f565b9150620029778262002932565b602082019050919050565b600060208201905081810360008301526200299d816200295b565b9050919050565b620029af81620022e1565b82525050565b6000606082019050620029cc6000830186620029a4565b620029db6020830185620024ef565b620029ea6040830184620024ef565b949350505050565b600060608201905062002a096000830186620024ef565b62002a1860208301856200271f565b62002a2760408301846200271f565b949350505050565b7f555550535570677261646561626c653a206d757374206e6f742062652063616c60008201527f6c6564207468726f7567682064656c656761746563616c6c0000000000000000602082015250565b600062002a8d6038836200277f565b915062002a9a8262002a2f565b604082019050919050565b6000602082019050818103600083015262002ac08162002a7e565b9050919050565b7f46656520416d6f756e7420697320696e76616c69640000000000000000000000600082015250565b600062002aff6015836200277f565b915062002b0c8262002ac7565b602082019050919050565b6000602082019050818103600083015262002b328162002af0565b9050919050565b7f496e697469616c697a61626c653a20636f6e747261637420697320616c72656160008201527f647920696e697469616c697a6564000000000000000000000000000000000000602082015250565b600062002b97602e836200277f565b915062002ba48262002b39565b604082019050919050565b6000602082019050818103600083015262002bca8162002b88565b9050919050565b6000819050919050565b600060ff82169050919050565b6000819050919050565b600062002c1362002c0d62002c078462002bd1565b62002be8565b62002bdb565b9050919050565b62002c258162002bf2565b82525050565b600060208201905062002c42600083018462002c1a565b92915050565b7f416d6f756e74206d7573742062652067726561746572207468616e207a65726f600082015250565b600062002c806020836200277f565b915062002c8d8262002c48565b602082019050919050565b6000602082019050818103600083015262002cb38162002c71565b9050919050565b7f4669617420616d6f756e7420697320696e76616c696400000000000000000000600082015250565b600062002cf26016836200277f565b915062002cff8262002cba565b602082019050919050565b6000602082019050818103600083015262002d258162002ce3565b9050919050565b7f53657276696365204944206973206e6f7420737570706f727465640000000000600082015250565b600062002d64601b836200277f565b915062002d718262002d2c565b602082019050919050565b6000602082019050818103600083015262002d978162002d55565b9050919050565b7f56616c696461746f72206e6f7420666f756e6420666f7220736572766963652060008201527f4944000000000000000000000000000000000000000000000000000000000000602082015250565b600062002dfc6022836200277f565b915062002e098262002d9e565b604082019050919050565b6000602082019050818103600083015262002e2f8162002ded565b9050919050565b60008151905062002e4781620022b0565b92915050565b60006020828403121562002e665762002e656200203d565b5b600062002e768482850162002e36565b91505092915050565b7f5472616e73616374696f6e20746f74616c20646f6573206e6f74206d6174636860008201527f20666565202b20616d6f756e742e000000000000000000000000000000000000602082015250565b600062002edd602e836200277f565b915062002eea8262002e7f565b604082019050919050565b6000602082019050818103600083015262002f108162002ece565b9050919050565b600081519050919050565b60005b8381101562002f4257808201518184015260208101905062002f25565b60008484015250505050565b600062002f5b8262002f17565b62002f6781856200277f565b935062002f7981856020860162002f22565b62002f8481620020e8565b840191505092915050565b6000602082019050818103600083015262002fab818462002f4e565b905092915050565b62002fbe816200251d565b811462002fca57600080fd5b50565b60008151905062002fde8162002fb3565b92915050565b60006020828403121562002ffd5762002ffc6200203d565b5b60006200300d8482850162002fcd565b91505092915050565b7f5468652073657276696365206964656e746966696572206661696c656420746f60008201527f2076616c69646174650000000000000000000000000000000000000000000000602082015250565b6000620030746029836200277f565b9150620030818262003016565b604082019050919050565b60006020820190508181036000830152620030a78162003065565b9050919050565b620030b981620022a6565b82525050565b600082825260208201905092915050565b6000620030dd8262002f17565b620030e98185620030bf565b9350620030fb81856020860162002f22565b6200310681620020e8565b840191505092915050565b60006080830160008301516200312b6000860182620023b8565b506020830151620031406020860182620030ae565b506040830151620031556040860182620030ae565b50606083015184820360608601526200316f8282620030d0565b9150508091505092915050565b6000602082019050818103600083015262003198818462003111565b905092915050565b7f53657276696365204944206973206e6f7420737570706f727465642e00000000600082015250565b6000620031d8601c836200277f565b9150620031e582620031a0565b602082019050919050565b600060208201905081810360008301526200320b81620031c9565b9050919050565b7f56616c696461746f72206e6f7420666f756e6420666f7220736572766963652060008201527f49442e0000000000000000000000000000000000000000000000000000000000602082015250565b6000620032706023836200277f565b91506200327d8262003212565b604082019050919050565b60006020820190508181036000830152620032a38162003261565b9050919050565b7f4f776e61626c653a206e6577206f776e657220697320746865207a65726f206160008201527f6464726573730000000000000000000000000000000000000000000000000000602082015250565b6000620033086026836200277f565b91506200331582620032aa565b604082019050919050565b600060208201905081810360008301526200333b81620032f9565b9050919050565b6200334d8162002470565b81146200335957600080fd5b50565b6000815190506200336d8162003342565b92915050565b6000602082840312156200338c576200338b6200203d565b5b60006200339c848285016200335c565b91505092915050565b7f45524331393637557067726164653a206e657720696d706c656d656e7461746960008201527f6f6e206973206e6f742055555053000000000000000000000000000000000000602082015250565b600062003403602e836200277f565b91506200341082620033a5565b604082019050919050565b600060208201905081810360008301526200343681620033f4565b9050919050565b7f45524331393637557067726164653a20756e737570706f727465642070726f7860008201527f6961626c65555549440000000000000000000000000000000000000000000000602082015250565b60006200349b6029836200277f565b9150620034a8826200343d565b604082019050919050565b60006020820190508181036000830152620034ce816200348c565b9050919050565b7f4f776e61626c653a2063616c6c6572206973206e6f7420746865206f776e6572600082015250565b60006200350d6020836200277f565b91506200351a82620034d5565b602082019050919050565b600060208201905081810360008301526200354081620034fe565b9050919050565b7f496e697469616c697a61626c653a20636f6e7472616374206973206e6f74206960008201527f6e697469616c697a696e67000000000000000000000000000000000000000000602082015250565b6000620035a5602b836200277f565b9150620035b28262003547565b604082019050919050565b60006020820190508181036000830152620035d88162003596565b9050919050565b7f5061757361626c653a2070617573656400000000000000000000000000000000600082015250565b6000620036176010836200277f565b91506200362482620035df565b602082019050919050565b600060208201905081810360008301526200364a8162003608565b9050919050565b7f4e487b7100000000000000000000000000000000000000000000000000000000600052601160045260246000fd5b60006200368d82620022a6565b91506200369a83620022a6565b9250828201905080821115620036b557620036b462003651565b5b92915050565b7f455243313936373a206e657720696d706c656d656e746174696f6e206973206e60008201527f6f74206120636f6e747261637400000000000000000000000000000000000000602082015250565b600062003719602d836200277f565b91506200372682620036bb565b604082019050919050565b600060208201905081810360008301526200374c816200370a565b9050919050565b7f5061757361626c653a206e6f7420706175736564000000000000000000000000600082015250565b60006200378b6014836200277f565b9150620037988262003753565b602082019050919050565b60006020820190508181036000830152620037be816200377c565b9050919050565b7f416464726573733a2064656c65676174652063616c6c20746f206e6f6e2d636f60008201527f6e74726163740000000000000000000000000000000000000000000000000000602082015250565b6000620038236026836200277f565b91506200383082620037c5565b604082019050919050565b60006020820190508181036000830152620038568162003814565b9050919050565b600081519050919050565b600081905092915050565b600062003880826200385d565b6200388c818562003868565b93506200389e81856020860162002f22565b80840191505092915050565b6000620038b8828462003873565b91508190509291505056fe60806040523480156200001157600080fd5b50604051620025b7380380620025b783398181016040528101906200003791906200031f565b620000576200004b620001ae60201b60201c565b620001b660201b60201c565b600073ffffffffffffffffffffffffffffffffffffffff168373ffffffffffffffffffffffffffffffffffffffff1603620000c9576040517f08c379a0000000000000000000000000000000000000000000000000000000008152600401620000c090620003dc565b60405180910390fd5b600082116200010f576040517f08c379a000000000000000000000000000000000000000000000000000000000815260040162000106906200044e565b60405180910390fd5b600081101562000156576040517f08c379a00000000000000000000000000000000000000000000000000000000081526004016200014d90620004c0565b60405180910390fd5b82600560006101000a81548173ffffffffffffffffffffffffffffffffffffffff021916908373ffffffffffffffffffffffffffffffffffffffff1602179055508160088190555080600981905550505050620004e2565b600033905090565b60008060009054906101000a900473ffffffffffffffffffffffffffffffffffffffff169050816000806101000a81548173ffffffffffffffffffffffffffffffffffffffff021916908373ffffffffffffffffffffffffffffffffffffffff1602179055508173ffffffffffffffffffffffffffffffffffffffff168173ffffffffffffffffffffffffffffffffffffffff167f8be0079c531659141344cd1fd0a4f28419497f9722a3daafe3b4186f6b6457e060405160405180910390a35050565b600080fd5b600073ffffffffffffffffffffffffffffffffffffffff82169050919050565b6000620002ac826200027f565b9050919050565b620002be816200029f565b8114620002ca57600080fd5b50565b600081519050620002de81620002b3565b92915050565b6000819050919050565b620002f981620002e4565b81146200030557600080fd5b50565b6000815190506200031981620002ee565b92915050565b6000806000606084860312156200033b576200033a6200027a565b5b60006200034b86828701620002cd565b93505060206200035e8682870162000308565b9250506040620003718682870162000308565b9150509250925092565b600082825260208201905092915050565b7f42656e656669636961727920697320746865207a65726f206164647265737300600082015250565b6000620003c4601f836200037b565b9150620003d1826200038c565b602082019050919050565b60006020820190508181036000830152620003f781620003b5565b9050919050565b7f5365727669636520494420697320726571756972656400000000000000000000600082015250565b6000620004366016836200037b565b91506200044382620003fe565b602082019050919050565b60006020820190508181036000830152620004698162000427565b9050919050565b7f46656520416d6f756e7420697320726571756972656400000000000000000000600082015250565b6000620004a86016836200037b565b9150620004b58262000470565b602082019050919050565b60006020820190508181036000830152620004db8162000499565b9050919050565b6120c580620004f26000396000f3fe6080604052600436106100a75760003560e01c80638da5cb5b116100645780638da5cb5b146101965780639af6549a146101c1578063a16c86f7146101d8578063d45f858e14610201578063e3a9db1a1461021d578063f2fde38b1461025a576100a7565b80631d766416146100ac57806334a4b877146100d557806338af3eed1461010057806369e154041461012b57806369fe0e2d14610156578063715018a61461017f575b600080fd5b3480156100b857600080fd5b506100d360048036038101906100ce9190611356565b610283565b005b3480156100e157600080fd5b506100ea6106af565b6040516100f791906113ae565b60405180910390f35b34801561010c57600080fd5b506101156106b9565b60405161012291906113ea565b60405180910390f35b34801561013757600080fd5b506101406106e3565b60405161014d91906113ae565b60405180910390f35b34801561016257600080fd5b5061017d60048036038101906101789190611405565b6106ed565b005b34801561018b57600080fd5b5061019461073a565b005b3480156101a257600080fd5b506101ab61074e565b6040516101b89190611441565b60405180910390f35b3480156101cd57600080fd5b506101d6610777565b005b3480156101e457600080fd5b506101ff60048036038101906101fa9190611488565b6107f8565b005b61021b60048036038101906102169190611549565b610919565b005b34801561022957600080fd5b50610244600480360381019061023f9190611592565b6109fe565b60405161025191906113ae565b60405180910390f35b34801561026657600080fd5b50610281600480360381019061027c9190611592565b610a47565b005b61028b610aca565b60006102a66009548360600151610b4890919063ffffffff16565b90508060066000846040015173ffffffffffffffffffffffffffffffffffffffff1673ffffffffffffffffffffffffffffffffffffffff16815260200190815260200160002054101561032e576040517f08c379a000000000000000000000000000000000000000000000000000000000815260040161032590611642565b60405180910390fd5b6000600181111561034257610341611662565b5b8260c00151600181111561035957610358611662565b5b036103715761036c826040015182610b5e565b6106ab565b60018081111561038457610383611662565b5b8260c00151600181111561039b5761039a611662565b5b146103da577fa2db52a45d71264723caeac03c235d51bb30cff5e1ac71c97a5842ec94fbb6af6040516103cd90611703565b60405180910390a1600080fd5b6103ef81600a54610b4890919063ffffffff16565b600a8190555061044b8160066000856040015173ffffffffffffffffffffffffffffffffffffffff1673ffffffffffffffffffffffffffffffffffffffff16815260200190815260200160002054610dec90919063ffffffff16565b60066000846040015173ffffffffffffffffffffffffffffffffffffffff1673ffffffffffffffffffffffffffffffffffffffff16815260200190815260200160002081905550600060405180610100016040528060008152602001846020015173ffffffffffffffffffffffffffffffffffffffff16815260200184600001518152602001846040015173ffffffffffffffffffffffffffffffffffffffff16815260200184606001518152602001846080015181526020014281526020018460a00151815250905061051f6001610e02565b6105296001610e18565b8160000181815250506004600081548092919061054590611752565b91905055508060026000836000015181526020019081526020016000206000820151816000015560208201518160010160006101000a81548173ffffffffffffffffffffffffffffffffffffffff021916908373ffffffffffffffffffffffffffffffffffffffff1602179055506040820151816002015560608201518160030160006101000a81548173ffffffffffffffffffffffffffffffffffffffff021916908373ffffffffffffffffffffffffffffffffffffffff1602179055506080820151816004015560a0820151816005015560c0820151816006015560e082015181600701908161063791906119b1565b5090505060036000826060015173ffffffffffffffffffffffffffffffffffffffff1673ffffffffffffffffffffffffffffffffffffffff16815260200190815260200160002081600001519080600181540180825580915050600190039060005260206000200160009091909190915055505b5050565b6000600854905090565b6000600560009054906101000a900473ffffffffffffffffffffffffffffffffffffffff16905090565b6000600954905090565b6106f5610aca565b806009819055507f528d9479e9f9889a87a3c30c7f7ba537e5e59c4c85a37733b16e57c62df613026008548260405161072f929190611a83565b60405180910390a150565b610742610aca565b61074c6000610e26565b565b60008060009054906101000a900473ffffffffffffffffffffffffffffffffffffffff16905090565b6000600a54116107bc576040517f08c379a00000000000000000000000000000000000000000000000000000000081526004016107b390611af8565b60405180910390fd5b6000600a819055506107f6600a546107d26106b9565b73ffffffffffffffffffffffffffffffffffffffff16610eea90919063ffffffff16565b565b610800610aca565b6000600760008373ffffffffffffffffffffffffffffffffffffffff1673ffffffffffffffffffffffffffffffffffffffff1681526020019081526020016000205411610882576040517f08c379a000000000000000000000000000000000000000000000000000000000815260040161087990611b8a565b60405180910390fd5b6000600760008373ffffffffffffffffffffffffffffffffffffffff1673ffffffffffffffffffffffffffffffffffffffff1681526020019081526020016000205490506000600760008473ffffffffffffffffffffffffffffffffffffffff1673ffffffffffffffffffffffffffffffffffffffff168152602001908152602001600020819055506109158282610fde565b5050565b610921610aca565b600034905061097c60066000846000015173ffffffffffffffffffffffffffffffffffffffff1673ffffffffffffffffffffffffffffffffffffffff1681526020019081526020016000205482610b4890919063ffffffff16565b60066000846000015173ffffffffffffffffffffffffffffffffffffffff1673ffffffffffffffffffffffffffffffffffffffff168152602001908152602001600020819055507fdb17f455830757e9eed30950ec65be2f0c8e5aa6b9b87c1d201feb7c87decf56826040516109f29190611c9f565b60405180910390a15050565b6000600660008373ffffffffffffffffffffffffffffffffffffffff1673ffffffffffffffffffffffffffffffffffffffff168152602001908152602001600020549050919050565b610a4f610aca565b600073ffffffffffffffffffffffffffffffffffffffff168173ffffffffffffffffffffffffffffffffffffffff1603610abe576040517f08c379a0000000000000000000000000000000000000000000000000000000008152600401610ab590611d33565b60405180910390fd5b610ac781610e26565b50565b610ad2611061565b73ffffffffffffffffffffffffffffffffffffffff16610af061074e565b73ffffffffffffffffffffffffffffffffffffffff1614610b46576040517f08c379a0000000000000000000000000000000000000000000000000000000008152600401610b3d90611d9f565b60405180910390fd5b565b60008183610b569190611dbf565b905092915050565b610b66610aca565b6000610bba82600760008673ffffffffffffffffffffffffffffffffffffffff1673ffffffffffffffffffffffffffffffffffffffff16815260200190815260200160002054610b4890919063ffffffff16565b905081600660008573ffffffffffffffffffffffffffffffffffffffff1673ffffffffffffffffffffffffffffffffffffffff168152602001908152602001600020541015610c3e576040517f08c379a0000000000000000000000000000000000000000000000000000000008152600401610c3590611e65565b60405180910390fd5b80600660008573ffffffffffffffffffffffffffffffffffffffff1673ffffffffffffffffffffffffffffffffffffffff168152602001908152602001600020541015610cc0576040517f08c379a0000000000000000000000000000000000000000000000000000000008152600401610cb790611ef7565b60405180910390fd5b610d1282600660008673ffffffffffffffffffffffffffffffffffffffff1673ffffffffffffffffffffffffffffffffffffffff16815260200190815260200160002054610dec90919063ffffffff16565b600660008573ffffffffffffffffffffffffffffffffffffffff1673ffffffffffffffffffffffffffffffffffffffff1681526020019081526020016000208190555080600760008573ffffffffffffffffffffffffffffffffffffffff1673ffffffffffffffffffffffffffffffffffffffff168152602001908152602001600020819055508273ffffffffffffffffffffffffffffffffffffffff167f7fd36617a06b55977ffa06f8dc94b5ec0650c2b7b353fa22c7d0f211284dc74983604051610ddf91906113ae565b60405180910390a2505050565b60008183610dfa9190611f17565b905092915050565b6001816000016000828254019250508190555050565b600081600001549050919050565b60008060009054906101000a900473ffffffffffffffffffffffffffffffffffffffff169050816000806101000a81548173ffffffffffffffffffffffffffffffffffffffff021916908373ffffffffffffffffffffffffffffffffffffffff1602179055508173ffffffffffffffffffffffffffffffffffffffff168173ffffffffffffffffffffffffffffffffffffffff167f8be0079c531659141344cd1fd0a4f28419497f9722a3daafe3b4186f6b6457e060405160405180910390a35050565b80471015610f2d576040517f08c379a0000000000000000000000000000000000000000000000000000000008152600401610f2490611f97565b60405180910390fd5b60008273ffffffffffffffffffffffffffffffffffffffff1682604051610f5390611fe8565b60006040518083038185875af1925050503d8060008114610f90576040519150601f19603f3d011682016040523d82523d6000602084013e610f95565b606091505b5050905080610fd9576040517f08c379a0000000000000000000000000000000000000000000000000000000008152600401610fd09061206f565b60405180910390fd5b505050565b610fe6610aca565b61100f818373ffffffffffffffffffffffffffffffffffffffff16610eea90919063ffffffff16565b8173ffffffffffffffffffffffffffffffffffffffff167f3d97f39b86d061200a7834082f5926e58ec10fd85a9d6930f497729d5e6cc35c8260405161105591906113ae565b60405180910390a25050565b600033905090565b6000604051905090565b600080fd5b600080fd5b600080fd5b6000601f19601f8301169050919050565b7f4e487b7100000000000000000000000000000000000000000000000000000000600052604160045260246000fd5b6110cb82611082565b810181811067ffffffffffffffff821117156110ea576110e9611093565b5b80604052505050565b60006110fd611069565b905061110982826110c2565b919050565b600080fd5b6000819050919050565b61112681611113565b811461113157600080fd5b50565b6000813590506111438161111d565b92915050565b600073ffffffffffffffffffffffffffffffffffffffff82169050919050565b600061117482611149565b9050919050565b61118481611169565b811461118f57600080fd5b50565b6000813590506111a18161117b565b92915050565b600080fd5b600080fd5b600067ffffffffffffffff8211156111cc576111cb611093565b5b6111d582611082565b9050602081019050919050565b82818337600083830152505050565b60006112046111ff846111b1565b6110f3565b9050828152602081018484840111156112205761121f6111ac565b5b61122b8482856111e2565b509392505050565b600082601f830112611248576112476111a7565b5b81356112588482602086016111f1565b91505092915050565b6002811061126e57600080fd5b50565b60008135905061128081611261565b92915050565b600060e0828403121561129c5761129b61107d565b5b6112a660e06110f3565b905060006112b684828501611134565b60008301525060206112ca84828501611192565b60208301525060406112de84828501611192565b60408301525060606112f284828501611134565b606083015250608061130684828501611134565b60808301525060a082013567ffffffffffffffff81111561132a5761132961110e565b5b61133684828501611233565b60a08301525060c061134a84828501611271565b60c08301525092915050565b60006020828403121561136c5761136b611073565b5b600082013567ffffffffffffffff81111561138a57611389611078565b5b61139684828501611286565b91505092915050565b6113a881611113565b82525050565b60006020820190506113c3600083018461139f565b92915050565b60006113d482611149565b9050919050565b6113e4816113c9565b82525050565b60006020820190506113ff60008301846113db565b92915050565b60006020828403121561141b5761141a611073565b5b600061142984828501611134565b91505092915050565b61143b81611169565b82525050565b60006020820190506114566000830184611432565b92915050565b611465816113c9565b811461147057600080fd5b50565b6000813590506114828161145c565b92915050565b60006020828403121561149e5761149d611073565b5b60006114ac84828501611473565b91505092915050565b6000608082840312156114cb576114ca61107d565b5b6114d560806110f3565b905060006114e584828501611192565b60008301525060206114f984828501611134565b602083015250604061150d84828501611134565b604083015250606082013567ffffffffffffffff8111156115315761153061110e565b5b61153d84828501611233565b60608301525092915050565b60006020828403121561155f5761155e611073565b5b600082013567ffffffffffffffff81111561157d5761157c611078565b5b611589848285016114b5565b91505092915050565b6000602082840312156115a8576115a7611073565b5b60006115b684828501611192565b91505092915050565b600082825260208201905092915050565b7f5468657265206973206e6f7420656e6f7567682062616c616e636520746f206260008201527f652072656c65617365642e000000000000000000000000000000000000000000602082015250565b600061162c602b836115bf565b9150611637826115d0565b604082019050919050565b6000602082019050818103600083015261165b8161161f565b9050919050565b7f4e487b7100000000000000000000000000000000000000000000000000000000600052602160045260246000fd5b7f46756c66696c6c6d656e7420726573756c7420776173207375626d697474656460008201527f2077697468207765697264207374617475730000000000000000000000000000602082015250565b60006116ed6032836115bf565b91506116f882611691565b604082019050919050565b6000602082019050818103600083015261171c816116e0565b9050919050565b7f4e487b7100000000000000000000000000000000000000000000000000000000600052601160045260246000fd5b600061175d82611113565b91507fffffffffffffffffffffffffffffffffffffffffffffffffffffffffffffffff820361178f5761178e611723565b5b600182019050919050565b600081519050919050565b7f4e487b7100000000000000000000000000000000000000000000000000000000600052602260045260246000fd5b600060028204905060018216806117ec57607f821691505b6020821081036117ff576117fe6117a5565b5b50919050565b60008190508160005260206000209050919050565b60006020601f8301049050919050565b600082821b905092915050565b6000600883026118677fffffffffffffffffffffffffffffffffffffffffffffffffffffffffffffffff8261182a565b611871868361182a565b95508019841693508086168417925050509392505050565b6000819050919050565b60006118ae6118a96118a484611113565b611889565b611113565b9050919050565b6000819050919050565b6118c883611893565b6118dc6118d4826118b5565b848454611837565b825550505050565b600090565b6118f16118e4565b6118fc8184846118bf565b505050565b5b81811015611920576119156000826118e9565b600181019050611902565b5050565b601f8211156119655761193681611805565b61193f8461181a565b8101602085101561194e578190505b61196261195a8561181a565b830182611901565b50505b505050565b600082821c905092915050565b60006119886000198460080261196a565b1980831691505092915050565b60006119a18383611977565b9150826002028217905092915050565b6119ba8261179a565b67ffffffffffffffff8111156119d3576119d2611093565b5b6119dd82546117d4565b6119e8828285611924565b600060209050601f831160018114611a1b5760008415611a09578287015190505b611a138582611995565b865550611a7b565b601f198416611a2986611805565b60005b82811015611a5157848901518255600182019150602085019450602081019050611a2c565b86831015611a6e5784890151611a6a601f891682611977565b8355505b6001600288020188555050505b505050505050565b6000604082019050611a98600083018561139f565b611aa5602083018461139f565b9392505050565b7f5468657265206973206e6f2062616c616e636520746f2072656c656173652e00600082015250565b6000611ae2601f836115bf565b9150611aed82611aac565b602082019050919050565b60006020820190508181036000830152611b1181611ad5565b9050919050565b7f41646472657373206973206e6f7420616c6c6f77656420616e7920726566756e60008201527f6473000000000000000000000000000000000000000000000000000000000000602082015250565b6000611b746022836115bf565b9150611b7f82611b18565b604082019050919050565b60006020820190508181036000830152611ba381611b67565b9050919050565b611bb381611169565b82525050565b611bc281611113565b82525050565b600082825260208201905092915050565b60005b83811015611bf7578082015181840152602081019050611bdc565b60008484015250505050565b6000611c0e8261179a565b611c188185611bc8565b9350611c28818560208601611bd9565b611c3181611082565b840191505092915050565b6000608083016000830151611c546000860182611baa565b506020830151611c676020860182611bb9565b506040830151611c7a6040860182611bb9565b5060608301518482036060860152611c928282611c03565b9150508091505092915050565b60006020820190508181036000830152611cb98184611c3c565b905092915050565b7f4f776e61626c653a206e6577206f776e657220697320746865207a65726f206160008201527f6464726573730000000000000000000000000000000000000000000000000000602082015250565b6000611d1d6026836115bf565b9150611d2882611cc1565b604082019050919050565b60006020820190508181036000830152611d4c81611d10565b9050919050565b7f4f776e61626c653a2063616c6c6572206973206e6f7420746865206f776e6572600082015250565b6000611d896020836115bf565b9150611d9482611d53565b602082019050919050565b60006020820190508181036000830152611db881611d7c565b9050919050565b6000611dca82611113565b9150611dd583611113565b9250828201905080821115611ded57611dec611723565b5b92915050565b7f416d6f756e7420697320626967676572207468616e2074686520746f74616c2060008201527f696e20657363726f770000000000000000000000000000000000000000000000602082015250565b6000611e4f6029836115bf565b9150611e5a82611df3565b604082019050919050565b60006020820190508181036000830152611e7e81611e42565b9050919050565b7f546f74616c20726566756e647320776f756c642062652062696767657220746860008201527f616e2074686520746f74616c20696e20657363726f7700000000000000000000602082015250565b6000611ee16036836115bf565b9150611eec82611e85565b604082019050919050565b60006020820190508181036000830152611f1081611ed4565b9050919050565b6000611f2282611113565b9150611f2d83611113565b9250828203905081811115611f4557611f44611723565b5b92915050565b7f416464726573733a20696e73756666696369656e742062616c616e6365000000600082015250565b6000611f81601d836115bf565b9150611f8c82611f4b565b602082019050919050565b60006020820190508181036000830152611fb081611f74565b9050919050565b600081905092915050565b50565b6000611fd2600083611fb7565b9150611fdd82611fc2565b600082019050919050565b6000611ff382611fc5565b9150819050919050565b7f416464726573733a20756e61626c6520746f2073656e642076616c75652c207260008201527f6563697069656e74206d61792068617665207265766572746564000000000000602082015250565b6000612059603a836115bf565b915061206482611ffd565b604082019050919050565b600060208201905081810360008301526120888161204c565b905091905056fea264697066735822122027b1efffc2bf801bfac64eb2d70c198250e230410f55ce21f5de4795c7eb22db64736f6c63430008110033416464726573733a206c6f772d6c6576656c2064656c65676174652063616c6c206661696c6564a2646970667358221220cf463fef4565b5d508131027b8c1248634b33de279a370aeec90fe92164590d764736f6c63430008110033",
  "immutableReferences": {
    "720": [
      {
        "length": 32,
        "start": 959
      },
      {
        "length": 32,
        "start": 1104
      },
      {
        "length": 32,
        "start": 1389
      },
      {
        "length": 32,
        "start": 1534
      },
      {
        "length": 32,
        "start": 2579
      }
    ]
  },
  "source": "// SPDX-License-Identifier: MIT\npragma solidity 0.8.17;\n\nimport \"@openzeppelin/contracts-upgradeable/proxy/utils/UUPSUpgradeable.sol\";\nimport \"@openzeppelin/contracts-upgradeable/security/PausableUpgradeable.sol\";\nimport \"@openzeppelin/contracts-upgradeable/utils/math/SafeMathUpgradeable.sol\";\nimport \"@openzeppelin/contracts-upgradeable/utils/AddressUpgradeable.sol\";\nimport \"@openzeppelin/contracts-upgradeable/access/OwnableUpgradeable.sol\";\nimport \"@openzeppelin/contracts-upgradeable/proxy/utils/Initializable.sol\";\nimport \"./IIdentifierValidator.sol\";\nimport \"./ITukiFulfillable.sol\";\nimport \"./TukiFulfillableV1.sol\";\n\n\n\n/**\n * ----- TukiRouter -----\n * This Smart Contract is intented to be user-facing.\n * Any valid address can request a fulfillment to a valid fulfillable.\n * -----------------------\n */\ncontract TukiRouterV1 is Initializable, OwnableUpgradeable, PausableUpgradeable, UUPSUpgradeable {\n    using AddressUpgradeable for address payable;\n    using SafeMathUpgradeable for uint256;\n\n    TukiFulfillableV1 private _escrow;\n    mapping(uint256 => address) private _services;\n    mapping(uint256 => address) private _validators;\n\n    event ServiceRequested(uint256 serviceID, FulFillmentRequest request);\n    event RefValidationFailed(uint256 serviceID, string serviceRef);\n    event ServiceAdded(uint256 serviceID, address escrow, address validator);\n  \n    /**\n     * @dev Constructor.\n     */\n    function initialize() public virtual initializer {\n        __Ownable_init();\n        __Pausable_init();\n        __UUPSUpgradeable_init();\n    }\n\n    function pause() public onlyOwner {\n        _pause();\n    }\n\n    function unpause() public onlyOwner {\n        _unpause();\n    }\n\n    /**\n     * @dev required for UUPS upgrades\n     **/\n    function _authorizeUpgrade(address newImplementation)\n        internal\n        onlyOwner\n        override\n    {}\n\n    /**\n     * requestService\n     * @return true if amount was transferred to the escrow.\n     * Pre-conditions:\n     * \n     * - verified identifier\n     * - valid fulfillable id\n     * - valid IIdentifierValidator contract\n     * - positive amount\n     * - positive fiat amount in precision 2\n     * - enough balance on the sender account\n     * \n     * \n     * Post-conditions:\n     * \n     * - DepositReceived Event emitted by the underlying contract.\n     * - payment due is trasferred to escrow contract until fulfillment\n     */\n    function requestService(\n        uint256 serviceID, FulFillmentRequest memory request) public payable whenNotPaused returns (bool)\n    {\n        require(msg.value > 0, \"Amount must be greater than zero\");\n        require(request.fiatAmount > 0, \"Fiat amount is invalid\");\n        require(address(_services[serviceID]) != address(0), \"Service ID is not supported\");\n        require(address(_validators[serviceID]) != address(0), \"Validator not found for service ID\");\n        uint256 total_amount = request.weiAmount.add(ITukiFulfillable(_services[serviceID]).feeAmount());\n        require(msg.value == total_amount, \"Transaction total does not match fee + amount.\");\n        require(\n            IIdentifierValidator(_validators[serviceID]).matches(request.serviceRef),\n            \"The service identifier failed to validate\"\n        );\n        ITukiFulfillable(_services[serviceID]).deposit{value: msg.value}(request);\n        return true;\n    }\n\n    /**\n     * @return the address for the service ID of a particular service.\n     *\n     */\n    function serviceOf(uint256 serviceID) public view returns (address[2] memory) {\n        require(address(_services[serviceID]) != address(0), \"Service ID is not supported.\");\n        require(address(_validators[serviceID]) != address(0), \"Validator not found for service ID.\");\n        return [address(_services[serviceID]), _validators[serviceID]];\n    }\n\n    /**\n     * @return the fee amount for the service ID of a particular service.\n     *\n     */\n    function feeOf(uint256 serviceID) public view returns (uint256) {\n        require(address(_services[serviceID]) != address(0), \"Service ID is not supported.\");\n        return ITukiFulfillable(_services[serviceID]).feeAmount();\n    }\n\n    /**\n     * @dev setService\n     * This method must only be called by an owner.\n     * It sets up a service escrow address and validator address.\n     * \n     * The escrow is intended to be a valid tuki escrow contract\n     * \n     * The validator address is intended to be a contract that validates the service's\n     * identifier. eg. phone number, bill number, etc.\n     * @return address[2]\n     */\n    function setService(\n        uint256 serviceID,\n        address payable beneficiaryAddress,\n        address validator,\n        uint256 feeAmount\n    ) \n        public \n        virtual \n        onlyOwner \n        returns (address[2] memory) \n    {\n        require(serviceID > 0, \"Service ID is invalid\");\n        require(address(validator) != address(0), \"Validator address is required\");\n        _escrow = new TukiFulfillableV1(beneficiaryAddress, serviceID, feeAmount);\n        _services[serviceID] = address(_escrow);\n        _validators[serviceID] = validator;\n        emit ServiceAdded(serviceID, _services[serviceID], validator);\n        return [_services[serviceID], _validators[serviceID]];\n    }\n\n    /**\n    * @dev setFee\n    * Sets the fee for a valid escrow contract\n    * \n    * emits a FeeUpdated event from the underlying escrow contract.\n    * @return uint256\n    */\n    function setFee(uint256 serviceID, uint256 feeAmount) public virtual onlyOwner returns (uint256) {\n        require(serviceID > 0, \"Service ID is invalid\");\n        require(feeAmount >= 0, \"Fee Amount is invalid\");\n        ITukiFulfillable(_services[serviceID]).setFee(feeAmount);\n        return feeAmount;\n    }\n    \n}\n",
  "sourcePath": "/Users/luisoscargabriel/tuki-org/contracts/src/contracts/TukiRouterV1.sol",
  "compiler": {
    "name": "solc",
    "version": "0.8.17+commit.8df45f5f.Emscripten.clang"
  },
  "schemaVersion": "3.4.10",
  "updatedAt": "2022-11-21T03:52:56.372Z",
  "devdoc": {
    "kind": "dev",
    "methods": {
      "feeOf(uint256)": {
        "returns": {
          "_0": "the fee amount for the service ID of a particular service."
        }
      },
      "initialize()": {
        "details": "Constructor."
      },
      "owner()": {
        "details": "Returns the address of the current owner."
      },
      "paused()": {
        "details": "Returns true if the contract is paused, and false otherwise."
      },
      "proxiableUUID()": {
        "details": "Implementation of the ERC1822 {proxiableUUID} function. This returns the storage slot used by the implementation. It is used to validate the implementation's compatibility when performing an upgrade. IMPORTANT: A proxy pointing at a proxiable contract should not be considered proxiable itself, because this risks bricking a proxy that upgrades to it, by delegating to itself until out of gas. Thus it is critical that this function revert if invoked through a proxy. This is guaranteed by the `notDelegated` modifier."
      },
      "renounceOwnership()": {
        "details": "Leaves the contract without owner. It will not be possible to call `onlyOwner` functions anymore. Can only be called by the current owner. NOTE: Renouncing ownership will leave the contract without an owner, thereby removing any functionality that is only available to the owner."
      },
      "requestService(uint256,(address,uint256,uint256,string))": {
        "returns": {
          "_0": "true if amount was transferred to the escrow. Pre-conditions:  - verified identifier - valid fulfillable id - valid IIdentifierValidator contract - positive amount - positive fiat amount in precision 2 - enough balance on the sender account   Post-conditions:  - DepositReceived Event emitted by the underlying contract. - payment due is trasferred to escrow contract until fulfillment"
        }
      },
      "serviceOf(uint256)": {
        "returns": {
          "_0": "the address for the service ID of a particular service."
        }
      },
      "setFee(uint256,uint256)": {
        "details": "setFee Sets the fee for a valid escrow contract  emits a FeeUpdated event from the underlying escrow contract.",
        "returns": {
          "_0": "uint256"
        }
      },
      "setService(uint256,address,address,uint256)": {
        "details": "setService This method must only be called by an owner. It sets up a service escrow address and validator address.  The escrow is intended to be a valid tuki escrow contract  The validator address is intended to be a contract that validates the service's identifier. eg. phone number, bill number, etc.",
        "returns": {
          "_0": "address[2]"
        }
      },
      "transferOwnership(address)": {
        "details": "Transfers ownership of the contract to a new account (`newOwner`). Can only be called by the current owner."
      },
      "upgradeTo(address)": {
        "details": "Upgrade the implementation of the proxy to `newImplementation`. Calls {_authorizeUpgrade}. Emits an {Upgraded} event."
      },
      "upgradeToAndCall(address,bytes)": {
        "details": "Upgrade the implementation of the proxy to `newImplementation`, and subsequently execute the function call encoded in `data`. Calls {_authorizeUpgrade}. Emits an {Upgraded} event."
      }
    },
    "version": 1
  },
  "userdoc": {
    "kind": "user",
    "methods": {
      "requestService(uint256,(address,uint256,uint256,string))": {
        "notice": "requestService"
      }
    },
    "notice": "----- TukiRouter ----- This Smart Contract is intented to be user-facing. Any valid address can request a fulfillment to a valid fulfillable. -----------------------",
    "version": 1
  }
}