{
  "contractName": "TukiRouterV1",
  "abi": [
    {
      "anonymous": false,
      "inputs": [
        {
          "indexed": false,
          "internalType": "address",
          "name": "previousAdmin",
          "type": "address"
        },
        {
          "indexed": false,
          "internalType": "address",
          "name": "newAdmin",
          "type": "address"
        }
      ],
      "name": "AdminChanged",
      "type": "event"
    },
    {
      "anonymous": false,
      "inputs": [
        {
          "indexed": true,
          "internalType": "address",
          "name": "beacon",
          "type": "address"
        }
      ],
      "name": "BeaconUpgraded",
      "type": "event"
    },
    {
      "anonymous": false,
      "inputs": [
        {
          "indexed": false,
          "internalType": "uint8",
          "name": "version",
          "type": "uint8"
        }
      ],
      "name": "Initialized",
      "type": "event"
    },
    {
      "anonymous": false,
      "inputs": [
        {
          "indexed": true,
          "internalType": "address",
          "name": "previousOwner",
          "type": "address"
        },
        {
          "indexed": true,
          "internalType": "address",
          "name": "newOwner",
          "type": "address"
        }
      ],
      "name": "OwnershipTransferred",
      "type": "event"
    },
    {
      "anonymous": false,
      "inputs": [
        {
          "indexed": false,
          "internalType": "address",
          "name": "account",
          "type": "address"
        }
      ],
      "name": "Paused",
      "type": "event"
    },
    {
      "anonymous": false,
      "inputs": [
        {
          "indexed": true,
          "internalType": "address",
          "name": "payer",
          "type": "address"
        },
        {
          "indexed": false,
          "internalType": "uint256",
          "name": "weiAmount",
          "type": "uint256"
        },
        {
          "indexed": false,
          "internalType": "bytes32",
          "name": "serviceRef",
          "type": "bytes32"
        },
        {
          "indexed": false,
          "internalType": "address",
          "name": "escrowContract",
          "type": "address"
        }
      ],
      "name": "ServiceRequested",
      "type": "event"
    },
    {
      "anonymous": false,
      "inputs": [
        {
          "indexed": false,
          "internalType": "address",
          "name": "account",
          "type": "address"
        }
      ],
      "name": "Unpaused",
      "type": "event"
    },
    {
      "anonymous": false,
      "inputs": [
        {
          "indexed": true,
          "internalType": "address",
          "name": "implementation",
          "type": "address"
        }
      ],
      "name": "Upgraded",
      "type": "event"
    },
    {
      "inputs": [],
      "name": "owner",
      "outputs": [
        {
          "internalType": "address",
          "name": "",
          "type": "address"
        }
      ],
      "stateMutability": "view",
      "type": "function"
    },
    {
      "inputs": [],
      "name": "paused",
      "outputs": [
        {
          "internalType": "bool",
          "name": "",
          "type": "bool"
        }
      ],
      "stateMutability": "view",
      "type": "function"
    },
    {
      "inputs": [],
      "name": "proxiableUUID",
      "outputs": [
        {
          "internalType": "bytes32",
          "name": "",
          "type": "bytes32"
        }
      ],
      "stateMutability": "view",
      "type": "function"
    },
    {
      "inputs": [],
      "name": "renounceOwnership",
      "outputs": [],
      "stateMutability": "nonpayable",
      "type": "function"
    },
    {
      "inputs": [
        {
          "internalType": "address",
          "name": "newOwner",
          "type": "address"
        }
      ],
      "name": "transferOwnership",
      "outputs": [],
      "stateMutability": "nonpayable",
      "type": "function"
    },
    {
      "inputs": [
        {
          "internalType": "address",
          "name": "newImplementation",
          "type": "address"
        }
      ],
      "name": "upgradeTo",
      "outputs": [],
      "stateMutability": "nonpayable",
      "type": "function"
    },
    {
      "inputs": [
        {
          "internalType": "address",
          "name": "newImplementation",
          "type": "address"
        },
        {
          "internalType": "bytes",
          "name": "data",
          "type": "bytes"
        }
      ],
      "name": "upgradeToAndCall",
      "outputs": [],
      "stateMutability": "payable",
      "type": "function"
    },
    {
      "inputs": [],
      "name": "initialize",
      "outputs": [],
      "stateMutability": "nonpayable",
      "type": "function"
    },
    {
      "inputs": [],
      "name": "pause",
      "outputs": [],
      "stateMutability": "nonpayable",
      "type": "function"
    },
    {
      "inputs": [],
      "name": "unpause",
      "outputs": [],
      "stateMutability": "nonpayable",
      "type": "function"
    },
    {
      "inputs": [
        {
          "internalType": "address",
          "name": "escrowContract",
          "type": "address"
        },
        {
          "internalType": "string",
          "name": "serviceRef",
          "type": "string"
        },
        {
          "internalType": "bool",
          "name": "isERC20",
          "type": "bool"
        },
        {
          "internalType": "address",
          "name": "tokenAddress",
          "type": "address"
        },
        {
          "internalType": "uint256",
          "name": "fiatAmount",
          "type": "uint256"
        }
      ],
      "name": "requestService",
      "outputs": [
        {
          "internalType": "bool",
          "name": "",
          "type": "bool"
        }
      ],
      "stateMutability": "payable",
      "type": "function"
    },
    {
      "inputs": [
        {
          "internalType": "uint256",
          "name": "serviceID",
          "type": "uint256"
        }
      ],
      "name": "serviceOf",
      "outputs": [
        {
          "internalType": "address",
          "name": "",
          "type": "address"
        }
      ],
      "stateMutability": "view",
      "type": "function"
    },
    {
      "inputs": [
        {
          "internalType": "uint256",
          "name": "serviceID",
          "type": "uint256"
        },
        {
          "internalType": "address",
          "name": "serviceEscrow",
          "type": "address"
        }
      ],
      "name": "setService",
      "outputs": [
        {
          "internalType": "bool",
          "name": "",
          "type": "bool"
        }
      ],
      "stateMutability": "nonpayable",
      "type": "function"
    }
  ],
  "bytecode": "0x60a06040523073ffffffffffffffffffffffffffffffffffffffff1660809073ffffffffffffffffffffffffffffffffffffffff1681525034801561004357600080fd5b5060805161215061007b600039600081816102be0152818161034c01528181610458015281816104e6015261059601526121506000f3fe6080604052600436106100c25760003560e01c80638129fc1c1161007f578063999cd9f711610059578063999cd9f7146101e9578063cee4813b14610226578063e317050114610256578063f2fde38b14610293576100c2565b80638129fc1c146101905780638456cb59146101a75780638da5cb5b146101be576100c2565b80633659cfe6146100c75780633f4ba83a146100f05780634f1ef2861461010757806352d1902d146101235780635c975abb1461014e578063715018a614610179575b600080fd5b3480156100d357600080fd5b506100ee60048036038101906100e99190611333565b6102bc565b005b3480156100fc57600080fd5b50610105610444565b005b610121600480360381019061011c91906114a6565b610456565b005b34801561012f57600080fd5b50610138610592565b604051610145919061151b565b60405180910390f35b34801561015a57600080fd5b5061016361064b565b6040516101709190611551565b60405180910390f35b34801561018557600080fd5b5061018e610662565b005b34801561019c57600080fd5b506101a5610676565b005b3480156101b357600080fd5b506101bc6107c4565b005b3480156101ca57600080fd5b506101d36107d6565b6040516101e0919061157b565b60405180910390f35b3480156101f557600080fd5b50610210600480360381019061020b91906115cc565b610800565b60405161021d9190611551565b60405180910390f35b610240600480360381019061023b91906116d9565b610866565b60405161024d9190611551565b60405180910390f35b34801561026257600080fd5b5061027d60048036038101906102789190611770565b6108fb565b60405161028a919061157b565b60405180910390f35b34801561029f57600080fd5b506102ba60048036038101906102b59190611333565b610938565b005b7f000000000000000000000000000000000000000000000000000000000000000073ffffffffffffffffffffffffffffffffffffffff163073ffffffffffffffffffffffffffffffffffffffff160361034a576040517f08c379a000000000000000000000000000000000000000000000000000000000815260040161034190611820565b60405180910390fd5b7f000000000000000000000000000000000000000000000000000000000000000073ffffffffffffffffffffffffffffffffffffffff166103896109bb565b73ffffffffffffffffffffffffffffffffffffffff16146103df576040517f08c379a00000000000000000000000000000000000000000000000000000000081526004016103d6906118b2565b60405180910390fd5b6103e881610a12565b61044181600067ffffffffffffffff8111156104075761040661137b565b5b6040519080825280601f01601f1916602001820160405280156104395781602001600182028036833780820191505090505b506000610a1d565b50565b61044c610b8b565b610454610c09565b565b7f000000000000000000000000000000000000000000000000000000000000000073ffffffffffffffffffffffffffffffffffffffff163073ffffffffffffffffffffffffffffffffffffffff16036104e4576040517f08c379a00000000000000000000000000000000000000000000000000000000081526004016104db90611820565b60405180910390fd5b7f000000000000000000000000000000000000000000000000000000000000000073ffffffffffffffffffffffffffffffffffffffff166105236109bb565b73ffffffffffffffffffffffffffffffffffffffff1614610579576040517f08c379a0000000000000000000000000000000000000000000000000000000008152600401610570906118b2565b60405180910390fd5b61058282610a12565b61058e82826001610a1d565b5050565b60007f000000000000000000000000000000000000000000000000000000000000000073ffffffffffffffffffffffffffffffffffffffff163073ffffffffffffffffffffffffffffffffffffffff1614610622576040517f08c379a000000000000000000000000000000000000000000000000000000000815260040161061990611944565b60405180910390fd5b7f360894a13ba1a3210667c828492db98dca3e2076cc3735a920a3ca505d382bbc60001b905090565b6000606560009054906101000a900460ff16905090565b61066a610b8b565b6106746000610c6c565b565b60008060019054906101000a900460ff161590508080156106a75750600160008054906101000a900460ff1660ff16105b806106d457506106b630610d32565b1580156106d35750600160008054906101000a900460ff1660ff16145b5b610713576040517f08c379a000000000000000000000000000000000000000000000000000000000815260040161070a906119d6565b60405180910390fd5b60016000806101000a81548160ff021916908360ff1602179055508015610750576001600060016101000a81548160ff0219169083151502179055505b610758610d55565b610760610dae565b610768610e07565b80156107c15760008060016101000a81548160ff0219169083151502179055507f7f26b83ff96e1f2b6a682f133852f6798a09c465da95921460cefb384740249860016040516107b89190611a48565b60405180910390a15b50565b6107cc610b8b565b6107d4610e58565b565b6000603360009054906101000a900473ffffffffffffffffffffffffffffffffffffffff16905090565b600061080a610b8b565b8160fb600085815260200190815260200160002060006101000a81548173ffffffffffffffffffffffffffffffffffffffff021916908373ffffffffffffffffffffffffffffffffffffffff1602179055506001905092915050565b6000610870610ebb565b6000856040516020016108839190611ad4565b6040516020818303038152906040528051906020012090503373ffffffffffffffffffffffffffffffffffffffff167f3592a14e26ec7a126a764633dd92f19a4c6025f963cad8c95abab498ab93da9634838a6040516108e593929190611afa565b60405180910390a2600191505095945050505050565b600060fb600083815260200190815260200160002060009054906101000a900473ffffffffffffffffffffffffffffffffffffffff169050919050565b610940610b8b565b600073ffffffffffffffffffffffffffffffffffffffff168173ffffffffffffffffffffffffffffffffffffffff16036109af576040517f08c379a00000000000000000000000000000000000000000000000000000000081526004016109a690611ba3565b60405180910390fd5b6109b881610c6c565b50565b60006109e97f360894a13ba1a3210667c828492db98dca3e2076cc3735a920a3ca505d382bbc60001b610f05565b60000160009054906101000a900473ffffffffffffffffffffffffffffffffffffffff16905090565b610a1a610b8b565b50565b610a497f4910fdfa16fed3260ed0e7147f7cc6da11a60208b5b9406d12a635614ffd914360001b610f0f565b60000160009054906101000a900460ff1615610a6d57610a6883610f19565b610b86565b8273ffffffffffffffffffffffffffffffffffffffff166352d1902d6040518163ffffffff1660e01b8152600401602060405180830381865afa925050508015610ad557506040513d601f19601f82011682018060405250810190610ad29190611bef565b60015b610b14576040517f08c379a0000000000000000000000000000000000000000000000000000000008152600401610b0b90611c8e565b60405180910390fd5b7f360894a13ba1a3210667c828492db98dca3e2076cc3735a920a3ca505d382bbc60001b8114610b79576040517f08c379a0000000000000000000000000000000000000000000000000000000008152600401610b7090611d20565b60405180910390fd5b50610b85838383610fd2565b5b505050565b610b93610ffe565b73ffffffffffffffffffffffffffffffffffffffff16610bb16107d6565b73ffffffffffffffffffffffffffffffffffffffff1614610c07576040517f08c379a0000000000000000000000000000000000000000000000000000000008152600401610bfe90611d8c565b60405180910390fd5b565b610c11611006565b6000606560006101000a81548160ff0219169083151502179055507f5db9ee0a495bf2e6ff9c91a7834c1ba4fdd244a5e8aa4e537bd38aeae4b073aa610c55610ffe565b604051610c62919061157b565b60405180910390a1565b6000603360009054906101000a900473ffffffffffffffffffffffffffffffffffffffff16905081603360006101000a81548173ffffffffffffffffffffffffffffffffffffffff021916908373ffffffffffffffffffffffffffffffffffffffff1602179055508173ffffffffffffffffffffffffffffffffffffffff168173ffffffffffffffffffffffffffffffffffffffff167f8be0079c531659141344cd1fd0a4f28419497f9722a3daafe3b4186f6b6457e060405160405180910390a35050565b6000808273ffffffffffffffffffffffffffffffffffffffff163b119050919050565b600060019054906101000a900460ff16610da4576040517f08c379a0000000000000000000000000000000000000000000000000000000008152600401610d9b90611e1e565b60405180910390fd5b610dac61104f565b565b600060019054906101000a900460ff16610dfd576040517f08c379a0000000000000000000000000000000000000000000000000000000008152600401610df490611e1e565b60405180910390fd5b610e056110b0565b565b600060019054906101000a900460ff16610e56576040517f08c379a0000000000000000000000000000000000000000000000000000000008152600401610e4d90611e1e565b60405180910390fd5b565b610e60610ebb565b6001606560006101000a81548160ff0219169083151502179055507f62e78cea01bee320cd4e420270b5ea74000d11b0c9f74754ebdbfc544b05a258610ea4610ffe565b604051610eb1919061157b565b60405180910390a1565b610ec361064b565b15610f03576040517f08c379a0000000000000000000000000000000000000000000000000000000008152600401610efa90611e8a565b60405180910390fd5b565b6000819050919050565b6000819050919050565b610f2281610d32565b610f61576040517f08c379a0000000000000000000000000000000000000000000000000000000008152600401610f5890611f1c565b60405180910390fd5b80610f8e7f360894a13ba1a3210667c828492db98dca3e2076cc3735a920a3ca505d382bbc60001b610f05565b60000160006101000a81548173ffffffffffffffffffffffffffffffffffffffff021916908373ffffffffffffffffffffffffffffffffffffffff16021790555050565b610fdb8361111c565b600082511180610fe85750805b15610ff957610ff7838361116b565b505b505050565b600033905090565b61100e61064b565b61104d576040517f08c379a000000000000000000000000000000000000000000000000000000000815260040161104490611f88565b60405180910390fd5b565b600060019054906101000a900460ff1661109e576040517f08c379a000000000000000000000000000000000000000000000000000000000815260040161109590611e1e565b60405180910390fd5b6110ae6110a9610ffe565b610c6c565b565b600060019054906101000a900460ff166110ff576040517f08c379a00000000000000000000000000000000000000000000000000000000081526004016110f690611e1e565b60405180910390fd5b6000606560006101000a81548160ff021916908315150217905550565b61112581610f19565b8073ffffffffffffffffffffffffffffffffffffffff167fbc7cd75a20ee27fd9adebab32041f755214dbc6bffa90cc0225b39da2e5c2d3b60405160405180910390a250565b606061117683610d32565b6111b5576040517f08c379a00000000000000000000000000000000000000000000000000000000081526004016111ac9061201a565b60405180910390fd5b6000808473ffffffffffffffffffffffffffffffffffffffff16846040516111dd9190612081565b600060405180830381855af49150503d8060008114611218576040519150601f19603f3d011682016040523d82523d6000602084013e61121d565b606091505b509150915061124582826040518060600160405280602781526020016120f46027913961124f565b9250505092915050565b6060831561125f5782905061126a565b6112698383611271565b5b9392505050565b6000825111156112845781518083602001fd5b806040517f08c379a00000000000000000000000000000000000000000000000000000000081526004016112b891906120d1565b60405180910390fd5b6000604051905090565b600080fd5b600080fd5b600073ffffffffffffffffffffffffffffffffffffffff82169050919050565b6000611300826112d5565b9050919050565b611310816112f5565b811461131b57600080fd5b50565b60008135905061132d81611307565b92915050565b600060208284031215611349576113486112cb565b5b60006113578482850161131e565b91505092915050565b600080fd5b600080fd5b6000601f19601f8301169050919050565b7f4e487b7100000000000000000000000000000000000000000000000000000000600052604160045260246000fd5b6113b38261136a565b810181811067ffffffffffffffff821117156113d2576113d161137b565b5b80604052505050565b60006113e56112c1565b90506113f182826113aa565b919050565b600067ffffffffffffffff8211156114115761141061137b565b5b61141a8261136a565b9050602081019050919050565b82818337600083830152505050565b6000611449611444846113f6565b6113db565b90508281526020810184848401111561146557611464611365565b5b611470848285611427565b509392505050565b600082601f83011261148d5761148c611360565b5b813561149d848260208601611436565b91505092915050565b600080604083850312156114bd576114bc6112cb565b5b60006114cb8582860161131e565b925050602083013567ffffffffffffffff8111156114ec576114eb6112d0565b5b6114f885828601611478565b9150509250929050565b6000819050919050565b61151581611502565b82525050565b6000602082019050611530600083018461150c565b92915050565b60008115159050919050565b61154b81611536565b82525050565b60006020820190506115666000830184611542565b92915050565b611575816112f5565b82525050565b6000602082019050611590600083018461156c565b92915050565b6000819050919050565b6115a981611596565b81146115b457600080fd5b50565b6000813590506115c6816115a0565b92915050565b600080604083850312156115e3576115e26112cb565b5b60006115f1858286016115b7565b92505060206116028582860161131e565b9150509250929050565b600067ffffffffffffffff8211156116275761162661137b565b5b6116308261136a565b9050602081019050919050565b600061165061164b8461160c565b6113db565b90508281526020810184848401111561166c5761166b611365565b5b611677848285611427565b509392505050565b600082601f83011261169457611693611360565b5b81356116a484826020860161163d565b91505092915050565b6116b681611536565b81146116c157600080fd5b50565b6000813590506116d3816116ad565b92915050565b600080600080600060a086880312156116f5576116f46112cb565b5b60006117038882890161131e565b955050602086013567ffffffffffffffff811115611724576117236112d0565b5b6117308882890161167f565b9450506040611741888289016116c4565b93505060606117528882890161131e565b9250506080611763888289016115b7565b9150509295509295909350565b600060208284031215611786576117856112cb565b5b6000611794848285016115b7565b91505092915050565b600082825260208201905092915050565b7f46756e6374696f6e206d7573742062652063616c6c6564207468726f7567682060008201527f64656c656761746563616c6c0000000000000000000000000000000000000000602082015250565b600061180a602c8361179d565b9150611815826117ae565b604082019050919050565b60006020820190508181036000830152611839816117fd565b9050919050565b7f46756e6374696f6e206d7573742062652063616c6c6564207468726f7567682060008201527f6163746976652070726f78790000000000000000000000000000000000000000602082015250565b600061189c602c8361179d565b91506118a782611840565b604082019050919050565b600060208201905081810360008301526118cb8161188f565b9050919050565b7f555550535570677261646561626c653a206d757374206e6f742062652063616c60008201527f6c6564207468726f7567682064656c656761746563616c6c0000000000000000602082015250565b600061192e60388361179d565b9150611939826118d2565b604082019050919050565b6000602082019050818103600083015261195d81611921565b9050919050565b7f496e697469616c697a61626c653a20636f6e747261637420697320616c72656160008201527f647920696e697469616c697a6564000000000000000000000000000000000000602082015250565b60006119c0602e8361179d565b91506119cb82611964565b604082019050919050565b600060208201905081810360008301526119ef816119b3565b9050919050565b6000819050919050565b600060ff82169050919050565b6000819050919050565b6000611a32611a2d611a28846119f6565b611a0d565b611a00565b9050919050565b611a4281611a17565b82525050565b6000602082019050611a5d6000830184611a39565b92915050565b600081519050919050565b600081905092915050565b60005b83811015611a97578082015181840152602081019050611a7c565b60008484015250505050565b6000611aae82611a63565b611ab88185611a6e565b9350611ac8818560208601611a79565b80840191505092915050565b6000611ae08284611aa3565b915081905092915050565b611af481611596565b82525050565b6000606082019050611b0f6000830186611aeb565b611b1c602083018561150c565b611b29604083018461156c565b949350505050565b7f4f776e61626c653a206e6577206f776e657220697320746865207a65726f206160008201527f6464726573730000000000000000000000000000000000000000000000000000602082015250565b6000611b8d60268361179d565b9150611b9882611b31565b604082019050919050565b60006020820190508181036000830152611bbc81611b80565b9050919050565b611bcc81611502565b8114611bd757600080fd5b50565b600081519050611be981611bc3565b92915050565b600060208284031215611c0557611c046112cb565b5b6000611c1384828501611bda565b91505092915050565b7f45524331393637557067726164653a206e657720696d706c656d656e7461746960008201527f6f6e206973206e6f742055555053000000000000000000000000000000000000602082015250565b6000611c78602e8361179d565b9150611c8382611c1c565b604082019050919050565b60006020820190508181036000830152611ca781611c6b565b9050919050565b7f45524331393637557067726164653a20756e737570706f727465642070726f7860008201527f6961626c65555549440000000000000000000000000000000000000000000000602082015250565b6000611d0a60298361179d565b9150611d1582611cae565b604082019050919050565b60006020820190508181036000830152611d3981611cfd565b9050919050565b7f4f776e61626c653a2063616c6c6572206973206e6f7420746865206f776e6572600082015250565b6000611d7660208361179d565b9150611d8182611d40565b602082019050919050565b60006020820190508181036000830152611da581611d69565b9050919050565b7f496e697469616c697a61626c653a20636f6e7472616374206973206e6f74206960008201527f6e697469616c697a696e67000000000000000000000000000000000000000000602082015250565b6000611e08602b8361179d565b9150611e1382611dac565b604082019050919050565b60006020820190508181036000830152611e3781611dfb565b9050919050565b7f5061757361626c653a2070617573656400000000000000000000000000000000600082015250565b6000611e7460108361179d565b9150611e7f82611e3e565b602082019050919050565b60006020820190508181036000830152611ea381611e67565b9050919050565b7f455243313936373a206e657720696d706c656d656e746174696f6e206973206e60008201527f6f74206120636f6e747261637400000000000000000000000000000000000000602082015250565b6000611f06602d8361179d565b9150611f1182611eaa565b604082019050919050565b60006020820190508181036000830152611f3581611ef9565b9050919050565b7f5061757361626c653a206e6f7420706175736564000000000000000000000000600082015250565b6000611f7260148361179d565b9150611f7d82611f3c565b602082019050919050565b60006020820190508181036000830152611fa181611f65565b9050919050565b7f416464726573733a2064656c65676174652063616c6c20746f206e6f6e2d636f60008201527f6e74726163740000000000000000000000000000000000000000000000000000602082015250565b600061200460268361179d565b915061200f82611fa8565b604082019050919050565b6000602082019050818103600083015261203381611ff7565b9050919050565b600081519050919050565b600081905092915050565b600061205b8261203a565b6120658185612045565b9350612075818560208601611a79565b80840191505092915050565b600061208d8284612050565b915081905092915050565b60006120a382611a63565b6120ad818561179d565b93506120bd818560208601611a79565b6120c68161136a565b840191505092915050565b600060208201905081810360008301526120eb8184612098565b90509291505056fe416464726573733a206c6f772d6c6576656c2064656c65676174652063616c6c206661696c6564a26469706673582212203417292da64ec4f85e12cc58939c6155eb87074b34500609c6708a079618fd9c64736f6c63430008110033",
  "immutableReferences": {
    "720": [
      {
        "length": 32,
        "start": 702
      },
      {
        "length": 32,
        "start": 844
      },
      {
        "length": 32,
        "start": 1112
      },
      {
        "length": 32,
        "start": 1254
      },
      {
        "length": 32,
        "start": 1430
      }
    ]
  },
  "source": "// SPDX-License-Identifier: MIT\npragma solidity 0.8.17;\n\nimport \"@openzeppelin/contracts-upgradeable/proxy/utils/UUPSUpgradeable.sol\";\nimport \"@openzeppelin/contracts-upgradeable/security/PausableUpgradeable.sol\";\nimport \"@openzeppelin/contracts-upgradeable/utils/math/SafeMathUpgradeable.sol\";\nimport \"@openzeppelin/contracts-upgradeable/utils/AddressUpgradeable.sol\";\nimport \"@openzeppelin/contracts-upgradeable/access/OwnableUpgradeable.sol\";\nimport \"@openzeppelin/contracts-upgradeable/proxy/utils/Initializable.sol\";\nimport \"./IRegexValidator.sol\";\n\n/**\n * \n * ----- TukiRouter -----\n * This Smart Contract is intented to be user-facing.\n * Any valid address can request a fulfillment to a valid fulfillable.\n * \n * Pre-conditions:\n * \n * - verified identifier\n * - valid fulfillable id\n * - enough balance on the sender account\n * \n * \n * Post-conditions:\n * \n * - ServiceRequested Event emitted\n * - payment due is trasferred to escrow contract until fulfillment\n * \n * -----------------------\n * \n */\ncontract TukiRouterV1 is Initializable, OwnableUpgradeable, PausableUpgradeable, UUPSUpgradeable {\n    using AddressUpgradeable for address payable;\n    using SafeMathUpgradeable for uint256;\n\n    mapping(uint256 => address) private _services;\n\n    event ServiceRequested(address indexed payer, uint256 weiAmount, bytes32 serviceRef, address escrowContract);\n  \n    /**\n     * @dev Constructor.\n     */\n    function initialize() public virtual initializer {\n        __Ownable_init();\n        __Pausable_init();\n        __UUPSUpgradeable_init();\n    }\n\n    function pause() public onlyOwner {\n        _pause();\n    }\n\n    function unpause() public onlyOwner {\n        _unpause();\n    }\n\n    /**\n     * @dev required for UUPS upgrades\n     **/\n    function _authorizeUpgrade(address newImplementation)\n        internal\n        onlyOwner\n        override\n    {}\n\n    /**\n     * @return The current state of the escrow.\n     */\n    function requestService(\n            address escrowContract, \n            string memory serviceRef,\n            bool isERC20,\n            address tokenAddress,\n            uint256 fiatAmount\n        ) \n        public \n        payable\n        whenNotPaused\n        returns (bool) \n    {\n        bytes32 ref = keccak256(abi.encodePacked(serviceRef));\n        //TODO Validate reference\n        //TODO validate amount with modifier\n        //TODO validate enough balance on payer\n        //TODO route the payment to the corresponding escrow contract\n        emit ServiceRequested(msg.sender, msg.value, ref, escrowContract);\n        return true;\n    }\n\n    /**\n     * @return the address for the service ID of a particular service.\n     *\n     */\n    function serviceOf(uint256 serviceID) public view returns (address) {\n        return _services[serviceID];\n    }\n\n    function setService(uint256 serviceID, address serviceEscrow) public virtual onlyOwner returns (bool) {\n        _services[serviceID] = serviceEscrow;\n        return true;\n    }\n}\n",
  "sourcePath": "/Users/luisgabriel/tuki-org/contracts/src/contracts/TukiRouterV1.sol",
  "compiler": {
    "name": "solc",
    "version": "0.8.17+commit.8df45f5f.Emscripten.clang"
  },
  "schemaVersion": "3.4.10",
  "updatedAt": "2022-10-16T22:29:56.043Z",
  "devdoc": {
    "kind": "dev",
    "methods": {
      "initialize()": {
        "details": "Constructor."
      },
      "owner()": {
        "details": "Returns the address of the current owner."
      },
      "paused()": {
        "details": "Returns true if the contract is paused, and false otherwise."
      },
      "proxiableUUID()": {
        "details": "Implementation of the ERC1822 {proxiableUUID} function. This returns the storage slot used by the implementation. It is used to validate the implementation's compatibility when performing an upgrade. IMPORTANT: A proxy pointing at a proxiable contract should not be considered proxiable itself, because this risks bricking a proxy that upgrades to it, by delegating to itself until out of gas. Thus it is critical that this function revert if invoked through a proxy. This is guaranteed by the `notDelegated` modifier."
      },
      "renounceOwnership()": {
        "details": "Leaves the contract without owner. It will not be possible to call `onlyOwner` functions anymore. Can only be called by the current owner. NOTE: Renouncing ownership will leave the contract without an owner, thereby removing any functionality that is only available to the owner."
      },
      "requestService(address,string,bool,address,uint256)": {
        "returns": {
          "_0": "The current state of the escrow."
        }
      },
      "serviceOf(uint256)": {
        "returns": {
          "_0": "the address for the service ID of a particular service."
        }
      },
      "transferOwnership(address)": {
        "details": "Transfers ownership of the contract to a new account (`newOwner`). Can only be called by the current owner."
      },
      "upgradeTo(address)": {
        "details": "Upgrade the implementation of the proxy to `newImplementation`. Calls {_authorizeUpgrade}. Emits an {Upgraded} event."
      },
      "upgradeToAndCall(address,bytes)": {
        "details": "Upgrade the implementation of the proxy to `newImplementation`, and subsequently execute the function call encoded in `data`. Calls {_authorizeUpgrade}. Emits an {Upgraded} event."
      }
    },
    "version": 1
  },
  "userdoc": {
    "kind": "user",
    "methods": {},
    "notice": " ----- TukiRouter ----- This Smart Contract is intented to be user-facing. Any valid address can request a fulfillment to a valid fulfillable.  Pre-conditions:  - verified identifier - valid fulfillable id - enough balance on the sender account   Post-conditions:  - ServiceRequested Event emitted - payment due is trasferred to escrow contract until fulfillment  ----------------------- ",
    "version": 1
  }
}