{
  "contractName": "TukiRouterV1",
  "abi": [
    {
      "anonymous": false,
      "inputs": [
        {
          "indexed": false,
          "internalType": "address",
          "name": "previousAdmin",
          "type": "address"
        },
        {
          "indexed": false,
          "internalType": "address",
          "name": "newAdmin",
          "type": "address"
        }
      ],
      "name": "AdminChanged",
      "type": "event"
    },
    {
      "anonymous": false,
      "inputs": [
        {
          "indexed": true,
          "internalType": "address",
          "name": "beacon",
          "type": "address"
        }
      ],
      "name": "BeaconUpgraded",
      "type": "event"
    },
    {
      "anonymous": false,
      "inputs": [
        {
          "indexed": false,
          "internalType": "uint8",
          "name": "version",
          "type": "uint8"
        }
      ],
      "name": "Initialized",
      "type": "event"
    },
    {
      "anonymous": false,
      "inputs": [
        {
          "indexed": true,
          "internalType": "address",
          "name": "previousOwner",
          "type": "address"
        },
        {
          "indexed": true,
          "internalType": "address",
          "name": "newOwner",
          "type": "address"
        }
      ],
      "name": "OwnershipTransferred",
      "type": "event"
    },
    {
      "anonymous": false,
      "inputs": [
        {
          "indexed": false,
          "internalType": "address",
          "name": "account",
          "type": "address"
        }
      ],
      "name": "Paused",
      "type": "event"
    },
    {
      "anonymous": false,
      "inputs": [
        {
          "indexed": false,
          "internalType": "uint256",
          "name": "serviceID",
          "type": "uint256"
        },
        {
          "indexed": false,
          "internalType": "string",
          "name": "serviceRef",
          "type": "string"
        }
      ],
      "name": "RefValidationFailed",
      "type": "event"
    },
    {
      "anonymous": false,
      "inputs": [
        {
          "indexed": false,
          "internalType": "uint256",
          "name": "serviceID",
          "type": "uint256"
        },
        {
          "indexed": false,
          "internalType": "address",
          "name": "escrow",
          "type": "address"
        },
        {
          "indexed": false,
          "internalType": "address",
          "name": "validator",
          "type": "address"
        }
      ],
      "name": "ServiceAdded",
      "type": "event"
    },
    {
      "anonymous": false,
      "inputs": [
        {
          "indexed": false,
          "internalType": "uint256",
          "name": "serviceID",
          "type": "uint256"
        },
        {
          "components": [
            {
              "internalType": "address",
              "name": "payer",
              "type": "address"
            },
            {
              "internalType": "uint256",
              "name": "weiAmount",
              "type": "uint256"
            },
            {
              "internalType": "uint256",
              "name": "fiatAmount",
              "type": "uint256"
            },
            {
              "internalType": "uint256",
              "name": "feeAmount",
              "type": "uint256"
            },
            {
              "internalType": "string",
              "name": "serviceRef",
              "type": "string"
            }
          ],
          "indexed": false,
          "internalType": "struct FulFillmentRequest",
          "name": "request",
          "type": "tuple"
        }
      ],
      "name": "ServiceRequested",
      "type": "event"
    },
    {
      "anonymous": false,
      "inputs": [
        {
          "indexed": false,
          "internalType": "address",
          "name": "account",
          "type": "address"
        }
      ],
      "name": "Unpaused",
      "type": "event"
    },
    {
      "anonymous": false,
      "inputs": [
        {
          "indexed": true,
          "internalType": "address",
          "name": "implementation",
          "type": "address"
        }
      ],
      "name": "Upgraded",
      "type": "event"
    },
    {
      "inputs": [],
      "name": "owner",
      "outputs": [
        {
          "internalType": "address",
          "name": "",
          "type": "address"
        }
      ],
      "stateMutability": "view",
      "type": "function"
    },
    {
      "inputs": [],
      "name": "paused",
      "outputs": [
        {
          "internalType": "bool",
          "name": "",
          "type": "bool"
        }
      ],
      "stateMutability": "view",
      "type": "function"
    },
    {
      "inputs": [],
      "name": "proxiableUUID",
      "outputs": [
        {
          "internalType": "bytes32",
          "name": "",
          "type": "bytes32"
        }
      ],
      "stateMutability": "view",
      "type": "function"
    },
    {
      "inputs": [],
      "name": "renounceOwnership",
      "outputs": [],
      "stateMutability": "nonpayable",
      "type": "function"
    },
    {
      "inputs": [
        {
          "internalType": "address",
          "name": "newOwner",
          "type": "address"
        }
      ],
      "name": "transferOwnership",
      "outputs": [],
      "stateMutability": "nonpayable",
      "type": "function"
    },
    {
      "inputs": [
        {
          "internalType": "address",
          "name": "newImplementation",
          "type": "address"
        }
      ],
      "name": "upgradeTo",
      "outputs": [],
      "stateMutability": "nonpayable",
      "type": "function"
    },
    {
      "inputs": [
        {
          "internalType": "address",
          "name": "newImplementation",
          "type": "address"
        },
        {
          "internalType": "bytes",
          "name": "data",
          "type": "bytes"
        }
      ],
      "name": "upgradeToAndCall",
      "outputs": [],
      "stateMutability": "payable",
      "type": "function"
    },
    {
      "inputs": [],
      "name": "initialize",
      "outputs": [],
      "stateMutability": "nonpayable",
      "type": "function"
    },
    {
      "inputs": [],
      "name": "pause",
      "outputs": [],
      "stateMutability": "nonpayable",
      "type": "function"
    },
    {
      "inputs": [],
      "name": "unpause",
      "outputs": [],
      "stateMutability": "nonpayable",
      "type": "function"
    },
    {
      "inputs": [
        {
          "internalType": "uint256",
          "name": "serviceID",
          "type": "uint256"
        },
        {
          "components": [
            {
              "internalType": "address",
              "name": "payer",
              "type": "address"
            },
            {
              "internalType": "uint256",
              "name": "weiAmount",
              "type": "uint256"
            },
            {
              "internalType": "uint256",
              "name": "fiatAmount",
              "type": "uint256"
            },
            {
              "internalType": "uint256",
              "name": "feeAmount",
              "type": "uint256"
            },
            {
              "internalType": "string",
              "name": "serviceRef",
              "type": "string"
            }
          ],
          "internalType": "struct FulFillmentRequest",
          "name": "request",
          "type": "tuple"
        }
      ],
      "name": "requestService",
      "outputs": [
        {
          "internalType": "bool",
          "name": "",
          "type": "bool"
        }
      ],
      "stateMutability": "payable",
      "type": "function"
    },
    {
      "inputs": [
        {
          "internalType": "uint256",
          "name": "serviceID",
          "type": "uint256"
        }
      ],
      "name": "serviceOf",
      "outputs": [
        {
          "internalType": "address[2]",
          "name": "",
          "type": "address[2]"
        }
      ],
      "stateMutability": "view",
      "type": "function"
    },
    {
      "inputs": [
        {
          "internalType": "uint256",
          "name": "serviceID",
          "type": "uint256"
        },
        {
          "internalType": "address",
          "name": "validator",
          "type": "address"
        },
        {
          "internalType": "address payable",
          "name": "beneficiary",
          "type": "address"
        }
      ],
      "name": "setService",
      "outputs": [
        {
          "internalType": "address[2]",
          "name": "",
          "type": "address[2]"
        }
      ],
      "stateMutability": "nonpayable",
      "type": "function"
    }
  ],
  "bytecode": "0x60a06040523073ffffffffffffffffffffffffffffffffffffffff1660809073ffffffffffffffffffffffffffffffffffffffff1681525034801561004357600080fd5b5060805161578661007b6000396000818161030d0152818161039e015281816104bb0152818161054c015261060501526157866000f3fe608060405260043610620000d45760003560e01c80638129fc1c116200008b578063d67db7531162000061578063d67db753146200021f578063dc886d6e1462000263578063e31705011462000299578063f2fde38b14620002dd57620000d4565b80638129fc1c14620001bb5780638456cb5914620001d55780638da5cb5b14620001ef57620000d4565b80633659cfe614620000d95780633f4ba83a14620001075780634f1ef286146200012157806352d1902d14620001415780635c975abb1462000171578063715018a614620001a1575b600080fd5b348015620000e657600080fd5b50620001056004803603810190620000ff919062001c39565b6200030b565b005b3480156200011457600080fd5b506200011f620004a3565b005b6200013f600480360381019062000139919062001dcd565b620004b9565b005b3480156200014e57600080fd5b506200015962000601565b60405162000168919062001e4e565b60405180910390f35b3480156200017e57600080fd5b5062000189620006bd565b60405162000198919062001e88565b60405180910390f35b348015620001ae57600080fd5b50620001b9620006d4565b005b348015620001c857600080fd5b50620001d3620006ec565b005b348015620001e257600080fd5b50620001ed6200084c565b005b348015620001fc57600080fd5b506200020762000862565b60405162000216919062001eb6565b60405180910390f35b3480156200022c57600080fd5b506200024b600480360381019062000245919062001f53565b6200088c565b6040516200025a91906200206a565b60405180910390f35b6200028160048036038101906200027b9190620021ff565b62000b5b565b60405162000290919062001e88565b60405180910390f35b348015620002a657600080fd5b50620002c56004803603810190620002bf919062002265565b62000f4f565b604051620002d491906200206a565b60405180910390f35b348015620002ea57600080fd5b5062000309600480360381019062000303919062001c39565b6200117d565b005b7f000000000000000000000000000000000000000000000000000000000000000073ffffffffffffffffffffffffffffffffffffffff163073ffffffffffffffffffffffffffffffffffffffff16036200039c576040517f08c379a000000000000000000000000000000000000000000000000000000000815260040162000393906200231e565b60405180910390fd5b7f000000000000000000000000000000000000000000000000000000000000000073ffffffffffffffffffffffffffffffffffffffff16620003dd62001207565b73ffffffffffffffffffffffffffffffffffffffff161462000436576040517f08c379a00000000000000000000000000000000000000000000000000000000081526004016200042d90620023b6565b60405180910390fd5b620004418162001260565b620004a081600067ffffffffffffffff81111562000464576200046362001c86565b5b6040519080825280601f01601f191660200182016040528015620004975781602001600182028036833780820191505090505b5060006200126d565b50565b620004ad620013ec565b620004b762001471565b565b7f000000000000000000000000000000000000000000000000000000000000000073ffffffffffffffffffffffffffffffffffffffff163073ffffffffffffffffffffffffffffffffffffffff16036200054a576040517f08c379a000000000000000000000000000000000000000000000000000000000815260040162000541906200231e565b60405180910390fd5b7f000000000000000000000000000000000000000000000000000000000000000073ffffffffffffffffffffffffffffffffffffffff166200058b62001207565b73ffffffffffffffffffffffffffffffffffffffff1614620005e4576040517f08c379a0000000000000000000000000000000000000000000000000000000008152600401620005db90620023b6565b60405180910390fd5b620005ef8262001260565b620005fd828260016200126d565b5050565b60007f000000000000000000000000000000000000000000000000000000000000000073ffffffffffffffffffffffffffffffffffffffff163073ffffffffffffffffffffffffffffffffffffffff161462000694576040517f08c379a00000000000000000000000000000000000000000000000000000000081526004016200068b906200244e565b60405180910390fd5b7f360894a13ba1a3210667c828492db98dca3e2076cc3735a920a3ca505d382bbc60001b905090565b6000606560009054906101000a900460ff16905090565b620006de620013ec565b620006ea6000620014da565b565b60008060019054906101000a900460ff161590508080156200071e5750600160008054906101000a900460ff1660ff16105b806200074f57506200073030620015a0565b1580156200074e5750600160008054906101000a900460ff1660ff16145b5b62000791576040517f08c379a00000000000000000000000000000000000000000000000000000000081526004016200078890620024e6565b60405180910390fd5b60016000806101000a81548160ff021916908360ff1602179055508015620007cf576001600060016101000a81548160ff0219169083151502179055505b620007d9620015c3565b620007e362001621565b620007ed6200167f565b8015620008495760008060016101000a81548160ff0219169083151502179055507f7f26b83ff96e1f2b6a682f133852f6798a09c465da95921460cefb3847402498600160405162000840919062002562565b60405180910390a15b50565b62000856620013ec565b62000860620016d3565b565b6000603360009054906101000a900473ffffffffffffffffffffffffffffffffffffffff16905090565b6200089662001b90565b620008a0620013ec565b60008411620008e6576040517f08c379a0000000000000000000000000000000000000000000000000000000008152600401620008dd90620025cf565b60405180910390fd5b600073ffffffffffffffffffffffffffffffffffffffff168373ffffffffffffffffffffffffffffffffffffffff160362000958576040517f08c379a00000000000000000000000000000000000000000000000000000000081526004016200094f9062002641565b60405180910390fd5b600082856040516200096a9062001bb2565b6200097792919062002685565b604051809103906000f08015801562000994573d6000803e3d6000fd5b5090508060fb600087815260200190815260200160002060006101000a81548173ffffffffffffffffffffffffffffffffffffffff021916908373ffffffffffffffffffffffffffffffffffffffff1602179055508360fc600087815260200190815260200160002060006101000a81548173ffffffffffffffffffffffffffffffffffffffff021916908373ffffffffffffffffffffffffffffffffffffffff160217905550600060fb600087815260200190815260200160002060009054906101000a900473ffffffffffffffffffffffffffffffffffffffff1690507f50d798ee07203c2dc328aa13e8f1eff3d7aa253e01262565918ab0a7cb0e415686828760405162000aa893929190620026b2565b60405180910390a160405180604001604052808273ffffffffffffffffffffffffffffffffffffffff1673ffffffffffffffffffffffffffffffffffffffff16815260200160fc600089815260200190815260200160002060009054906101000a900473ffffffffffffffffffffffffffffffffffffffff1673ffffffffffffffffffffffffffffffffffffffff1673ffffffffffffffffffffffffffffffffffffffff16815250925050509392505050565b600062000b676200173c565b600062000b86836060015184602001516200178b90919063ffffffff16565b9050600081101562000bcf576040517f08c379a000000000000000000000000000000000000000000000000000000000815260040162000bc6906200273f565b60405180910390fd5b60008360400151101562000c1a576040517f08c379a000000000000000000000000000000000000000000000000000000000815260040162000c1190620027b1565b60405180910390fd5b34811462000c5f576040517f08c379a000000000000000000000000000000000000000000000000000000000815260040162000c569062002849565b60405180910390fd5b600073ffffffffffffffffffffffffffffffffffffffff1660fb600086815260200190815260200160002060009054906101000a900473ffffffffffffffffffffffffffffffffffffffff1673ffffffffffffffffffffffffffffffffffffffff160362000d04576040517f08c379a000000000000000000000000000000000000000000000000000000000815260040162000cfb90620028bb565b60405180910390fd5b600073ffffffffffffffffffffffffffffffffffffffff1660fc600086815260200190815260200160002060009054906101000a900473ffffffffffffffffffffffffffffffffffffffff1673ffffffffffffffffffffffffffffffffffffffff160362000da9576040517f08c379a000000000000000000000000000000000000000000000000000000000815260040162000da09062002953565b60405180910390fd5b60fc600085815260200190815260200160002060009054906101000a900473ffffffffffffffffffffffffffffffffffffffff1673ffffffffffffffffffffffffffffffffffffffff166332ac752b84608001516040518263ffffffff1660e01b815260040162000e1b9190620029ed565b602060405180830381865afa15801562000e39573d6000803e3d6000fd5b505050506040513d601f19601f8201168201806040525081019062000e5f919062002a42565b62000ea1576040517f08c379a000000000000000000000000000000000000000000000000000000000815260040162000e989062002aea565b60405180910390fd5b60fb600085815260200190815260200160002060009054906101000a900473ffffffffffffffffffffffffffffffffffffffff1673ffffffffffffffffffffffffffffffffffffffff1663910eccae34856040518363ffffffff1660e01b815260040162000f10919062002bef565b6000604051808303818588803b15801562000f2a57600080fd5b505af115801562000f3f573d6000803e3d6000fd5b5050505050600191505092915050565b62000f5962001b90565b600073ffffffffffffffffffffffffffffffffffffffff1660fb600084815260200190815260200160002060009054906101000a900473ffffffffffffffffffffffffffffffffffffffff1673ffffffffffffffffffffffffffffffffffffffff160362000ffe576040517f08c379a000000000000000000000000000000000000000000000000000000000815260040162000ff59062002c63565b60405180910390fd5b600073ffffffffffffffffffffffffffffffffffffffff1660fc600084815260200190815260200160002060009054906101000a900473ffffffffffffffffffffffffffffffffffffffff1673ffffffffffffffffffffffffffffffffffffffff1603620010a3576040517f08c379a00000000000000000000000000000000000000000000000000000000081526004016200109a9062002cfb565b60405180910390fd5b604051806040016040528060fb600085815260200190815260200160002060009054906101000a900473ffffffffffffffffffffffffffffffffffffffff1673ffffffffffffffffffffffffffffffffffffffff1673ffffffffffffffffffffffffffffffffffffffff16815260200160fc600085815260200190815260200160002060009054906101000a900473ffffffffffffffffffffffffffffffffffffffff1673ffffffffffffffffffffffffffffffffffffffff1673ffffffffffffffffffffffffffffffffffffffff168152509050919050565b62001187620013ec565b600073ffffffffffffffffffffffffffffffffffffffff168173ffffffffffffffffffffffffffffffffffffffff1603620011f9576040517f08c379a0000000000000000000000000000000000000000000000000000000008152600401620011f09062002d93565b60405180910390fd5b6200120481620014da565b50565b6000620012377f360894a13ba1a3210667c828492db98dca3e2076cc3735a920a3ca505d382bbc60001b620017a3565b60000160009054906101000a900473ffffffffffffffffffffffffffffffffffffffff16905090565b6200126a620013ec565b50565b6200129b7f4910fdfa16fed3260ed0e7147f7cc6da11a60208b5b9406d12a635614ffd914360001b620017ad565b60000160009054906101000a900460ff1615620012c357620012bd83620017b7565b620013e7565b8273ffffffffffffffffffffffffffffffffffffffff166352d1902d6040518163ffffffff1660e01b8152600401602060405180830381865afa9250505080156200132e57506040513d601f19601f820116820180604052508101906200132b919062002de6565b60015b62001370576040517f08c379a0000000000000000000000000000000000000000000000000000000008152600401620013679062002e8e565b60405180910390fd5b7f360894a13ba1a3210667c828492db98dca3e2076cc3735a920a3ca505d382bbc60001b8114620013d8576040517f08c379a0000000000000000000000000000000000000000000000000000000008152600401620013cf9062002f26565b60405180910390fd5b50620013e683838362001877565b5b505050565b620013f6620018a9565b73ffffffffffffffffffffffffffffffffffffffff166200141662000862565b73ffffffffffffffffffffffffffffffffffffffff16146200146f576040517f08c379a0000000000000000000000000000000000000000000000000000000008152600401620014669062002f98565b60405180910390fd5b565b6200147b620018b1565b6000606560006101000a81548160ff0219169083151502179055507f5db9ee0a495bf2e6ff9c91a7834c1ba4fdd244a5e8aa4e537bd38aeae4b073aa620014c1620018a9565b604051620014d0919062001eb6565b60405180910390a1565b6000603360009054906101000a900473ffffffffffffffffffffffffffffffffffffffff16905081603360006101000a81548173ffffffffffffffffffffffffffffffffffffffff021916908373ffffffffffffffffffffffffffffffffffffffff1602179055508173ffffffffffffffffffffffffffffffffffffffff168173ffffffffffffffffffffffffffffffffffffffff167f8be0079c531659141344cd1fd0a4f28419497f9722a3daafe3b4186f6b6457e060405160405180910390a35050565b6000808273ffffffffffffffffffffffffffffffffffffffff163b119050919050565b600060019054906101000a900460ff1662001615576040517f08c379a00000000000000000000000000000000000000000000000000000000081526004016200160c9062003030565b60405180910390fd5b6200161f620018ff565b565b600060019054906101000a900460ff1662001673576040517f08c379a00000000000000000000000000000000000000000000000000000000081526004016200166a9062003030565b60405180910390fd5b6200167d62001967565b565b600060019054906101000a900460ff16620016d1576040517f08c379a0000000000000000000000000000000000000000000000000000000008152600401620016c89062003030565b60405180910390fd5b565b620016dd6200173c565b6001606560006101000a81548160ff0219169083151502179055507f62e78cea01bee320cd4e420270b5ea74000d11b0c9f74754ebdbfc544b05a25862001723620018a9565b60405162001732919062001eb6565b60405180910390a1565b62001746620006bd565b1562001789576040517f08c379a00000000000000000000000000000000000000000000000000000000081526004016200178090620030a2565b60405180910390fd5b565b600081836200179b9190620030f3565b905092915050565b6000819050919050565b6000819050919050565b620017c281620015a0565b62001804576040517f08c379a0000000000000000000000000000000000000000000000000000000008152600401620017fb90620031a4565b60405180910390fd5b80620018337f360894a13ba1a3210667c828492db98dca3e2076cc3735a920a3ca505d382bbc60001b620017a3565b60000160006101000a81548173ffffffffffffffffffffffffffffffffffffffff021916908373ffffffffffffffffffffffffffffffffffffffff16021790555050565b6200188283620019d6565b600082511180620018905750805b15620018a457620018a2838362001a27565b505b505050565b600033905090565b620018bb620006bd565b620018fd576040517f08c379a0000000000000000000000000000000000000000000000000000000008152600401620018f49062003216565b60405180910390fd5b565b600060019054906101000a900460ff1662001951576040517f08c379a0000000000000000000000000000000000000000000000000000000008152600401620019489062003030565b60405180910390fd5b620019656200195f620018a9565b620014da565b565b600060019054906101000a900460ff16620019b9576040517f08c379a0000000000000000000000000000000000000000000000000000000008152600401620019b09062003030565b60405180910390fd5b6000606560006101000a81548160ff021916908315150217905550565b620019e181620017b7565b8073ffffffffffffffffffffffffffffffffffffffff167fbc7cd75a20ee27fd9adebab32041f755214dbc6bffa90cc0225b39da2e5c2d3b60405160405180910390a250565b606062001a3483620015a0565b62001a76576040517f08c379a000000000000000000000000000000000000000000000000000000000815260040162001a6d90620032ae565b60405180910390fd5b6000808473ffffffffffffffffffffffffffffffffffffffff168460405162001aa091906200331d565b600060405180830381855af49150503d806000811462001add576040519150601f19603f3d011682016040523d82523d6000602084013e62001ae2565b606091505b509150915062001b0d82826040518060600160405280602781526020016200572a6027913962001b17565b9250505092915050565b6060831562001b295782905062001b36565b62001b35838362001b3d565b5b9392505050565b60008251111562001b515781518083602001fd5b806040517f08c379a000000000000000000000000000000000000000000000000000000000815260040162001b879190620029ed565b60405180910390fd5b6040518060400160405280600290602082028036833780820191505090505090565b6123f3806200333783390190565b6000604051905090565b600080fd5b600080fd5b600073ffffffffffffffffffffffffffffffffffffffff82169050919050565b600062001c018262001bd4565b9050919050565b62001c138162001bf4565b811462001c1f57600080fd5b50565b60008135905062001c338162001c08565b92915050565b60006020828403121562001c525762001c5162001bca565b5b600062001c628482850162001c22565b91505092915050565b600080fd5b600080fd5b6000601f19601f8301169050919050565b7f4e487b7100000000000000000000000000000000000000000000000000000000600052604160045260246000fd5b62001cc08262001c75565b810181811067ffffffffffffffff8211171562001ce25762001ce162001c86565b5b80604052505050565b600062001cf762001bc0565b905062001d05828262001cb5565b919050565b600067ffffffffffffffff82111562001d285762001d2762001c86565b5b62001d338262001c75565b9050602081019050919050565b82818337600083830152505050565b600062001d6662001d608462001d0a565b62001ceb565b90508281526020810184848401111562001d855762001d8462001c70565b5b62001d9284828562001d40565b509392505050565b600082601f83011262001db25762001db162001c6b565b5b813562001dc484826020860162001d4f565b91505092915050565b6000806040838503121562001de75762001de662001bca565b5b600062001df78582860162001c22565b925050602083013567ffffffffffffffff81111562001e1b5762001e1a62001bcf565b5b62001e298582860162001d9a565b9150509250929050565b6000819050919050565b62001e488162001e33565b82525050565b600060208201905062001e65600083018462001e3d565b92915050565b60008115159050919050565b62001e828162001e6b565b82525050565b600060208201905062001e9f600083018462001e77565b92915050565b62001eb08162001bf4565b82525050565b600060208201905062001ecd600083018462001ea5565b92915050565b6000819050919050565b62001ee88162001ed3565b811462001ef457600080fd5b50565b60008135905062001f088162001edd565b92915050565b600062001f1b8262001bd4565b9050919050565b62001f2d8162001f0e565b811462001f3957600080fd5b50565b60008135905062001f4d8162001f22565b92915050565b60008060006060848603121562001f6f5762001f6e62001bca565b5b600062001f7f8682870162001ef7565b935050602062001f928682870162001c22565b925050604062001fa58682870162001f3c565b9150509250925092565b600060029050919050565b600081905092915050565b6000819050919050565b62001fda8162001bf4565b82525050565b600062001fee838362001fcf565b60208301905092915050565b6000602082019050919050565b620020128162001faf565b6200201e818462001fba565b92506200202b8262001fc5565b8060005b838110156200206257815162002046878262001fe0565b9650620020538362001ffa565b9250506001810190506200202f565b505050505050565b600060408201905062002081600083018462002007565b92915050565b600080fd5b600080fd5b600067ffffffffffffffff821115620020af57620020ae62001c86565b5b620020ba8262001c75565b9050602081019050919050565b6000620020de620020d88462002091565b62001ceb565b905082815260208101848484011115620020fd57620020fc62001c70565b5b6200210a84828562001d40565b509392505050565b600082601f8301126200212a576200212962001c6b565b5b81356200213c848260208601620020c7565b91505092915050565b600060a082840312156200215e576200215d62002087565b5b6200216a60a062001ceb565b905060006200217c8482850162001c22565b6000830152506020620021928482850162001ef7565b6020830152506040620021a88482850162001ef7565b6040830152506060620021be8482850162001ef7565b606083015250608082013567ffffffffffffffff811115620021e557620021e46200208c565b5b620021f38482850162002112565b60808301525092915050565b6000806040838503121562002219576200221862001bca565b5b6000620022298582860162001ef7565b925050602083013567ffffffffffffffff8111156200224d576200224c62001bcf565b5b6200225b8582860162002145565b9150509250929050565b6000602082840312156200227e576200227d62001bca565b5b60006200228e8482850162001ef7565b91505092915050565b600082825260208201905092915050565b7f46756e6374696f6e206d7573742062652063616c6c6564207468726f7567682060008201527f64656c656761746563616c6c0000000000000000000000000000000000000000602082015250565b600062002306602c8362002297565b91506200231382620022a8565b604082019050919050565b600060208201905081810360008301526200233981620022f7565b9050919050565b7f46756e6374696f6e206d7573742062652063616c6c6564207468726f7567682060008201527f6163746976652070726f78790000000000000000000000000000000000000000602082015250565b60006200239e602c8362002297565b9150620023ab8262002340565b604082019050919050565b60006020820190508181036000830152620023d1816200238f565b9050919050565b7f555550535570677261646561626c653a206d757374206e6f742062652063616c60008201527f6c6564207468726f7567682064656c656761746563616c6c0000000000000000602082015250565b60006200243660388362002297565b91506200244382620023d8565b604082019050919050565b60006020820190508181036000830152620024698162002427565b9050919050565b7f496e697469616c697a61626c653a20636f6e747261637420697320616c72656160008201527f647920696e697469616c697a6564000000000000000000000000000000000000602082015250565b6000620024ce602e8362002297565b9150620024db8262002470565b604082019050919050565b600060208201905081810360008301526200250181620024bf565b9050919050565b6000819050919050565b600060ff82169050919050565b6000819050919050565b60006200254a620025446200253e8462002508565b6200251f565b62002512565b9050919050565b6200255c8162002529565b82525050565b600060208201905062002579600083018462002551565b92915050565b7f5365727669636520494420697320696e76616c69640000000000000000000000600082015250565b6000620025b760158362002297565b9150620025c4826200257f565b602082019050919050565b60006020820190508181036000830152620025ea81620025a8565b9050919050565b7f56616c696461746f722061646472657373206973207265717569726564000000600082015250565b600062002629601d8362002297565b91506200263682620025f1565b602082019050919050565b600060208201905081810360008301526200265c816200261a565b9050919050565b6200266e8162001f0e565b82525050565b6200267f8162001ed3565b82525050565b60006040820190506200269c600083018562002663565b620026ab602083018462002674565b9392505050565b6000606082019050620026c9600083018662002674565b620026d8602083018562001ea5565b620026e7604083018462001ea5565b949350505050565b7f416d6f756e7420697320696e76616c6964000000000000000000000000000000600082015250565b60006200272760118362002297565b91506200273482620026ef565b602082019050919050565b600060208201905081810360008301526200275a8162002718565b9050919050565b7f4669617420616d6f756e7420697320696e76616c696400000000000000000000600082015250565b60006200279960168362002297565b9150620027a68262002761565b602082019050919050565b60006020820190508181036000830152620027cc816200278a565b9050919050565b7f46656520616e642077656920616d6f756e7420646f6e74206d6174636820766160008201527f6c75650000000000000000000000000000000000000000000000000000000000602082015250565b60006200283160238362002297565b91506200283e82620027d3565b604082019050919050565b60006020820190508181036000830152620028648162002822565b9050919050565b7f53657276696365204944206973206e6f7420737570706f727465640000000000600082015250565b6000620028a3601b8362002297565b9150620028b0826200286b565b602082019050919050565b60006020820190508181036000830152620028d68162002894565b9050919050565b7f56616c696461746f72206e6f7420666f756e6420666f7220736572766963652060008201527f4944000000000000000000000000000000000000000000000000000000000000602082015250565b60006200293b60228362002297565b91506200294882620028dd565b604082019050919050565b600060208201905081810360008301526200296e816200292c565b9050919050565b600081519050919050565b60005b83811015620029a057808201518184015260208101905062002983565b60008484015250505050565b6000620029b98262002975565b620029c5818562002297565b9350620029d781856020860162002980565b620029e28162001c75565b840191505092915050565b6000602082019050818103600083015262002a098184620029ac565b905092915050565b62002a1c8162001e6b565b811462002a2857600080fd5b50565b60008151905062002a3c8162002a11565b92915050565b60006020828403121562002a5b5762002a5a62001bca565b5b600062002a6b8482850162002a2b565b91505092915050565b7f5468652073657276696365206964656e746966696572206661696c656420746f60008201527f2076616c69646174650000000000000000000000000000000000000000000000602082015250565b600062002ad260298362002297565b915062002adf8262002a74565b604082019050919050565b6000602082019050818103600083015262002b058162002ac3565b9050919050565b62002b178162001ed3565b82525050565b600082825260208201905092915050565b600062002b3b8262002975565b62002b47818562002b1d565b935062002b5981856020860162002980565b62002b648162001c75565b840191505092915050565b600060a08301600083015162002b89600086018262001fcf565b50602083015162002b9e602086018262002b0c565b50604083015162002bb3604086018262002b0c565b50606083015162002bc8606086018262002b0c565b506080830151848203608086015262002be2828262002b2e565b9150508091505092915050565b6000602082019050818103600083015262002c0b818462002b6f565b905092915050565b7f53657276696365204944206973206e6f7420737570706f727465642e00000000600082015250565b600062002c4b601c8362002297565b915062002c588262002c13565b602082019050919050565b6000602082019050818103600083015262002c7e8162002c3c565b9050919050565b7f56616c696461746f72206e6f7420666f756e6420666f7220736572766963652060008201527f49442e0000000000000000000000000000000000000000000000000000000000602082015250565b600062002ce360238362002297565b915062002cf08262002c85565b604082019050919050565b6000602082019050818103600083015262002d168162002cd4565b9050919050565b7f4f776e61626c653a206e6577206f776e657220697320746865207a65726f206160008201527f6464726573730000000000000000000000000000000000000000000000000000602082015250565b600062002d7b60268362002297565b915062002d888262002d1d565b604082019050919050565b6000602082019050818103600083015262002dae8162002d6c565b9050919050565b62002dc08162001e33565b811462002dcc57600080fd5b50565b60008151905062002de08162002db5565b92915050565b60006020828403121562002dff5762002dfe62001bca565b5b600062002e0f8482850162002dcf565b91505092915050565b7f45524331393637557067726164653a206e657720696d706c656d656e7461746960008201527f6f6e206973206e6f742055555053000000000000000000000000000000000000602082015250565b600062002e76602e8362002297565b915062002e838262002e18565b604082019050919050565b6000602082019050818103600083015262002ea98162002e67565b9050919050565b7f45524331393637557067726164653a20756e737570706f727465642070726f7860008201527f6961626c65555549440000000000000000000000000000000000000000000000602082015250565b600062002f0e60298362002297565b915062002f1b8262002eb0565b604082019050919050565b6000602082019050818103600083015262002f418162002eff565b9050919050565b7f4f776e61626c653a2063616c6c6572206973206e6f7420746865206f776e6572600082015250565b600062002f8060208362002297565b915062002f8d8262002f48565b602082019050919050565b6000602082019050818103600083015262002fb38162002f71565b9050919050565b7f496e697469616c697a61626c653a20636f6e7472616374206973206e6f74206960008201527f6e697469616c697a696e67000000000000000000000000000000000000000000602082015250565b600062003018602b8362002297565b9150620030258262002fba565b604082019050919050565b600060208201905081810360008301526200304b8162003009565b9050919050565b7f5061757361626c653a2070617573656400000000000000000000000000000000600082015250565b60006200308a60108362002297565b9150620030978262003052565b602082019050919050565b60006020820190508181036000830152620030bd816200307b565b9050919050565b7f4e487b7100000000000000000000000000000000000000000000000000000000600052601160045260246000fd5b6000620031008262001ed3565b91506200310d8362001ed3565b9250828201905080821115620031285762003127620030c4565b5b92915050565b7f455243313936373a206e657720696d706c656d656e746174696f6e206973206e60008201527f6f74206120636f6e747261637400000000000000000000000000000000000000602082015250565b60006200318c602d8362002297565b915062003199826200312e565b604082019050919050565b60006020820190508181036000830152620031bf816200317d565b9050919050565b7f5061757361626c653a206e6f7420706175736564000000000000000000000000600082015250565b6000620031fe60148362002297565b91506200320b82620031c6565b602082019050919050565b600060208201905081810360008301526200323181620031ef565b9050919050565b7f416464726573733a2064656c65676174652063616c6c20746f206e6f6e2d636f60008201527f6e74726163740000000000000000000000000000000000000000000000000000602082015250565b60006200329660268362002297565b9150620032a38262003238565b604082019050919050565b60006020820190508181036000830152620032c98162003287565b9050919050565b600081519050919050565b600081905092915050565b6000620032f382620032d0565b620032ff8185620032db565b93506200331181856020860162002980565b80840191505092915050565b60006200332b8284620032e6565b91508190509291505056fe60806040523480156200001157600080fd5b50604051620023f3380380620023f38339818101604052810190620000379190620002d0565b620000576200004b6200015f60201b60201c565b6200016760201b60201c565b600073ffffffffffffffffffffffffffffffffffffffff168273ffffffffffffffffffffffffffffffffffffffff1603620000c9576040517f08c379a0000000000000000000000000000000000000000000000000000000008152600401620000c09062000378565b60405180910390fd5b600081116200010f576040517f08c379a00000000000000000000000000000000000000000000000000000000081526004016200010690620003ea565b60405180910390fd5b81600560006101000a81548173ffffffffffffffffffffffffffffffffffffffff021916908373ffffffffffffffffffffffffffffffffffffffff1602179055508060088190555050506200040c565b600033905090565b60008060009054906101000a900473ffffffffffffffffffffffffffffffffffffffff169050816000806101000a81548173ffffffffffffffffffffffffffffffffffffffff021916908373ffffffffffffffffffffffffffffffffffffffff1602179055508173ffffffffffffffffffffffffffffffffffffffff168173ffffffffffffffffffffffffffffffffffffffff167f8be0079c531659141344cd1fd0a4f28419497f9722a3daafe3b4186f6b6457e060405160405180910390a35050565b600080fd5b600073ffffffffffffffffffffffffffffffffffffffff82169050919050565b60006200025d8262000230565b9050919050565b6200026f8162000250565b81146200027b57600080fd5b50565b6000815190506200028f8162000264565b92915050565b6000819050919050565b620002aa8162000295565b8114620002b657600080fd5b50565b600081519050620002ca816200029f565b92915050565b60008060408385031215620002ea57620002e96200022b565b5b6000620002fa858286016200027e565b92505060206200030d85828601620002b9565b9150509250929050565b600082825260208201905092915050565b7f42656e656669636961727920697320746865207a65726f206164647265737300600082015250565b600062000360601f8362000317565b91506200036d8262000328565b602082019050919050565b60006020820190508181036000830152620003938162000351565b9050919050565b7f5365727669636520494420697320726571756972656400000000000000000000600082015250565b6000620003d260168362000317565b9150620003df826200039a565b602082019050919050565b600060208201905081810360008301526200040581620003c3565b9050919050565b611fd7806200041c6000396000f3fe6080604052600436106100915760003560e01c8063910eccae11610059578063910eccae146101575780639af6549a14610173578063a16c86f71461018a578063e3a9db1a146101b3578063f2fde38b146101f057610091565b80631d7664161461009657806334a4b877146100bf57806338af3eed146100ea578063715018a6146101155780638da5cb5b1461012c575b600080fd5b3480156100a257600080fd5b506100bd60048036038101906100b89190611297565b610219565b005b3480156100cb57600080fd5b506100d4610647565b6040516100e191906112ef565b60405180910390f35b3480156100f657600080fd5b506100ff610651565b60405161010c919061132b565b60405180910390f35b34801561012157600080fd5b5061012a61067b565b005b34801561013857600080fd5b5061014161068f565b60405161014e9190611355565b60405180910390f35b610171600480360381019061016c9190611418565b6106b8565b005b34801561017f57600080fd5b5061018861079d565b005b34801561019657600080fd5b506101b160048036038101906101ac919061148d565b61081e565b005b3480156101bf57600080fd5b506101da60048036038101906101d591906114ba565b61093f565b6040516101e791906112ef565b60405180910390f35b3480156101fc57600080fd5b50610217600480360381019061021291906114ba565b610988565b005b610221610a0b565b600061023e82608001518360600151610a8990919063ffffffff16565b90508060066000846040015173ffffffffffffffffffffffffffffffffffffffff1673ffffffffffffffffffffffffffffffffffffffff1681526020019081526020016000205410156102c6576040517f08c379a00000000000000000000000000000000000000000000000000000000081526004016102bd9061156a565b60405180910390fd5b600060018111156102da576102d961158a565b5b8260c0015160018111156102f1576102f061158a565b5b0361030957610304826040015182610a9f565b610643565b60018081111561031c5761031b61158a565b5b8260c0015160018111156103335761033261158a565b5b14610372577fa2db52a45d71264723caeac03c235d51bb30cff5e1ac71c97a5842ec94fbb6af6040516103659061162b565b60405180910390a1600080fd5b61038781600954610a8990919063ffffffff16565b6009819055506103e38160066000856040015173ffffffffffffffffffffffffffffffffffffffff1673ffffffffffffffffffffffffffffffffffffffff16815260200190815260200160002054610d2d90919063ffffffff16565b60066000846040015173ffffffffffffffffffffffffffffffffffffffff1673ffffffffffffffffffffffffffffffffffffffff16815260200190815260200160002081905550600060405180610100016040528060008152602001846020015173ffffffffffffffffffffffffffffffffffffffff16815260200184600001518152602001846040015173ffffffffffffffffffffffffffffffffffffffff16815260200184606001518152602001846080015181526020014281526020018460a0015181525090506104b76001610d43565b6104c16001610d59565b816000018181525050600460008154809291906104dd9061167a565b91905055508060026000836000015181526020019081526020016000206000820151816000015560208201518160010160006101000a81548173ffffffffffffffffffffffffffffffffffffffff021916908373ffffffffffffffffffffffffffffffffffffffff1602179055506040820151816002015560608201518160030160006101000a81548173ffffffffffffffffffffffffffffffffffffffff021916908373ffffffffffffffffffffffffffffffffffffffff1602179055506080820151816004015560a0820151816005015560c0820151816006015560e08201518160070190816105cf91906118d9565b5090505060036000826060015173ffffffffffffffffffffffffffffffffffffffff1673ffffffffffffffffffffffffffffffffffffffff16815260200190815260200160002081600001519080600181540180825580915050600190039060005260206000200160009091909190915055505b5050565b6000600854905090565b6000600560009054906101000a900473ffffffffffffffffffffffffffffffffffffffff16905090565b610683610a0b565b61068d6000610d67565b565b60008060009054906101000a900473ffffffffffffffffffffffffffffffffffffffff16905090565b6106c0610a0b565b600034905061071b60066000846000015173ffffffffffffffffffffffffffffffffffffffff1673ffffffffffffffffffffffffffffffffffffffff1681526020019081526020016000205482610a8990919063ffffffff16565b60066000846000015173ffffffffffffffffffffffffffffffffffffffff1673ffffffffffffffffffffffffffffffffffffffff168152602001908152602001600020819055507fed67a14cbf63ba1b4a97c34828bf43884df7ea6984cd5d2663b492dba12e40a3826040516107919190611ab3565b60405180910390a15050565b6000600954116107e2576040517f08c379a00000000000000000000000000000000000000000000000000000000081526004016107d990611b21565b60405180910390fd5b600060098190555061081c6009546107f8610651565b73ffffffffffffffffffffffffffffffffffffffff16610e2b90919063ffffffff16565b565b610826610a0b565b6000600760008373ffffffffffffffffffffffffffffffffffffffff1673ffffffffffffffffffffffffffffffffffffffff16815260200190815260200160002054116108a8576040517f08c379a000000000000000000000000000000000000000000000000000000000815260040161089f90611bb3565b60405180910390fd5b6000600760008373ffffffffffffffffffffffffffffffffffffffff1673ffffffffffffffffffffffffffffffffffffffff1681526020019081526020016000205490506000600760008473ffffffffffffffffffffffffffffffffffffffff1673ffffffffffffffffffffffffffffffffffffffff1681526020019081526020016000208190555061093b8282610f1f565b5050565b6000600660008373ffffffffffffffffffffffffffffffffffffffff1673ffffffffffffffffffffffffffffffffffffffff168152602001908152602001600020549050919050565b610990610a0b565b600073ffffffffffffffffffffffffffffffffffffffff168173ffffffffffffffffffffffffffffffffffffffff16036109ff576040517f08c379a00000000000000000000000000000000000000000000000000000000081526004016109f690611c45565b60405180910390fd5b610a0881610d67565b50565b610a13610fa2565b73ffffffffffffffffffffffffffffffffffffffff16610a3161068f565b73ffffffffffffffffffffffffffffffffffffffff1614610a87576040517f08c379a0000000000000000000000000000000000000000000000000000000008152600401610a7e90611cb1565b60405180910390fd5b565b60008183610a979190611cd1565b905092915050565b610aa7610a0b565b6000610afb82600760008673ffffffffffffffffffffffffffffffffffffffff1673ffffffffffffffffffffffffffffffffffffffff16815260200190815260200160002054610a8990919063ffffffff16565b905081600660008573ffffffffffffffffffffffffffffffffffffffff1673ffffffffffffffffffffffffffffffffffffffff168152602001908152602001600020541015610b7f576040517f08c379a0000000000000000000000000000000000000000000000000000000008152600401610b7690611d77565b60405180910390fd5b80600660008573ffffffffffffffffffffffffffffffffffffffff1673ffffffffffffffffffffffffffffffffffffffff168152602001908152602001600020541015610c01576040517f08c379a0000000000000000000000000000000000000000000000000000000008152600401610bf890611e09565b60405180910390fd5b610c5382600660008673ffffffffffffffffffffffffffffffffffffffff1673ffffffffffffffffffffffffffffffffffffffff16815260200190815260200160002054610d2d90919063ffffffff16565b600660008573ffffffffffffffffffffffffffffffffffffffff1673ffffffffffffffffffffffffffffffffffffffff1681526020019081526020016000208190555080600760008573ffffffffffffffffffffffffffffffffffffffff1673ffffffffffffffffffffffffffffffffffffffff168152602001908152602001600020819055508273ffffffffffffffffffffffffffffffffffffffff167f7fd36617a06b55977ffa06f8dc94b5ec0650c2b7b353fa22c7d0f211284dc74983604051610d2091906112ef565b60405180910390a2505050565b60008183610d3b9190611e29565b905092915050565b6001816000016000828254019250508190555050565b600081600001549050919050565b60008060009054906101000a900473ffffffffffffffffffffffffffffffffffffffff169050816000806101000a81548173ffffffffffffffffffffffffffffffffffffffff021916908373ffffffffffffffffffffffffffffffffffffffff1602179055508173ffffffffffffffffffffffffffffffffffffffff168173ffffffffffffffffffffffffffffffffffffffff167f8be0079c531659141344cd1fd0a4f28419497f9722a3daafe3b4186f6b6457e060405160405180910390a35050565b80471015610e6e576040517f08c379a0000000000000000000000000000000000000000000000000000000008152600401610e6590611ea9565b60405180910390fd5b60008273ffffffffffffffffffffffffffffffffffffffff1682604051610e9490611efa565b60006040518083038185875af1925050503d8060008114610ed1576040519150601f19603f3d011682016040523d82523d6000602084013e610ed6565b606091505b5050905080610f1a576040517f08c379a0000000000000000000000000000000000000000000000000000000008152600401610f1190611f81565b60405180910390fd5b505050565b610f27610a0b565b610f50818373ffffffffffffffffffffffffffffffffffffffff16610e2b90919063ffffffff16565b8173ffffffffffffffffffffffffffffffffffffffff167f3d97f39b86d061200a7834082f5926e58ec10fd85a9d6930f497729d5e6cc35c82604051610f9691906112ef565b60405180910390a25050565b600033905090565b6000604051905090565b600080fd5b600080fd5b600080fd5b6000601f19601f8301169050919050565b7f4e487b7100000000000000000000000000000000000000000000000000000000600052604160045260246000fd5b61100c82610fc3565b810181811067ffffffffffffffff8211171561102b5761102a610fd4565b5b80604052505050565b600061103e610faa565b905061104a8282611003565b919050565b600080fd5b6000819050919050565b61106781611054565b811461107257600080fd5b50565b6000813590506110848161105e565b92915050565b600073ffffffffffffffffffffffffffffffffffffffff82169050919050565b60006110b58261108a565b9050919050565b6110c5816110aa565b81146110d057600080fd5b50565b6000813590506110e2816110bc565b92915050565b600080fd5b600080fd5b600067ffffffffffffffff82111561110d5761110c610fd4565b5b61111682610fc3565b9050602081019050919050565b82818337600083830152505050565b6000611145611140846110f2565b611034565b905082815260208101848484011115611161576111606110ed565b5b61116c848285611123565b509392505050565b600082601f830112611189576111886110e8565b5b8135611199848260208601611132565b91505092915050565b600281106111af57600080fd5b50565b6000813590506111c1816111a2565b92915050565b600060e082840312156111dd576111dc610fbe565b5b6111e760e0611034565b905060006111f784828501611075565b600083015250602061120b848285016110d3565b602083015250604061121f848285016110d3565b604083015250606061123384828501611075565b606083015250608061124784828501611075565b60808301525060a082013567ffffffffffffffff81111561126b5761126a61104f565b5b61127784828501611174565b60a08301525060c061128b848285016111b2565b60c08301525092915050565b6000602082840312156112ad576112ac610fb4565b5b600082013567ffffffffffffffff8111156112cb576112ca610fb9565b5b6112d7848285016111c7565b91505092915050565b6112e981611054565b82525050565b600060208201905061130460008301846112e0565b92915050565b60006113158261108a565b9050919050565b6113258161130a565b82525050565b6000602082019050611340600083018461131c565b92915050565b61134f816110aa565b82525050565b600060208201905061136a6000830184611346565b92915050565b600060a0828403121561138657611385610fbe565b5b61139060a0611034565b905060006113a0848285016110d3565b60008301525060206113b484828501611075565b60208301525060406113c884828501611075565b60408301525060606113dc84828501611075565b606083015250608082013567ffffffffffffffff811115611400576113ff61104f565b5b61140c84828501611174565b60808301525092915050565b60006020828403121561142e5761142d610fb4565b5b600082013567ffffffffffffffff81111561144c5761144b610fb9565b5b61145884828501611370565b91505092915050565b61146a8161130a565b811461147557600080fd5b50565b60008135905061148781611461565b92915050565b6000602082840312156114a3576114a2610fb4565b5b60006114b184828501611478565b91505092915050565b6000602082840312156114d0576114cf610fb4565b5b60006114de848285016110d3565b91505092915050565b600082825260208201905092915050565b7f5468657265206973206e6f7420656e6f7567682062616c616e636520746f206260008201527f652072656c65617365642e000000000000000000000000000000000000000000602082015250565b6000611554602b836114e7565b915061155f826114f8565b604082019050919050565b6000602082019050818103600083015261158381611547565b9050919050565b7f4e487b7100000000000000000000000000000000000000000000000000000000600052602160045260246000fd5b7f46756c66696c6c6d656e7420726573756c7420776173207375626d697474656460008201527f2077697468207765697264207374617475730000000000000000000000000000602082015250565b60006116156032836114e7565b9150611620826115b9565b604082019050919050565b6000602082019050818103600083015261164481611608565b9050919050565b7f4e487b7100000000000000000000000000000000000000000000000000000000600052601160045260246000fd5b600061168582611054565b91507fffffffffffffffffffffffffffffffffffffffffffffffffffffffffffffffff82036116b7576116b661164b565b5b600182019050919050565b600081519050919050565b7f4e487b7100000000000000000000000000000000000000000000000000000000600052602260045260246000fd5b6000600282049050600182168061171457607f821691505b602082108103611727576117266116cd565b5b50919050565b60008190508160005260206000209050919050565b60006020601f8301049050919050565b600082821b905092915050565b60006008830261178f7fffffffffffffffffffffffffffffffffffffffffffffffffffffffffffffffff82611752565b6117998683611752565b95508019841693508086168417925050509392505050565b6000819050919050565b60006117d66117d16117cc84611054565b6117b1565b611054565b9050919050565b6000819050919050565b6117f0836117bb565b6118046117fc826117dd565b84845461175f565b825550505050565b600090565b61181961180c565b6118248184846117e7565b505050565b5b818110156118485761183d600082611811565b60018101905061182a565b5050565b601f82111561188d5761185e8161172d565b61186784611742565b81016020851015611876578190505b61188a61188285611742565b830182611829565b50505b505050565b600082821c905092915050565b60006118b060001984600802611892565b1980831691505092915050565b60006118c9838361189f565b9150826002028217905092915050565b6118e2826116c2565b67ffffffffffffffff8111156118fb576118fa610fd4565b5b61190582546116fc565b61191082828561184c565b600060209050601f8311600181146119435760008415611931578287015190505b61193b85826118bd565b8655506119a3565b601f1984166119518661172d565b60005b8281101561197957848901518255600182019150602085019450602081019050611954565b868310156119965784890151611992601f89168261189f565b8355505b6001600288020188555050505b505050505050565b6119b4816110aa565b82525050565b6119c381611054565b82525050565b600082825260208201905092915050565b60005b838110156119f85780820151818401526020810190506119dd565b60008484015250505050565b6000611a0f826116c2565b611a1981856119c9565b9350611a298185602086016119da565b611a3281610fc3565b840191505092915050565b600060a083016000830151611a5560008601826119ab565b506020830151611a6860208601826119ba565b506040830151611a7b60408601826119ba565b506060830151611a8e60608601826119ba565b5060808301518482036080860152611aa68282611a04565b9150508091505092915050565b60006020820190508181036000830152611acd8184611a3d565b905092915050565b7f5468657265206973206e6f2062616c616e636520746f2072656c656173652e00600082015250565b6000611b0b601f836114e7565b9150611b1682611ad5565b602082019050919050565b60006020820190508181036000830152611b3a81611afe565b9050919050565b7f41646472657373206973206e6f7420616c6c6f77656420616e7920726566756e60008201527f6473000000000000000000000000000000000000000000000000000000000000602082015250565b6000611b9d6022836114e7565b9150611ba882611b41565b604082019050919050565b60006020820190508181036000830152611bcc81611b90565b9050919050565b7f4f776e61626c653a206e6577206f776e657220697320746865207a65726f206160008201527f6464726573730000000000000000000000000000000000000000000000000000602082015250565b6000611c2f6026836114e7565b9150611c3a82611bd3565b604082019050919050565b60006020820190508181036000830152611c5e81611c22565b9050919050565b7f4f776e61626c653a2063616c6c6572206973206e6f7420746865206f776e6572600082015250565b6000611c9b6020836114e7565b9150611ca682611c65565b602082019050919050565b60006020820190508181036000830152611cca81611c8e565b9050919050565b6000611cdc82611054565b9150611ce783611054565b9250828201905080821115611cff57611cfe61164b565b5b92915050565b7f416d6f756e7420697320626967676572207468616e2074686520746f74616c2060008201527f696e20657363726f770000000000000000000000000000000000000000000000602082015250565b6000611d616029836114e7565b9150611d6c82611d05565b604082019050919050565b60006020820190508181036000830152611d9081611d54565b9050919050565b7f546f74616c20726566756e647320776f756c642062652062696767657220746860008201527f616e2074686520746f74616c20696e20657363726f7700000000000000000000602082015250565b6000611df36036836114e7565b9150611dfe82611d97565b604082019050919050565b60006020820190508181036000830152611e2281611de6565b9050919050565b6000611e3482611054565b9150611e3f83611054565b9250828203905081811115611e5757611e5661164b565b5b92915050565b7f416464726573733a20696e73756666696369656e742062616c616e6365000000600082015250565b6000611e93601d836114e7565b9150611e9e82611e5d565b602082019050919050565b60006020820190508181036000830152611ec281611e86565b9050919050565b600081905092915050565b50565b6000611ee4600083611ec9565b9150611eef82611ed4565b600082019050919050565b6000611f0582611ed7565b9150819050919050565b7f416464726573733a20756e61626c6520746f2073656e642076616c75652c207260008201527f6563697069656e74206d61792068617665207265766572746564000000000000602082015250565b6000611f6b603a836114e7565b9150611f7682611f0f565b604082019050919050565b60006020820190508181036000830152611f9a81611f5e565b905091905056fea2646970667358221220110b365decf2a1f1baee9cff33610eab9e700ae657e79b83afadd47dd4cd89d264736f6c63430008110033416464726573733a206c6f772d6c6576656c2064656c65676174652063616c6c206661696c6564a2646970667358221220ceb5dd1af05ad4fd4fa79e8f93085500ed50a5d54ae6851c4210f6f3764bfd3364736f6c63430008110033",
  "immutableReferences": {
    "720": [
      {
        "length": 32,
        "start": 781
      },
      {
        "length": 32,
        "start": 926
      },
      {
        "length": 32,
        "start": 1211
      },
      {
        "length": 32,
        "start": 1356
      },
      {
        "length": 32,
        "start": 1541
      }
    ]
  },
  "source": "// SPDX-License-Identifier: MIT\npragma solidity ^0.8.17;\n\nimport \"@openzeppelin/contracts-upgradeable/proxy/utils/UUPSUpgradeable.sol\";\nimport \"@openzeppelin/contracts-upgradeable/security/PausableUpgradeable.sol\";\nimport \"@openzeppelin/contracts-upgradeable/utils/math/SafeMathUpgradeable.sol\";\nimport \"@openzeppelin/contracts-upgradeable/utils/AddressUpgradeable.sol\";\nimport \"@openzeppelin/contracts-upgradeable/access/OwnableUpgradeable.sol\";\nimport \"@openzeppelin/contracts-upgradeable/proxy/utils/Initializable.sol\";\nimport \"./IIdentifierValidator.sol\";\nimport \"./TukiFulFillableV1.sol\";\n\n\n/**\n * ----- TukiRouter -----\n * This Smart Contract is intented to be user-facing.\n * Any valid address can request a fulfillment to a valid fulfillable.\n * -----------------------\n */\ncontract TukiRouterV1 is Initializable, OwnableUpgradeable, PausableUpgradeable, UUPSUpgradeable {\n    using AddressUpgradeable for address payable;\n    using SafeMathUpgradeable for uint256;\n\n    mapping(uint256 => TukiFulfillableV1) private _services;\n    mapping(uint256 => address) private _validators;\n\n    event ServiceRequested(\n        uint256 serviceID,\n        FulFillmentRequest request\n    );\n    event RefValidationFailed(uint256 serviceID, string serviceRef);\n    event ServiceAdded(uint256 serviceID, address escrow, address validator);\n  \n    /**\n     * @dev Constructor.\n     */\n    function initialize() public virtual initializer {\n        __Ownable_init();\n        __Pausable_init();\n        __UUPSUpgradeable_init();\n    }\n\n    function pause() public onlyOwner {\n        _pause();\n    }\n\n    function unpause() public onlyOwner {\n        _unpause();\n    }\n\n    /**\n     * @dev required for UUPS upgrades\n     **/\n    function _authorizeUpgrade(address newImplementation)\n        internal\n        onlyOwner\n        override\n    {}\n\n    /**\n     * requestService\n     * @return true if amount was transferred to the escrow.\n     * Pre-conditions:\n     * \n     * - verified identifier\n     * - valid fulfillable id\n     * - valid IIdentifierValidator contract\n     * - positive amount\n     * - positive fiat amount in precision 2\n     * - enough balance on the sender account\n     * \n     * \n     * Post-conditions:\n     * \n     * - DepositReceived Event emitted\n     * - payment due is trasferred to escrow contract until fulfillment\n     */\n    function requestService(uint256 serviceID, FulFillmentRequest memory request) \n        public \n        payable\n        whenNotPaused\n        returns (bool)\n    {\n        uint256 total_amount = request.weiAmount.add(request.feeAmount);\n        require(total_amount >= 0, \"Amount is invalid\");\n        require(request.fiatAmount >= 0, \"Fiat amount is invalid\");\n        require(total_amount == msg.value, \"Fee and wei amount dont match value\");\n        require(address(_services[serviceID]) != address(0), \"Service ID is not supported\");\n        require(address(_validators[serviceID]) != address(0), \"Validator not found for service ID\");\n        require(\n            IIdentifierValidator(_validators[serviceID]).matches(request.serviceRef),\n            \"The service identifier failed to validate\"\n        );\n        _services[serviceID].deposit{value: msg.value}(request);\n        return true;\n    }\n\n    /**\n     * @return the address for the service ID of a particular service.\n     *\n     */\n    function serviceOf(uint256 serviceID) public view returns (address[2] memory) {\n        require(address(_services[serviceID]) != address(0), \"Service ID is not supported.\");\n        require(address(_validators[serviceID]) != address(0), \"Validator not found for service ID.\");\n        return [address(_services[serviceID]), _validators[serviceID]];\n    }\n\n    /**\n     * @dev setService\n     * This method must only be called by an owner.\n     * It sets up a service escrow address and validator address.\n     * \n     * The escrow is intended to be a valid tuki escrow contract\n     * \n     * The validator address is intended to be a contract that validates the service's\n     * identifier. eg. phone number, bill number, etc.\n     * @return address[2]\n     */\n    function setService(\n        uint256 serviceID,\n        address validator,\n        address payable beneficiary\n    ) \n        public \n        virtual \n        onlyOwner \n        returns (address[2] memory) \n    {\n        require(serviceID > 0, \"Service ID is invalid\");\n        require(address(validator) != address(0), \"Validator address is required\");\n        TukiFulfillableV1 escrow = new TukiFulfillableV1(beneficiary, serviceID);\n        _services[serviceID] = escrow;\n        _validators[serviceID] = validator;\n        address escrowAddress = address(_services[serviceID]);\n        emit ServiceAdded(serviceID, escrowAddress, validator);\n        return [escrowAddress, _validators[serviceID]];\n    }\n}\n",
  "sourcePath": "/Users/luisoscargabriel/tuki-org/contracts/src/contracts/TukiRouterV1.sol",
  "compiler": {
    "name": "solc",
    "version": "0.8.17+commit.8df45f5f.Emscripten.clang"
  },
  "schemaVersion": "3.4.10",
  "updatedAt": "2022-10-31T08:31:48.081Z",
  "devdoc": {
    "kind": "dev",
    "methods": {
      "initialize()": {
        "details": "Constructor."
      },
      "owner()": {
        "details": "Returns the address of the current owner."
      },
      "paused()": {
        "details": "Returns true if the contract is paused, and false otherwise."
      },
      "proxiableUUID()": {
        "details": "Implementation of the ERC1822 {proxiableUUID} function. This returns the storage slot used by the implementation. It is used to validate the implementation's compatibility when performing an upgrade. IMPORTANT: A proxy pointing at a proxiable contract should not be considered proxiable itself, because this risks bricking a proxy that upgrades to it, by delegating to itself until out of gas. Thus it is critical that this function revert if invoked through a proxy. This is guaranteed by the `notDelegated` modifier."
      },
      "renounceOwnership()": {
        "details": "Leaves the contract without owner. It will not be possible to call `onlyOwner` functions anymore. Can only be called by the current owner. NOTE: Renouncing ownership will leave the contract without an owner, thereby removing any functionality that is only available to the owner."
      },
      "requestService(uint256,(address,uint256,uint256,uint256,string))": {
        "returns": {
          "_0": "true if amount was transferred to the escrow. Pre-conditions:  - verified identifier - valid fulfillable id - valid IIdentifierValidator contract - positive amount - positive fiat amount in precision 2 - enough balance on the sender account   Post-conditions:  - DepositReceived Event emitted - payment due is trasferred to escrow contract until fulfillment"
        }
      },
      "serviceOf(uint256)": {
        "returns": {
          "_0": "the address for the service ID of a particular service."
        }
      },
      "setService(uint256,address,address)": {
        "details": "setService This method must only be called by an owner. It sets up a service escrow address and validator address.  The escrow is intended to be a valid tuki escrow contract  The validator address is intended to be a contract that validates the service's identifier. eg. phone number, bill number, etc.",
        "returns": {
          "_0": "address[2]"
        }
      },
      "transferOwnership(address)": {
        "details": "Transfers ownership of the contract to a new account (`newOwner`). Can only be called by the current owner."
      },
      "upgradeTo(address)": {
        "details": "Upgrade the implementation of the proxy to `newImplementation`. Calls {_authorizeUpgrade}. Emits an {Upgraded} event."
      },
      "upgradeToAndCall(address,bytes)": {
        "details": "Upgrade the implementation of the proxy to `newImplementation`, and subsequently execute the function call encoded in `data`. Calls {_authorizeUpgrade}. Emits an {Upgraded} event."
      }
    },
    "version": 1
  },
  "userdoc": {
    "kind": "user",
    "methods": {
      "requestService(uint256,(address,uint256,uint256,uint256,string))": {
        "notice": "requestService"
      }
    },
    "notice": "----- TukiRouter ----- This Smart Contract is intented to be user-facing. Any valid address can request a fulfillment to a valid fulfillable. -----------------------",
    "version": 1
  }
}