{
  "contractName": "TukiFulfillableV1",
  "abi": [
    {
      "inputs": [
        {
          "internalType": "address payable",
          "name": "beneficiary_",
          "type": "address"
        },
        {
          "internalType": "uint256",
          "name": "serviceIdentifier_",
          "type": "uint256"
        }
      ],
      "stateMutability": "nonpayable",
      "type": "constructor"
    },
    {
      "anonymous": false,
      "inputs": [
        {
          "components": [
            {
              "internalType": "address",
              "name": "payer",
              "type": "address"
            },
            {
              "internalType": "uint256",
              "name": "weiAmount",
              "type": "uint256"
            },
            {
              "internalType": "uint256",
              "name": "fiatAmount",
              "type": "uint256"
            },
            {
              "internalType": "uint256",
              "name": "feeAmount",
              "type": "uint256"
            },
            {
              "internalType": "string",
              "name": "serviceRef",
              "type": "string"
            }
          ],
          "indexed": false,
          "internalType": "struct FulFillmentRequest",
          "name": "request",
          "type": "tuple"
        }
      ],
      "name": "DepositReceived",
      "type": "event"
    },
    {
      "anonymous": false,
      "inputs": [
        {
          "indexed": false,
          "internalType": "string",
          "name": "message",
          "type": "string"
        }
      ],
      "name": "LogFailure",
      "type": "event"
    },
    {
      "anonymous": false,
      "inputs": [
        {
          "indexed": true,
          "internalType": "address",
          "name": "previousOwner",
          "type": "address"
        },
        {
          "indexed": true,
          "internalType": "address",
          "name": "newOwner",
          "type": "address"
        }
      ],
      "name": "OwnershipTransferred",
      "type": "event"
    },
    {
      "anonymous": false,
      "inputs": [
        {
          "indexed": true,
          "internalType": "address",
          "name": "payee",
          "type": "address"
        },
        {
          "indexed": false,
          "internalType": "uint256",
          "name": "weiAmount",
          "type": "uint256"
        }
      ],
      "name": "RefundAuthorized",
      "type": "event"
    },
    {
      "anonymous": false,
      "inputs": [
        {
          "indexed": true,
          "internalType": "address",
          "name": "payee",
          "type": "address"
        },
        {
          "indexed": false,
          "internalType": "uint256",
          "name": "weiAmount",
          "type": "uint256"
        }
      ],
      "name": "RefundWithdrawn",
      "type": "event"
    },
    {
      "inputs": [],
      "name": "owner",
      "outputs": [
        {
          "internalType": "address",
          "name": "",
          "type": "address"
        }
      ],
      "stateMutability": "view",
      "type": "function"
    },
    {
      "inputs": [],
      "name": "renounceOwnership",
      "outputs": [],
      "stateMutability": "nonpayable",
      "type": "function"
    },
    {
      "inputs": [
        {
          "internalType": "address",
          "name": "newOwner",
          "type": "address"
        }
      ],
      "name": "transferOwnership",
      "outputs": [],
      "stateMutability": "nonpayable",
      "type": "function"
    },
    {
      "inputs": [],
      "name": "beneficiary",
      "outputs": [
        {
          "internalType": "address payable",
          "name": "",
          "type": "address"
        }
      ],
      "stateMutability": "view",
      "type": "function"
    },
    {
      "inputs": [],
      "name": "serviceID",
      "outputs": [
        {
          "internalType": "uint256",
          "name": "",
          "type": "uint256"
        }
      ],
      "stateMutability": "view",
      "type": "function"
    },
    {
      "inputs": [
        {
          "internalType": "address",
          "name": "payer",
          "type": "address"
        }
      ],
      "name": "depositsOf",
      "outputs": [
        {
          "internalType": "uint256",
          "name": "",
          "type": "uint256"
        }
      ],
      "stateMutability": "view",
      "type": "function"
    },
    {
      "inputs": [
        {
          "components": [
            {
              "internalType": "address",
              "name": "payer",
              "type": "address"
            },
            {
              "internalType": "uint256",
              "name": "weiAmount",
              "type": "uint256"
            },
            {
              "internalType": "uint256",
              "name": "fiatAmount",
              "type": "uint256"
            },
            {
              "internalType": "uint256",
              "name": "feeAmount",
              "type": "uint256"
            },
            {
              "internalType": "string",
              "name": "serviceRef",
              "type": "string"
            }
          ],
          "internalType": "struct FulFillmentRequest",
          "name": "fulfillmentRequest",
          "type": "tuple"
        }
      ],
      "name": "deposit",
      "outputs": [],
      "stateMutability": "payable",
      "type": "function"
    },
    {
      "inputs": [
        {
          "internalType": "address payable",
          "name": "refundee",
          "type": "address"
        }
      ],
      "name": "withdrawRefund",
      "outputs": [],
      "stateMutability": "nonpayable",
      "type": "function"
    },
    {
      "inputs": [
        {
          "components": [
            {
              "internalType": "uint256",
              "name": "id",
              "type": "uint256"
            },
            {
              "internalType": "address",
              "name": "fulfiller",
              "type": "address"
            },
            {
              "internalType": "address",
              "name": "payer",
              "type": "address"
            },
            {
              "internalType": "uint256",
              "name": "weiAmount",
              "type": "uint256"
            },
            {
              "internalType": "uint256",
              "name": "feeAmount",
              "type": "uint256"
            },
            {
              "internalType": "string",
              "name": "receiptURI",
              "type": "string"
            },
            {
              "internalType": "enum FulFillmentResultState",
              "name": "status",
              "type": "uint8"
            }
          ],
          "internalType": "struct FulFillmentResult",
          "name": "fulfillment",
          "type": "tuple"
        }
      ],
      "name": "registerFulfillment",
      "outputs": [],
      "stateMutability": "nonpayable",
      "type": "function"
    },
    {
      "inputs": [],
      "name": "beneficiaryWithdraw",
      "outputs": [],
      "stateMutability": "nonpayable",
      "type": "function"
    }
  ],
  "bytecode": "0x60806040523480156200001157600080fd5b50604051620023f3380380620023f38339818101604052810190620000379190620002d0565b620000576200004b6200015f60201b60201c565b6200016760201b60201c565b600073ffffffffffffffffffffffffffffffffffffffff168273ffffffffffffffffffffffffffffffffffffffff1603620000c9576040517f08c379a0000000000000000000000000000000000000000000000000000000008152600401620000c09062000378565b60405180910390fd5b600081116200010f576040517f08c379a00000000000000000000000000000000000000000000000000000000081526004016200010690620003ea565b60405180910390fd5b81600560006101000a81548173ffffffffffffffffffffffffffffffffffffffff021916908373ffffffffffffffffffffffffffffffffffffffff1602179055508060088190555050506200040c565b600033905090565b60008060009054906101000a900473ffffffffffffffffffffffffffffffffffffffff169050816000806101000a81548173ffffffffffffffffffffffffffffffffffffffff021916908373ffffffffffffffffffffffffffffffffffffffff1602179055508173ffffffffffffffffffffffffffffffffffffffff168173ffffffffffffffffffffffffffffffffffffffff167f8be0079c531659141344cd1fd0a4f28419497f9722a3daafe3b4186f6b6457e060405160405180910390a35050565b600080fd5b600073ffffffffffffffffffffffffffffffffffffffff82169050919050565b60006200025d8262000230565b9050919050565b6200026f8162000250565b81146200027b57600080fd5b50565b6000815190506200028f8162000264565b92915050565b6000819050919050565b620002aa8162000295565b8114620002b657600080fd5b50565b600081519050620002ca816200029f565b92915050565b60008060408385031215620002ea57620002e96200022b565b5b6000620002fa858286016200027e565b92505060206200030d85828601620002b9565b9150509250929050565b600082825260208201905092915050565b7f42656e656669636961727920697320746865207a65726f206164647265737300600082015250565b600062000360601f8362000317565b91506200036d8262000328565b602082019050919050565b60006020820190508181036000830152620003938162000351565b9050919050565b7f5365727669636520494420697320726571756972656400000000000000000000600082015250565b6000620003d260168362000317565b9150620003df826200039a565b602082019050919050565b600060208201905081810360008301526200040581620003c3565b9050919050565b611fd7806200041c6000396000f3fe6080604052600436106100915760003560e01c8063910eccae11610059578063910eccae146101575780639af6549a14610173578063a16c86f71461018a578063e3a9db1a146101b3578063f2fde38b146101f057610091565b80631d7664161461009657806334a4b877146100bf57806338af3eed146100ea578063715018a6146101155780638da5cb5b1461012c575b600080fd5b3480156100a257600080fd5b506100bd60048036038101906100b89190611297565b610219565b005b3480156100cb57600080fd5b506100d4610647565b6040516100e191906112ef565b60405180910390f35b3480156100f657600080fd5b506100ff610651565b60405161010c919061132b565b60405180910390f35b34801561012157600080fd5b5061012a61067b565b005b34801561013857600080fd5b5061014161068f565b60405161014e9190611355565b60405180910390f35b610171600480360381019061016c9190611418565b6106b8565b005b34801561017f57600080fd5b5061018861079d565b005b34801561019657600080fd5b506101b160048036038101906101ac919061148d565b61081e565b005b3480156101bf57600080fd5b506101da60048036038101906101d591906114ba565b61093f565b6040516101e791906112ef565b60405180910390f35b3480156101fc57600080fd5b50610217600480360381019061021291906114ba565b610988565b005b610221610a0b565b600061023e82608001518360600151610a8990919063ffffffff16565b90508060066000846040015173ffffffffffffffffffffffffffffffffffffffff1673ffffffffffffffffffffffffffffffffffffffff1681526020019081526020016000205410156102c6576040517f08c379a00000000000000000000000000000000000000000000000000000000081526004016102bd9061156a565b60405180910390fd5b600060018111156102da576102d961158a565b5b8260c0015160018111156102f1576102f061158a565b5b0361030957610304826040015182610a9f565b610643565b60018081111561031c5761031b61158a565b5b8260c0015160018111156103335761033261158a565b5b14610372577fa2db52a45d71264723caeac03c235d51bb30cff5e1ac71c97a5842ec94fbb6af6040516103659061162b565b60405180910390a1600080fd5b61038781600954610a8990919063ffffffff16565b6009819055506103e38160066000856040015173ffffffffffffffffffffffffffffffffffffffff1673ffffffffffffffffffffffffffffffffffffffff16815260200190815260200160002054610d2d90919063ffffffff16565b60066000846040015173ffffffffffffffffffffffffffffffffffffffff1673ffffffffffffffffffffffffffffffffffffffff16815260200190815260200160002081905550600060405180610100016040528060008152602001846020015173ffffffffffffffffffffffffffffffffffffffff16815260200184600001518152602001846040015173ffffffffffffffffffffffffffffffffffffffff16815260200184606001518152602001846080015181526020014281526020018460a0015181525090506104b76001610d43565b6104c16001610d59565b816000018181525050600460008154809291906104dd9061167a565b91905055508060026000836000015181526020019081526020016000206000820151816000015560208201518160010160006101000a81548173ffffffffffffffffffffffffffffffffffffffff021916908373ffffffffffffffffffffffffffffffffffffffff1602179055506040820151816002015560608201518160030160006101000a81548173ffffffffffffffffffffffffffffffffffffffff021916908373ffffffffffffffffffffffffffffffffffffffff1602179055506080820151816004015560a0820151816005015560c0820151816006015560e08201518160070190816105cf91906118d9565b5090505060036000826060015173ffffffffffffffffffffffffffffffffffffffff1673ffffffffffffffffffffffffffffffffffffffff16815260200190815260200160002081600001519080600181540180825580915050600190039060005260206000200160009091909190915055505b5050565b6000600854905090565b6000600560009054906101000a900473ffffffffffffffffffffffffffffffffffffffff16905090565b610683610a0b565b61068d6000610d67565b565b60008060009054906101000a900473ffffffffffffffffffffffffffffffffffffffff16905090565b6106c0610a0b565b600034905061071b60066000846000015173ffffffffffffffffffffffffffffffffffffffff1673ffffffffffffffffffffffffffffffffffffffff1681526020019081526020016000205482610a8990919063ffffffff16565b60066000846000015173ffffffffffffffffffffffffffffffffffffffff1673ffffffffffffffffffffffffffffffffffffffff168152602001908152602001600020819055507fed67a14cbf63ba1b4a97c34828bf43884df7ea6984cd5d2663b492dba12e40a3826040516107919190611ab3565b60405180910390a15050565b6000600954116107e2576040517f08c379a00000000000000000000000000000000000000000000000000000000081526004016107d990611b21565b60405180910390fd5b600060098190555061081c6009546107f8610651565b73ffffffffffffffffffffffffffffffffffffffff16610e2b90919063ffffffff16565b565b610826610a0b565b6000600760008373ffffffffffffffffffffffffffffffffffffffff1673ffffffffffffffffffffffffffffffffffffffff16815260200190815260200160002054116108a8576040517f08c379a000000000000000000000000000000000000000000000000000000000815260040161089f90611bb3565b60405180910390fd5b6000600760008373ffffffffffffffffffffffffffffffffffffffff1673ffffffffffffffffffffffffffffffffffffffff1681526020019081526020016000205490506000600760008473ffffffffffffffffffffffffffffffffffffffff1673ffffffffffffffffffffffffffffffffffffffff1681526020019081526020016000208190555061093b8282610f1f565b5050565b6000600660008373ffffffffffffffffffffffffffffffffffffffff1673ffffffffffffffffffffffffffffffffffffffff168152602001908152602001600020549050919050565b610990610a0b565b600073ffffffffffffffffffffffffffffffffffffffff168173ffffffffffffffffffffffffffffffffffffffff16036109ff576040517f08c379a00000000000000000000000000000000000000000000000000000000081526004016109f690611c45565b60405180910390fd5b610a0881610d67565b50565b610a13610fa2565b73ffffffffffffffffffffffffffffffffffffffff16610a3161068f565b73ffffffffffffffffffffffffffffffffffffffff1614610a87576040517f08c379a0000000000000000000000000000000000000000000000000000000008152600401610a7e90611cb1565b60405180910390fd5b565b60008183610a979190611cd1565b905092915050565b610aa7610a0b565b6000610afb82600760008673ffffffffffffffffffffffffffffffffffffffff1673ffffffffffffffffffffffffffffffffffffffff16815260200190815260200160002054610a8990919063ffffffff16565b905081600660008573ffffffffffffffffffffffffffffffffffffffff1673ffffffffffffffffffffffffffffffffffffffff168152602001908152602001600020541015610b7f576040517f08c379a0000000000000000000000000000000000000000000000000000000008152600401610b7690611d77565b60405180910390fd5b80600660008573ffffffffffffffffffffffffffffffffffffffff1673ffffffffffffffffffffffffffffffffffffffff168152602001908152602001600020541015610c01576040517f08c379a0000000000000000000000000000000000000000000000000000000008152600401610bf890611e09565b60405180910390fd5b610c5382600660008673ffffffffffffffffffffffffffffffffffffffff1673ffffffffffffffffffffffffffffffffffffffff16815260200190815260200160002054610d2d90919063ffffffff16565b600660008573ffffffffffffffffffffffffffffffffffffffff1673ffffffffffffffffffffffffffffffffffffffff1681526020019081526020016000208190555080600760008573ffffffffffffffffffffffffffffffffffffffff1673ffffffffffffffffffffffffffffffffffffffff168152602001908152602001600020819055508273ffffffffffffffffffffffffffffffffffffffff167f7fd36617a06b55977ffa06f8dc94b5ec0650c2b7b353fa22c7d0f211284dc74983604051610d2091906112ef565b60405180910390a2505050565b60008183610d3b9190611e29565b905092915050565b6001816000016000828254019250508190555050565b600081600001549050919050565b60008060009054906101000a900473ffffffffffffffffffffffffffffffffffffffff169050816000806101000a81548173ffffffffffffffffffffffffffffffffffffffff021916908373ffffffffffffffffffffffffffffffffffffffff1602179055508173ffffffffffffffffffffffffffffffffffffffff168173ffffffffffffffffffffffffffffffffffffffff167f8be0079c531659141344cd1fd0a4f28419497f9722a3daafe3b4186f6b6457e060405160405180910390a35050565b80471015610e6e576040517f08c379a0000000000000000000000000000000000000000000000000000000008152600401610e6590611ea9565b60405180910390fd5b60008273ffffffffffffffffffffffffffffffffffffffff1682604051610e9490611efa565b60006040518083038185875af1925050503d8060008114610ed1576040519150601f19603f3d011682016040523d82523d6000602084013e610ed6565b606091505b5050905080610f1a576040517f08c379a0000000000000000000000000000000000000000000000000000000008152600401610f1190611f81565b60405180910390fd5b505050565b610f27610a0b565b610f50818373ffffffffffffffffffffffffffffffffffffffff16610e2b90919063ffffffff16565b8173ffffffffffffffffffffffffffffffffffffffff167f3d97f39b86d061200a7834082f5926e58ec10fd85a9d6930f497729d5e6cc35c82604051610f9691906112ef565b60405180910390a25050565b600033905090565b6000604051905090565b600080fd5b600080fd5b600080fd5b6000601f19601f8301169050919050565b7f4e487b7100000000000000000000000000000000000000000000000000000000600052604160045260246000fd5b61100c82610fc3565b810181811067ffffffffffffffff8211171561102b5761102a610fd4565b5b80604052505050565b600061103e610faa565b905061104a8282611003565b919050565b600080fd5b6000819050919050565b61106781611054565b811461107257600080fd5b50565b6000813590506110848161105e565b92915050565b600073ffffffffffffffffffffffffffffffffffffffff82169050919050565b60006110b58261108a565b9050919050565b6110c5816110aa565b81146110d057600080fd5b50565b6000813590506110e2816110bc565b92915050565b600080fd5b600080fd5b600067ffffffffffffffff82111561110d5761110c610fd4565b5b61111682610fc3565b9050602081019050919050565b82818337600083830152505050565b6000611145611140846110f2565b611034565b905082815260208101848484011115611161576111606110ed565b5b61116c848285611123565b509392505050565b600082601f830112611189576111886110e8565b5b8135611199848260208601611132565b91505092915050565b600281106111af57600080fd5b50565b6000813590506111c1816111a2565b92915050565b600060e082840312156111dd576111dc610fbe565b5b6111e760e0611034565b905060006111f784828501611075565b600083015250602061120b848285016110d3565b602083015250604061121f848285016110d3565b604083015250606061123384828501611075565b606083015250608061124784828501611075565b60808301525060a082013567ffffffffffffffff81111561126b5761126a61104f565b5b61127784828501611174565b60a08301525060c061128b848285016111b2565b60c08301525092915050565b6000602082840312156112ad576112ac610fb4565b5b600082013567ffffffffffffffff8111156112cb576112ca610fb9565b5b6112d7848285016111c7565b91505092915050565b6112e981611054565b82525050565b600060208201905061130460008301846112e0565b92915050565b60006113158261108a565b9050919050565b6113258161130a565b82525050565b6000602082019050611340600083018461131c565b92915050565b61134f816110aa565b82525050565b600060208201905061136a6000830184611346565b92915050565b600060a0828403121561138657611385610fbe565b5b61139060a0611034565b905060006113a0848285016110d3565b60008301525060206113b484828501611075565b60208301525060406113c884828501611075565b60408301525060606113dc84828501611075565b606083015250608082013567ffffffffffffffff811115611400576113ff61104f565b5b61140c84828501611174565b60808301525092915050565b60006020828403121561142e5761142d610fb4565b5b600082013567ffffffffffffffff81111561144c5761144b610fb9565b5b61145884828501611370565b91505092915050565b61146a8161130a565b811461147557600080fd5b50565b60008135905061148781611461565b92915050565b6000602082840312156114a3576114a2610fb4565b5b60006114b184828501611478565b91505092915050565b6000602082840312156114d0576114cf610fb4565b5b60006114de848285016110d3565b91505092915050565b600082825260208201905092915050565b7f5468657265206973206e6f7420656e6f7567682062616c616e636520746f206260008201527f652072656c65617365642e000000000000000000000000000000000000000000602082015250565b6000611554602b836114e7565b915061155f826114f8565b604082019050919050565b6000602082019050818103600083015261158381611547565b9050919050565b7f4e487b7100000000000000000000000000000000000000000000000000000000600052602160045260246000fd5b7f46756c66696c6c6d656e7420726573756c7420776173207375626d697474656460008201527f2077697468207765697264207374617475730000000000000000000000000000602082015250565b60006116156032836114e7565b9150611620826115b9565b604082019050919050565b6000602082019050818103600083015261164481611608565b9050919050565b7f4e487b7100000000000000000000000000000000000000000000000000000000600052601160045260246000fd5b600061168582611054565b91507fffffffffffffffffffffffffffffffffffffffffffffffffffffffffffffffff82036116b7576116b661164b565b5b600182019050919050565b600081519050919050565b7f4e487b7100000000000000000000000000000000000000000000000000000000600052602260045260246000fd5b6000600282049050600182168061171457607f821691505b602082108103611727576117266116cd565b5b50919050565b60008190508160005260206000209050919050565b60006020601f8301049050919050565b600082821b905092915050565b60006008830261178f7fffffffffffffffffffffffffffffffffffffffffffffffffffffffffffffffff82611752565b6117998683611752565b95508019841693508086168417925050509392505050565b6000819050919050565b60006117d66117d16117cc84611054565b6117b1565b611054565b9050919050565b6000819050919050565b6117f0836117bb565b6118046117fc826117dd565b84845461175f565b825550505050565b600090565b61181961180c565b6118248184846117e7565b505050565b5b818110156118485761183d600082611811565b60018101905061182a565b5050565b601f82111561188d5761185e8161172d565b61186784611742565b81016020851015611876578190505b61188a61188285611742565b830182611829565b50505b505050565b600082821c905092915050565b60006118b060001984600802611892565b1980831691505092915050565b60006118c9838361189f565b9150826002028217905092915050565b6118e2826116c2565b67ffffffffffffffff8111156118fb576118fa610fd4565b5b61190582546116fc565b61191082828561184c565b600060209050601f8311600181146119435760008415611931578287015190505b61193b85826118bd565b8655506119a3565b601f1984166119518661172d565b60005b8281101561197957848901518255600182019150602085019450602081019050611954565b868310156119965784890151611992601f89168261189f565b8355505b6001600288020188555050505b505050505050565b6119b4816110aa565b82525050565b6119c381611054565b82525050565b600082825260208201905092915050565b60005b838110156119f85780820151818401526020810190506119dd565b60008484015250505050565b6000611a0f826116c2565b611a1981856119c9565b9350611a298185602086016119da565b611a3281610fc3565b840191505092915050565b600060a083016000830151611a5560008601826119ab565b506020830151611a6860208601826119ba565b506040830151611a7b60408601826119ba565b506060830151611a8e60608601826119ba565b5060808301518482036080860152611aa68282611a04565b9150508091505092915050565b60006020820190508181036000830152611acd8184611a3d565b905092915050565b7f5468657265206973206e6f2062616c616e636520746f2072656c656173652e00600082015250565b6000611b0b601f836114e7565b9150611b1682611ad5565b602082019050919050565b60006020820190508181036000830152611b3a81611afe565b9050919050565b7f41646472657373206973206e6f7420616c6c6f77656420616e7920726566756e60008201527f6473000000000000000000000000000000000000000000000000000000000000602082015250565b6000611b9d6022836114e7565b9150611ba882611b41565b604082019050919050565b60006020820190508181036000830152611bcc81611b90565b9050919050565b7f4f776e61626c653a206e6577206f776e657220697320746865207a65726f206160008201527f6464726573730000000000000000000000000000000000000000000000000000602082015250565b6000611c2f6026836114e7565b9150611c3a82611bd3565b604082019050919050565b60006020820190508181036000830152611c5e81611c22565b9050919050565b7f4f776e61626c653a2063616c6c6572206973206e6f7420746865206f776e6572600082015250565b6000611c9b6020836114e7565b9150611ca682611c65565b602082019050919050565b60006020820190508181036000830152611cca81611c8e565b9050919050565b6000611cdc82611054565b9150611ce783611054565b9250828201905080821115611cff57611cfe61164b565b5b92915050565b7f416d6f756e7420697320626967676572207468616e2074686520746f74616c2060008201527f696e20657363726f770000000000000000000000000000000000000000000000602082015250565b6000611d616029836114e7565b9150611d6c82611d05565b604082019050919050565b60006020820190508181036000830152611d9081611d54565b9050919050565b7f546f74616c20726566756e647320776f756c642062652062696767657220746860008201527f616e2074686520746f74616c20696e20657363726f7700000000000000000000602082015250565b6000611df36036836114e7565b9150611dfe82611d97565b604082019050919050565b60006020820190508181036000830152611e2281611de6565b9050919050565b6000611e3482611054565b9150611e3f83611054565b9250828203905081811115611e5757611e5661164b565b5b92915050565b7f416464726573733a20696e73756666696369656e742062616c616e6365000000600082015250565b6000611e93601d836114e7565b9150611e9e82611e5d565b602082019050919050565b60006020820190508181036000830152611ec281611e86565b9050919050565b600081905092915050565b50565b6000611ee4600083611ec9565b9150611eef82611ed4565b600082019050919050565b6000611f0582611ed7565b9150819050919050565b7f416464726573733a20756e61626c6520746f2073656e642076616c75652c207260008201527f6563697069656e74206d61792068617665207265766572746564000000000000602082015250565b6000611f6b603a836114e7565b9150611f7682611f0f565b604082019050919050565b60006020820190508181036000830152611f9a81611f5e565b905091905056fea2646970667358221220033503d4315bfd4f82bd10bdfbd5fb074e5b76805b4640ecc3483ba008b8bc7564736f6c63430008110033",
  "immutableReferences": {},
  "source": "// SPDX-License-Identifier: MIT\n// Inspired in:\n// OpenZeppelin Contracts v4.4.1 (utils/escrow/Escrow.sol)\n\npragma solidity 0.8.17;\n\nimport \"@openzeppelin/contracts/utils/math/SafeMath.sol\";\nimport \"@openzeppelin/contracts/utils/Address.sol\";\nimport \"@openzeppelin/contracts/access/Ownable.sol\";\nimport \"@openzeppelin/contracts/utils/Counters.sol\";\n\n\n/**\n* enum with states for fulfillment results.\n */\nenum FulFillmentResultState {\n    FAILED,\n    SUCCESS\n}\n\n/**\n* @dev The fulfiller will accept FulfillmentResults submitted to it,\n* and if valid, will persist them on-chain as FulfillmentRecords\n*/\nstruct FulFillmentRecord {\n    uint256 id; // auto-incremental, generated in contract\n    address fulfiller;\n    uint256 externalID; // id coming from the fulfiller as proof.\n    address payer; // address of payer\n    uint256 weiAmount; // address of the subject, the recipient of a successful verification\n    uint256 feeAmount; // feeAmount charged in wei\n    uint256 entryTime; // time at which the fulfillment was submitted\n    string receiptURI; // the fulfillment external receipt uri.\n}\n\n/**\n* @dev A fulfiller will submit a fulfillment result in this format.\n*/\nstruct FulFillmentResult {\n    uint256 id; // id coming from the fulfiller as proof.\n    address fulfiller; //address of the fulfiller that initiated the rsult\n    address payer; // address of payer\n    uint256 weiAmount; // address of the subject, the recipient of a successful verification\n    uint256 feeAmount; // feeAmount charged in wei\n    string receiptURI; // the fulfillment external receipt uri. \n    FulFillmentResultState status;   \n}\n\n/**\n* @dev Anybody can submit a fulfillment request through a router.\n*/\nstruct FulFillmentRequest {\n    address payer; // address of payer\n    uint256 weiAmount; // address of the subject, the recipient of a successful verification\n    uint256 fiatAmount; // fiat amount to be charged for the fufillable\n    uint256 feeAmount; // fee amount in wei\n    string serviceRef; // identifier required to route the payment to the user's destination\n}\n\n/**\n * @title TukiFulfillableV1\n * @dev Base escrow contract, holds funds designated for a beneficiary until they\n * withdraw them or a refund is emitted.\n *\n * Intended usage: This contract (and derived escrow contracts) should be a\n * standalone contract, that only interacts with the contract that instantiated\n * it. That way, it is guaranteed that all Ether will be handled according to\n * the `Escrow` rules, and there is no need to check for payable functions or\n * transfers in the inheritance tree. The contract that uses the escrow as its\n * payment method should be its owner, and provide public methods redirecting\n * to the escrow's deposit and withdraw.\n */\ncontract TukiFulfillableV1 is Ownable {\n    using Address for address payable;\n    using SafeMath for uint256;\n    using Counters for Counters.Counter;\n\n    /**********************/\n    /* EVENT DECLARATIONS */\n    /**********************/\n\n    event DepositReceived(FulFillmentRequest request);\n    event RefundWithdrawn(address indexed payee, uint256 weiAmount);\n    event RefundAuthorized(address indexed payee, uint256 weiAmount);\n    event LogFailure(string message);\n\n    /*****************************/\n    /* STATE VARIABLES           */\n    /*****************************/\n\n    //Auto-incrementable id storage\n    Counters.Counter private _fulfillmentIds;\n\n    // All fulfillment records keyed by their ids\n    mapping(uint256 => FulFillmentRecord) private _fulfillmentRecords;\n\n    // Deposits mapped to subject addresses\n    mapping(address => uint256[]) private _fulfillmentRecordsForSubject;\n\n    // Total deposits registered\n    uint256 private _fulfillmentRecordCount;\n\n    // The beneficiary address of the contract which will receive released funds.\n    address payable private _beneficiary;\n\n    mapping(address => uint256) private _deposits;\n    mapping(address => uint256) private _authorized_refunds;\n\n    //The Service Identifier to its corresponding Fulfillable product\n    uint256 private _serviceIdentifier;\n\n    // The amount that is available to be released by the beneficiary.\n    uint256 _releaseablePool;\n\n    /*****************************/\n    /* FULFILLER LOGIC           */\n    /*****************************/\n\n    constructor(address payable beneficiary_, uint256 serviceIdentifier_)\n    {\n        require(address(beneficiary_) != address(0), \"Beneficiary is the zero address\");\n        require(serviceIdentifier_ > 0, \"Service ID is required\");\n        _beneficiary = beneficiary_;\n        _serviceIdentifier = serviceIdentifier_;\n    }\n\n    /**\n     * @return The beneficiary of the escrow.\n     */\n    function beneficiary() public view virtual returns (address payable) {\n        return _beneficiary;\n    }\n\n    /**\n     * @return The service ID of the escrow.\n     */\n    function serviceID() public view virtual returns (uint256) {\n        return _serviceIdentifier;\n    }\n\n    /**\n     * @return Total deposits from a payer\n     */\n    function depositsOf(address payer) public view returns (uint256) {\n        return _deposits[payer];\n    }\n\n    /**\n     * @dev Stores the sent amount as credit to be claimed.\n     * @param fulfillmentRequest The destination address of the funds.\n     */\n    function deposit(FulFillmentRequest memory fulfillmentRequest) public payable virtual onlyOwner {\n        uint256 amount = msg.value;\n        _deposits[fulfillmentRequest.payer] = amount.add(_deposits[fulfillmentRequest.payer]);\n        emit DepositReceived(fulfillmentRequest);\n    }\n\n    /**\n     * @dev Refund accumulated balance for a refundee, forwarding all gas to the\n     * recipient.\n     *\n     * WARNING: Forwarding all gas opens the door to reentrancy vulnerabilities.\n     * Make sure you trust the recipient, or are either following the\n     * checks-effects-interactions pattern or using {ReentrancyGuard}.\n     *\n     * @param refundee The address whose funds will be withdrawn and transferred to.\n     */\n    function withdrawRefund(address payable refundee) public virtual onlyOwner {\n        require(_authorized_refunds[refundee] > 0, \"Address is not allowed any refunds\");\n        uint256 refund_amount = _authorized_refunds[refundee];\n        _authorized_refunds[refundee] = 0;\n        _withdrawRefund(refundee, refund_amount);\n    }\n\n    /**\n    * @dev internal function to withraw.\n    * Should only be called when previously authorized.\n    *\n    * Will emit a RefundWithdrawn event on success.\n    * \n    * @param refundee The address to send the value to.\n    */\n    function _withdrawRefund(address payable refundee, uint256 amount) internal onlyOwner {\n        refundee.sendValue(amount); \n        emit RefundWithdrawn(refundee, amount);\n    }\n\n    /**\n     * @dev Allows for refunds to take place.\n     * \n     * @param refundee the record to be\n     * @param weiAmount the amount to be authorized.\n     */\n    function _authorizeRefund(address refundee, uint256 weiAmount) internal onlyOwner {\n        uint256 total_refunds = _authorized_refunds[refundee].add(weiAmount);\n        require(\n            _deposits[refundee] >= weiAmount,\n            \"Amount is bigger than the total in escrow\"\n        );\n        require(\n            _deposits[refundee] >= total_refunds,\n            \"Total refunds would be bigger than the total in escrow\"\n        );\n        _deposits[refundee] = _deposits[refundee].sub(weiAmount);\n        _authorized_refunds[refundee] = total_refunds;\n        emit RefundAuthorized(refundee, weiAmount);\n    }\n\n    /**\n     * @dev The fulfiller registers a fulfillment.\n     *\n     * We need to verify the amount of the fulfillment is actually available to release.\n     * Then we can enrich the result with an auto-incremental unique ID.\n     * and the timestamp when the record get inserted.\n     *\n     * If the fulfillment has failed:\n     * - a refund will be authorized for a later withdrawal.\n     *\n     * If these verifications pass:\n     * - add the amount fulfilled to the release pool.\n     * - substract the amount from the payer's deposits.\n     * - persist this as a FulFillmentRecord to the blockchain.\n     *\n     * @param fulfillment the fulfillment result attached to it.\n     */\n    function registerFulfillment(FulFillmentResult memory fulfillment) public virtual onlyOwner {\n        uint256 total_amount = fulfillment.weiAmount.add(fulfillment.feeAmount);\n        require(_deposits[fulfillment.payer] >= total_amount, \"There is not enough balance to be released.\");\n        if(fulfillment.status == FulFillmentResultState.FAILED) {\n            _authorizeRefund(fulfillment.payer, total_amount);\n        } else if(fulfillment.status != FulFillmentResultState.SUCCESS) {\n            // something weird happened. must better log this.\n            emit LogFailure(\"Fulfillment result was submitted with weird status\");\n            revert();\n        } else {\n            _releaseablePool = _releaseablePool.add(total_amount);\n            _deposits[fulfillment.payer] = _deposits[fulfillment.payer].sub(total_amount);\n            // create a FulfillmentRecord\n            FulFillmentRecord memory fulfillmentRecord = FulFillmentRecord({\n                id: 0,\n                externalID: fulfillment.id,\n                fulfiller: fulfillment.fulfiller,\n                entryTime: block.timestamp,\n                payer: fulfillment.payer,\n                weiAmount: fulfillment.weiAmount,\n                feeAmount: fulfillment.feeAmount, \n                receiptURI: fulfillment.receiptURI\n            });\n            _fulfillmentIds.increment();\n            fulfillmentRecord.id = _fulfillmentIds.current();\n            _fulfillmentRecordCount++;\n            _fulfillmentRecords[fulfillmentRecord.id] = fulfillmentRecord;\n            _fulfillmentRecordsForSubject[fulfillmentRecord.payer].push(fulfillmentRecord.id);\n        }\n    }\n\n    /**\n     * @dev Withdraws the beneficiary's available balance to release (fulfilled with success).\n     */\n    function beneficiaryWithdraw() public virtual {\n        require(_releaseablePool > 0, \"There is no balance to release.\");\n        _releaseablePool = 0;\n        beneficiary().sendValue(_releaseablePool);\n    }\n}\n",
  "sourcePath": "/Users/luisoscargabriel/tuki-org/contracts/src/contracts/TukiFulfillableV1.sol",
  "compiler": {
    "name": "solc",
    "version": "0.8.17+commit.8df45f5f.Emscripten.clang"
  },
  "schemaVersion": "3.4.10",
  "updatedAt": "2022-10-31T08:29:11.001Z",
  "devdoc": {
    "details": "Base escrow contract, holds funds designated for a beneficiary until they withdraw them or a refund is emitted. Intended usage: This contract (and derived escrow contracts) should be a standalone contract, that only interacts with the contract that instantiated it. That way, it is guaranteed that all Ether will be handled according to the `Escrow` rules, and there is no need to check for payable functions or transfers in the inheritance tree. The contract that uses the escrow as its payment method should be its owner, and provide public methods redirecting to the escrow's deposit and withdraw.",
    "kind": "dev",
    "methods": {
      "beneficiary()": {
        "returns": {
          "_0": "The beneficiary of the escrow."
        }
      },
      "beneficiaryWithdraw()": {
        "details": "Withdraws the beneficiary's available balance to release (fulfilled with success)."
      },
      "deposit((address,uint256,uint256,uint256,string))": {
        "details": "Stores the sent amount as credit to be claimed.",
        "params": {
          "fulfillmentRequest": "The destination address of the funds."
        }
      },
      "depositsOf(address)": {
        "returns": {
          "_0": "Total deposits from a payer"
        }
      },
      "owner()": {
        "details": "Returns the address of the current owner."
      },
      "registerFulfillment((uint256,address,address,uint256,uint256,string,uint8))": {
        "details": "The fulfiller registers a fulfillment. We need to verify the amount of the fulfillment is actually available to release. Then we can enrich the result with an auto-incremental unique ID. and the timestamp when the record get inserted. If the fulfillment has failed: - a refund will be authorized for a later withdrawal. If these verifications pass: - add the amount fulfilled to the release pool. - substract the amount from the payer's deposits. - persist this as a FulFillmentRecord to the blockchain.",
        "params": {
          "fulfillment": "the fulfillment result attached to it."
        }
      },
      "renounceOwnership()": {
        "details": "Leaves the contract without owner. It will not be possible to call `onlyOwner` functions anymore. Can only be called by the current owner. NOTE: Renouncing ownership will leave the contract without an owner, thereby removing any functionality that is only available to the owner."
      },
      "serviceID()": {
        "returns": {
          "_0": "The service ID of the escrow."
        }
      },
      "transferOwnership(address)": {
        "details": "Transfers ownership of the contract to a new account (`newOwner`). Can only be called by the current owner."
      },
      "withdrawRefund(address)": {
        "details": "Refund accumulated balance for a refundee, forwarding all gas to the recipient. WARNING: Forwarding all gas opens the door to reentrancy vulnerabilities. Make sure you trust the recipient, or are either following the checks-effects-interactions pattern or using {ReentrancyGuard}.",
        "params": {
          "refundee": "The address whose funds will be withdrawn and transferred to."
        }
      }
    },
    "title": "TukiFulfillableV1",
    "version": 1
  },
  "userdoc": {
    "kind": "user",
    "methods": {},
    "version": 1
  }
}