{
  "contractName": "TukiRouterV1",
  "abi": [
    {
      "anonymous": false,
      "inputs": [
        {
          "indexed": false,
          "internalType": "address",
          "name": "previousAdmin",
          "type": "address"
        },
        {
          "indexed": false,
          "internalType": "address",
          "name": "newAdmin",
          "type": "address"
        }
      ],
      "name": "AdminChanged",
      "type": "event"
    },
    {
      "anonymous": false,
      "inputs": [
        {
          "indexed": true,
          "internalType": "address",
          "name": "beacon",
          "type": "address"
        }
      ],
      "name": "BeaconUpgraded",
      "type": "event"
    },
    {
      "anonymous": false,
      "inputs": [
        {
          "indexed": false,
          "internalType": "uint8",
          "name": "version",
          "type": "uint8"
        }
      ],
      "name": "Initialized",
      "type": "event"
    },
    {
      "anonymous": false,
      "inputs": [
        {
          "indexed": true,
          "internalType": "address",
          "name": "previousOwner",
          "type": "address"
        },
        {
          "indexed": true,
          "internalType": "address",
          "name": "newOwner",
          "type": "address"
        }
      ],
      "name": "OwnershipTransferred",
      "type": "event"
    },
    {
      "anonymous": false,
      "inputs": [
        {
          "indexed": false,
          "internalType": "address",
          "name": "account",
          "type": "address"
        }
      ],
      "name": "Paused",
      "type": "event"
    },
    {
      "anonymous": false,
      "inputs": [
        {
          "indexed": false,
          "internalType": "uint256",
          "name": "serviceID",
          "type": "uint256"
        },
        {
          "indexed": false,
          "internalType": "string",
          "name": "serviceRef",
          "type": "string"
        }
      ],
      "name": "RefValidationFailed",
      "type": "event"
    },
    {
      "anonymous": false,
      "inputs": [
        {
          "indexed": false,
          "internalType": "uint256",
          "name": "serviceID",
          "type": "uint256"
        },
        {
          "indexed": false,
          "internalType": "address",
          "name": "escrow",
          "type": "address"
        },
        {
          "indexed": false,
          "internalType": "address",
          "name": "validator",
          "type": "address"
        }
      ],
      "name": "ServiceAdded",
      "type": "event"
    },
    {
      "anonymous": false,
      "inputs": [
        {
          "indexed": true,
          "internalType": "address",
          "name": "payer",
          "type": "address"
        },
        {
          "indexed": false,
          "internalType": "uint256",
          "name": "weiAmount",
          "type": "uint256"
        },
        {
          "indexed": false,
          "internalType": "bytes32",
          "name": "serviceRef",
          "type": "bytes32"
        },
        {
          "indexed": false,
          "internalType": "uint256",
          "name": "serviceID",
          "type": "uint256"
        },
        {
          "indexed": false,
          "internalType": "uint256",
          "name": "fiatAmout",
          "type": "uint256"
        }
      ],
      "name": "ServiceRequested",
      "type": "event"
    },
    {
      "anonymous": false,
      "inputs": [
        {
          "indexed": false,
          "internalType": "address",
          "name": "account",
          "type": "address"
        }
      ],
      "name": "Unpaused",
      "type": "event"
    },
    {
      "anonymous": false,
      "inputs": [
        {
          "indexed": true,
          "internalType": "address",
          "name": "implementation",
          "type": "address"
        }
      ],
      "name": "Upgraded",
      "type": "event"
    },
    {
      "inputs": [],
      "name": "owner",
      "outputs": [
        {
          "internalType": "address",
          "name": "",
          "type": "address"
        }
      ],
      "stateMutability": "view",
      "type": "function"
    },
    {
      "inputs": [],
      "name": "paused",
      "outputs": [
        {
          "internalType": "bool",
          "name": "",
          "type": "bool"
        }
      ],
      "stateMutability": "view",
      "type": "function"
    },
    {
      "inputs": [],
      "name": "proxiableUUID",
      "outputs": [
        {
          "internalType": "bytes32",
          "name": "",
          "type": "bytes32"
        }
      ],
      "stateMutability": "view",
      "type": "function"
    },
    {
      "inputs": [],
      "name": "renounceOwnership",
      "outputs": [],
      "stateMutability": "nonpayable",
      "type": "function"
    },
    {
      "inputs": [
        {
          "internalType": "address",
          "name": "newOwner",
          "type": "address"
        }
      ],
      "name": "transferOwnership",
      "outputs": [],
      "stateMutability": "nonpayable",
      "type": "function"
    },
    {
      "inputs": [
        {
          "internalType": "address",
          "name": "newImplementation",
          "type": "address"
        }
      ],
      "name": "upgradeTo",
      "outputs": [],
      "stateMutability": "nonpayable",
      "type": "function"
    },
    {
      "inputs": [
        {
          "internalType": "address",
          "name": "newImplementation",
          "type": "address"
        },
        {
          "internalType": "bytes",
          "name": "data",
          "type": "bytes"
        }
      ],
      "name": "upgradeToAndCall",
      "outputs": [],
      "stateMutability": "payable",
      "type": "function"
    },
    {
      "inputs": [],
      "name": "initialize",
      "outputs": [],
      "stateMutability": "nonpayable",
      "type": "function"
    },
    {
      "inputs": [],
      "name": "pause",
      "outputs": [],
      "stateMutability": "nonpayable",
      "type": "function"
    },
    {
      "inputs": [],
      "name": "unpause",
      "outputs": [],
      "stateMutability": "nonpayable",
      "type": "function"
    },
    {
      "inputs": [
        {
          "internalType": "uint256",
          "name": "serviceID",
          "type": "uint256"
        },
        {
          "internalType": "string",
          "name": "serviceRef",
          "type": "string"
        },
        {
          "internalType": "bool",
          "name": "isERC20",
          "type": "bool"
        },
        {
          "internalType": "address",
          "name": "tokenAddress",
          "type": "address"
        },
        {
          "internalType": "uint256",
          "name": "fiatAmount",
          "type": "uint256"
        }
      ],
      "name": "requestService",
      "outputs": [
        {
          "internalType": "bool",
          "name": "",
          "type": "bool"
        }
      ],
      "stateMutability": "payable",
      "type": "function"
    },
    {
      "inputs": [
        {
          "internalType": "uint256",
          "name": "serviceID",
          "type": "uint256"
        }
      ],
      "name": "serviceOf",
      "outputs": [
        {
          "internalType": "address[2]",
          "name": "",
          "type": "address[2]"
        }
      ],
      "stateMutability": "view",
      "type": "function"
    },
    {
      "inputs": [
        {
          "internalType": "uint256",
          "name": "serviceID",
          "type": "uint256"
        },
        {
          "internalType": "address",
          "name": "serviceEscrow",
          "type": "address"
        },
        {
          "internalType": "address",
          "name": "validator",
          "type": "address"
        }
      ],
      "name": "setService",
      "outputs": [
        {
          "internalType": "address[2]",
          "name": "",
          "type": "address[2]"
        }
      ],
      "stateMutability": "nonpayable",
      "type": "function"
    }
  ],
  "bytecode": "0x60a06040523073ffffffffffffffffffffffffffffffffffffffff1660809073ffffffffffffffffffffffffffffffffffffffff1681525034801561004357600080fd5b50608051612a5161007b600039600081816102be0152818161034c0152818161075e015281816107ec015261089c0152612a516000f3fe6080604052600436106100c25760003560e01c8063715018a61161007f5780638da5cb5b116100595780638da5cb5b146101ee578063d67db75314610219578063e317050114610256578063f2fde38b14610293576100c2565b8063715018a6146101a95780638129fc1c146101c05780638456cb59146101d7576100c2565b80633659cfe6146100c75780633f4ba83a146100f05780633feb613f146101075780634f1ef2861461013757806352d1902d146101535780635c975abb1461017e575b600080fd5b3480156100d357600080fd5b506100ee60048036038101906100e99190611914565b6102bc565b005b3480156100fc57600080fd5b50610105610444565b005b610121600480360381019061011c9190611af5565b610456565b60405161012e9190611b9b565b60405180910390f35b610151600480360381019061014c9190611c57565b61075c565b005b34801561015f57600080fd5b50610168610898565b6040516101759190611ccc565b60405180910390f35b34801561018a57600080fd5b50610193610951565b6040516101a09190611b9b565b60405180910390f35b3480156101b557600080fd5b506101be610968565b005b3480156101cc57600080fd5b506101d561097c565b005b3480156101e357600080fd5b506101ec610aca565b005b3480156101fa57600080fd5b50610203610adc565b6040516102109190611cf6565b60405180910390f35b34801561022557600080fd5b50610240600480360381019061023b9190611d11565b610b06565b60405161024d9190611e0f565b60405180910390f35b34801561026257600080fd5b5061027d60048036038101906102789190611e2a565b610cd1565b60405161028a9190611e0f565b60405180910390f35b34801561029f57600080fd5b506102ba60048036038101906102b59190611914565b610ef7565b005b7f000000000000000000000000000000000000000000000000000000000000000073ffffffffffffffffffffffffffffffffffffffff163073ffffffffffffffffffffffffffffffffffffffff160361034a576040517f08c379a000000000000000000000000000000000000000000000000000000000815260040161034190611eda565b60405180910390fd5b7f000000000000000000000000000000000000000000000000000000000000000073ffffffffffffffffffffffffffffffffffffffff16610389610f7a565b73ffffffffffffffffffffffffffffffffffffffff16146103df576040517f08c379a00000000000000000000000000000000000000000000000000000000081526004016103d690611f6c565b60405180910390fd5b6103e881610fd1565b61044181600067ffffffffffffffff81111561040757610406611992565b5b6040519080825280601f01601f1916602001820160405280156104395781602001600182028036833780820191505090505b506000610fdc565b50565b61044c61114a565b6104546111c8565b565b600061046061122b565b600073ffffffffffffffffffffffffffffffffffffffff1660fb600088815260200190815260200160002060009054906101000a900473ffffffffffffffffffffffffffffffffffffffff1673ffffffffffffffffffffffffffffffffffffffff1603610502576040517f08c379a00000000000000000000000000000000000000000000000000000000081526004016104f990611fd8565b60405180910390fd5b600073ffffffffffffffffffffffffffffffffffffffff1660fc600088815260200190815260200160002060009054906101000a900473ffffffffffffffffffffffffffffffffffffffff1673ffffffffffffffffffffffffffffffffffffffff16036105a4576040517f08c379a000000000000000000000000000000000000000000000000000000000815260040161059b9061206a565b60405180910390fd5b600060fc600088815260200190815260200160002060009054906101000a900473ffffffffffffffffffffffffffffffffffffffff1673ffffffffffffffffffffffffffffffffffffffff166332ac752b876040518263ffffffff1660e01b815260040161061291906120f8565b602060405180830381865afa15801561062f573d6000803e3d6000fd5b505050506040513d601f19601f82011682018060405250810190610653919061212f565b9050806106ce577f15f3b1d015d1d18f9e48f3afe38fd015be5e505684fd14775da71dde35a4f250878760405161068b92919061216b565b60405180910390a16040517f08c379a00000000000000000000000000000000000000000000000000000000081526004016106c59061220d565b60405180910390fd5b6000866040516020016106e19190612269565b6040516020818303038152906040528051906020012090503373ffffffffffffffffffffffffffffffffffffffff167f5cdc58d47f5670166ed7a044c99e954686a2c7426ff80614666cdeac3e8fb01934838b886040516107459493929190612280565b60405180910390a260019250505095945050505050565b7f000000000000000000000000000000000000000000000000000000000000000073ffffffffffffffffffffffffffffffffffffffff163073ffffffffffffffffffffffffffffffffffffffff16036107ea576040517f08c379a00000000000000000000000000000000000000000000000000000000081526004016107e190611eda565b60405180910390fd5b7f000000000000000000000000000000000000000000000000000000000000000073ffffffffffffffffffffffffffffffffffffffff16610829610f7a565b73ffffffffffffffffffffffffffffffffffffffff161461087f576040517f08c379a000000000000000000000000000000000000000000000000000000000815260040161087690611f6c565b60405180910390fd5b61088882610fd1565b61089482826001610fdc565b5050565b60007f000000000000000000000000000000000000000000000000000000000000000073ffffffffffffffffffffffffffffffffffffffff163073ffffffffffffffffffffffffffffffffffffffff1614610928576040517f08c379a000000000000000000000000000000000000000000000000000000000815260040161091f90612337565b60405180910390fd5b7f360894a13ba1a3210667c828492db98dca3e2076cc3735a920a3ca505d382bbc60001b905090565b6000606560009054906101000a900460ff16905090565b61097061114a565b61097a6000611275565b565b60008060019054906101000a900460ff161590508080156109ad5750600160008054906101000a900460ff1660ff16105b806109da57506109bc3061133b565b1580156109d95750600160008054906101000a900460ff1660ff16145b5b610a19576040517f08c379a0000000000000000000000000000000000000000000000000000000008152600401610a10906123c9565b60405180910390fd5b60016000806101000a81548160ff021916908360ff1602179055508015610a56576001600060016101000a81548160ff0219169083151502179055505b610a5e61135e565b610a666113b7565b610a6e611410565b8015610ac75760008060016101000a81548160ff0219169083151502179055507f7f26b83ff96e1f2b6a682f133852f6798a09c465da95921460cefb38474024986001604051610abe919061243b565b60405180910390a15b50565b610ad261114a565b610ada611461565b565b6000603360009054906101000a900473ffffffffffffffffffffffffffffffffffffffff16905090565b610b0e611880565b610b1661114a565b8260fb600086815260200190815260200160002060006101000a81548173ffffffffffffffffffffffffffffffffffffffff021916908373ffffffffffffffffffffffffffffffffffffffff1602179055508160fc600086815260200190815260200160002060006101000a81548173ffffffffffffffffffffffffffffffffffffffff021916908373ffffffffffffffffffffffffffffffffffffffff1602179055507f50d798ee07203c2dc328aa13e8f1eff3d7aa253e01262565918ab0a7cb0e4156848484604051610bed93929190612456565b60405180910390a1604051806040016040528060fb600087815260200190815260200160002060009054906101000a900473ffffffffffffffffffffffffffffffffffffffff1673ffffffffffffffffffffffffffffffffffffffff1673ffffffffffffffffffffffffffffffffffffffff16815260200160fc600087815260200190815260200160002060009054906101000a900473ffffffffffffffffffffffffffffffffffffffff1673ffffffffffffffffffffffffffffffffffffffff1673ffffffffffffffffffffffffffffffffffffffff1681525090509392505050565b610cd9611880565b600073ffffffffffffffffffffffffffffffffffffffff1660fb600084815260200190815260200160002060009054906101000a900473ffffffffffffffffffffffffffffffffffffffff1673ffffffffffffffffffffffffffffffffffffffff1603610d7b576040517f08c379a0000000000000000000000000000000000000000000000000000000008152600401610d7290611fd8565b60405180910390fd5b600073ffffffffffffffffffffffffffffffffffffffff1660fc600084815260200190815260200160002060009054906101000a900473ffffffffffffffffffffffffffffffffffffffff1673ffffffffffffffffffffffffffffffffffffffff1603610e1d576040517f08c379a0000000000000000000000000000000000000000000000000000000008152600401610e149061206a565b60405180910390fd5b604051806040016040528060fb600085815260200190815260200160002060009054906101000a900473ffffffffffffffffffffffffffffffffffffffff1673ffffffffffffffffffffffffffffffffffffffff1673ffffffffffffffffffffffffffffffffffffffff16815260200160fc600085815260200190815260200160002060009054906101000a900473ffffffffffffffffffffffffffffffffffffffff1673ffffffffffffffffffffffffffffffffffffffff1673ffffffffffffffffffffffffffffffffffffffff168152509050919050565b610eff61114a565b600073ffffffffffffffffffffffffffffffffffffffff168173ffffffffffffffffffffffffffffffffffffffff1603610f6e576040517f08c379a0000000000000000000000000000000000000000000000000000000008152600401610f65906124ff565b60405180910390fd5b610f7781611275565b50565b6000610fa87f360894a13ba1a3210667c828492db98dca3e2076cc3735a920a3ca505d382bbc60001b6114c4565b60000160009054906101000a900473ffffffffffffffffffffffffffffffffffffffff16905090565b610fd961114a565b50565b6110087f4910fdfa16fed3260ed0e7147f7cc6da11a60208b5b9406d12a635614ffd914360001b6114ce565b60000160009054906101000a900460ff161561102c57611027836114d8565b611145565b8273ffffffffffffffffffffffffffffffffffffffff166352d1902d6040518163ffffffff1660e01b8152600401602060405180830381865afa92505050801561109457506040513d601f19601f82011682018060405250810190611091919061254b565b60015b6110d3576040517f08c379a00000000000000000000000000000000000000000000000000000000081526004016110ca906125ea565b60405180910390fd5b7f360894a13ba1a3210667c828492db98dca3e2076cc3735a920a3ca505d382bbc60001b8114611138576040517f08c379a000000000000000000000000000000000000000000000000000000000815260040161112f9061267c565b60405180910390fd5b50611144838383611591565b5b505050565b6111526115bd565b73ffffffffffffffffffffffffffffffffffffffff16611170610adc565b73ffffffffffffffffffffffffffffffffffffffff16146111c6576040517f08c379a00000000000000000000000000000000000000000000000000000000081526004016111bd906126e8565b60405180910390fd5b565b6111d06115c5565b6000606560006101000a81548160ff0219169083151502179055507f5db9ee0a495bf2e6ff9c91a7834c1ba4fdd244a5e8aa4e537bd38aeae4b073aa6112146115bd565b6040516112219190611cf6565b60405180910390a1565b611233610951565b15611273576040517f08c379a000000000000000000000000000000000000000000000000000000000815260040161126a90612754565b60405180910390fd5b565b6000603360009054906101000a900473ffffffffffffffffffffffffffffffffffffffff16905081603360006101000a81548173ffffffffffffffffffffffffffffffffffffffff021916908373ffffffffffffffffffffffffffffffffffffffff1602179055508173ffffffffffffffffffffffffffffffffffffffff168173ffffffffffffffffffffffffffffffffffffffff167f8be0079c531659141344cd1fd0a4f28419497f9722a3daafe3b4186f6b6457e060405160405180910390a35050565b6000808273ffffffffffffffffffffffffffffffffffffffff163b119050919050565b600060019054906101000a900460ff166113ad576040517f08c379a00000000000000000000000000000000000000000000000000000000081526004016113a4906127e6565b60405180910390fd5b6113b561160e565b565b600060019054906101000a900460ff16611406576040517f08c379a00000000000000000000000000000000000000000000000000000000081526004016113fd906127e6565b60405180910390fd5b61140e61166f565b565b600060019054906101000a900460ff1661145f576040517f08c379a0000000000000000000000000000000000000000000000000000000008152600401611456906127e6565b60405180910390fd5b565b61146961122b565b6001606560006101000a81548160ff0219169083151502179055507f62e78cea01bee320cd4e420270b5ea74000d11b0c9f74754ebdbfc544b05a2586114ad6115bd565b6040516114ba9190611cf6565b60405180910390a1565b6000819050919050565b6000819050919050565b6114e18161133b565b611520576040517f08c379a000000000000000000000000000000000000000000000000000000000815260040161151790612878565b60405180910390fd5b8061154d7f360894a13ba1a3210667c828492db98dca3e2076cc3735a920a3ca505d382bbc60001b6114c4565b60000160006101000a81548173ffffffffffffffffffffffffffffffffffffffff021916908373ffffffffffffffffffffffffffffffffffffffff16021790555050565b61159a836116db565b6000825111806115a75750805b156115b8576115b6838361172a565b505b505050565b600033905090565b6115cd610951565b61160c576040517f08c379a0000000000000000000000000000000000000000000000000000000008152600401611603906128e4565b60405180910390fd5b565b600060019054906101000a900460ff1661165d576040517f08c379a0000000000000000000000000000000000000000000000000000000008152600401611654906127e6565b60405180910390fd5b61166d6116686115bd565b611275565b565b600060019054906101000a900460ff166116be576040517f08c379a00000000000000000000000000000000000000000000000000000000081526004016116b5906127e6565b60405180910390fd5b6000606560006101000a81548160ff021916908315150217905550565b6116e4816114d8565b8073ffffffffffffffffffffffffffffffffffffffff167fbc7cd75a20ee27fd9adebab32041f755214dbc6bffa90cc0225b39da2e5c2d3b60405160405180910390a250565b60606117358361133b565b611774576040517f08c379a000000000000000000000000000000000000000000000000000000000815260040161176b90612976565b60405180910390fd5b6000808473ffffffffffffffffffffffffffffffffffffffff168460405161179c91906129dd565b600060405180830381855af49150503d80600081146117d7576040519150601f19603f3d011682016040523d82523d6000602084013e6117dc565b606091505b509150915061180482826040518060600160405280602781526020016129f56027913961180e565b9250505092915050565b6060831561181e57829050611829565b6118288383611830565b5b9392505050565b6000825111156118435781518083602001fd5b806040517f08c379a000000000000000000000000000000000000000000000000000000000815260040161187791906120f8565b60405180910390fd5b6040518060400160405280600290602082028036833780820191505090505090565b6000604051905090565b600080fd5b600080fd5b600073ffffffffffffffffffffffffffffffffffffffff82169050919050565b60006118e1826118b6565b9050919050565b6118f1816118d6565b81146118fc57600080fd5b50565b60008135905061190e816118e8565b92915050565b60006020828403121561192a576119296118ac565b5b6000611938848285016118ff565b91505092915050565b6000819050919050565b61195481611941565b811461195f57600080fd5b50565b6000813590506119718161194b565b92915050565b600080fd5b600080fd5b6000601f19601f8301169050919050565b7f4e487b7100000000000000000000000000000000000000000000000000000000600052604160045260246000fd5b6119ca82611981565b810181811067ffffffffffffffff821117156119e9576119e8611992565b5b80604052505050565b60006119fc6118a2565b9050611a0882826119c1565b919050565b600067ffffffffffffffff821115611a2857611a27611992565b5b611a3182611981565b9050602081019050919050565b82818337600083830152505050565b6000611a60611a5b84611a0d565b6119f2565b905082815260208101848484011115611a7c57611a7b61197c565b5b611a87848285611a3e565b509392505050565b600082601f830112611aa457611aa3611977565b5b8135611ab4848260208601611a4d565b91505092915050565b60008115159050919050565b611ad281611abd565b8114611add57600080fd5b50565b600081359050611aef81611ac9565b92915050565b600080600080600060a08688031215611b1157611b106118ac565b5b6000611b1f88828901611962565b955050602086013567ffffffffffffffff811115611b4057611b3f6118b1565b5b611b4c88828901611a8f565b9450506040611b5d88828901611ae0565b9350506060611b6e888289016118ff565b9250506080611b7f88828901611962565b9150509295509295909350565b611b9581611abd565b82525050565b6000602082019050611bb06000830184611b8c565b92915050565b600067ffffffffffffffff821115611bd157611bd0611992565b5b611bda82611981565b9050602081019050919050565b6000611bfa611bf584611bb6565b6119f2565b905082815260208101848484011115611c1657611c1561197c565b5b611c21848285611a3e565b509392505050565b600082601f830112611c3e57611c3d611977565b5b8135611c4e848260208601611be7565b91505092915050565b60008060408385031215611c6e57611c6d6118ac565b5b6000611c7c858286016118ff565b925050602083013567ffffffffffffffff811115611c9d57611c9c6118b1565b5b611ca985828601611c29565b9150509250929050565b6000819050919050565b611cc681611cb3565b82525050565b6000602082019050611ce16000830184611cbd565b92915050565b611cf0816118d6565b82525050565b6000602082019050611d0b6000830184611ce7565b92915050565b600080600060608486031215611d2a57611d296118ac565b5b6000611d3886828701611962565b9350506020611d49868287016118ff565b9250506040611d5a868287016118ff565b9150509250925092565b600060029050919050565b600081905092915050565b6000819050919050565b611d8d816118d6565b82525050565b6000611d9f8383611d84565b60208301905092915050565b6000602082019050919050565b611dc181611d64565b611dcb8184611d6f565b9250611dd682611d7a565b8060005b83811015611e07578151611dee8782611d93565b9650611df983611dab565b925050600181019050611dda565b505050505050565b6000604082019050611e246000830184611db8565b92915050565b600060208284031215611e4057611e3f6118ac565b5b6000611e4e84828501611962565b91505092915050565b600082825260208201905092915050565b7f46756e6374696f6e206d7573742062652063616c6c6564207468726f7567682060008201527f64656c656761746563616c6c0000000000000000000000000000000000000000602082015250565b6000611ec4602c83611e57565b9150611ecf82611e68565b604082019050919050565b60006020820190508181036000830152611ef381611eb7565b9050919050565b7f46756e6374696f6e206d7573742062652063616c6c6564207468726f7567682060008201527f6163746976652070726f78790000000000000000000000000000000000000000602082015250565b6000611f56602c83611e57565b9150611f6182611efa565b604082019050919050565b60006020820190508181036000830152611f8581611f49565b9050919050565b7f53657276696365204944206973206e6f7420737570706f727465642e00000000600082015250565b6000611fc2601c83611e57565b9150611fcd82611f8c565b602082019050919050565b60006020820190508181036000830152611ff181611fb5565b9050919050565b7f56616c696461746f72206e6f7420666f756e6420666f7220736572766963652060008201527f49442e0000000000000000000000000000000000000000000000000000000000602082015250565b6000612054602383611e57565b915061205f82611ff8565b604082019050919050565b6000602082019050818103600083015261208381612047565b9050919050565b600081519050919050565b60005b838110156120b3578082015181840152602081019050612098565b60008484015250505050565b60006120ca8261208a565b6120d48185611e57565b93506120e4818560208601612095565b6120ed81611981565b840191505092915050565b6000602082019050818103600083015261211281846120bf565b905092915050565b60008151905061212981611ac9565b92915050565b600060208284031215612145576121446118ac565b5b60006121538482850161211a565b91505092915050565b61216581611941565b82525050565b6000604082019050612180600083018561215c565b818103602083015261219281846120bf565b90509392505050565b7f5468652073657276696365206964656e746966696572206661696c656420746f60008201527f2076616c69646174650000000000000000000000000000000000000000000000602082015250565b60006121f7602983611e57565b91506122028261219b565b604082019050919050565b60006020820190508181036000830152612226816121ea565b9050919050565b600081905092915050565b60006122438261208a565b61224d818561222d565b935061225d818560208601612095565b80840191505092915050565b60006122758284612238565b915081905092915050565b6000608082019050612295600083018761215c565b6122a26020830186611cbd565b6122af604083018561215c565b6122bc606083018461215c565b95945050505050565b7f555550535570677261646561626c653a206d757374206e6f742062652063616c60008201527f6c6564207468726f7567682064656c656761746563616c6c0000000000000000602082015250565b6000612321603883611e57565b915061232c826122c5565b604082019050919050565b6000602082019050818103600083015261235081612314565b9050919050565b7f496e697469616c697a61626c653a20636f6e747261637420697320616c72656160008201527f647920696e697469616c697a6564000000000000000000000000000000000000602082015250565b60006123b3602e83611e57565b91506123be82612357565b604082019050919050565b600060208201905081810360008301526123e2816123a6565b9050919050565b6000819050919050565b600060ff82169050919050565b6000819050919050565b600061242561242061241b846123e9565b612400565b6123f3565b9050919050565b6124358161240a565b82525050565b6000602082019050612450600083018461242c565b92915050565b600060608201905061246b600083018661215c565b6124786020830185611ce7565b6124856040830184611ce7565b949350505050565b7f4f776e61626c653a206e6577206f776e657220697320746865207a65726f206160008201527f6464726573730000000000000000000000000000000000000000000000000000602082015250565b60006124e9602683611e57565b91506124f48261248d565b604082019050919050565b60006020820190508181036000830152612518816124dc565b9050919050565b61252881611cb3565b811461253357600080fd5b50565b6000815190506125458161251f565b92915050565b600060208284031215612561576125606118ac565b5b600061256f84828501612536565b91505092915050565b7f45524331393637557067726164653a206e657720696d706c656d656e7461746960008201527f6f6e206973206e6f742055555053000000000000000000000000000000000000602082015250565b60006125d4602e83611e57565b91506125df82612578565b604082019050919050565b60006020820190508181036000830152612603816125c7565b9050919050565b7f45524331393637557067726164653a20756e737570706f727465642070726f7860008201527f6961626c65555549440000000000000000000000000000000000000000000000602082015250565b6000612666602983611e57565b91506126718261260a565b604082019050919050565b6000602082019050818103600083015261269581612659565b9050919050565b7f4f776e61626c653a2063616c6c6572206973206e6f7420746865206f776e6572600082015250565b60006126d2602083611e57565b91506126dd8261269c565b602082019050919050565b60006020820190508181036000830152612701816126c5565b9050919050565b7f5061757361626c653a2070617573656400000000000000000000000000000000600082015250565b600061273e601083611e57565b915061274982612708565b602082019050919050565b6000602082019050818103600083015261276d81612731565b9050919050565b7f496e697469616c697a61626c653a20636f6e7472616374206973206e6f74206960008201527f6e697469616c697a696e67000000000000000000000000000000000000000000602082015250565b60006127d0602b83611e57565b91506127db82612774565b604082019050919050565b600060208201905081810360008301526127ff816127c3565b9050919050565b7f455243313936373a206e657720696d706c656d656e746174696f6e206973206e60008201527f6f74206120636f6e747261637400000000000000000000000000000000000000602082015250565b6000612862602d83611e57565b915061286d82612806565b604082019050919050565b6000602082019050818103600083015261289181612855565b9050919050565b7f5061757361626c653a206e6f7420706175736564000000000000000000000000600082015250565b60006128ce601483611e57565b91506128d982612898565b602082019050919050565b600060208201905081810360008301526128fd816128c1565b9050919050565b7f416464726573733a2064656c65676174652063616c6c20746f206e6f6e2d636f60008201527f6e74726163740000000000000000000000000000000000000000000000000000602082015250565b6000612960602683611e57565b915061296b82612904565b604082019050919050565b6000602082019050818103600083015261298f81612953565b9050919050565b600081519050919050565b600081905092915050565b60006129b782612996565b6129c181856129a1565b93506129d1818560208601612095565b80840191505092915050565b60006129e982846129ac565b91508190509291505056fe416464726573733a206c6f772d6c6576656c2064656c65676174652063616c6c206661696c6564a2646970667358221220e9ce39583d4f55598640cedbbbd01807b02f5d1a2c0eb306706ad40e0a23870464736f6c63430008110033",
  "immutableReferences": {
    "720": [
      {
        "length": 32,
        "start": 702
      },
      {
        "length": 32,
        "start": 844
      },
      {
        "length": 32,
        "start": 1886
      },
      {
        "length": 32,
        "start": 2028
      },
      {
        "length": 32,
        "start": 2204
      }
    ]
  },
  "source": "// SPDX-License-Identifier: MIT\npragma solidity 0.8.17;\n\nimport \"@openzeppelin/contracts-upgradeable/proxy/utils/UUPSUpgradeable.sol\";\nimport \"@openzeppelin/contracts-upgradeable/security/PausableUpgradeable.sol\";\nimport \"@openzeppelin/contracts-upgradeable/utils/math/SafeMathUpgradeable.sol\";\nimport \"@openzeppelin/contracts-upgradeable/utils/AddressUpgradeable.sol\";\nimport \"@openzeppelin/contracts-upgradeable/access/OwnableUpgradeable.sol\";\nimport \"@openzeppelin/contracts-upgradeable/proxy/utils/Initializable.sol\";\nimport \"./IRegexValidator.sol\";\n\n/**\n * \n * ----- TukiRouter -----\n * This Smart Contract is intented to be user-facing.\n * Any valid address can request a fulfillment to a valid fulfillable.\n * \n * Pre-conditions:\n * \n * - verified identifier\n * - valid fulfillable id\n * - enough balance on the sender account\n * \n * \n * Post-conditions:\n * \n * - ServiceRequested Event emitted\n * - payment due is trasferred to escrow contract until fulfillment\n * \n * -----------------------\n * \n */\ncontract TukiRouterV1 is Initializable, OwnableUpgradeable, PausableUpgradeable, UUPSUpgradeable {\n    using AddressUpgradeable for address payable;\n    using SafeMathUpgradeable for uint256;\n\n    mapping(uint256 => address) private _services;\n    mapping(uint256 => address) private _validators;\n\n    event ServiceRequested(\n        address indexed payer,\n        uint256 weiAmount,\n        bytes32 serviceRef,\n        uint256 serviceID,\n        uint256 fiatAmout\n    );\n    event RefValidationFailed(uint256 serviceID, string serviceRef);\n    event ServiceAdded(uint256 serviceID, address escrow, address validator);\n  \n    /**\n     * @dev Constructor.\n     */\n    function initialize() public virtual initializer {\n        __Ownable_init();\n        __Pausable_init();\n        __UUPSUpgradeable_init();\n    }\n\n    function pause() public onlyOwner {\n        _pause();\n    }\n\n    function unpause() public onlyOwner {\n        _unpause();\n    }\n\n    /**\n     * @dev required for UUPS upgrades\n     **/\n    function _authorizeUpgrade(address newImplementation)\n        internal\n        onlyOwner\n        override\n    {}\n\n    /**\n     * @return The current state of the escrow.\n     */\n    function requestService(\n            uint256 serviceID, \n            string memory serviceRef,\n            bool isERC20,\n            address tokenAddress,\n            uint256 fiatAmount\n        ) \n        public \n        payable\n        whenNotPaused\n        returns (bool) \n    {\n        require(address(_services[serviceID]) != address(0), \"Service ID is not supported.\");\n        require(address(_validators[serviceID]) != address(0), \"Validator not found for service ID.\");\n        bool isValidRef = IRegexValidator(_validators[serviceID]).matches(serviceRef);\n        if(!isValidRef) {\n            emit RefValidationFailed(serviceID, serviceRef);\n            revert(\"The service identifier failed to validate\");\n        }\n        bytes32 ref = keccak256(abi.encodePacked(serviceRef));\n        //TODO validate amount with modifier\n        //TODO validate enough balance on payer\n        //TODO route the payment to the corresponding escrow contract\n        emit ServiceRequested(msg.sender, msg.value, ref, serviceID, fiatAmount);\n        return true;\n    }\n\n    /**\n     * @return the address for the service ID of a particular service.\n     *\n     */\n    function serviceOf(uint256 serviceID) public view returns (address[2] memory) {\n        require(address(_services[serviceID]) != address(0), \"Service ID is not supported.\");\n        require(address(_validators[serviceID]) != address(0), \"Validator not found for service ID.\");\n        return [_services[serviceID], _validators[serviceID]];\n    }\n\n    function setService(uint256 serviceID, address serviceEscrow, address validator) \n        public \n        virtual \n        onlyOwner \n        returns (address[2] memory) \n    {\n        _services[serviceID] = serviceEscrow;\n        _validators[serviceID] = validator;\n        emit ServiceAdded(serviceID, serviceEscrow, validator);\n        return [_services[serviceID], _validators[serviceID]];\n    }\n}\n",
  "sourcePath": "/Users/luisgabriel/tuki-org/contracts/src/contracts/TukiRouterV1.sol",
  "compiler": {
    "name": "solc",
    "version": "0.8.17+commit.8df45f5f.Emscripten.clang"
  },
  "schemaVersion": "3.4.10",
  "updatedAt": "2022-10-17T03:27:25.864Z",
  "devdoc": {
    "kind": "dev",
    "methods": {
      "initialize()": {
        "details": "Constructor."
      },
      "owner()": {
        "details": "Returns the address of the current owner."
      },
      "paused()": {
        "details": "Returns true if the contract is paused, and false otherwise."
      },
      "proxiableUUID()": {
        "details": "Implementation of the ERC1822 {proxiableUUID} function. This returns the storage slot used by the implementation. It is used to validate the implementation's compatibility when performing an upgrade. IMPORTANT: A proxy pointing at a proxiable contract should not be considered proxiable itself, because this risks bricking a proxy that upgrades to it, by delegating to itself until out of gas. Thus it is critical that this function revert if invoked through a proxy. This is guaranteed by the `notDelegated` modifier."
      },
      "renounceOwnership()": {
        "details": "Leaves the contract without owner. It will not be possible to call `onlyOwner` functions anymore. Can only be called by the current owner. NOTE: Renouncing ownership will leave the contract without an owner, thereby removing any functionality that is only available to the owner."
      },
      "requestService(uint256,string,bool,address,uint256)": {
        "returns": {
          "_0": "The current state of the escrow."
        }
      },
      "serviceOf(uint256)": {
        "returns": {
          "_0": "the address for the service ID of a particular service."
        }
      },
      "transferOwnership(address)": {
        "details": "Transfers ownership of the contract to a new account (`newOwner`). Can only be called by the current owner."
      },
      "upgradeTo(address)": {
        "details": "Upgrade the implementation of the proxy to `newImplementation`. Calls {_authorizeUpgrade}. Emits an {Upgraded} event."
      },
      "upgradeToAndCall(address,bytes)": {
        "details": "Upgrade the implementation of the proxy to `newImplementation`, and subsequently execute the function call encoded in `data`. Calls {_authorizeUpgrade}. Emits an {Upgraded} event."
      }
    },
    "version": 1
  },
  "userdoc": {
    "kind": "user",
    "methods": {},
    "notice": " ----- TukiRouter ----- This Smart Contract is intented to be user-facing. Any valid address can request a fulfillment to a valid fulfillable.  Pre-conditions:  - verified identifier - valid fulfillable id - enough balance on the sender account   Post-conditions:  - ServiceRequested Event emitted - payment due is trasferred to escrow contract until fulfillment  ----------------------- ",
    "version": 1
  }
}