{
  "contractName": "TukiFulfillableV1",
  "abi": [
    {
      "anonymous": false,
      "inputs": [
        {
          "indexed": false,
          "internalType": "address",
          "name": "previousAdmin",
          "type": "address"
        },
        {
          "indexed": false,
          "internalType": "address",
          "name": "newAdmin",
          "type": "address"
        }
      ],
      "name": "AdminChanged",
      "type": "event"
    },
    {
      "anonymous": false,
      "inputs": [
        {
          "indexed": true,
          "internalType": "address",
          "name": "beacon",
          "type": "address"
        }
      ],
      "name": "BeaconUpgraded",
      "type": "event"
    },
    {
      "anonymous": false,
      "inputs": [
        {
          "components": [
            {
              "internalType": "address",
              "name": "payer",
              "type": "address"
            },
            {
              "internalType": "uint256",
              "name": "weiAmount",
              "type": "uint256"
            },
            {
              "internalType": "uint256",
              "name": "fiatAmount",
              "type": "uint256"
            },
            {
              "internalType": "bytes32",
              "name": "serviceRef",
              "type": "bytes32"
            }
          ],
          "indexed": false,
          "internalType": "struct FulFillmentRequest",
          "name": "request",
          "type": "tuple"
        }
      ],
      "name": "DepositReceived",
      "type": "event"
    },
    {
      "anonymous": false,
      "inputs": [
        {
          "indexed": false,
          "internalType": "uint8",
          "name": "version",
          "type": "uint8"
        }
      ],
      "name": "Initialized",
      "type": "event"
    },
    {
      "anonymous": false,
      "inputs": [
        {
          "indexed": false,
          "internalType": "string",
          "name": "message",
          "type": "string"
        }
      ],
      "name": "LogFailure",
      "type": "event"
    },
    {
      "anonymous": false,
      "inputs": [
        {
          "indexed": true,
          "internalType": "address",
          "name": "previousOwner",
          "type": "address"
        },
        {
          "indexed": true,
          "internalType": "address",
          "name": "newOwner",
          "type": "address"
        }
      ],
      "name": "OwnershipTransferred",
      "type": "event"
    },
    {
      "anonymous": false,
      "inputs": [
        {
          "indexed": true,
          "internalType": "address",
          "name": "payee",
          "type": "address"
        },
        {
          "indexed": false,
          "internalType": "uint256",
          "name": "weiAmount",
          "type": "uint256"
        }
      ],
      "name": "RefundAuthorized",
      "type": "event"
    },
    {
      "anonymous": false,
      "inputs": [
        {
          "indexed": true,
          "internalType": "address",
          "name": "payee",
          "type": "address"
        },
        {
          "indexed": false,
          "internalType": "uint256",
          "name": "weiAmount",
          "type": "uint256"
        }
      ],
      "name": "RefundWithdrawn",
      "type": "event"
    },
    {
      "anonymous": false,
      "inputs": [
        {
          "indexed": true,
          "internalType": "address",
          "name": "implementation",
          "type": "address"
        }
      ],
      "name": "Upgraded",
      "type": "event"
    },
    {
      "inputs": [],
      "name": "owner",
      "outputs": [
        {
          "internalType": "address",
          "name": "",
          "type": "address"
        }
      ],
      "stateMutability": "view",
      "type": "function"
    },
    {
      "inputs": [],
      "name": "proxiableUUID",
      "outputs": [
        {
          "internalType": "bytes32",
          "name": "",
          "type": "bytes32"
        }
      ],
      "stateMutability": "view",
      "type": "function"
    },
    {
      "inputs": [],
      "name": "renounceOwnership",
      "outputs": [],
      "stateMutability": "nonpayable",
      "type": "function"
    },
    {
      "inputs": [
        {
          "internalType": "address",
          "name": "newOwner",
          "type": "address"
        }
      ],
      "name": "transferOwnership",
      "outputs": [],
      "stateMutability": "nonpayable",
      "type": "function"
    },
    {
      "inputs": [
        {
          "internalType": "address",
          "name": "newImplementation",
          "type": "address"
        }
      ],
      "name": "upgradeTo",
      "outputs": [],
      "stateMutability": "nonpayable",
      "type": "function"
    },
    {
      "inputs": [
        {
          "internalType": "address",
          "name": "newImplementation",
          "type": "address"
        },
        {
          "internalType": "bytes",
          "name": "data",
          "type": "bytes"
        }
      ],
      "name": "upgradeToAndCall",
      "outputs": [],
      "stateMutability": "payable",
      "type": "function"
    },
    {
      "inputs": [
        {
          "internalType": "address payable",
          "name": "beneficiary_",
          "type": "address"
        },
        {
          "internalType": "uint256",
          "name": "serviceIdentifier_",
          "type": "uint256"
        }
      ],
      "name": "initialize",
      "outputs": [],
      "stateMutability": "nonpayable",
      "type": "function"
    },
    {
      "inputs": [],
      "name": "beneficiary",
      "outputs": [
        {
          "internalType": "address payable",
          "name": "",
          "type": "address"
        }
      ],
      "stateMutability": "view",
      "type": "function"
    },
    {
      "inputs": [],
      "name": "serviceID",
      "outputs": [
        {
          "internalType": "uint256",
          "name": "",
          "type": "uint256"
        }
      ],
      "stateMutability": "view",
      "type": "function"
    },
    {
      "inputs": [
        {
          "internalType": "address",
          "name": "payer",
          "type": "address"
        }
      ],
      "name": "depositsOf",
      "outputs": [
        {
          "internalType": "uint256",
          "name": "",
          "type": "uint256"
        }
      ],
      "stateMutability": "view",
      "type": "function"
    },
    {
      "inputs": [
        {
          "components": [
            {
              "internalType": "address",
              "name": "payer",
              "type": "address"
            },
            {
              "internalType": "uint256",
              "name": "weiAmount",
              "type": "uint256"
            },
            {
              "internalType": "uint256",
              "name": "fiatAmount",
              "type": "uint256"
            },
            {
              "internalType": "bytes32",
              "name": "serviceRef",
              "type": "bytes32"
            }
          ],
          "internalType": "struct FulFillmentRequest",
          "name": "fulfillmentRequest",
          "type": "tuple"
        }
      ],
      "name": "deposit",
      "outputs": [],
      "stateMutability": "payable",
      "type": "function"
    },
    {
      "inputs": [
        {
          "internalType": "address payable",
          "name": "refundee",
          "type": "address"
        }
      ],
      "name": "withdrawRefund",
      "outputs": [],
      "stateMutability": "nonpayable",
      "type": "function"
    },
    {
      "inputs": [
        {
          "components": [
            {
              "internalType": "uint256",
              "name": "id",
              "type": "uint256"
            },
            {
              "internalType": "address",
              "name": "fulfiller",
              "type": "address"
            },
            {
              "internalType": "address",
              "name": "payer",
              "type": "address"
            },
            {
              "internalType": "uint256",
              "name": "weiAmount",
              "type": "uint256"
            },
            {
              "internalType": "string",
              "name": "receiptURI",
              "type": "string"
            },
            {
              "internalType": "enum FulFillmentResultState",
              "name": "status",
              "type": "uint8"
            }
          ],
          "internalType": "struct FulFillmentResult",
          "name": "fulfillment",
          "type": "tuple"
        }
      ],
      "name": "registerFulfillment",
      "outputs": [],
      "stateMutability": "nonpayable",
      "type": "function"
    },
    {
      "inputs": [],
      "name": "beneficiaryWithdraw",
      "outputs": [],
      "stateMutability": "nonpayable",
      "type": "function"
    }
  ],
  "bytecode": "0x60a06040523073ffffffffffffffffffffffffffffffffffffffff1660809073ffffffffffffffffffffffffffffffffffffffff1681525034801561004357600080fd5b5060805161333861007b600039600081816103ef0152818161047d015281816105a10152818161062f01526106df01526133386000f3fe6080604052600436106100dd5760003560e01c80638da5cb5b1161007f578063cd6dc68711610059578063cd6dc68714610246578063e3a9db1a1461026f578063e5794457146102ac578063f2fde38b146102d5576100dd565b80638da5cb5b146101db5780639af6549a14610206578063a16c86f71461021d576100dd565b806338af3eed116100bb57806338af3eed146101525780634f1ef2861461017d57806352d1902d14610199578063715018a6146101c4576100dd565b806334a4b877146100e2578063355195f61461010d5780633659cfe614610129575b600080fd5b3480156100ee57600080fd5b506100f76102fe565b6040516101049190611b42565b60405180910390f35b61012760048036038101906101229190611d3f565b610308565b005b34801561013557600080fd5b50610150600480360381019061014b9190611d6c565b6103ed565b005b34801561015e57600080fd5b50610167610575565b6040516101749190611dba565b60405180910390f35b61019760048036038101906101929190611e8f565b61059f565b005b3480156101a557600080fd5b506101ae6106db565b6040516101bb9190611efa565b60405180910390f35b3480156101d057600080fd5b506101d9610794565b005b3480156101e757600080fd5b506101f06107a8565b6040516101fd9190611f24565b60405180910390f35b34801561021257600080fd5b5061021b6107d2565b005b34801561022957600080fd5b50610244600480360381019061023f9190611f6b565b610806565b005b34801561025257600080fd5b5061026d60048036038101906102689190611f98565b6108e1565b005b34801561027b57600080fd5b5061029660048036038101906102919190611d6c565b610b23565b6040516102a39190611b42565b60405180910390f35b3480156102b857600080fd5b506102d360048036038101906102ce919061215a565b610b6c565b005b3480156102e157600080fd5b506102fc60048036038101906102f79190611d6c565b610c29565b005b600060d054905090565b610310610cac565b600034905061036b60ce6000846000015173ffffffffffffffffffffffffffffffffffffffff1673ffffffffffffffffffffffffffffffffffffffff1681526020019081526020016000205482610d2a90919063ffffffff16565b60ce6000846000015173ffffffffffffffffffffffffffffffffffffffff1673ffffffffffffffffffffffffffffffffffffffff168152602001908152602001600020819055507f2994aa7d7eee77283abd22035c142faaa9e7e6a59a4c04f5f241ed8afbb57a28826040516103e19190612225565b60405180910390a15050565b7f000000000000000000000000000000000000000000000000000000000000000073ffffffffffffffffffffffffffffffffffffffff163073ffffffffffffffffffffffffffffffffffffffff160361047b576040517f08c379a0000000000000000000000000000000000000000000000000000000008152600401610472906122c3565b60405180910390fd5b7f000000000000000000000000000000000000000000000000000000000000000073ffffffffffffffffffffffffffffffffffffffff166104ba610d40565b73ffffffffffffffffffffffffffffffffffffffff1614610510576040517f08c379a000000000000000000000000000000000000000000000000000000000815260040161050790612355565b60405180910390fd5b61051981610d97565b61057281600067ffffffffffffffff81111561053857610537611b87565b5b6040519080825280601f01601f19166020018201604052801561056a5781602001600182028036833780820191505090505b506000610da2565b50565b600060cd60009054906101000a900473ffffffffffffffffffffffffffffffffffffffff16905090565b7f000000000000000000000000000000000000000000000000000000000000000073ffffffffffffffffffffffffffffffffffffffff163073ffffffffffffffffffffffffffffffffffffffff160361062d576040517f08c379a0000000000000000000000000000000000000000000000000000000008152600401610624906122c3565b60405180910390fd5b7f000000000000000000000000000000000000000000000000000000000000000073ffffffffffffffffffffffffffffffffffffffff1661066c610d40565b73ffffffffffffffffffffffffffffffffffffffff16146106c2576040517f08c379a00000000000000000000000000000000000000000000000000000000081526004016106b990612355565b60405180910390fd5b6106cb82610d97565b6106d782826001610da2565b5050565b60007f000000000000000000000000000000000000000000000000000000000000000073ffffffffffffffffffffffffffffffffffffffff163073ffffffffffffffffffffffffffffffffffffffff161461076b576040517f08c379a0000000000000000000000000000000000000000000000000000000008152600401610762906123e7565b60405180910390fd5b7f360894a13ba1a3210667c828492db98dca3e2076cc3735a920a3ca505d382bbc60001b905090565b61079c610cac565b6107a66000610f10565b565b6000603360009054906101000a900473ffffffffffffffffffffffffffffffffffffffff16905090565b61080460d1546107e0610575565b73ffffffffffffffffffffffffffffffffffffffff16610fd690919063ffffffff16565b565b61080e610cac565b600060cf60008373ffffffffffffffffffffffffffffffffffffffff1673ffffffffffffffffffffffffffffffffffffffff1681526020019081526020016000205411610890576040517f08c379a000000000000000000000000000000000000000000000000000000000815260040161088790612479565b60405180910390fd5b600060cf60008373ffffffffffffffffffffffffffffffffffffffff1673ffffffffffffffffffffffffffffffffffffffff168152602001908152602001600020819055506108de816110ca565b50565b60008060019054906101000a900460ff161590508080156109125750600160008054906101000a900460ff1660ff16105b8061093f5750610921306111ca565b15801561093e5750600160008054906101000a900460ff1660ff16145b5b61097e576040517f08c379a00000000000000000000000000000000000000000000000000000000081526004016109759061250b565b60405180910390fd5b60016000806101000a81548160ff021916908360ff16021790555080156109bb576001600060016101000a81548160ff0219169083151502179055505b600073ffffffffffffffffffffffffffffffffffffffff168373ffffffffffffffffffffffffffffffffffffffff1603610a2a576040517f08c379a0000000000000000000000000000000000000000000000000000000008152600401610a2190612577565b60405180910390fd5b60008211610a6d576040517f08c379a0000000000000000000000000000000000000000000000000000000008152600401610a64906125e3565b60405180910390fd5b8260cd60006101000a81548173ffffffffffffffffffffffffffffffffffffffff021916908373ffffffffffffffffffffffffffffffffffffffff1602179055508160d081905550610abd6111ed565b610ac5611246565b8015610b1e5760008060016101000a81548160ff0219169083151502179055507f7f26b83ff96e1f2b6a682f133852f6798a09c465da95921460cefb38474024986001604051610b159190612655565b60405180910390a15b505050565b600060ce60008373ffffffffffffffffffffffffffffffffffffffff1673ffffffffffffffffffffffffffffffffffffffff168152602001908152602001600020549050919050565b610b74610cac565b806060015160ce6000836040015173ffffffffffffffffffffffffffffffffffffffff1673ffffffffffffffffffffffffffffffffffffffff168152602001908152602001600020541015610bfe576040517f08c379a0000000000000000000000000000000000000000000000000000000008152600401610bf5906126e2565b60405180910390fd5b610c0781611297565b610c20816060015160d154610d2a90919063ffffffff16565b60d18190555050565b610c31610cac565b600073ffffffffffffffffffffffffffffffffffffffff168173ffffffffffffffffffffffffffffffffffffffff1603610ca0576040517f08c379a0000000000000000000000000000000000000000000000000000000008152600401610c9790612774565b60405180910390fd5b610ca981610f10565b50565b610cb46113ea565b73ffffffffffffffffffffffffffffffffffffffff16610cd26107a8565b73ffffffffffffffffffffffffffffffffffffffff1614610d28576040517f08c379a0000000000000000000000000000000000000000000000000000000008152600401610d1f906127e0565b60405180910390fd5b565b60008183610d38919061282f565b905092915050565b6000610d6e7f360894a13ba1a3210667c828492db98dca3e2076cc3735a920a3ca505d382bbc60001b6113f2565b60000160009054906101000a900473ffffffffffffffffffffffffffffffffffffffff16905090565b610d9f610cac565b50565b610dce7f4910fdfa16fed3260ed0e7147f7cc6da11a60208b5b9406d12a635614ffd914360001b6113fc565b60000160009054906101000a900460ff1615610df257610ded83611406565b610f0b565b8273ffffffffffffffffffffffffffffffffffffffff166352d1902d6040518163ffffffff1660e01b8152600401602060405180830381865afa925050508015610e5a57506040513d601f19601f82011682018060405250810190610e579190612878565b60015b610e99576040517f08c379a0000000000000000000000000000000000000000000000000000000008152600401610e9090612917565b60405180910390fd5b7f360894a13ba1a3210667c828492db98dca3e2076cc3735a920a3ca505d382bbc60001b8114610efe576040517f08c379a0000000000000000000000000000000000000000000000000000000008152600401610ef5906129a9565b60405180910390fd5b50610f0a8383836114bf565b5b505050565b6000603360009054906101000a900473ffffffffffffffffffffffffffffffffffffffff16905081603360006101000a81548173ffffffffffffffffffffffffffffffffffffffff021916908373ffffffffffffffffffffffffffffffffffffffff1602179055508173ffffffffffffffffffffffffffffffffffffffff168173ffffffffffffffffffffffffffffffffffffffff167f8be0079c531659141344cd1fd0a4f28419497f9722a3daafe3b4186f6b6457e060405160405180910390a35050565b80471015611019576040517f08c379a000000000000000000000000000000000000000000000000000000000815260040161101090612a15565b60405180910390fd5b60008273ffffffffffffffffffffffffffffffffffffffff168260405161103f90612a66565b60006040518083038185875af1925050503d806000811461107c576040519150601f19603f3d011682016040523d82523d6000602084013e611081565b606091505b50509050806110c5576040517f08c379a00000000000000000000000000000000000000000000000000000000081526004016110bc90612aed565b60405180910390fd5b505050565b6110d2610cac565b61113a60cf60008373ffffffffffffffffffffffffffffffffffffffff1673ffffffffffffffffffffffffffffffffffffffff168152602001908152602001600020548273ffffffffffffffffffffffffffffffffffffffff16610fd690919063ffffffff16565b8073ffffffffffffffffffffffffffffffffffffffff167f3d97f39b86d061200a7834082f5926e58ec10fd85a9d6930f497729d5e6cc35c60cf60008473ffffffffffffffffffffffffffffffffffffffff1673ffffffffffffffffffffffffffffffffffffffff168152602001908152602001600020546040516111bf9190611b42565b60405180910390a250565b6000808273ffffffffffffffffffffffffffffffffffffffff163b119050919050565b600060019054906101000a900460ff1661123c576040517f08c379a000000000000000000000000000000000000000000000000000000000815260040161123390612b7f565b60405180910390fd5b6112446114eb565b565b600060019054906101000a900460ff16611295576040517f08c379a000000000000000000000000000000000000000000000000000000000815260040161128c90612b7f565b60405180910390fd5b565b600060018111156112ab576112aa612b9f565b5b8160a0015160018111156112c2576112c1612b9f565b5b036112de576112d98160400151826060015161154c565b6113e7565b6001808111156112f1576112f0612b9f565b5b8160a00151600181111561130857611307612b9f565b5b14611347577fa2db52a45d71264723caeac03c235d51bb30cff5e1ac71c97a5842ec94fbb6af60405161133a90612c40565b60405180910390a1600080fd5b60006040518060e0016040528060008152602001836020015173ffffffffffffffffffffffffffffffffffffffff16815260200183600001518152602001836040015173ffffffffffffffffffffffffffffffffffffffff16815260200183606001518152602001428152602001836080015181525090506113c960c96117da565b6113d360c96117f0565b8160000181815250506113e5816117fe565b505b50565b600033905090565b6000819050919050565b6000819050919050565b61140f816111ca565b61144e576040517f08c379a000000000000000000000000000000000000000000000000000000000815260040161144590612cd2565b60405180910390fd5b8061147b7f360894a13ba1a3210667c828492db98dca3e2076cc3735a920a3ca505d382bbc60001b6113f2565b60000160006101000a81548173ffffffffffffffffffffffffffffffffffffffff021916908373ffffffffffffffffffffffffffffffffffffffff16021790555050565b6114c88361196e565b6000825111806114d55750805b156114e6576114e483836119bd565b505b505050565b600060019054906101000a900460ff1661153a576040517f08c379a000000000000000000000000000000000000000000000000000000000815260040161153190612b7f565b60405180910390fd5b61154a6115456113ea565b610f10565b565b611554610cac565b60006115a88260cf60008673ffffffffffffffffffffffffffffffffffffffff1673ffffffffffffffffffffffffffffffffffffffff16815260200190815260200160002054610d2a90919063ffffffff16565b90508160ce60008573ffffffffffffffffffffffffffffffffffffffff1673ffffffffffffffffffffffffffffffffffffffff16815260200190815260200160002054101561162c576040517f08c379a000000000000000000000000000000000000000000000000000000000815260040161162390612d64565b60405180910390fd5b8060ce60008573ffffffffffffffffffffffffffffffffffffffff1673ffffffffffffffffffffffffffffffffffffffff1681526020019081526020016000205410156116ae576040517f08c379a00000000000000000000000000000000000000000000000000000000081526004016116a590612df6565b60405180910390fd5b6117008260ce60008673ffffffffffffffffffffffffffffffffffffffff1673ffffffffffffffffffffffffffffffffffffffff16815260200190815260200160002054611aa190919063ffffffff16565b60ce60008573ffffffffffffffffffffffffffffffffffffffff1673ffffffffffffffffffffffffffffffffffffffff168152602001908152602001600020819055508060cf60008573ffffffffffffffffffffffffffffffffffffffff1673ffffffffffffffffffffffffffffffffffffffff168152602001908152602001600020819055508273ffffffffffffffffffffffffffffffffffffffff167f7fd36617a06b55977ffa06f8dc94b5ec0650c2b7b353fa22c7d0f211284dc749836040516117cd9190611b42565b60405180910390a2505050565b6001816000016000828254019250508190555050565b600081600001549050919050565b60cc600081548092919061181190612e16565b91905055508060ca6000836000015181526020019081526020016000206000820151816000015560208201518160010160006101000a81548173ffffffffffffffffffffffffffffffffffffffff021916908373ffffffffffffffffffffffffffffffffffffffff1602179055506040820151816002015560608201518160030160006101000a81548173ffffffffffffffffffffffffffffffffffffffff021916908373ffffffffffffffffffffffffffffffffffffffff1602179055506080820151816004015560a0820151816005015560c08201518160060190816118f9919061306b565b5090505060cb6000826060015173ffffffffffffffffffffffffffffffffffffffff1673ffffffffffffffffffffffffffffffffffffffff1681526020019081526020016000208160000151908060018154018082558091505060019003906000526020600020016000909190919091505550565b61197781611406565b8073ffffffffffffffffffffffffffffffffffffffff167fbc7cd75a20ee27fd9adebab32041f755214dbc6bffa90cc0225b39da2e5c2d3b60405160405180910390a250565b60606119c8836111ca565b611a07576040517f08c379a00000000000000000000000000000000000000000000000000000000081526004016119fe906131af565b60405180910390fd5b6000808473ffffffffffffffffffffffffffffffffffffffff1684604051611a2f9190613235565b600060405180830381855af49150503d8060008114611a6a576040519150601f19603f3d011682016040523d82523d6000602084013e611a6f565b606091505b5091509150611a9782826040518060600160405280602781526020016132dc60279139611ab7565b9250505092915050565b60008183611aaf919061324c565b905092915050565b60608315611ac757829050611ad2565b611ad18383611ad9565b5b9392505050565b600082511115611aec5781518083602001fd5b806040517f08c379a0000000000000000000000000000000000000000000000000000000008152600401611b2091906132b9565b60405180910390fd5b6000819050919050565b611b3c81611b29565b82525050565b6000602082019050611b576000830184611b33565b92915050565b6000604051905090565b600080fd5b600080fd5b600080fd5b6000601f19601f8301169050919050565b7f4e487b7100000000000000000000000000000000000000000000000000000000600052604160045260246000fd5b611bbf82611b76565b810181811067ffffffffffffffff82111715611bde57611bdd611b87565b5b80604052505050565b6000611bf1611b5d565b9050611bfd8282611bb6565b919050565b600080fd5b600073ffffffffffffffffffffffffffffffffffffffff82169050919050565b6000611c3282611c07565b9050919050565b611c4281611c27565b8114611c4d57600080fd5b50565b600081359050611c5f81611c39565b92915050565b611c6e81611b29565b8114611c7957600080fd5b50565b600081359050611c8b81611c65565b92915050565b6000819050919050565b611ca481611c91565b8114611caf57600080fd5b50565b600081359050611cc181611c9b565b92915050565b600060808284031215611cdd57611cdc611b71565b5b611ce76080611be7565b90506000611cf784828501611c50565b6000830152506020611d0b84828501611c7c565b6020830152506040611d1f84828501611c7c565b6040830152506060611d3384828501611cb2565b60608301525092915050565b600060808284031215611d5557611d54611b67565b5b6000611d6384828501611cc7565b91505092915050565b600060208284031215611d8257611d81611b67565b5b6000611d9084828501611c50565b91505092915050565b6000611da482611c07565b9050919050565b611db481611d99565b82525050565b6000602082019050611dcf6000830184611dab565b92915050565b600080fd5b600080fd5b600067ffffffffffffffff821115611dfa57611df9611b87565b5b611e0382611b76565b9050602081019050919050565b82818337600083830152505050565b6000611e32611e2d84611ddf565b611be7565b905082815260208101848484011115611e4e57611e4d611dda565b5b611e59848285611e10565b509392505050565b600082601f830112611e7657611e75611dd5565b5b8135611e86848260208601611e1f565b91505092915050565b60008060408385031215611ea657611ea5611b67565b5b6000611eb485828601611c50565b925050602083013567ffffffffffffffff811115611ed557611ed4611b6c565b5b611ee185828601611e61565b9150509250929050565b611ef481611c91565b82525050565b6000602082019050611f0f6000830184611eeb565b92915050565b611f1e81611c27565b82525050565b6000602082019050611f396000830184611f15565b92915050565b611f4881611d99565b8114611f5357600080fd5b50565b600081359050611f6581611f3f565b92915050565b600060208284031215611f8157611f80611b67565b5b6000611f8f84828501611f56565b91505092915050565b60008060408385031215611faf57611fae611b67565b5b6000611fbd85828601611f56565b9250506020611fce85828601611c7c565b9150509250929050565b600067ffffffffffffffff821115611ff357611ff2611b87565b5b611ffc82611b76565b9050602081019050919050565b600061201c61201784611fd8565b611be7565b90508281526020810184848401111561203857612037611dda565b5b612043848285611e10565b509392505050565b600082601f8301126120605761205f611dd5565b5b8135612070848260208601612009565b91505092915050565b6002811061208657600080fd5b50565b60008135905061209881612079565b92915050565b600060c082840312156120b4576120b3611b71565b5b6120be60c0611be7565b905060006120ce84828501611c7c565b60008301525060206120e284828501611c50565b60208301525060406120f684828501611c50565b604083015250606061210a84828501611c7c565b606083015250608082013567ffffffffffffffff81111561212e5761212d611c02565b5b61213a8482850161204b565b60808301525060a061214e84828501612089565b60a08301525092915050565b6000602082840312156121705761216f611b67565b5b600082013567ffffffffffffffff81111561218e5761218d611b6c565b5b61219a8482850161209e565b91505092915050565b6121ac81611c27565b82525050565b6121bb81611b29565b82525050565b6121ca81611c91565b82525050565b6080820160008201516121e660008501826121a3565b5060208201516121f960208501826121b2565b50604082015161220c60408501826121b2565b50606082015161221f60608501826121c1565b50505050565b600060808201905061223a60008301846121d0565b92915050565b600082825260208201905092915050565b7f46756e6374696f6e206d7573742062652063616c6c6564207468726f7567682060008201527f64656c656761746563616c6c0000000000000000000000000000000000000000602082015250565b60006122ad602c83612240565b91506122b882612251565b604082019050919050565b600060208201905081810360008301526122dc816122a0565b9050919050565b7f46756e6374696f6e206d7573742062652063616c6c6564207468726f7567682060008201527f6163746976652070726f78790000000000000000000000000000000000000000602082015250565b600061233f602c83612240565b915061234a826122e3565b604082019050919050565b6000602082019050818103600083015261236e81612332565b9050919050565b7f555550535570677261646561626c653a206d757374206e6f742062652063616c60008201527f6c6564207468726f7567682064656c656761746563616c6c0000000000000000602082015250565b60006123d1603883612240565b91506123dc82612375565b604082019050919050565b60006020820190508181036000830152612400816123c4565b9050919050565b7f41646472657373206973206e6f7420616c6c6f77656420616e7920726566756e60008201527f6473000000000000000000000000000000000000000000000000000000000000602082015250565b6000612463602283612240565b915061246e82612407565b604082019050919050565b6000602082019050818103600083015261249281612456565b9050919050565b7f496e697469616c697a61626c653a20636f6e747261637420697320616c72656160008201527f647920696e697469616c697a6564000000000000000000000000000000000000602082015250565b60006124f5602e83612240565b915061250082612499565b604082019050919050565b60006020820190508181036000830152612524816124e8565b9050919050565b7f42656e656669636961727920697320746865207a65726f206164647265737300600082015250565b6000612561601f83612240565b915061256c8261252b565b602082019050919050565b6000602082019050818103600083015261259081612554565b9050919050565b7f5365727669636520494420697320726571756972656400000000000000000000600082015250565b60006125cd601683612240565b91506125d882612597565b602082019050919050565b600060208201905081810360008301526125fc816125c0565b9050919050565b6000819050919050565b600060ff82169050919050565b6000819050919050565b600061263f61263a61263584612603565b61261a565b61260d565b9050919050565b61264f81612624565b82525050565b600060208201905061266a6000830184612646565b92915050565b7f5468657265206973206e6f7420656e6f7567682062616c616e636520746f206260008201527f652072656c65617365642e000000000000000000000000000000000000000000602082015250565b60006126cc602b83612240565b91506126d782612670565b604082019050919050565b600060208201905081810360008301526126fb816126bf565b9050919050565b7f4f776e61626c653a206e6577206f776e657220697320746865207a65726f206160008201527f6464726573730000000000000000000000000000000000000000000000000000602082015250565b600061275e602683612240565b915061276982612702565b604082019050919050565b6000602082019050818103600083015261278d81612751565b9050919050565b7f4f776e61626c653a2063616c6c6572206973206e6f7420746865206f776e6572600082015250565b60006127ca602083612240565b91506127d582612794565b602082019050919050565b600060208201905081810360008301526127f9816127bd565b9050919050565b7f4e487b7100000000000000000000000000000000000000000000000000000000600052601160045260246000fd5b600061283a82611b29565b915061284583611b29565b925082820190508082111561285d5761285c612800565b5b92915050565b60008151905061287281611c9b565b92915050565b60006020828403121561288e5761288d611b67565b5b600061289c84828501612863565b91505092915050565b7f45524331393637557067726164653a206e657720696d706c656d656e7461746960008201527f6f6e206973206e6f742055555053000000000000000000000000000000000000602082015250565b6000612901602e83612240565b915061290c826128a5565b604082019050919050565b60006020820190508181036000830152612930816128f4565b9050919050565b7f45524331393637557067726164653a20756e737570706f727465642070726f7860008201527f6961626c65555549440000000000000000000000000000000000000000000000602082015250565b6000612993602983612240565b915061299e82612937565b604082019050919050565b600060208201905081810360008301526129c281612986565b9050919050565b7f416464726573733a20696e73756666696369656e742062616c616e6365000000600082015250565b60006129ff601d83612240565b9150612a0a826129c9565b602082019050919050565b60006020820190508181036000830152612a2e816129f2565b9050919050565b600081905092915050565b50565b6000612a50600083612a35565b9150612a5b82612a40565b600082019050919050565b6000612a7182612a43565b9150819050919050565b7f416464726573733a20756e61626c6520746f2073656e642076616c75652c207260008201527f6563697069656e74206d61792068617665207265766572746564000000000000602082015250565b6000612ad7603a83612240565b9150612ae282612a7b565b604082019050919050565b60006020820190508181036000830152612b0681612aca565b9050919050565b7f496e697469616c697a61626c653a20636f6e7472616374206973206e6f74206960008201527f6e697469616c697a696e67000000000000000000000000000000000000000000602082015250565b6000612b69602b83612240565b9150612b7482612b0d565b604082019050919050565b60006020820190508181036000830152612b9881612b5c565b9050919050565b7f4e487b7100000000000000000000000000000000000000000000000000000000600052602160045260246000fd5b7f46756c66696c6c6d656e7420726573756c7420776173207375626d697474656460008201527f2077697468207765697264207374617475730000000000000000000000000000602082015250565b6000612c2a603283612240565b9150612c3582612bce565b604082019050919050565b60006020820190508181036000830152612c5981612c1d565b9050919050565b7f455243313936373a206e657720696d706c656d656e746174696f6e206973206e60008201527f6f74206120636f6e747261637400000000000000000000000000000000000000602082015250565b6000612cbc602d83612240565b9150612cc782612c60565b604082019050919050565b60006020820190508181036000830152612ceb81612caf565b9050919050565b7f416d6f756e7420697320626967676572207468616e2074686520746f74616c2060008201527f696e20657363726f770000000000000000000000000000000000000000000000602082015250565b6000612d4e602983612240565b9150612d5982612cf2565b604082019050919050565b60006020820190508181036000830152612d7d81612d41565b9050919050565b7f546f74616c20726566756e647320776f756c642062652062696767657220746860008201527f616e2074686520746f74616c20696e20657363726f7700000000000000000000602082015250565b6000612de0603683612240565b9150612deb82612d84565b604082019050919050565b60006020820190508181036000830152612e0f81612dd3565b9050919050565b6000612e2182611b29565b91507fffffffffffffffffffffffffffffffffffffffffffffffffffffffffffffffff8203612e5357612e52612800565b5b600182019050919050565b600081519050919050565b7f4e487b7100000000000000000000000000000000000000000000000000000000600052602260045260246000fd5b60006002820490506001821680612eb057607f821691505b602082108103612ec357612ec2612e69565b5b50919050565b60008190508160005260206000209050919050565b60006020601f8301049050919050565b600082821b905092915050565b600060088302612f2b7fffffffffffffffffffffffffffffffffffffffffffffffffffffffffffffffff82612eee565b612f358683612eee565b95508019841693508086168417925050509392505050565b6000612f68612f63612f5e84611b29565b61261a565b611b29565b9050919050565b6000819050919050565b612f8283612f4d565b612f96612f8e82612f6f565b848454612efb565b825550505050565b600090565b612fab612f9e565b612fb6818484612f79565b505050565b5b81811015612fda57612fcf600082612fa3565b600181019050612fbc565b5050565b601f82111561301f57612ff081612ec9565b612ff984612ede565b81016020851015613008578190505b61301c61301485612ede565b830182612fbb565b50505b505050565b600082821c905092915050565b600061304260001984600802613024565b1980831691505092915050565b600061305b8383613031565b9150826002028217905092915050565b61307482612e5e565b67ffffffffffffffff81111561308d5761308c611b87565b5b6130978254612e98565b6130a2828285612fde565b600060209050601f8311600181146130d557600084156130c3578287015190505b6130cd858261304f565b865550613135565b601f1984166130e386612ec9565b60005b8281101561310b578489015182556001820191506020850194506020810190506130e6565b868310156131285784890151613124601f891682613031565b8355505b6001600288020188555050505b505050505050565b7f416464726573733a2064656c65676174652063616c6c20746f206e6f6e2d636f60008201527f6e74726163740000000000000000000000000000000000000000000000000000602082015250565b6000613199602683612240565b91506131a48261313d565b604082019050919050565b600060208201905081810360008301526131c88161318c565b9050919050565b600081519050919050565b60005b838110156131f85780820151818401526020810190506131dd565b60008484015250505050565b600061320f826131cf565b6132198185612a35565b93506132298185602086016131da565b80840191505092915050565b60006132418284613204565b915081905092915050565b600061325782611b29565b915061326283611b29565b925082820390508181111561327a57613279612800565b5b92915050565b600061328b82612e5e565b6132958185612240565b93506132a58185602086016131da565b6132ae81611b76565b840191505092915050565b600060208201905081810360008301526132d38184613280565b90509291505056fe416464726573733a206c6f772d6c6576656c2064656c65676174652063616c6c206661696c6564a2646970667358221220f964c0af45f75696cab7dc75b17cef7932b40089f18c80b1b8d6d33fb58c9d9764736f6c63430008110033",
  "immutableReferences": {
    "720": [
      {
        "length": 32,
        "start": 1007
      },
      {
        "length": 32,
        "start": 1149
      },
      {
        "length": 32,
        "start": 1441
      },
      {
        "length": 32,
        "start": 1583
      },
      {
        "length": 32,
        "start": 1759
      }
    ]
  },
  "source": "// SPDX-License-Identifier: MIT\n// Inspired in:\n// OpenZeppelin Contracts v4.4.1 (utils/escrow/Escrow.sol)\n\npragma solidity 0.8.17;\n\nimport \"@openzeppelin/contracts-upgradeable/proxy/utils/UUPSUpgradeable.sol\";\nimport \"@openzeppelin/contracts-upgradeable/security/PausableUpgradeable.sol\";\nimport \"@openzeppelin/contracts-upgradeable/utils/math/SafeMathUpgradeable.sol\";\nimport \"@openzeppelin/contracts-upgradeable/utils/AddressUpgradeable.sol\";\nimport \"@openzeppelin/contracts-upgradeable/access/OwnableUpgradeable.sol\";\nimport \"@openzeppelin/contracts-upgradeable/proxy/utils/Initializable.sol\";\nimport \"@openzeppelin/contracts-upgradeable/utils/CountersUpgradeable.sol\";\nimport \"./ITukiFulfillableV1.sol\";\n\n/**\n * @title TukiFulfillableV1\n * @dev Base escrow contract, holds funds designated for a beneficiary until they\n * withdraw them or a refund is emitted.\n *\n * Intended usage: This contract (and derived escrow contracts) should be a\n * standalone contract, that only interacts with the contract that instantiated\n * it. That way, it is guaranteed that all Ether will be handled according to\n * the `Escrow` rules, and there is no need to check for payable functions or\n * transfers in the inheritance tree. The contract that uses the escrow as its\n * payment method should be its owner, and provide public methods redirecting\n * to the escrow's deposit and withdraw.\n */\ncontract TukiFulfillableV1 is Initializable, OwnableUpgradeable, UUPSUpgradeable, ITukiFulfillableV1 {\n    using AddressUpgradeable for address payable;\n    using SafeMathUpgradeable for uint256;\n    using CountersUpgradeable for CountersUpgradeable.Counter;\n\n    //Auto-incrementable id storage\n    CountersUpgradeable.Counter private _fulfillmentIds;\n\n    // All fulfillment records keyed by their ids\n    mapping(uint256 => FulFillmentRecord) private _fulfillmentRecords;\n\n    // Deposits mapped to subject addresses\n    mapping(address => uint256[]) private _fulfillmentRecordsForSubject;\n\n    // Total deposits registered\n    uint256 private _fulfillmentRecordCount;\n\n    // The beneficiary address of the contract which will receive released funds.\n    address payable private _beneficiary;\n\n    mapping(address => uint256) private _deposits;\n    mapping(address => uint256) private _authorized_refunds;\n\n    //The Service Identifier to its corresponding Fulfillable product\n    uint256 private _serviceIdentifier;\n\n    // The amount that is available to be released by the beneficiary.\n    uint256 _releaseablePool;\n\n    /**\n     * @dev initializer.\n     * @param beneficiary_ The beneficiary of the deposits.\n     */\n    function initialize(address payable beneficiary_, uint256 serviceIdentifier_) public virtual initializer {\n        require(address(beneficiary_) != address(0), \"Beneficiary is the zero address\");\n        require(serviceIdentifier_ > 0, \"Service ID is required\");\n        _beneficiary = beneficiary_;\n        _serviceIdentifier = serviceIdentifier_;\n        __Ownable_init();\n        __UUPSUpgradeable_init();\n    }\n\n    /**\n     * @dev required for UUPS upgrades\n     **/\n    function _authorizeUpgrade(address newImplementation)\n        internal\n        onlyOwner\n        override\n    {}\n\n    /**\n     * @return The beneficiary of the escrow.\n     */\n    function beneficiary() public view virtual returns (address payable) {\n        return _beneficiary;\n    }\n\n    /**\n     * @return The service ID of the escrow.\n     */\n    function serviceID() public view virtual returns (uint256) {\n        return _serviceIdentifier;\n    }\n\n    /**\n     * @return Total deposits from a payer\n     */\n    function depositsOf(address payer) public view returns (uint256) {\n        return _deposits[payer];\n    }\n\n    /**\n     * @dev Stores the sent amount as credit to be claimed.\n     * @param fulfillmentRequest The destination address of the funds.\n     */\n    function deposit(FulFillmentRequest memory fulfillmentRequest) public payable virtual onlyOwner {\n        uint256 amount = msg.value;\n        _deposits[fulfillmentRequest.payer] = amount.add(_deposits[fulfillmentRequest.payer]);\n        emit DepositReceived(fulfillmentRequest);\n    }\n\n    /**\n     * @dev Refund accumulated balance for a refundee, forwarding all gas to the\n     * recipient.\n     *\n     * WARNING: Forwarding all gas opens the door to reentrancy vulnerabilities.\n     * Make sure you trust the recipient, or are either following the\n     * checks-effects-interactions pattern or using {ReentrancyGuard}.\n     *\n     * @param refundee The address whose funds will be withdrawn and transferred to.\n     */\n    function withdrawRefund(address payable refundee) public virtual onlyOwner {\n        require(_authorized_refunds[refundee] > 0, \"Address is not allowed any refunds\");\n        _authorized_refunds[refundee] = 0;\n        _withdrawRefund(refundee);\n    }\n\n    /**\n    * @dev internal function to withraw.\n    * Should only be called when previously authorized.\n    *\n    * Will emit a RefundWithdrawn event on success.\n    * \n    * @param refundee The address to send the value to.\n    */\n    function _withdrawRefund(address payable refundee) internal onlyOwner {\n        refundee.sendValue(_authorized_refunds[refundee]); \n        emit RefundWithdrawn(refundee, _authorized_refunds[refundee]);\n    }\n\n    /**\n     * @dev Allows for refunds to take place.\n     * \n     * @param refundee the record to be\n     * @param weiAmount the amount to be authorized.\n     */\n    function _authorizeRefund(address refundee, uint256 weiAmount) internal onlyOwner {\n        uint256 total_refunds = _authorized_refunds[refundee].add(weiAmount);\n        require(\n            _deposits[refundee] >= weiAmount,\n            \"Amount is bigger than the total in escrow\"\n        );\n        require(\n            _deposits[refundee] >= total_refunds,\n            \"Total refunds would be bigger than the total in escrow\"\n        );\n        _deposits[refundee] = _deposits[refundee].sub(weiAmount);\n        _authorized_refunds[refundee] = total_refunds;\n        emit RefundAuthorized(refundee, weiAmount);\n    }\n\n    /**\n     * @dev The fulfiller registers a fulfillment.\n     *\n     * We need to verify the amount of the fulfillment is actually available to release.\n     * Then we can enrich the result with an auto-incremental unique ID.\n     * and the timestamp when the record get inserted.\n     * After these verifications we can add the amount fulfilled to the release pool. \n     * THen we persist this as a FulFillmentRecord to the blockchain.\n     *\n     * @param fulfillment the fulfillment result attached to it.\n     */\n    function registerFulfillment(FulFillmentResult memory fulfillment) public virtual onlyOwner {\n        require(_deposits[fulfillment.payer] >= fulfillment.weiAmount, \"There is not enough balance to be released.\");\n        _validateFulfillmentResult(fulfillment);\n        _releaseablePool = _releaseablePool.add(fulfillment.weiAmount);\n    }\n\n    /**\n     * @dev Withdraws the beneficiary's available balance to release (fulfilled with success).\n     */\n    function beneficiaryWithdraw() public virtual {\n        beneficiary().sendValue(_releaseablePool);\n    }\n\n    /**\n     * @dev Validate a fulfillment result and return a record to be persisted.\n     * \n     * @param fulfillmentResult FulfillmentResult coming from the contract submition.\n     */\n    function _validateFulfillmentResult(FulFillmentResult memory fulfillmentResult) internal {\n        if(fulfillmentResult.status == FulFillmentResultState.FAILED) {\n            _authorizeRefund(fulfillmentResult.payer, fulfillmentResult.weiAmount);\n        } else if(fulfillmentResult.status != FulFillmentResultState.SUCCESS) {\n            // something weird happened. must better log this.\n            emit LogFailure(\"Fulfillment result was submitted with weird status\");\n            revert();\n        } else {\n            // create a FulfillmentRecord\n            FulFillmentRecord memory fulfillmentRecord = FulFillmentRecord({\n                id: 0,\n                externalID: fulfillmentResult.id,\n                fulfiller: fulfillmentResult.fulfiller,\n                entryTime: block.timestamp,\n                payer: fulfillmentResult.payer,\n                weiAmount: fulfillmentResult.weiAmount,\n                receiptURI: fulfillmentResult.receiptURI\n            });\n            _fulfillmentIds.increment();\n            fulfillmentRecord.id = _fulfillmentIds.current();\n            _persistVerificationRecord(fulfillmentRecord);\n        }\n    }\n\n    /**\n    * Persists the fulfillment record to the state variable and mapps it by payer address.\n    */\n    function _persistVerificationRecord(FulFillmentRecord memory record) internal {\n        _fulfillmentRecordCount++;\n        _fulfillmentRecords[record.id] = record;\n        _fulfillmentRecordsForSubject[record.payer].push(record.id);\n    }\n}\n",
  "sourcePath": "/Users/luisoscargabriel/tuki-org/contracts/src/contracts/TukiFulfillableV1.sol",
  "compiler": {
    "name": "solc",
    "version": "0.8.17+commit.8df45f5f.Emscripten.clang"
  },
  "schemaVersion": "3.4.10",
  "updatedAt": "2022-10-31T05:18:05.670Z",
  "devdoc": {
    "details": "Base escrow contract, holds funds designated for a beneficiary until they withdraw them or a refund is emitted. Intended usage: This contract (and derived escrow contracts) should be a standalone contract, that only interacts with the contract that instantiated it. That way, it is guaranteed that all Ether will be handled according to the `Escrow` rules, and there is no need to check for payable functions or transfers in the inheritance tree. The contract that uses the escrow as its payment method should be its owner, and provide public methods redirecting to the escrow's deposit and withdraw.",
    "kind": "dev",
    "methods": {
      "beneficiary()": {
        "returns": {
          "_0": "The beneficiary of the escrow."
        }
      },
      "beneficiaryWithdraw()": {
        "details": "Withdraws the beneficiary's available balance to release (fulfilled with success)."
      },
      "deposit((address,uint256,uint256,bytes32))": {
        "details": "Stores the sent amount as credit to be claimed.",
        "params": {
          "fulfillmentRequest": "The destination address of the funds."
        }
      },
      "depositsOf(address)": {
        "returns": {
          "_0": "Total deposits from a payer"
        }
      },
      "initialize(address,uint256)": {
        "details": "initializer.",
        "params": {
          "beneficiary_": "The beneficiary of the deposits."
        }
      },
      "owner()": {
        "details": "Returns the address of the current owner."
      },
      "proxiableUUID()": {
        "details": "Implementation of the ERC1822 {proxiableUUID} function. This returns the storage slot used by the implementation. It is used to validate the implementation's compatibility when performing an upgrade. IMPORTANT: A proxy pointing at a proxiable contract should not be considered proxiable itself, because this risks bricking a proxy that upgrades to it, by delegating to itself until out of gas. Thus it is critical that this function revert if invoked through a proxy. This is guaranteed by the `notDelegated` modifier."
      },
      "registerFulfillment((uint256,address,address,uint256,string,uint8))": {
        "details": "The fulfiller registers a fulfillment. We need to verify the amount of the fulfillment is actually available to release. Then we can enrich the result with an auto-incremental unique ID. and the timestamp when the record get inserted. After these verifications we can add the amount fulfilled to the release pool.  THen we persist this as a FulFillmentRecord to the blockchain.",
        "params": {
          "fulfillment": "the fulfillment result attached to it."
        }
      },
      "renounceOwnership()": {
        "details": "Leaves the contract without owner. It will not be possible to call `onlyOwner` functions anymore. Can only be called by the current owner. NOTE: Renouncing ownership will leave the contract without an owner, thereby removing any functionality that is only available to the owner."
      },
      "serviceID()": {
        "returns": {
          "_0": "The service ID of the escrow."
        }
      },
      "transferOwnership(address)": {
        "details": "Transfers ownership of the contract to a new account (`newOwner`). Can only be called by the current owner."
      },
      "upgradeTo(address)": {
        "details": "Upgrade the implementation of the proxy to `newImplementation`. Calls {_authorizeUpgrade}. Emits an {Upgraded} event."
      },
      "upgradeToAndCall(address,bytes)": {
        "details": "Upgrade the implementation of the proxy to `newImplementation`, and subsequently execute the function call encoded in `data`. Calls {_authorizeUpgrade}. Emits an {Upgraded} event."
      },
      "withdrawRefund(address)": {
        "details": "Refund accumulated balance for a refundee, forwarding all gas to the recipient. WARNING: Forwarding all gas opens the door to reentrancy vulnerabilities. Make sure you trust the recipient, or are either following the checks-effects-interactions pattern or using {ReentrancyGuard}.",
        "params": {
          "refundee": "The address whose funds will be withdrawn and transferred to."
        }
      }
    },
    "title": "TukiFulfillableV1",
    "version": 1
  },
  "userdoc": {
    "kind": "user",
    "methods": {},
    "version": 1
  }
}