{
  "contractName": "TwelveDigitsValidator",
  "abi": [
    {
      "inputs": [],
      "name": "regex",
      "outputs": [
        {
          "internalType": "string",
          "name": "",
          "type": "string"
        }
      ],
      "stateMutability": "view",
      "type": "function"
    },
    {
      "inputs": [
        {
          "internalType": "string",
          "name": "input",
          "type": "string"
        }
      ],
      "name": "matches",
      "outputs": [
        {
          "internalType": "bool",
          "name": "",
          "type": "bool"
        }
      ],
      "stateMutability": "pure",
      "type": "function"
    }
  ],
  "bytecode": "0x610ab7610053600b82828239805160001a607314610046577f4e487b7100000000000000000000000000000000000000000000000000000000600052600060045260246000fd5b30600052607381538281f3fe73000000000000000000000000000000000000000030146080604052600436106100405760003560e01c806332ac752b1461004557806355e79d2914610075575b600080fd5b61005f600480360381019061005a9190610882565b610093565b60405161006c91906108e6565b60405180910390f35b61007d610115565b60405161008a9190610980565b60405180910390f35b600080604051806040016040528060001515815260200161014e815250905060005b83518110156101075760008482815181106100d3576100d26109a2565b5b602001015160f81c60f81b90506100f181846020015163ffffffff16565b92505080806100ff90610a0a565b9150506100b5565b508060000151915050919050565b6040518060400160405280600981526020017f5b302d395d7b31327d000000000000000000000000000000000000000000000081525081565b610156610701565b60008260f81c905060308160ff1610158015610176575060398160ff1611155b1561019d5760405180604001604052806000151581526020016101c08152509150506101bb565b60405180604001604052806000151581526020016102328152509150505b919050565b6101c8610701565b60008260f81c905060308160ff16101580156101e8575060398160ff1611155b1561020f57604051806040016040528060001515815260200161025b81525091505061022d565b60405180604001604052806000151581526020016102328152509150505b919050565b61023a610701565b60405180604001604052806000151581526020016102328152509050919050565b610263610701565b60008260f81c905060308160ff1610158015610283575060398160ff1611155b156102aa5760405180604001604052806000151581526020016102cd8152509150506102c8565b60405180604001604052806000151581526020016102328152509150505b919050565b6102d5610701565b60008260f81c905060308160ff16101580156102f5575060398160ff1611155b1561031c57604051806040016040528060001515815260200161033f81525091505061033a565b60405180604001604052806000151581526020016102328152509150505b919050565b610347610701565b60008260f81c905060308160ff1610158015610367575060398160ff1611155b1561038e5760405180604001604052806000151581526020016103b18152509150506103ac565b60405180604001604052806000151581526020016102328152509150505b919050565b6103b9610701565b60008260f81c905060308160ff16101580156103d9575060398160ff1611155b1561040057604051806040016040528060001515815260200161042381525091505061041e565b60405180604001604052806000151581526020016102328152509150505b919050565b61042b610701565b60008260f81c905060308160ff161015801561044b575060398160ff1611155b15610472576040518060400160405280600015158152602001610495815250915050610490565b60405180604001604052806000151581526020016102328152509150505b919050565b61049d610701565b60008260f81c905060308160ff16101580156104bd575060398160ff1611155b156104e4576040518060400160405280600015158152602001610507815250915050610502565b60405180604001604052806000151581526020016102328152509150505b919050565b61050f610701565b60008260f81c905060308160ff161015801561052f575060398160ff1611155b15610556576040518060400160405280600015158152602001610579815250915050610574565b60405180604001604052806000151581526020016102328152509150505b919050565b610581610701565b60008260f81c905060308160ff16101580156105a1575060398160ff1611155b156105c85760405180604001604052806000151581526020016105eb8152509150506105e6565b60405180604001604052806000151581526020016102328152509150505b919050565b6105f3610701565b60008260f81c905060308160ff1610158015610613575060398160ff1611155b1561063a57604051806040016040528060001515815260200161065d815250915050610658565b60405180604001604052806000151581526020016102328152509150505b919050565b610665610701565b60008260f81c905060308160ff1610158015610685575060398160ff1611155b156106ac5760405180604001604052806001151581526020016106cf8152509150506106ca565b60405180604001604052806000151581526020016102328152509150505b919050565b6106d7610701565b60008260f81c90506040518060400160405280600015158152602001610232815250915050919050565b604051806040016040528060001515815260200161071e81525090565b610726610a52565b565b6000604051905090565b600080fd5b600080fd5b600080fd5b600080fd5b6000601f19601f8301169050919050565b7f4e487b7100000000000000000000000000000000000000000000000000000000600052604160045260246000fd5b61078f82610746565b810181811067ffffffffffffffff821117156107ae576107ad610757565b5b80604052505050565b60006107c1610728565b90506107cd8282610786565b919050565b600067ffffffffffffffff8211156107ed576107ec610757565b5b6107f682610746565b9050602081019050919050565b82818337600083830152505050565b6000610825610820846107d2565b6107b7565b90508281526020810184848401111561084157610840610741565b5b61084c848285610803565b509392505050565b600082601f8301126108695761086861073c565b5b8135610879848260208601610812565b91505092915050565b60006020828403121561089857610897610732565b5b600082013567ffffffffffffffff8111156108b6576108b5610737565b5b6108c284828501610854565b91505092915050565b60008115159050919050565b6108e0816108cb565b82525050565b60006020820190506108fb60008301846108d7565b92915050565b600081519050919050565b600082825260208201905092915050565b60005b8381101561093b578082015181840152602081019050610920565b60008484015250505050565b600061095282610901565b61095c818561090c565b935061096c81856020860161091d565b61097581610746565b840191505092915050565b6000602082019050818103600083015261099a8184610947565b905092915050565b7f4e487b7100000000000000000000000000000000000000000000000000000000600052603260045260246000fd5b7f4e487b7100000000000000000000000000000000000000000000000000000000600052601160045260246000fd5b6000819050919050565b6000610a1582610a00565b91507fffffffffffffffffffffffffffffffffffffffffffffffffffffffffffffffff8203610a4757610a466109d1565b5b600182019050919050565b7f4e487b7100000000000000000000000000000000000000000000000000000000600052605160045260246000fdfea264697066735822122044cbd38573a0421370af3f7b8a0242e8e96835c8236cdf85d4b2f00a00692a4164736f6c63430008110033",
  "immutableReferences": {},
  "source": "// SPDX-License-Identifier: MIT\npragma solidity ^0.8.17;\n\nlibrary TwelveDigitsValidator {\n  struct State {\n    bool accepts;\n    function (bytes1) pure internal returns (State memory) func;\n  }\n\n  string public constant regex = \"[0-9]{12}\";\n\n  function s0(bytes1 c) pure internal returns (State memory) {\n    c = c;\n    return State(false, s0);\n  }\n\n  function s1(bytes1 c) pure internal returns (State memory) {\n\n     uint8 _cint = uint8(c);\n\n        if (_cint >= 48 && _cint <= 57) {\n          return State(false, s2);\n        }\n\n    return State(false, s0);\n  }\n\n  function s2(bytes1 c) pure internal returns (State memory) {\n\n     uint8 _cint = uint8(c);\n\n        if (_cint >= 48 && _cint <= 57) {\n          return State(false, s3);\n        }\n\n    return State(false, s0);\n  }\n\n  function s3(bytes1 c) pure internal returns (State memory) {\n\n     uint8 _cint = uint8(c);\n\n        if (_cint >= 48 && _cint <= 57) {\n          return State(false, s4);\n        }\n\n    return State(false, s0);\n  }\n\n  function s4(bytes1 c) pure internal returns (State memory) {\n\n     uint8 _cint = uint8(c);\n\n        if (_cint >= 48 && _cint <= 57) {\n          return State(false, s5);\n        }\n\n    return State(false, s0);\n  }\n\n  function s5(bytes1 c) pure internal returns (State memory) {\n\n     uint8 _cint = uint8(c);\n\n        if (_cint >= 48 && _cint <= 57) {\n          return State(false, s6);\n        }\n\n    return State(false, s0);\n  }\n\n  function s6(bytes1 c) pure internal returns (State memory) {\n\n     uint8 _cint = uint8(c);\n\n        if (_cint >= 48 && _cint <= 57) {\n          return State(false, s7);\n        }\n\n    return State(false, s0);\n  }\n\n  function s7(bytes1 c) pure internal returns (State memory) {\n\n     uint8 _cint = uint8(c);\n\n        if (_cint >= 48 && _cint <= 57) {\n          return State(false, s8);\n        }\n\n    return State(false, s0);\n  }\n\n  function s8(bytes1 c) pure internal returns (State memory) {\n\n     uint8 _cint = uint8(c);\n\n        if (_cint >= 48 && _cint <= 57) {\n          return State(false, s9);\n        }\n\n    return State(false, s0);\n  }\n\n  function s9(bytes1 c) pure internal returns (State memory) {\n\n     uint8 _cint = uint8(c);\n\n        if (_cint >= 48 && _cint <= 57) {\n          return State(false, s10);\n        }\n\n    return State(false, s0);\n  }\n\n  function s10(bytes1 c) pure internal returns (State memory) {\n\n     uint8 _cint = uint8(c);\n\n        if (_cint >= 48 && _cint <= 57) {\n          return State(false, s11);\n        }\n\n    return State(false, s0);\n  }\n\n  function s11(bytes1 c) pure internal returns (State memory) {\n\n     uint8 _cint = uint8(c);\n\n        if (_cint >= 48 && _cint <= 57) {\n          return State(false, s12);\n        }\n\n    return State(false, s0);\n  }\n\n  function s12(bytes1 c) pure internal returns (State memory) {\n\n     uint8 _cint = uint8(c);\n\n        if (_cint >= 48 && _cint <= 57) {\n          return State(true, s13);\n        }\n\n    return State(false, s0);\n  }\n\n  function s13(bytes1 c) pure internal returns (State memory) {\n\n     uint8 _cint = uint8(c);\n\n        // silence unused var warning\n        c = c;\n\n    return State(false, s0);\n  }\n\n  function matches(string memory input) public pure returns (bool) {\n    State memory cur = State(false, s1);\n\n    for (uint i = 0; i < bytes(input).length; i++) {\n      bytes1 c = bytes(input)[i];\n\n      cur = cur.func(c);\n    }\n\n    return cur.accepts;\n  }\n}\n",
  "sourcePath": "/Users/luisoscargabriel/tuki-org/contracts/src/contracts/TwelveDigitsValidator.sol",
  "compiler": {
    "name": "solc",
    "version": "0.8.17+commit.8df45f5f.Emscripten.clang"
  },
  "schemaVersion": "3.4.10",
  "updatedAt": "2022-11-21T03:52:56.396Z",
  "devdoc": {
    "kind": "dev",
    "methods": {},
    "version": 1
  },
  "userdoc": {
    "kind": "user",
    "methods": {},
    "version": 1
  }
}