{
  "_format": "hh-sol-artifact-1",
  "contractName": "BandoRouterV1",
  "sourceName": "contracts/BandoRouterV1.sol",
  "abi": [
    {
      "inputs": [
        {
          "internalType": "address",
          "name": "target",
          "type": "address"
        }
      ],
      "name": "AddressEmptyCode",
      "type": "error"
    },
    {
      "inputs": [
        {
          "internalType": "address",
          "name": "implementation",
          "type": "address"
        }
      ],
      "name": "ERC1967InvalidImplementation",
      "type": "error"
    },
    {
      "inputs": [],
      "name": "ERC1967NonPayable",
      "type": "error"
    },
    {
      "inputs": [],
      "name": "EnforcedPause",
      "type": "error"
    },
    {
      "inputs": [],
      "name": "ExpectedPause",
      "type": "error"
    },
    {
      "inputs": [],
      "name": "FailedInnerCall",
      "type": "error"
    },
    {
      "inputs": [],
      "name": "InvalidInitialization",
      "type": "error"
    },
    {
      "inputs": [],
      "name": "NotInitializing",
      "type": "error"
    },
    {
      "inputs": [
        {
          "internalType": "address",
          "name": "owner",
          "type": "address"
        }
      ],
      "name": "OwnableInvalidOwner",
      "type": "error"
    },
    {
      "inputs": [
        {
          "internalType": "address",
          "name": "account",
          "type": "address"
        }
      ],
      "name": "OwnableUnauthorizedAccount",
      "type": "error"
    },
    {
      "inputs": [],
      "name": "UUPSUnauthorizedCallContext",
      "type": "error"
    },
    {
      "inputs": [
        {
          "internalType": "bytes32",
          "name": "slot",
          "type": "bytes32"
        }
      ],
      "name": "UUPSUnsupportedProxiableUUID",
      "type": "error"
    },
    {
      "anonymous": false,
      "inputs": [
        {
          "indexed": false,
          "internalType": "uint64",
          "name": "version",
          "type": "uint64"
        }
      ],
      "name": "Initialized",
      "type": "event"
    },
    {
      "anonymous": false,
      "inputs": [
        {
          "indexed": true,
          "internalType": "address",
          "name": "previousOwner",
          "type": "address"
        },
        {
          "indexed": true,
          "internalType": "address",
          "name": "newOwner",
          "type": "address"
        }
      ],
      "name": "OwnershipTransferred",
      "type": "event"
    },
    {
      "anonymous": false,
      "inputs": [
        {
          "indexed": false,
          "internalType": "address",
          "name": "account",
          "type": "address"
        }
      ],
      "name": "Paused",
      "type": "event"
    },
    {
      "anonymous": false,
      "inputs": [
        {
          "indexed": false,
          "internalType": "uint256",
          "name": "serviceID",
          "type": "uint256"
        },
        {
          "indexed": false,
          "internalType": "string",
          "name": "serviceRef",
          "type": "string"
        }
      ],
      "name": "RefValidationFailed",
      "type": "event"
    },
    {
      "anonymous": false,
      "inputs": [
        {
          "indexed": false,
          "internalType": "uint256",
          "name": "serviceID",
          "type": "uint256"
        },
        {
          "components": [
            {
              "internalType": "address",
              "name": "payer",
              "type": "address"
            },
            {
              "internalType": "uint256",
              "name": "weiAmount",
              "type": "uint256"
            },
            {
              "internalType": "uint256",
              "name": "fiatAmount",
              "type": "uint256"
            },
            {
              "internalType": "string",
              "name": "serviceRef",
              "type": "string"
            }
          ],
          "indexed": false,
          "internalType": "struct FulFillmentRequest",
          "name": "request",
          "type": "tuple"
        }
      ],
      "name": "ServiceRequested",
      "type": "event"
    },
    {
      "anonymous": false,
      "inputs": [
        {
          "indexed": false,
          "internalType": "address",
          "name": "account",
          "type": "address"
        }
      ],
      "name": "Unpaused",
      "type": "event"
    },
    {
      "anonymous": false,
      "inputs": [
        {
          "indexed": true,
          "internalType": "address",
          "name": "implementation",
          "type": "address"
        }
      ],
      "name": "Upgraded",
      "type": "event"
    },
    {
      "inputs": [],
      "name": "UPGRADE_INTERFACE_VERSION",
      "outputs": [
        {
          "internalType": "string",
          "name": "",
          "type": "string"
        }
      ],
      "stateMutability": "view",
      "type": "function"
    },
    {
      "inputs": [
        {
          "internalType": "address",
          "name": "serviceRegistry",
          "type": "address"
        }
      ],
      "name": "initialize",
      "outputs": [],
      "stateMutability": "nonpayable",
      "type": "function"
    },
    {
      "inputs": [],
      "name": "owner",
      "outputs": [
        {
          "internalType": "address",
          "name": "",
          "type": "address"
        }
      ],
      "stateMutability": "view",
      "type": "function"
    },
    {
      "inputs": [],
      "name": "pause",
      "outputs": [],
      "stateMutability": "nonpayable",
      "type": "function"
    },
    {
      "inputs": [],
      "name": "paused",
      "outputs": [
        {
          "internalType": "bool",
          "name": "",
          "type": "bool"
        }
      ],
      "stateMutability": "view",
      "type": "function"
    },
    {
      "inputs": [],
      "name": "proxiableUUID",
      "outputs": [
        {
          "internalType": "bytes32",
          "name": "",
          "type": "bytes32"
        }
      ],
      "stateMutability": "view",
      "type": "function"
    },
    {
      "inputs": [],
      "name": "renounceOwnership",
      "outputs": [],
      "stateMutability": "nonpayable",
      "type": "function"
    },
    {
      "inputs": [
        {
          "internalType": "uint256",
          "name": "serviceID",
          "type": "uint256"
        },
        {
          "components": [
            {
              "internalType": "address",
              "name": "payer",
              "type": "address"
            },
            {
              "internalType": "uint256",
              "name": "weiAmount",
              "type": "uint256"
            },
            {
              "internalType": "uint256",
              "name": "fiatAmount",
              "type": "uint256"
            },
            {
              "internalType": "string",
              "name": "serviceRef",
              "type": "string"
            }
          ],
          "internalType": "struct FulFillmentRequest",
          "name": "request",
          "type": "tuple"
        }
      ],
      "name": "requestService",
      "outputs": [
        {
          "internalType": "bool",
          "name": "",
          "type": "bool"
        }
      ],
      "stateMutability": "payable",
      "type": "function"
    },
    {
      "inputs": [
        {
          "internalType": "address",
          "name": "newOwner",
          "type": "address"
        }
      ],
      "name": "transferOwnership",
      "outputs": [],
      "stateMutability": "nonpayable",
      "type": "function"
    },
    {
      "inputs": [],
      "name": "unpause",
      "outputs": [],
      "stateMutability": "nonpayable",
      "type": "function"
    },
    {
      "inputs": [
        {
          "internalType": "address",
          "name": "newImplementation",
          "type": "address"
        },
        {
          "internalType": "bytes",
          "name": "data",
          "type": "bytes"
        }
      ],
      "name": "upgradeToAndCall",
      "outputs": [],
      "stateMutability": "payable",
      "type": "function"
    }
  ],
  "bytecode": "0x60a06040523073ffffffffffffffffffffffffffffffffffffffff1660809073ffffffffffffffffffffffffffffffffffffffff1681525034801561004357600080fd5b50608051611f6d61006d60003960008181610a1c01528181610a710152610c2c0152611f6d6000f3fe60806040526004361061009c5760003560e01c80638456cb59116100645780638456cb59146101415780638d5e694f146101585780638da5cb5b14610188578063ad3cb1cc146101b3578063c4d66de8146101de578063f2fde38b146102075761009c565b80633f4ba83a146100a15780634f1ef286146100b857806352d1902d146100d45780635c975abb146100ff578063715018a61461012a575b600080fd5b3480156100ad57600080fd5b506100b6610230565b005b6100d260048036038101906100cd9190611562565b610242565b005b3480156100e057600080fd5b506100e9610261565b6040516100f691906115d7565b60405180910390f35b34801561010b57600080fd5b50610114610294565b604051610121919061160d565b60405180910390f35b34801561013657600080fd5b5061013f6102b9565b005b34801561014d57600080fd5b506101566102cd565b005b610172600480360381019061016d919061179d565b6102df565b60405161017f919061160d565b60405180910390f35b34801561019457600080fd5b5061019d61064b565b6040516101aa9190611808565b60405180910390f35b3480156101bf57600080fd5b506101c8610683565b6040516101d591906118a2565b60405180910390f35b3480156101ea57600080fd5b50610205600480360381019061020091906118c4565b6106bc565b005b34801561021357600080fd5b5061022e600480360381019061022991906118c4565b61089b565b005b610238610921565b6102406109a8565b565b61024a610a1a565b61025382610b00565b61025d8282610b0b565b5050565b600061026b610c2a565b7f360894a13ba1a3210667c828492db98dca3e2076cc3735a920a3ca505d382bbc60001b905090565b60008061029f610cb1565b90508060000160009054906101000a900460ff1691505090565b6102c1610921565b6102cb6000610cd9565b565b6102d5610921565b6102dd610db0565b565b60006102e9610e22565b6000341161032c576040517f08c379a00000000000000000000000000000000000000000000000000000000081526004016103239061193d565b60405180910390fd5b6000826040015111610373576040517f08c379a000000000000000000000000000000000000000000000000000000000815260040161036a906119a9565b60405180910390fd5b60008060009054906101000a900473ffffffffffffffffffffffffffffffffffffffff1673ffffffffffffffffffffffffffffffffffffffff1663ef0e239b856040518263ffffffff1660e01b81526004016103cf91906119d8565b60a060405180830381865afa1580156103ec573d6000803e3d6000fd5b505050506040513d601f19601f820116820180604052508101906104109190611aa9565b905060008054906101000a900473ffffffffffffffffffffffffffffffffffffffff1673ffffffffffffffffffffffffffffffffffffffff1663d4a247038585606001516040518363ffffffff1660e01b8152600401610471929190611ad6565b602060405180830381865afa15801561048e573d6000803e3d6000fd5b505050506040513d601f19601f820116820180604052508101906104b29190611b32565b6104f1576040517f08c379a00000000000000000000000000000000000000000000000000000000081526004016104e890611bab565b60405180910390fd5b60008061050f83608001518660200151610e6390919063ffffffff16565b9150915081610553576040517f08c379a000000000000000000000000000000000000000000000000000000000815260040161054a90611c3d565b60405180910390fd5b803414610595576040517f08c379a000000000000000000000000000000000000000000000000000000000815260040161058c90611ccf565b60405180910390fd5b826020015173ffffffffffffffffffffffffffffffffffffffff1663d45f858e34876040518363ffffffff1660e01b81526004016105d39190611dba565b6000604051808303818588803b1580156105ec57600080fd5b505af1158015610600573d6000803e3d6000fd5b50505050507f3b033105de4e75715ba988cac7097f29a5163f6aecd3d6c7edf7cba81227612e8686604051610636929190611ddc565b60405180910390a16001935050505092915050565b600080610656610e92565b90508060000160009054906101000a900473ffffffffffffffffffffffffffffffffffffffff1691505090565b6040518060400160405280600581526020017f352e302e3000000000000000000000000000000000000000000000000000000081525081565b60006106c6610eba565b905060008160000160089054906101000a900460ff1615905060008260000160009054906101000a900467ffffffffffffffff1690506000808267ffffffffffffffff161480156107145750825b9050600060018367ffffffffffffffff16148015610749575060003073ffffffffffffffffffffffffffffffffffffffff163b145b905081158015610757575080155b1561078e576040517ff92ee8a900000000000000000000000000000000000000000000000000000000815260040160405180910390fd5b60018560000160006101000a81548167ffffffffffffffff021916908367ffffffffffffffff16021790555083156107de5760018560000160086101000a81548160ff0219169083151502179055505b6107e733610ee2565b6107ef610ef6565b6107f7610f08565b856000806101000a81548173ffffffffffffffffffffffffffffffffffffffff021916908373ffffffffffffffffffffffffffffffffffffffff16021790555083156108935760008560000160086101000a81548160ff0219169083151502179055507fc7f505b2f371ae2175ee4913f4499e1f2633a7b5936321eed1cdaeb6115181d2600160405161088a9190611e65565b60405180910390a15b505050505050565b6108a3610921565b600073ffffffffffffffffffffffffffffffffffffffff168173ffffffffffffffffffffffffffffffffffffffff16036109155760006040517f1e4fbdf700000000000000000000000000000000000000000000000000000000815260040161090c9190611808565b60405180910390fd5b61091e81610cd9565b50565b610929610f12565b73ffffffffffffffffffffffffffffffffffffffff1661094761064b565b73ffffffffffffffffffffffffffffffffffffffff16146109a65761096a610f12565b6040517f118cdaa700000000000000000000000000000000000000000000000000000000815260040161099d9190611808565b60405180910390fd5b565b6109b0610f1a565b60006109ba610cb1565b905060008160000160006101000a81548160ff0219169083151502179055507f5db9ee0a495bf2e6ff9c91a7834c1ba4fdd244a5e8aa4e537bd38aeae4b073aa610a02610f12565b604051610a0f9190611808565b60405180910390a150565b7f000000000000000000000000000000000000000000000000000000000000000073ffffffffffffffffffffffffffffffffffffffff163073ffffffffffffffffffffffffffffffffffffffff161480610ac757507f000000000000000000000000000000000000000000000000000000000000000073ffffffffffffffffffffffffffffffffffffffff16610aae610f5a565b73ffffffffffffffffffffffffffffffffffffffff1614155b15610afe576040517fe07c8dba00000000000000000000000000000000000000000000000000000000815260040160405180910390fd5b565b610b08610921565b50565b8173ffffffffffffffffffffffffffffffffffffffff166352d1902d6040518163ffffffff1660e01b8152600401602060405180830381865afa925050508015610b7357506040513d601f19601f82011682018060405250810190610b709190611eac565b60015b610bb457816040517f4c9c8ce3000000000000000000000000000000000000000000000000000000008152600401610bab9190611808565b60405180910390fd5b7f360894a13ba1a3210667c828492db98dca3e2076cc3735a920a3ca505d382bbc60001b8114610c1b57806040517faa1d49a4000000000000000000000000000000000000000000000000000000008152600401610c1291906115d7565b60405180910390fd5b610c258383610fb1565b505050565b7f000000000000000000000000000000000000000000000000000000000000000073ffffffffffffffffffffffffffffffffffffffff163073ffffffffffffffffffffffffffffffffffffffff1614610caf576040517fe07c8dba00000000000000000000000000000000000000000000000000000000815260040160405180910390fd5b565b60007fcd5ed15c6e187e77e9aee88184c21f4f2182ab5827cb3b7e07fbedcd63f03300905090565b6000610ce3610e92565b905060008160000160009054906101000a900473ffffffffffffffffffffffffffffffffffffffff169050828260000160006101000a81548173ffffffffffffffffffffffffffffffffffffffff021916908373ffffffffffffffffffffffffffffffffffffffff1602179055508273ffffffffffffffffffffffffffffffffffffffff168173ffffffffffffffffffffffffffffffffffffffff167f8be0079c531659141344cd1fd0a4f28419497f9722a3daafe3b4186f6b6457e060405160405180910390a3505050565b610db8610e22565b6000610dc2610cb1565b905060018160000160006101000a81548160ff0219169083151502179055507f62e78cea01bee320cd4e420270b5ea74000d11b0c9f74754ebdbfc544b05a258610e0a610f12565b604051610e179190611808565b60405180910390a150565b610e2a610294565b15610e61576040517fd93c066500000000000000000000000000000000000000000000000000000000815260040160405180910390fd5b565b6000806000838501905084811015610e82576000809250925050610e8b565b60018192509250505b9250929050565b60007f9016d09d72d40fdae2fd8ceac6b6234c7706214fd39c1cd1e609a0528c199300905090565b60007ff0c57e16840df040f15088dc2f81fe391c3923bec73e23a9662efc9c229c6a00905090565b610eea611024565b610ef381611064565b50565b610efe611024565b610f066110ea565b565b610f10611024565b565b600033905090565b610f22610294565b610f58576040517f8dfc202b00000000000000000000000000000000000000000000000000000000815260040160405180910390fd5b565b6000610f887f360894a13ba1a3210667c828492db98dca3e2076cc3735a920a3ca505d382bbc60001b61111e565b60000160009054906101000a900473ffffffffffffffffffffffffffffffffffffffff16905090565b610fba82611128565b8173ffffffffffffffffffffffffffffffffffffffff167fbc7cd75a20ee27fd9adebab32041f755214dbc6bffa90cc0225b39da2e5c2d3b60405160405180910390a26000815111156110175761101182826111f5565b50611020565b61101f611279565b5b5050565b61102c6112b6565b611062576040517fd7e6bcf800000000000000000000000000000000000000000000000000000000815260040160405180910390fd5b565b61106c611024565b600073ffffffffffffffffffffffffffffffffffffffff168173ffffffffffffffffffffffffffffffffffffffff16036110de5760006040517f1e4fbdf70000000000000000000000000000000000000000000000000000000081526004016110d59190611808565b60405180910390fd5b6110e781610cd9565b50565b6110f2611024565b60006110fc610cb1565b905060008160000160006101000a81548160ff02191690831515021790555050565b6000819050919050565b60008173ffffffffffffffffffffffffffffffffffffffff163b0361118457806040517f4c9c8ce300000000000000000000000000000000000000000000000000000000815260040161117b9190611808565b60405180910390fd5b806111b17f360894a13ba1a3210667c828492db98dca3e2076cc3735a920a3ca505d382bbc60001b61111e565b60000160006101000a81548173ffffffffffffffffffffffffffffffffffffffff021916908373ffffffffffffffffffffffffffffffffffffffff16021790555050565b60606000808473ffffffffffffffffffffffffffffffffffffffff168460405161121f9190611f20565b600060405180830381855af49150503d806000811461125a576040519150601f19603f3d011682016040523d82523d6000602084013e61125f565b606091505b509150915061126f8583836112d6565b9250505092915050565b60003411156112b4576040517fb398979f00000000000000000000000000000000000000000000000000000000815260040160405180910390fd5b565b60006112c0610eba565b60000160089054906101000a900460ff16905090565b6060826112eb576112e682611365565b61135d565b60008251148015611313575060008473ffffffffffffffffffffffffffffffffffffffff163b145b1561135557836040517f9996b31500000000000000000000000000000000000000000000000000000000815260040161134c9190611808565b60405180910390fd5b81905061135e565b5b9392505050565b6000815111156113785780518082602001fd5b6040517f1425ea4200000000000000000000000000000000000000000000000000000000815260040160405180910390fd5b6000604051905090565b600080fd5b600080fd5b600073ffffffffffffffffffffffffffffffffffffffff82169050919050565b60006113e9826113be565b9050919050565b6113f9816113de565b811461140457600080fd5b50565b600081359050611416816113f0565b92915050565b600080fd5b600080fd5b6000601f19601f8301169050919050565b7f4e487b7100000000000000000000000000000000000000000000000000000000600052604160045260246000fd5b61146f82611426565b810181811067ffffffffffffffff8211171561148e5761148d611437565b5b80604052505050565b60006114a16113aa565b90506114ad8282611466565b919050565b600067ffffffffffffffff8211156114cd576114cc611437565b5b6114d682611426565b9050602081019050919050565b82818337600083830152505050565b6000611505611500846114b2565b611497565b90508281526020810184848401111561152157611520611421565b5b61152c8482856114e3565b509392505050565b600082601f8301126115495761154861141c565b5b81356115598482602086016114f2565b91505092915050565b60008060408385031215611579576115786113b4565b5b600061158785828601611407565b925050602083013567ffffffffffffffff8111156115a8576115a76113b9565b5b6115b485828601611534565b9150509250929050565b6000819050919050565b6115d1816115be565b82525050565b60006020820190506115ec60008301846115c8565b92915050565b60008115159050919050565b611607816115f2565b82525050565b600060208201905061162260008301846115fe565b92915050565b6000819050919050565b61163b81611628565b811461164657600080fd5b50565b60008135905061165881611632565b92915050565b600080fd5b600080fd5b600067ffffffffffffffff82111561168357611682611437565b5b61168c82611426565b9050602081019050919050565b60006116ac6116a784611668565b611497565b9050828152602081018484840111156116c8576116c7611421565b5b6116d38482856114e3565b509392505050565b600082601f8301126116f0576116ef61141c565b5b8135611700848260208601611699565b91505092915050565b60006080828403121561171f5761171e61165e565b5b6117296080611497565b9050600061173984828501611407565b600083015250602061174d84828501611649565b602083015250604061176184828501611649565b604083015250606082013567ffffffffffffffff81111561178557611784611663565b5b611791848285016116db565b60608301525092915050565b600080604083850312156117b4576117b36113b4565b5b60006117c285828601611649565b925050602083013567ffffffffffffffff8111156117e3576117e26113b9565b5b6117ef85828601611709565b9150509250929050565b611802816113de565b82525050565b600060208201905061181d60008301846117f9565b92915050565b600081519050919050565b600082825260208201905092915050565b60005b8381101561185d578082015181840152602081019050611842565b60008484015250505050565b600061187482611823565b61187e818561182e565b935061188e81856020860161183f565b61189781611426565b840191505092915050565b600060208201905081810360008301526118bc8184611869565b905092915050565b6000602082840312156118da576118d96113b4565b5b60006118e884828501611407565b91505092915050565b7f416d6f756e74206d7573742062652067726561746572207468616e207a65726f600082015250565b600061192760208361182e565b9150611932826118f1565b602082019050919050565b600060208201905081810360008301526119568161191a565b9050919050565b7f4669617420616d6f756e7420697320696e76616c696400000000000000000000600082015250565b600061199360168361182e565b915061199e8261195d565b602082019050919050565b600060208201905081810360008301526119c281611986565b9050919050565b6119d281611628565b82525050565b60006020820190506119ed60008301846119c9565b92915050565b600081519050611a0281611632565b92915050565b600081519050611a17816113f0565b92915050565b600060a08284031215611a3357611a3261165e565b5b611a3d60a0611497565b90506000611a4d848285016119f3565b6000830152506020611a6184828501611a08565b6020830152506040611a7584828501611a08565b6040830152506060611a8984828501611a08565b6060830152506080611a9d848285016119f3565b60808301525092915050565b600060a08284031215611abf57611abe6113b4565b5b6000611acd84828501611a1d565b91505092915050565b6000604082019050611aeb60008301856119c9565b8181036020830152611afd8184611869565b90509392505050565b611b0f816115f2565b8114611b1a57600080fd5b50565b600081519050611b2c81611b06565b92915050565b600060208284031215611b4857611b476113b4565b5b6000611b5684828501611b1d565b91505092915050565b7f726566206e6f7420696e20726567697374727900000000000000000000000000600082015250565b6000611b9560138361182e565b9150611ba082611b5f565b602082019050919050565b60006020820190508181036000830152611bc481611b88565b9050919050565b7f4f766572666c6f77207768696c6520616464696e672066656520616e6420616d60008201527f6f756e7400000000000000000000000000000000000000000000000000000000602082015250565b6000611c2760248361182e565b9150611c3282611bcb565b604082019050919050565b60006020820190508181036000830152611c5681611c1a565b9050919050565b7f5472616e73616374696f6e20746f74616c20646f6573206e6f74206d6174636860008201527f20666565202b20616d6f756e742e000000000000000000000000000000000000602082015250565b6000611cb9602e8361182e565b9150611cc482611c5d565b604082019050919050565b60006020820190508181036000830152611ce881611cac565b9050919050565b611cf8816113de565b82525050565b611d0781611628565b82525050565b600082825260208201905092915050565b6000611d2982611823565b611d338185611d0d565b9350611d4381856020860161183f565b611d4c81611426565b840191505092915050565b6000608083016000830151611d6f6000860182611cef565b506020830151611d826020860182611cfe565b506040830151611d956040860182611cfe565b5060608301518482036060860152611dad8282611d1e565b9150508091505092915050565b60006020820190508181036000830152611dd48184611d57565b905092915050565b6000604082019050611df160008301856119c9565b8181036020830152611e038184611d57565b90509392505050565b6000819050919050565b600067ffffffffffffffff82169050919050565b6000819050919050565b6000611e4f611e4a611e4584611e0c565b611e2a565b611e16565b9050919050565b611e5f81611e34565b82525050565b6000602082019050611e7a6000830184611e56565b92915050565b611e89816115be565b8114611e9457600080fd5b50565b600081519050611ea681611e80565b92915050565b600060208284031215611ec257611ec16113b4565b5b6000611ed084828501611e97565b91505092915050565b600081519050919050565b600081905092915050565b6000611efa82611ed9565b611f048185611ee4565b9350611f1481856020860161183f565b80840191505092915050565b6000611f2c8284611eef565b91508190509291505056fea2646970667358221220c9d26903638b44a4c1a504a990b5e34699d4dbe0f9565b6633b475e3947b448164736f6c63430008140033",
  "linkReferences": {},
  "deployedLinkReferences": {}
}