{
  "_format": "hh-sol-artifact-1",
  "contractName": "BandoERC20RouterV1",
  "sourceName": "contracts/BandoERC20RouterV1.sol",
  "abi": [
    {
      "inputs": [
        {
          "internalType": "address",
          "name": "target",
          "type": "address"
        }
      ],
      "name": "AddressEmptyCode",
      "type": "error"
    },
    {
      "inputs": [
        {
          "internalType": "address",
          "name": "implementation",
          "type": "address"
        }
      ],
      "name": "ERC1967InvalidImplementation",
      "type": "error"
    },
    {
      "inputs": [],
      "name": "ERC1967NonPayable",
      "type": "error"
    },
    {
      "inputs": [],
      "name": "EnforcedPause",
      "type": "error"
    },
    {
      "inputs": [],
      "name": "ExpectedPause",
      "type": "error"
    },
    {
      "inputs": [],
      "name": "FailedInnerCall",
      "type": "error"
    },
    {
      "inputs": [],
      "name": "InvalidInitialization",
      "type": "error"
    },
    {
      "inputs": [],
      "name": "NotInitializing",
      "type": "error"
    },
    {
      "inputs": [
        {
          "internalType": "address",
          "name": "owner",
          "type": "address"
        }
      ],
      "name": "OwnableInvalidOwner",
      "type": "error"
    },
    {
      "inputs": [
        {
          "internalType": "address",
          "name": "account",
          "type": "address"
        }
      ],
      "name": "OwnableUnauthorizedAccount",
      "type": "error"
    },
    {
      "inputs": [],
      "name": "UUPSUnauthorizedCallContext",
      "type": "error"
    },
    {
      "inputs": [
        {
          "internalType": "bytes32",
          "name": "slot",
          "type": "bytes32"
        }
      ],
      "name": "UUPSUnsupportedProxiableUUID",
      "type": "error"
    },
    {
      "anonymous": false,
      "inputs": [
        {
          "indexed": false,
          "internalType": "uint64",
          "name": "version",
          "type": "uint64"
        }
      ],
      "name": "Initialized",
      "type": "event"
    },
    {
      "anonymous": false,
      "inputs": [
        {
          "indexed": true,
          "internalType": "address",
          "name": "previousOwner",
          "type": "address"
        },
        {
          "indexed": true,
          "internalType": "address",
          "name": "newOwner",
          "type": "address"
        }
      ],
      "name": "OwnershipTransferred",
      "type": "event"
    },
    {
      "anonymous": false,
      "inputs": [
        {
          "indexed": false,
          "internalType": "address",
          "name": "account",
          "type": "address"
        }
      ],
      "name": "Paused",
      "type": "event"
    },
    {
      "anonymous": false,
      "inputs": [
        {
          "indexed": false,
          "internalType": "uint256",
          "name": "serviceID",
          "type": "uint256"
        },
        {
          "indexed": false,
          "internalType": "string",
          "name": "serviceRef",
          "type": "string"
        }
      ],
      "name": "RefValidationFailed",
      "type": "event"
    },
    {
      "anonymous": false,
      "inputs": [
        {
          "indexed": false,
          "internalType": "uint256",
          "name": "serviceID",
          "type": "uint256"
        },
        {
          "components": [
            {
              "internalType": "address",
              "name": "payer",
              "type": "address"
            },
            {
              "internalType": "address",
              "name": "token",
              "type": "address"
            },
            {
              "internalType": "uint256",
              "name": "tokenAmount",
              "type": "uint256"
            },
            {
              "internalType": "uint256",
              "name": "fiatAmount",
              "type": "uint256"
            },
            {
              "internalType": "string",
              "name": "serviceRef",
              "type": "string"
            }
          ],
          "indexed": false,
          "internalType": "struct ERC20FulFillmentRequest",
          "name": "request",
          "type": "tuple"
        }
      ],
      "name": "ServiceRequested",
      "type": "event"
    },
    {
      "anonymous": false,
      "inputs": [
        {
          "indexed": false,
          "internalType": "address",
          "name": "account",
          "type": "address"
        }
      ],
      "name": "Unpaused",
      "type": "event"
    },
    {
      "anonymous": false,
      "inputs": [
        {
          "indexed": true,
          "internalType": "address",
          "name": "implementation",
          "type": "address"
        }
      ],
      "name": "Upgraded",
      "type": "event"
    },
    {
      "inputs": [],
      "name": "UPGRADE_INTERFACE_VERSION",
      "outputs": [
        {
          "internalType": "string",
          "name": "",
          "type": "string"
        }
      ],
      "stateMutability": "view",
      "type": "function"
    },
    {
      "inputs": [
        {
          "internalType": "address",
          "name": "serviceRegistry",
          "type": "address"
        },
        {
          "internalType": "address",
          "name": "tokenRegistry",
          "type": "address"
        }
      ],
      "name": "initialize",
      "outputs": [],
      "stateMutability": "nonpayable",
      "type": "function"
    },
    {
      "inputs": [],
      "name": "owner",
      "outputs": [
        {
          "internalType": "address",
          "name": "",
          "type": "address"
        }
      ],
      "stateMutability": "view",
      "type": "function"
    },
    {
      "inputs": [],
      "name": "pause",
      "outputs": [],
      "stateMutability": "nonpayable",
      "type": "function"
    },
    {
      "inputs": [],
      "name": "paused",
      "outputs": [
        {
          "internalType": "bool",
          "name": "",
          "type": "bool"
        }
      ],
      "stateMutability": "view",
      "type": "function"
    },
    {
      "inputs": [],
      "name": "proxiableUUID",
      "outputs": [
        {
          "internalType": "bytes32",
          "name": "",
          "type": "bytes32"
        }
      ],
      "stateMutability": "view",
      "type": "function"
    },
    {
      "inputs": [],
      "name": "renounceOwnership",
      "outputs": [],
      "stateMutability": "nonpayable",
      "type": "function"
    },
    {
      "inputs": [
        {
          "internalType": "uint256",
          "name": "serviceID",
          "type": "uint256"
        },
        {
          "components": [
            {
              "internalType": "address",
              "name": "payer",
              "type": "address"
            },
            {
              "internalType": "address",
              "name": "token",
              "type": "address"
            },
            {
              "internalType": "uint256",
              "name": "tokenAmount",
              "type": "uint256"
            },
            {
              "internalType": "uint256",
              "name": "fiatAmount",
              "type": "uint256"
            },
            {
              "internalType": "string",
              "name": "serviceRef",
              "type": "string"
            }
          ],
          "internalType": "struct ERC20FulFillmentRequest",
          "name": "request",
          "type": "tuple"
        }
      ],
      "name": "requestService",
      "outputs": [
        {
          "internalType": "bool",
          "name": "",
          "type": "bool"
        }
      ],
      "stateMutability": "payable",
      "type": "function"
    },
    {
      "inputs": [
        {
          "internalType": "address",
          "name": "newOwner",
          "type": "address"
        }
      ],
      "name": "transferOwnership",
      "outputs": [],
      "stateMutability": "nonpayable",
      "type": "function"
    },
    {
      "inputs": [],
      "name": "unpause",
      "outputs": [],
      "stateMutability": "nonpayable",
      "type": "function"
    },
    {
      "inputs": [
        {
          "internalType": "address",
          "name": "newImplementation",
          "type": "address"
        },
        {
          "internalType": "bytes",
          "name": "data",
          "type": "bytes"
        }
      ],
      "name": "upgradeToAndCall",
      "outputs": [],
      "stateMutability": "payable",
      "type": "function"
    }
  ],
  "bytecode": "0x60a06040523073ffffffffffffffffffffffffffffffffffffffff1660809073ffffffffffffffffffffffffffffffffffffffff1681525034801561004357600080fd5b5060805161201961006d60003960008181610b2901528181610b7e0152610d3901526120196000f3fe60806040526004361061009c5760003560e01c80635c975abb116100645780635c975abb14610158578063715018a6146101835780638456cb591461019a5780638da5cb5b146101b1578063ad3cb1cc146101dc578063f2fde38b146102075761009c565b806320b26492146100a15780633f4ba83a146100d1578063485cc955146100e85780634f1ef2861461011157806352d1902d1461012d575b600080fd5b6100bb60048036038101906100b6919061168f565b610230565b6040516100c89190611706565b60405180910390f35b3480156100dd57600080fd5b506100e661059f565b005b3480156100f457600080fd5b5061010f600480360381019061010a9190611721565b6105b1565b005b61012b60048036038101906101269190611802565b6107d2565b005b34801561013957600080fd5b506101426107f1565b60405161014f9190611877565b60405180910390f35b34801561016457600080fd5b5061016d610824565b60405161017a9190611706565b60405180910390f35b34801561018f57600080fd5b50610198610849565b005b3480156101a657600080fd5b506101af61085d565b005b3480156101bd57600080fd5b506101c661086f565b6040516101d391906118a1565b60405180910390f35b3480156101e857600080fd5b506101f16108a7565b6040516101fe919061193b565b60405180910390f35b34801561021357600080fd5b5061022e6004803603810190610229919061195d565b6108e0565b005b600061023a610966565b6000826040015111610281576040517f08c379a0000000000000000000000000000000000000000000000000000000008152600401610278906119d6565b60405180910390fd5b60008260600151116102c8576040517f08c379a00000000000000000000000000000000000000000000000000000000081526004016102bf90611a42565b60405180910390fd5b60008060009054906101000a900473ffffffffffffffffffffffffffffffffffffffff1673ffffffffffffffffffffffffffffffffffffffff1663ef0e239b856040518263ffffffff1660e01b81526004016103249190611a71565b60a060405180830381865afa158015610341573d6000803e3d6000fd5b505050506040513d601f19601f820116820180604052508101906103659190611b42565b905060008054906101000a900473ffffffffffffffffffffffffffffffffffffffff1673ffffffffffffffffffffffffffffffffffffffff1663d4a247038585608001516040518363ffffffff1660e01b81526004016103c6929190611b6f565b602060405180830381865afa1580156103e3573d6000803e3d6000fd5b505050506040513d601f19601f820116820180604052508101906104079190611bcb565b610446576040517f08c379a000000000000000000000000000000000000000000000000000000000815260040161043d90611c44565b60405180910390fd5b600080610464836080015186604001516109a790919063ffffffff16565b91509150816104a8576040517f08c379a000000000000000000000000000000000000000000000000000000000815260040161049f90611cd6565b60405180910390fd5b8034146104ea576040517f08c379a00000000000000000000000000000000000000000000000000000000081526004016104e190611d68565b60405180910390fd5b826040015173ffffffffffffffffffffffffffffffffffffffff1663bf583522866040518263ffffffff1660e01b81526004016105279190611e66565b600060405180830381600087803b15801561054157600080fd5b505af1158015610555573d6000803e3d6000fd5b505050507f1b7b819db7287f3bfdecace8b603b05833a2248b7e9a87a15a7e85054fa3c102868660405161058a929190611e88565b60405180910390a16001935050505092915050565b6105a76109d6565b6105af610a5d565b565b60006105bb610acf565b905060008160000160089054906101000a900460ff1615905060008260000160009054906101000a900467ffffffffffffffff1690506000808267ffffffffffffffff161480156106095750825b9050600060018367ffffffffffffffff1614801561063e575060003073ffffffffffffffffffffffffffffffffffffffff163b145b90508115801561064c575080155b15610683576040517ff92ee8a900000000000000000000000000000000000000000000000000000000815260040160405180910390fd5b60018560000160006101000a81548167ffffffffffffffff021916908367ffffffffffffffff16021790555083156106d35760018560000160086101000a81548160ff0219169083151502179055505b6106dc33610af7565b6106e4610b0b565b6106ec610b1d565b866000806101000a81548173ffffffffffffffffffffffffffffffffffffffff021916908373ffffffffffffffffffffffffffffffffffffffff16021790555085600160006101000a81548173ffffffffffffffffffffffffffffffffffffffff021916908373ffffffffffffffffffffffffffffffffffffffff16021790555083156107c95760008560000160086101000a81548160ff0219169083151502179055507fc7f505b2f371ae2175ee4913f4499e1f2633a7b5936321eed1cdaeb6115181d260016040516107c09190611f11565b60405180910390a15b50505050505050565b6107da610b27565b6107e382610c0d565b6107ed8282610c18565b5050565b60006107fb610d37565b7f360894a13ba1a3210667c828492db98dca3e2076cc3735a920a3ca505d382bbc60001b905090565b60008061082f610dbe565b90508060000160009054906101000a900460ff1691505090565b6108516109d6565b61085b6000610de6565b565b6108656109d6565b61086d610ebd565b565b60008061087a610f2f565b90508060000160009054906101000a900473ffffffffffffffffffffffffffffffffffffffff1691505090565b6040518060400160405280600581526020017f352e302e3000000000000000000000000000000000000000000000000000000081525081565b6108e86109d6565b600073ffffffffffffffffffffffffffffffffffffffff168173ffffffffffffffffffffffffffffffffffffffff160361095a5760006040517f1e4fbdf700000000000000000000000000000000000000000000000000000000815260040161095191906118a1565b60405180910390fd5b61096381610de6565b50565b61096e610824565b156109a5576040517fd93c066500000000000000000000000000000000000000000000000000000000815260040160405180910390fd5b565b60008060008385019050848110156109c65760008092509250506109cf565b60018192509250505b9250929050565b6109de610f57565b73ffffffffffffffffffffffffffffffffffffffff166109fc61086f565b73ffffffffffffffffffffffffffffffffffffffff1614610a5b57610a1f610f57565b6040517f118cdaa7000000000000000000000000000000000000000000000000000000008152600401610a5291906118a1565b60405180910390fd5b565b610a65610f5f565b6000610a6f610dbe565b905060008160000160006101000a81548160ff0219169083151502179055507f5db9ee0a495bf2e6ff9c91a7834c1ba4fdd244a5e8aa4e537bd38aeae4b073aa610ab7610f57565b604051610ac491906118a1565b60405180910390a150565b60007ff0c57e16840df040f15088dc2f81fe391c3923bec73e23a9662efc9c229c6a00905090565b610aff610f9f565b610b0881610fdf565b50565b610b13610f9f565b610b1b611065565b565b610b25610f9f565b565b7f000000000000000000000000000000000000000000000000000000000000000073ffffffffffffffffffffffffffffffffffffffff163073ffffffffffffffffffffffffffffffffffffffff161480610bd457507f000000000000000000000000000000000000000000000000000000000000000073ffffffffffffffffffffffffffffffffffffffff16610bbb611099565b73ffffffffffffffffffffffffffffffffffffffff1614155b15610c0b576040517fe07c8dba00000000000000000000000000000000000000000000000000000000815260040160405180910390fd5b565b610c156109d6565b50565b8173ffffffffffffffffffffffffffffffffffffffff166352d1902d6040518163ffffffff1660e01b8152600401602060405180830381865afa925050508015610c8057506040513d601f19601f82011682018060405250810190610c7d9190611f58565b60015b610cc157816040517f4c9c8ce3000000000000000000000000000000000000000000000000000000008152600401610cb891906118a1565b60405180910390fd5b7f360894a13ba1a3210667c828492db98dca3e2076cc3735a920a3ca505d382bbc60001b8114610d2857806040517faa1d49a4000000000000000000000000000000000000000000000000000000008152600401610d1f9190611877565b60405180910390fd5b610d3283836110f0565b505050565b7f000000000000000000000000000000000000000000000000000000000000000073ffffffffffffffffffffffffffffffffffffffff163073ffffffffffffffffffffffffffffffffffffffff1614610dbc576040517fe07c8dba00000000000000000000000000000000000000000000000000000000815260040160405180910390fd5b565b60007fcd5ed15c6e187e77e9aee88184c21f4f2182ab5827cb3b7e07fbedcd63f03300905090565b6000610df0610f2f565b905060008160000160009054906101000a900473ffffffffffffffffffffffffffffffffffffffff169050828260000160006101000a81548173ffffffffffffffffffffffffffffffffffffffff021916908373ffffffffffffffffffffffffffffffffffffffff1602179055508273ffffffffffffffffffffffffffffffffffffffff168173ffffffffffffffffffffffffffffffffffffffff167f8be0079c531659141344cd1fd0a4f28419497f9722a3daafe3b4186f6b6457e060405160405180910390a3505050565b610ec5610966565b6000610ecf610dbe565b905060018160000160006101000a81548160ff0219169083151502179055507f62e78cea01bee320cd4e420270b5ea74000d11b0c9f74754ebdbfc544b05a258610f17610f57565b604051610f2491906118a1565b60405180910390a150565b60007f9016d09d72d40fdae2fd8ceac6b6234c7706214fd39c1cd1e609a0528c199300905090565b600033905090565b610f67610824565b610f9d576040517f8dfc202b00000000000000000000000000000000000000000000000000000000815260040160405180910390fd5b565b610fa7611163565b610fdd576040517fd7e6bcf800000000000000000000000000000000000000000000000000000000815260040160405180910390fd5b565b610fe7610f9f565b600073ffffffffffffffffffffffffffffffffffffffff168173ffffffffffffffffffffffffffffffffffffffff16036110595760006040517f1e4fbdf700000000000000000000000000000000000000000000000000000000815260040161105091906118a1565b60405180910390fd5b61106281610de6565b50565b61106d610f9f565b6000611077610dbe565b905060008160000160006101000a81548160ff02191690831515021790555050565b60006110c77f360894a13ba1a3210667c828492db98dca3e2076cc3735a920a3ca505d382bbc60001b611183565b60000160009054906101000a900473ffffffffffffffffffffffffffffffffffffffff16905090565b6110f98261118d565b8173ffffffffffffffffffffffffffffffffffffffff167fbc7cd75a20ee27fd9adebab32041f755214dbc6bffa90cc0225b39da2e5c2d3b60405160405180910390a260008151111561115657611150828261125a565b5061115f565b61115e6112de565b5b5050565b600061116d610acf565b60000160089054906101000a900460ff16905090565b6000819050919050565b60008173ffffffffffffffffffffffffffffffffffffffff163b036111e957806040517f4c9c8ce30000000000000000000000000000000000000000000000000000000081526004016111e091906118a1565b60405180910390fd5b806112167f360894a13ba1a3210667c828492db98dca3e2076cc3735a920a3ca505d382bbc60001b611183565b60000160006101000a81548173ffffffffffffffffffffffffffffffffffffffff021916908373ffffffffffffffffffffffffffffffffffffffff16021790555050565b60606000808473ffffffffffffffffffffffffffffffffffffffff16846040516112849190611fcc565b600060405180830381855af49150503d80600081146112bf576040519150601f19603f3d011682016040523d82523d6000602084013e6112c4565b606091505b50915091506112d485838361131b565b9250505092915050565b6000341115611319576040517fb398979f00000000000000000000000000000000000000000000000000000000815260040160405180910390fd5b565b6060826113305761132b826113aa565b6113a2565b60008251148015611358575060008473ffffffffffffffffffffffffffffffffffffffff163b145b1561139a57836040517f9996b31500000000000000000000000000000000000000000000000000000000815260040161139191906118a1565b60405180910390fd5b8190506113a3565b5b9392505050565b6000815111156113bd5780518082602001fd5b6040517f1425ea4200000000000000000000000000000000000000000000000000000000815260040160405180910390fd5b6000604051905090565b600080fd5b600080fd5b6000819050919050565b61141681611403565b811461142157600080fd5b50565b6000813590506114338161140d565b92915050565b600080fd5b6000601f19601f8301169050919050565b7f4e487b7100000000000000000000000000000000000000000000000000000000600052604160045260246000fd5b6114878261143e565b810181811067ffffffffffffffff821117156114a6576114a561144f565b5b80604052505050565b60006114b96113ef565b90506114c5828261147e565b919050565b600080fd5b600073ffffffffffffffffffffffffffffffffffffffff82169050919050565b60006114fa826114cf565b9050919050565b61150a816114ef565b811461151557600080fd5b50565b60008135905061152781611501565b92915050565b600080fd5b600080fd5b600067ffffffffffffffff8211156115525761155161144f565b5b61155b8261143e565b9050602081019050919050565b82818337600083830152505050565b600061158a61158584611537565b6114af565b9050828152602081018484840111156115a6576115a5611532565b5b6115b1848285611568565b509392505050565b600082601f8301126115ce576115cd61152d565b5b81356115de848260208601611577565b91505092915050565b600060a082840312156115fd576115fc611439565b5b61160760a06114af565b9050600061161784828501611518565b600083015250602061162b84828501611518565b602083015250604061163f84828501611424565b604083015250606061165384828501611424565b606083015250608082013567ffffffffffffffff811115611677576116766114ca565b5b611683848285016115b9565b60808301525092915050565b600080604083850312156116a6576116a56113f9565b5b60006116b485828601611424565b925050602083013567ffffffffffffffff8111156116d5576116d46113fe565b5b6116e1858286016115e7565b9150509250929050565b60008115159050919050565b611700816116eb565b82525050565b600060208201905061171b60008301846116f7565b92915050565b60008060408385031215611738576117376113f9565b5b600061174685828601611518565b925050602061175785828601611518565b9150509250929050565b600067ffffffffffffffff82111561177c5761177b61144f565b5b6117858261143e565b9050602081019050919050565b60006117a56117a084611761565b6114af565b9050828152602081018484840111156117c1576117c0611532565b5b6117cc848285611568565b509392505050565b600082601f8301126117e9576117e861152d565b5b81356117f9848260208601611792565b91505092915050565b60008060408385031215611819576118186113f9565b5b600061182785828601611518565b925050602083013567ffffffffffffffff811115611848576118476113fe565b5b611854858286016117d4565b9150509250929050565b6000819050919050565b6118718161185e565b82525050565b600060208201905061188c6000830184611868565b92915050565b61189b816114ef565b82525050565b60006020820190506118b66000830184611892565b92915050565b600081519050919050565b600082825260208201905092915050565b60005b838110156118f65780820151818401526020810190506118db565b60008484015250505050565b600061190d826118bc565b61191781856118c7565b93506119278185602086016118d8565b6119308161143e565b840191505092915050565b600060208201905081810360008301526119558184611902565b905092915050565b600060208284031215611973576119726113f9565b5b600061198184828501611518565b91505092915050565b7f416d6f756e74206d7573742062652067726561746572207468616e207a65726f600082015250565b60006119c06020836118c7565b91506119cb8261198a565b602082019050919050565b600060208201905081810360008301526119ef816119b3565b9050919050565b7f4669617420616d6f756e7420697320696e76616c696400000000000000000000600082015250565b6000611a2c6016836118c7565b9150611a37826119f6565b602082019050919050565b60006020820190508181036000830152611a5b81611a1f565b9050919050565b611a6b81611403565b82525050565b6000602082019050611a866000830184611a62565b92915050565b600081519050611a9b8161140d565b92915050565b600081519050611ab081611501565b92915050565b600060a08284031215611acc57611acb611439565b5b611ad660a06114af565b90506000611ae684828501611a8c565b6000830152506020611afa84828501611aa1565b6020830152506040611b0e84828501611aa1565b6040830152506060611b2284828501611aa1565b6060830152506080611b3684828501611a8c565b60808301525092915050565b600060a08284031215611b5857611b576113f9565b5b6000611b6684828501611ab6565b91505092915050565b6000604082019050611b846000830185611a62565b8181036020830152611b968184611902565b90509392505050565b611ba8816116eb565b8114611bb357600080fd5b50565b600081519050611bc581611b9f565b92915050565b600060208284031215611be157611be06113f9565b5b6000611bef84828501611bb6565b91505092915050565b7f726566206e6f7420696e20726567697374727900000000000000000000000000600082015250565b6000611c2e6013836118c7565b9150611c3982611bf8565b602082019050919050565b60006020820190508181036000830152611c5d81611c21565b9050919050565b7f4f766572666c6f77207768696c6520616464696e672066656520616e6420616d60008201527f6f756e7400000000000000000000000000000000000000000000000000000000602082015250565b6000611cc06024836118c7565b9150611ccb82611c64565b604082019050919050565b60006020820190508181036000830152611cef81611cb3565b9050919050565b7f5472616e73616374696f6e20746f74616c20646f6573206e6f74206d6174636860008201527f20666565202b20616d6f756e742e000000000000000000000000000000000000602082015250565b6000611d52602e836118c7565b9150611d5d82611cf6565b604082019050919050565b60006020820190508181036000830152611d8181611d45565b9050919050565b611d91816114ef565b82525050565b611da081611403565b82525050565b600082825260208201905092915050565b6000611dc2826118bc565b611dcc8185611da6565b9350611ddc8185602086016118d8565b611de58161143e565b840191505092915050565b600060a083016000830151611e086000860182611d88565b506020830151611e1b6020860182611d88565b506040830151611e2e6040860182611d97565b506060830151611e416060860182611d97565b5060808301518482036080860152611e598282611db7565b9150508091505092915050565b60006020820190508181036000830152611e808184611df0565b905092915050565b6000604082019050611e9d6000830185611a62565b8181036020830152611eaf8184611df0565b90509392505050565b6000819050919050565b600067ffffffffffffffff82169050919050565b6000819050919050565b6000611efb611ef6611ef184611eb8565b611ed6565b611ec2565b9050919050565b611f0b81611ee0565b82525050565b6000602082019050611f266000830184611f02565b92915050565b611f358161185e565b8114611f4057600080fd5b50565b600081519050611f5281611f2c565b92915050565b600060208284031215611f6e57611f6d6113f9565b5b6000611f7c84828501611f43565b91505092915050565b600081519050919050565b600081905092915050565b6000611fa682611f85565b611fb08185611f90565b9350611fc08185602086016118d8565b80840191505092915050565b6000611fd88284611f9b565b91508190509291505056fea26469706673582212208d182d57c59f4771b88671b91d454a3f6344fb530c7f6f71c59b31d0c8ba7e4c64736f6c63430008140033",
  "linkReferences": {},
  "deployedLinkReferences": {}
}